:10000000000002205508000081080000810800005F
:1000100081080000810800008108000081080000BC
:1000200081080000810800008108000081080000AC
:10003000810800008008000081080000810800009D
:10004000CD5300001D9D01008108000081080000C3
:10005000C1960100899D0100299D0100419D01007B
:10006000219D0100954A0000F94C000059560000FE
:10007000911400008108000069A8010081080000B7
:100080008108000081080000214D000019AE010028
:10009000810800008108000081080000810800003C
:1000A000810800008108000081080000810800002C
:1000B0008D9D0100259D0100794E0000CD9D010020
:1000C00081080000454F0100810800008108000000
:1000D00081080000810800008108000081080000FC
:1000E00081080000810800008108000081080000EC
:1000F00081080000810800008108000081080000DC
:1001000081080000810800008108000010B5054C3E
:10011000237833B9044B13B10448AFF300800123B3
:10012000237010BDD818002000000000C8D10200C4
:1001300008B5034B1BB103490348AFF3008008BD6A
:1001400000000000DC180020C8D10200154B002B75
:1001500008BF134B9D46A3F5803A00218B460F46FE
:100160001348144A121A1CF050FC0F4B002B00D0FD
:1001700098470E4B002B00D0984700200021040028
:100180000D000D48002802D00C48AFF300801CF091
:10019000E5FB200029000FF00FF91CF0B9FB00BFB0
:1001A0000000080000000220000000000000000025
:1001B000D81800200C4300200000000000000000C0
:1001C00080B586B000AFF860B9607A603B6000230C
:1001D0007B617B6803333A689A4210D26FF00A035E
:1001E00079E0BB685A1CBA607A69511C7961114682
:1001F000FA680A441B7813707B68013B7B607B685C
:10020000002B03D0BB681B780A2BEAD07B695A1CF1
:100210007A611A46FB6813447B221A707B69FA687C
:1002200013447A68B96818461CF0CBFB7A697B687E
:1002300013447B617B695A1C7A611A46FB6813443C
:100240007D221A707B69FA68134400221A703A21E1
:10025000F8681DF0D3FB38613B69002B06D197F895
:100260002030002B02D16FF00B0334E03B69002BF0
:1002700001D17B692FE03B6901333A2118461DF01B
:10028000BDFB0346002B02D06FF00C0323E097F870
:100290002030012B0ED13A69FB68D31A7A69D31A40
:1002A0007B61FB68581C3B6901337A6919461CF075
:1002B00093FB0FE097F82030022B0BD13B697D2296
:1002C0001A703B69013300221A703A69FB68D31A2D
:1002D00001337B617B6918461837BD4680BD00003D
:1002E00080B58CB002AFB9607A601A460346FB73E2
:1002F0001346BB73BB687B62BB683B620023FB6138
:100300000023BB6128E02C21386A1DF077FB78625E
:100310007B6A002B04D07A6A3B6AD31A7B6103E0C4
:10032000386A1DF082FB7861FB691B4A9818FB69EB
:10033000C3F58072FB7B009313467A69396AFFF735
:100340003FFFB861BB69002B0ADBBB69FA69134444
:10035000FB617B6A01333B627B6A002BD3D100E0F7
:1003600000BF79680C481EF0DBFBBB69002B06DA86
:10037000BB695B42194609481DF08CF901E0002376
:10038000BB61BB7B002B02D005481DF00BFABB699B
:1003900018462837BD4680BDF4180020E817020033
:1003A0000018020080B483B000AF0346FB71044A1A
:1003B000FB79137000BF0C37BD465DF8047B7047B6
:1003C000000000200EB480B585B000AF7860174BF8
:1003D0001B78DBB283F00103DBB2002B01D00123D9
:1003E0001CE007F12003FB6023201DF06BF9786807
:1003F00000F082F8034683F00103DBB2002B01D04A
:1004000000230BE00123FA68F9690220FFF768FF77
:100410000346002B01D0002300E0012318461437C7
:10042000BD46BDE8804003B0704700BF000000201B
:100430000FB480B582B000AF154B1B78DBB283F0F0
:100440000103DBB2002B01D0012319E007F11403F3
:100450007B60002000F050F8034683F00103DBB21C
:10046000002B01D000230BE001237A6839690120B9
:10047000FFF736FF0346002B01D0002300E00123E5
:1004800018460837BD46BDE8804004B0704700BF3D
:10049000000000200EB480B585B000AF7860154B29
:1004A0001B78DBB283F00103DBB2002B01D0012308
:1004B00019E007F12003FB60786800F01DF803469F
:1004C00083F00103DBB2002B01D000230BE00123FA
:1004D000FA68F9690020FFF703FF0346002B01D0FB
:1004E000002300E0012318461437BD46BDE88040D4
:1004F00003B070470000002080B582B000AF786084
:100500000C4B1B78DBB283F00103DBB2002B01D074
:1005100001230AE07B201DF0D5F87B68002B03D077
:10052000796805481DF0B6F8012318460837BD461E
:1005300080BD00BF00000020041802000FB480B589
:1005400082B000AF0F4B1B78DBB283F00103DBB24C
:10055000002B01D001230EE007F114037B60002380
:100560007A6839690020FFF7BBFE0346002B01D0F3
:10057000002300E0012318460837BD46BDE880404F
:1005800004B07047000000200FB480B582B000AF07
:100590000F4B1B78DBB283F00103DBB2002B01D0E1
:1005A00001230EE007F114037B6001237A683969A7
:1005B0000020FFF795FE0346002B01D0002300E04A
:1005C000012318460837BD46BDE8804004B0704797
:1005D000000000200CB480B584B000AF78600B46FA
:1005E000FB70184B1B78DBB283F00103DBB2002BEE
:1005F00001D001231FE007F11C03FB607B201DF0ED
:1006000061F87B68002B03D079680F481DF042F831
:100610000E481DF03FF8F968B8691EF081FA7D2098
:100620001DF050F8FB78194609481DF033F80948C9
:100630001DF0B8F8012318461037BD46BDE88040CC
:1006400002B0704700000020041802000C180200DD
:10065000141802000018020090B589B000AFF860CD
:100660007A601A460B46FB721346BB72D7ED017ACD
:10067000F5EEC07AF1EE10FA4CBF01230023DBB295
:10068000FB75FB68002B10D097F90B2097F91730FA
:10069000591CBB7A0B44B97A002914BF01210021EF
:1006A000C9B20B4401339A4201DA0023CAE0FB7A53
:1006B000013BDBB2FB7797F91F30FA681344002245
:1006C0001A700023BB770AE0D7ED017AB2EE047A04
:1006D00067EE877AC7ED017ABB7F0133BB77BA7FBC
:1006E000BB7A9A42F0D397F91730002B11D0786873
:1006F0001BF0E8FB4FF00002544B1BF083FA03465B
:100700000C46184621461BF0E5FE03465B42BB61E2
:100710000FE078681BF0D6FB4FF000024B4B1BF04C
:1007200073FA03460C46184621461BF0D3FE0346D7
:10073000BB61BB69002B01DA002383E097F91F201E
:10074000D3B2013BDBB2FB77FB68134400221A7083
:10075000BA693F4B83FB02139910D317C91A0B4692
:100760009B000B445B00D11A0B46BB75BB69384A32
:1007700082FB03129210DB17D31ABB61BA7D97F983
:100780001F10CBB2013BDBB2FB77FB680B4430326E
:10079000D2B21A70BB7A002B12D097F90B2097F9BE
:1007A0001F30991CBB7A0B449A4209D197F91F203C
:1007B000D3B2013BDBB2FB77FB6813442E221A70E5
:1007C000BB69002B0BD1BB7A002B0ED097F91F20F1
:1007D00097F90B10BB7ACB1A033B9A4205DB97F9CA
:1007E0001F2097F917309A42B2DABB69002B01D06B
:1007F000002327E097F91730002B09D097F91F2025
:10080000D3B2013BDBB2FB77FB6813442D221A7095
:1008100097F91F30B3F1FF3F0ED097F91F30013326
:10082000FA68D11897F90B2097F91F30D31A013BBA
:100830001A46F8681CF0D0F897F90B2097F91F308A
:10084000D31A013B18462437BD4690BD0000E03F57
:1008500067666666064880470649074A074B9A421C
:10086000BEBF51F8040B42F8040BF8E7FFF76EFC2B
:10087000DD480000D4D1020000000020D418002080
:10088000FEE700BFB0B582B000AF7860786811F0C5
:1008900095FC074A7B6814461D460FCD0FC495E8AA
:1008A0000F0084E80F00002318460837BD46B0BD8E
:1008B000F419002080B489B000AF78600B46FB705B
:1008C00013463B80B7F9003047F6FF72934201D1DF
:1008D000FF23C5E0FB78022B01D90023C0E0FB78A1
:1008E000DB00624A13447B617B691B78012B21D1B9
:1008F0007B69DB789BB2013B9BB27B8305E0B7F958
:100900001A309BB2013B9BB27B83B7F91A30002BA4
:100910000BD07B695A68B7F91A305B001344B3F9FE
:100920000030B7F900209A42E9DB7B8BDBB2013360
:10093000DBB295E07B695B683B613B69002B01D1D1
:1009400000238DE03B69B3F90030B7F900209A42EB
:1009500003DD3B691B883B8009E03B69B3F902304A
:10096000B7F900209A4202DA3B695B883B80B7F90D
:100970000030C83B3E4A82FB03121211DB17D31A28
:100980007B837B8B5B429BB27B837B695B789BB277
:10099000013B9BB21BB2B7F91A209A4205DD7B6975
:1009A0005B789BB2013B9BB27B83B7F91A30DB00CB
:1009B0003A6913440433FB60FB685A68FB68B3F977
:1009C00002301946B7F9003003FB01F31344002B42
:1009D00002DA0023FB610BE0FB685A68FB68B3F99D
:1009E00002301946B7F9003003FB01F31344FB61F1
:1009F000FB6903F5FA731F4AA2FB03239B09FB6102
:100A0000B7F91A309BB201339BB27B83B7F91A3026
:100A10007A695278934209DAB7F91A303A69DB00F9
:100A200013449B881A46FB699342BED9B7F91A3022
:100A3000013B3A69DB0013449B881A46FB699342E9
:100A400007D9B7F91A30013B3A69DB0013449B8898
:100A5000FB61FB69002B01D10123FB61FB69DBB268
:100A600018462437BD465DF8047B7047F419002012
:100A700067666666D34D621080B489B000AF786057
:100A80000B46FB701346BB70FB78022B01D9504B11
:100A900097E0FB78DB004F4A1344BB61BB691B78CE
:100AA000012B15D1BB69DB78BA789A4202D9BB69B0
:100AB000DB78BB70BB78002B02D0BB78013BBB70EE
:100AC000BB695A68BB785B001344B3F9003078E027
:100AD000BB78002B01D1404B73E0BB695B687B6145
:100AE0007B69002B01D13A4B6BE07B6904333B619E
:100AF0003B69002B01D1364B63E0BB78012B03D857
:100B00007B69B3F902305CE0BB69DB78BA789A4262
:100B100003D37B69B3F9003053E0BB695B78013BD9
:100B2000FB730023FB770CE0FB7F0133DB003A69AA
:100B300013441A88BB789BB29A4207D3FB7F0133D8
:100B4000FB77FA7FFB7B9A42EED300E000BFBB78D5
:100B50004FF47A7202FB03F2FB7FDB0039690B442E
:100B60005B68D31ABB60FB7FDB003A691344B3F9BF
:100B70000230DA0F13445B101BB21A46BB681344F1
:100B8000FA7FD20039690A44B2F9022093FBF2F3EA
:100B9000BB607B69B3F900301A46BB68934203DD42
:100BA0007B69B3F900300CE07B69B3F902301A4677
:100BB000BB68934203DA7B69B3F9023001E0BB689A
:100BC0001BB218462437BD465DF8047B704700BF52
:100BD0000080FFFFF41900200CFEFFFF80B400AF7F
:100BE000044BDB6C1B0EDBB21846BD465DF8047B84
:100BF000704700BFB081E00F80B582B000AF194BE5
:100C000001225A64FFF7EAFF0346FB71FB79002BD0
:100C10000CD1154B4AF6E8521A60144B1B68134A64
:100C200043F004031360104B00221A60FB79012B80
:100C300005D80F4B1B680E4A43F4005313600D4B4D
:100C40001B6A23F444130B4A43F488131362054BC5
:100C50001B68044A43F48073136000BF0837BD4625
:100C600080BD00BF00000E4090310E4098310E4014
:100C700064310E4000400E4080B500AFFFF7BCFF6E
:100C800000F010F800F01CF800F012F8044B1B689C
:100C900023F4E063024A43F40073136000BF80BD95
:100CA00000500E4080B500AF02F0BEFA00BF80BD1C
:100CB00080B400AF00BFBD465DF8047B7047000004
:100CC000B0B588B000AF2D4B07F108041D460FCD1D
:100CD0000FC42B6823804FF0FF33FB61284B5B6808
:100CE00003F40023002B04D1254B9B68C3F30803B6
:100CF000FB61FB69B3F1FF3F08D1224B1B884FF624
:100D0000FF72934202D01F4B1B88FB61FB69B3F15A
:100D1000FF3F02D0FB699BB2FB8107F10803184635
:100D200001F0E6FB184803F0C1FD184B1B687B601F
:100D30003B1D184601F04EFC4FF4004003F002FE4C
:100D400001220121022001F075FC0421112001F093
:100D50004BFA00220021032001F06CFC03210C4817
:100D600001F042FA03210B4801F03EFA03210A4840
:100D700001F03AFA00BF2037BD46B0BDDC180200D2
:100D8000B081E00F0001E00F00F04902F01802000E
:100D900002001E00030020000500240080B500AF03
:100DA0000121044800F0D4FF00F0DEF800F0BAFBA7
:100DB00000BF80BD00350A0080B485B000AF786008
:100DC00039607B6803F1C063FB60FB683A681A60B6
:100DD00000BF1437BD465DF8047B704780B485B012
:100DE00000AF786039607B6803F18063FB60FB686B
:100DF0003A681A6000BF1437BD465DF8047B70473F
:100E000080B582B000AF03463960FB71FB79002BDF
:100E10001CD0FB79012B19D0FB79022B16D0FB7962
:100E2000032B13D0FB79042B10D0FB79052B0DD0AD
:100E3000FB79062B0AD0FB79072B07D0FB79082B0F
:100E400004D0FB79092B01D0FB790A2BFA791346E0
:100E50005B0013441B010C3303F1804303F5204373
:100E600001213A6801FA02F211461846FFF7B6FF6F
:100E700000BF0837BD4680BD80B582B000AF0346D5
:100E80003960FB71FB79002B1CD0FB79012B19D049
:100E9000FB79022B16D0FB79032B13D0FB79042BA3
:100EA00010D0FB79052B0DD0FB79062B0AD0FB79EE
:100EB000072B07D0FB79082B04D0FB79092B01D035
:100EC000FB790A2BFA7913465B0013441B010C33A0
:100ED00003F1804303F5204301213A6801FA02F24D
:100EE00011461846FFF768FF00BF0837BD4680BDB2
:100EF00080B483B000AF03463960FB71FB79002BEF
:100F00001CD0FB79012B19D0FB79022B16D0FB7971
:100F1000032B13D0FB79042B10D0FB79052B0DD0BC
:100F2000FB79062B0AD0FB79072B07D0FB79082B1E
:100F300004D0FB79092B01D0FB790A2B01223B68F5
:100F400002FA03F30749FA79184613465B00134483
:100F50001B010B441833186000BF0C37BD465DF809
:100F6000047B704700A0004080B582B000AF012133
:100F70000E4800F0EDFE01210D4800F0E9FE0023CF
:100F80007B600BE00B4A7B6812F833000D210023D5
:100F9000042202F0E5FA7B6801337B607B68002B5A
:100FA000F0D0002318460837BD4680BD40410500FB
:100FB00000350A00F418020080B582B000AF7860F6
:100FC0007B68002B0DDB7B68002B0AD1084A7B680D
:100FD00012F833300D2211461846FFF711FF002397
:100FE00001E04FF0FF3318460837BD4680BD00BF13
:100FF000F418020080B582B000AF78607B68002BE7
:101000000DDB7B68002B0AD1084A7B6812F833306D
:101010000D2211461846FFF72FFF002301E04FF085
:10102000FF3318460837BD4680BD00BFF4180200E4
:1010300080B582B000AF78607B68002B0DDB7B68E9
:10104000002B0AD1084A7B6812F833300D22114672
:101050001846FFF74DFF002301E04FF0FF3318461D
:101060000837BD4680BD00BFF418020080B500AF50
:1010700000F020F800BF80BD80B487B000AFF860FA
:10108000B9607A60FB6803F10473DA00BB6813444B
:101090009B007B617B697A681A6000BF1C37BD4684
:1010A0005DF8047B704780B400AF00BFBD465DF8BB
:1010B000047B704780B582B000AFFFF7DDFDFFF71E
:1010C0006DFE1148FFF7DEFBFFF7EDFF00F020F8A3
:1010D00003F0A2FC78607B680C4A934202D07B68E4
:1010E000002B0DD13B460021184603F043FC7860ED
:1010F0007B68002B04D13B68DBB2184610F08EFDF4
:1011000000BF0837BD4680BDBC180200038000F058
:1011100080B500AF00F002F800BF80BD80B400AF22
:1011200000BFBD465DF8047B7047000080B483B00B
:1011300000AF78607B68002B02D07B680B221A60BE
:10114000034B18460C37BD465DF8047B704700BF63
:10115000C419020080B483B000AF78607B68002BB4
:1011600002D07B680D221A60034B18460C37BD462F
:101170005DF8047B704700BF1C1A020080B582B086
:1011800000AF0346FB71FB79002219460348FFF7C5
:1011900073FF00BF0837BD4680BD00BF08600E402A
:1011A00090B585B000AF0446084611461A4623465E
:1011B000FB710346BB710B467B7113463B710121EA
:1011C0001E4800F0C5FDFB791846FFF7D7FF97F8DA
:1011D000242097F820301B0242EA0301184AFB79C9
:1011E000143342F82310FB799B08DBB29A00154BAD
:1011F0001344FB60FB681A68FB7903F00303DB0010
:10120000FF2101FA03F3DB431A40FB681A60FB6815
:101210001B68B979FA7902F00302D20001FA02F2EE
:101220001A43FB681A60FB79012219460648FFF74A
:1012300023FF00BF1437BD4690BD00BF00450A0024
:1012400000600E4010600E4008600E4080B483B015
:1012500000AF7860002318460C37BD465DF8047B6C
:10126000704780B483B000AF7860FEE780B483B08D
:1012700000AF786039603B684FF400525A60002339
:1012800018460C37BD465DF8047B704780B483B0C8
:1012900000AF7860012318460C37BD465DF8047B2B
:1012A000704780B485B000AFF860B9607A60002301
:1012B00018461437BD465DF8047B704780B586B08C
:1012C00000AFF860B9607A6000237B610FE000F046
:1012D00095F938613B69B3F1FF3F0ED0BB685A1CEA
:1012E000BA603A69D2B21A707B6901337B617B685C
:1012F0005A1E7A60002BEAD100E000BF7B69002B08
:1013000002DC4FF0FF3300E07B6918461837BD461A
:1013100080BD000080B485B000AF78600B4B1B68C7
:10132000002B02D1094B0A4A1A60084B1B68FB606C
:10133000064B1A687B681344044A1360FB6818461E
:101340001437BD465DF8047B704700BF141A0020B7
:101350001043002080B586B000AFF860B9607A60B5
:1013600000237B6109E0BB685A1CBA601B781846F1
:1013700000F084F97B6901337B617A697B689A426A
:10138000F1DB7B6818461837BD4680BD80B483B05A
:1013900000AF0346FB7197F90730002B0BDBFB799D
:1013A00003F01F02074997F907305B09012000FA93
:1013B00002F241F8232000BF0C37BD465DF8047BE4
:1013C000704700BF00E100E080B483B000AF034687
:1013D000FB7197F90730002B0CDBFB7903F01F0240
:1013E000074997F907305B09012000FA02F26033E0
:1013F00041F8232000BF0C37BD465DF8047B7047E1
:1014000000E100E080B483B000AF786039607B68B1
:101410003A689A6400BF0C37BD465DF8047B70479C
:1014200080B483B000AF786039607B68DA6C3B6869
:10143000DB431A407B68DA6400BF0C37BD465DF8B9
:10144000047B704780B483B000AF786039607B68FC
:10145000DA6C3B681A437B68DA6400BF0C37BD4620
:101460005DF8047B7047000080B500AF042102489E
:10147000FFF7D6FF00BF80BD0000014080B500AF80
:1014800004210248FFF7DEFF00BF80BD00000140DD
:1014900098B500AF144B1B6903F08003002B20D0DC
:1014A000124B1B68072B1ADC114B1C680E4803F00B
:1014B00065F903461A460F4B1A550D4B1B6801334D
:1014C0000B4A1360094B1B680133084A1360084B31
:1014D0001B68082B05D1064B00221A6001E0FFF7BC
:1014E000C3FF00BF98BD00BF00000140201A0020CC
:1014F0001C1A0020241A002080B483B000AF78604A
:101500007B68002B03D0064B01221A7002E0044BCB
:1015100000221A7000BF0C37BD465DF8047B70478F
:101520002C1A0020B0B588B000AF01212C4800F083
:101530000FFC01212B4800F00BFC012304220D219C
:10154000032002F00DF8012302220C21032002F0F7
:1015500007F8254BFB61254B3C461D460FCD0FC4BC
:1015600095E8070084E807000121214800F0F0FB1E
:1015700000233B703B461946F86903F021F8FB69EC
:1015800003225A67FB699B6F23F4F85323F01F0370
:1015900043F4A85343F01303FA69936704211248F4
:1015A000FFF730FF0C20FFF70FFF04210E48FFF775
:1015B00049FF0C20FFF7EAFE0521F86902F0CEFF93
:1015C0000C4B1B6898680023022200211CF0F2F8E3
:1015D000094B01221A7000BF2037BD46B0BD00BFC5
:1015E0004041050000350A0000000140841A020055
:1015F000004204001C1200202D1A002080B582B089
:1016000000AF4FF0FF337B60184B1B7883F0010372
:10161000DBB2002B01D0FFF785FF01F029FA38601B
:10162000134B1B68002B18DD124B1B68124AD35C4E
:10163000DBB27B600F4B1B6801330E4A13600D4B0E
:101640001B68082B02D10B4B00221A60084B1B6849
:10165000013B074A1360FFF711FF386801F018FAE1
:101660007B6818460837BD4680BD00BF2D1A002094
:10167000201A0020181A0020241A002080B582B0F9
:1016800000AF0346FB710F4B1B7883F00103DBB205
:10169000002B01D0FFF746FF0B4B1B78002B06D029
:1016A000FB790A2B03D10D21084803F07BF8FB7965
:1016B0001946064803F076F8FB7918460837BD4608
:1016C00080BD00BF2D1A00202C1A00200000014010
:1016D00080B582B000AF786039607B68002B01D1A3
:1016E000012315E000F01AF80346002B01D1032373
:1016F0000EE03B68002B04D0074B1B685A683B6820
:101700001A60054B1B6803F108027B681A6000230E
:1017100018460837BD4680BD0400002080B483B061
:1017200000AF00237B600B4B1B681B680A4A934287
:1017300009D1084B1B685B68B3F1FF3F03D0054B31
:101740001B685B687B607B6818460C37BD465DF89C
:10175000047B70470400002005DA05D580B584B00D
:1017600000AF786039600123FB737B68002B07D0E2
:101770003B6803F00303C3F5FF623B689A4201D262
:10178000012344E002F014FD234B1B68184620F0AF
:1017900023F80346BB7397F90E30002B2FD11E4B55
:1017A0001B6804221D49184620F01AF80346BB7333
:1017B00097F90E30002B22D1174B1B6804333946A2
:1017C0000422184620F00CF80346BB7397F90E303C
:1017D000002B14D13B68033323F00303BB600E4B93
:1017E0001B680833BA68796818461FF0F9FF03468A
:1017F000BB7397F90E30002B01D10023FB7302F06D
:10180000F1FCFB7B002B01D000F00AF8FB7B1846B3
:101810001037BD4680BD00BF040000200028020034
:1018200080B582B000AF0323FB7102F0C1FC0A4B0C
:101830001B6818461FF0D0FF0346BB7197F90630AE
:10184000002B01D10023FB7102F0CCFCFB79184680
:101850000837BD4680BD00BF0400002080B487B0BB
:1018600000AFF860B9607A60FB6803F10473DA00D6
:10187000BB6813449B007B617B697A681A6000BF78
:101880001C37BD465DF8047B704780B485B000AF5F
:10189000786039607B6803F10473DA003B681344B5
:1018A0009B00FB60FB681B6818461437BD465DF85B
:1018B000047B704780B483B000AF786001227B68FE
:1018C00002FA03F318460C37BD465DF8047B7047F7
:1018D00080B500AF00BF12210348FFF7D6FF0346D3
:1018E000002BF8D100BF80BD04300E4080B500AFA2
:1018F000FFF7EEFF034B5B681B0C03F00303DBB247
:10190000184680BD00300E4080B584B000AF7860CE
:101910000123FB607B68124A934204D80023FB60DA
:101920000023BB6008E07B680E4A934202D8012383
:10193000BB6001E00223BB60FA6810210A48FFF790
:101940008DFF094BD3F8003123F08072BB681B0672
:1019500005491343C1F8003100BF1037BD4680BDB3
:101960000048E8010090D00300400E4080B483B0EE
:1019700000AF054B1B687B607B6818460C37BD4683
:101980005DF8047B704700BF0800002080B582B07E
:1019900000AF02F047FF7860064BD3F800311B0A16
:1019A00003F01F0301337A6802FB03F3184608377C
:1019B000BD4680BD00400E4080B582B000AF0D48EE
:1019C00000F032FB0346FB70FB78072B05D0092B98
:1019D00007D102F027FF786006E0FFF7C7FF7860C5
:1019E00002E000237B6000BF7B6818460837BD46D5
:1019F00080BD00BF06000E0080B584B000AF7860E7
:101A00007B68002B1CD11B4800F00EFB0346FB72C9
:101A100000BFFB7A013B072B23D801A252F823F029
:101A2000451A0000631A0000631A0000531A0000F0
:101A3000631A0000631A00004B1A00005B1A0000D2
:101A4000002312E00023FB600EE0FFF78FFFF86039
:101A50000AE002F01FFFF86006E0FFF797FFF8606A
:101A600002E00023FB6000BFFB6818461037BD464C
:101A700080BD00BFB800320080B485B000AF786090
:101A800039601E4B5B6803F04073FB600023BB6052
:101A900012E01B4ABB68DB0013441A793B68DBB2D7
:101AA0009A4206D1164ABB6852F833307A689A4295
:101AB00006D9BB680133BB60BB68042BE9D900E0E1
:101AC00000BFBB68052B02D10323FB6005E00C4A75
:101AD000BB68DB0013445B79FB60FB681B06FB60A3
:101AE000064B5B6823F040720449FB6813434B606C
:101AF00000BF1437BD465DF8047B704700000E4000
:101B00000428020080B582B000AF0E4B1B6C002B86
:101B100014BF01230023FB710A4B41F671321A6492
:101B200002F076FE034600211846FFF7A5FFFB7979
:101B3000002B02D0034B00221A6400BF0837BD46B9
:101B400080BD00BF00000E4080B584B000AF78605B
:101B500039600C4B1B6C002B14BF01230023FB735B
:101B6000084B41F671321A6439687868FFF784FFD0
:101B7000FB7B002B02D0034B00221A6400BF1037FE
:101B8000BD4680BD00000E4080B487B000AF7860D5
:101B90000F237B617B6803333B617B69FB60FA68E1
:101BA0003B69934228BF1346BB60BB681B07BB6001
:101BB000BB6818461C37BD465DF8047B70470000C3
:101BC00080B400AF044B5B6A1B0903F003031846A3
:101BD000BD465DF8047B704700400E4080B483B082
:101BE00000AF7860074B5B6A23F030027B681B0113
:101BF000044913434B6200BF0C37BD465DF8047BBC
:101C0000704700BF00400E4090B585B000AF7860CF
:101C10000023BB607B68354A934206D0344A934226
:101C200003D0344A934200D000E000BF786800F04F
:101C3000FBF90346FB607B682C4A93420DD02C4A8B
:101C4000934211D02B4A934200D014E02A4BD3F890
:101C5000803003F00703FB600DE0274BD3F884309E
:101C600003F00703FB6006E0234BD3F8883003F052
:101C70000703FB6000BFFB68042B2ED801A252F8BB
:101C800023F000BFD51C0000991C0000A11C00001F
:101C9000B11C0000A91C000002F036FEB8601FE075
:101CA00002F044FEB8601BE002F037FEB86017E0B7
:101CB00002F08EFD0446104BD3F800311B0E03F0EA
:101CC000010301331846FFF7F5FD0346B4FBF3F3B8
:101CD000BB6005E00023BB6002E00023BB6000BFE7
:101CE000BB6818461437BD4690BD00BF03002000F6
:101CF0000500240002001E0000400E4080B483B0A6
:101D000000AF78600A4BD3F8443103F00103002B95
:101D100008D100BF064BD3F840217B681340002B4D
:101D2000F8D100E000BF0C37BD465DF8047B70477A
:101D300000400E4080B400AF00BFBD465DF8047B9C
:101D4000704780B400AF00BFBD465DF8047B7047AC
:101D500080B586B000AF78600B46FB7000233B6116
:101D60007B681B0A03F00F03013B092B44D801A237
:101D700052F823F09D1D0000A91D0000F91D000070
:101D8000F91D0000A31D0000AF1D0000B91D0000DB
:101D9000F91D0000C31D0000CF1D0000184B7B6122
:101DA00018E0184B7B6115E0174B7B6112E0174B75
:101DB0007B6101233B610DE0154B7B6110233B618F
:101DC00008E0144B7B614FF480333B6102E0124B1F
:101DD0007B6100BF7B681B0B03F01F03FB603B694B
:101DE000002B02D03869FFF789FFFB781A46F968A3
:101DF0007869FFF733FD00E000BF1837BD4680BDAE
:101E000000400E40B0400E40C0400E40E0400E404A
:101E1000E8400E40F0400E4050410E4080B584B086
:101E200000AF78607B6803F47813B3F5A01F7DD012
:101E3000B3F5A01F1AD8B3F5202F50D0B3F5202F3B
:101E400008D8B3F5003F4ED0B3F5802F38D0002B23
:101E500032D0D8E0B3F5602F00F0C880B3F5801F12
:101E600000F0C880B3F5402F4CD0CCE0B3F5001F94
:101E700000F08B80B3F5001F0AD8B3F5D01F00F037
:101E80008980B3F5F01F4CD0B3F5B01F5CD0BAE039
:101E9000B3F5381F6AD0B3F5381F04D8B3F5101F57
:101EA00000F09F80AFE0B3F5401F00F08680B3F5EF
:101EB000481F00F0A380A6E002F0B4FCF860A5E0A3
:101EC00002F0B0FCF860544BD3F80C311B0AC3F39A
:101ED00008030133FA68B2FBF3F3FB6096E002F00B
:101EE000A1FCF86092E002F09DFCF8604A4BD3F848
:101EF00008311B0AC3F308030133FA68B2FBF3F39A
:101F0000FB6083E002F08EFCF860434BD3F81431A1
:101F10001B0A03F01F030133FA68B2FBF3F3FB6003
:101F200074E03E48FFF770FEF8606FE03C48FFF752
:101F30006BFEF860384BD3F8303103F00303FA68D6
:101F400022FA03F3FB6061E03448FFF75DFEF860BE
:101F5000314BD3F8203103F00F031846FFF7AAFCEA
:101F60000246FB68B3FBF2F3FB604FE02B48FFF740
:101F70004BFEF860284BD3F820311B0903F0030314
:101F8000FA6822FA03F3FB6040E02648FFF73CFEC4
:101F9000F8603BE02348FFF737FEF8601E4BD3F8AC
:101FA00028311B0903F003031846FFF783FC0246A0
:101FB000FB68B3FBF2F3FB6028E01A48FFF724FE4E
:101FC000F860154BD3F828311B0A03F003030433E0
:101FD0001846FFF76FFC0246FB68B3FBF2F3FB60A9
:101FE00014E00F48FFF710FEF8600FE0FFF7E4FC85
:101FF000F8600BE0FFF7BAFCF86007E00020FFF79D
:10200000FBFCF86002E00023FB6000BFFB681846A1
:102010001037BD4680BD00BF00400E4002001E00CC
:10202000050024000300200080B485B000AF786074
:102030000123FB737B6803F00F03BB60BB68013BAC
:10204000072B00F2C48001A252F823F06D2000009B
:10205000C3200000F3200000CF2100003921000040
:1020600069210000CF2100008D2100005D4BD3F8D5
:10207000943003F00703023B052B1ED801A252F84F
:1020800023F000BFA9200000A32000009D20000035
:10209000AF200000BB200000B52000000223FB732E
:1020A0000EE00323FB730BE00423FB7308E00B2318
:1020B000FB7305E00C23FB7302E00523FB7300BFF9
:1020C00088E0484BD3F8803003F00703022B06D09A
:1020D000042B07D0012B08D10323FB7308E0022354
:1020E000FB7305E00A23FB7302E00123FB7300BFCF
:1020F00070E03C4BD3F8843003F00703013B032B23
:1021000016D801A252F823F0192100001F21000067
:102110002B210000252100000323FB730BE0022389
:10212000FB7308E00A23FB7305E00623FB7302E060
:102130000123FB7300BF4DE02A4BD3F8883003F036
:102140000703022B06D0042B07D0012B08D1032351
:10215000FB7308E00223FB7305E00A23FB7302E034
:102160000123FB7300BF35E01E4B1B6F03F001031F
:10217000002B04D0012B05D10923FB7305E00723B5
:10218000FB7302E00123FB7300BF23E0154BD3F880
:102190005C3103F03003102B0CD0102B02D8002B35
:1021A00005D010E0202B08D0302B09D00BE0012304
:1021B000FB730BE00723FB7308E00423FB7305E0CC
:1021C0000823FB7302E00123FB7300BF02E000233E
:1021D000FB7300BFFB7B18461437BD465DF8047BDC
:1021E000704700BF00400E4080B58AB000AF7860F5
:1021F0000B46FB7003237B62032387F82330002305
:10220000BB6100237B617B68112B19D1FB78042B08
:1022100003D102F03FFB78610BE0FB78052B08D17E
:1022200000F05AF90246A44B9A4202D900F054F940
:1022300078617B69002B03D00021786900F06EFE85
:102240007B6803F00F033B613B69013B072B00F206
:10225000298101A252F823F0792200006D230000A9
:102260007F230000A5240000712300001524000036
:10227000A524000033240000FB78023B0A2B00F267
:10228000138101A252F823F0B5220000C122000000
:10229000CD220000DF220000A9240000A9240000B4
:1022A000A9240000A9240000A9240000F1220000B4
:1022B000FD22000004237B62002387F8233023E003
:1022C00003237B62012387F823301DE002237B6216
:1022D000022387F823307948FFF716FB14E0012327
:1022E0007B62032387F823307448FFF70DFB0BE074
:1022F00005237B62032387F8233005E007237B62F5
:10230000062387F8233000BF97F82330062B06D02A
:1023100097F8233001220121184600F08BF9FFF7CE
:10232000F1FBFFF707FD7B69002B01D0FFF7D0FA27
:10233000634A7B6A53676348FFF770FD034618469C
:10234000FFF7E2FA02F044FAF860FFF7CFFA03462B
:102350001946F868FFF7F8FB7B69002B03D10121D0
:10236000002000F0DBFDFFF7ECFCA2E0564BBB6168
:10237000BB69002B01D0BB6900E0544BBB61BB695A
:10238000002B01D0BB6900E0514BBB61FB78013BE6
:10239000092B00F28B8001A252F823F0C523000024
:1023A000CB230000DB230000AD240000AD2400009F
:1023B000EB230000AD240000AD240000AD2400009C
:1023C000072400000023FB6120E0012201210020FE
:1023D00000F030F90223FB6118E001220121012005
:1023E00000F028F90123FB6110E002F0F1F9034647
:1023F0001846FFF789FA012202213648FFF72EFA24
:102400000323FB6102E00423FB6100BFBB69FA699F
:102410001A604EE0FB78072B02D0092B04D048E06D
:10242000274B00221A6703E0254B01221A6700BFE1
:102430003FE0FB78013B072B3AD801A252F823F08A
:1024400061240000B1240000B124000077240000C2
:10245000B1240000B124000067240000872400009C
:102460000023FB6112E001220121042000F0E2F8C8
:102470000123FB610AE001220121022000F0DAF8C9
:102480000223FB6102E00323FB6100BF0C4BD3F886
:102490005C3123F03002FB691B0109491343C1F889
:1024A0005C3106E000BF04E000BF02E000BF00E0D6
:1024B00000BF2837BD4680BD002D31010148E8012D
:1024C00000400E4000250A0080400E4088400E402B
:1024D00084400E40B0400E4080B400AF034B1B68F8
:1024E0001846BD465DF8047B704700BF1800002009
:1024F00090B585B000AF78601120FFF795FD0122FF
:102500000021022000F096F87B685B7883F00103DD
:10251000DBB2002B0DD07B689B7883F00103DBB22C
:10252000002B06D07B68DB7883F00103DBB2002B45
:1025300000BF0023FB607B681B7C022B01D10123C1
:10254000FB60224B5B6A23F001022049FB681343C6
:102550004B627B681B781A4608211D48FFF77EF9FD
:102560007B689B88DB027A68527A1146174A0B43D4
:10257000D362164B1B6B03F07F627B68DB88DB0248
:1025800013437A68927A1A437B681B7ADB0142EA2A
:1025900003047B681B7A1846FFF7F6FA03460B4ADA
:1025A000234313637B685B7B1A037B689B7B1B0164
:1025B00013437A68D27B1A437B681B7B1B04034955
:1025C00013434B6300BF1437BD4690BD00400E401F
:1025D00024400E4080B584B000AF78601120FFF732
:1025E00023FD124B9A6B124B13407A6812781A43F0
:1025F0007B685B78DB021A437B689B781B061A4377
:102600007B68DB781B021343FB60084B9B6BFA680B
:102610009A4207D001220021002000F00BF8034A63
:10262000FB68936300BF1037BD4680BD00400E407D
:1026300080E4FFF880B588B000AF0346FB710B461D
:10264000BB7113467B71FB79042B00F2B88001A2A9
:1026500052F823F0B12600009F2600007B260000E0
:10266000692600008D26000001237B6102233B6167
:102670000123FB610023BB6125E004237B61082368
:102680003B610323FB610223BB611CE010237B61E0
:1026900020233B610523FB610423BB6113E040233E
:1026A0007B6180233B610723FB610623BB610AE05A
:1026B0004FF480737B614FF400733B610923FB612E
:1026C0000823BB6100BFBB79002B5BD00023FB73E9
:1026D000FB79022B11D1FFF773FA0346002B0CD1C3
:1026E000394BDB6B0123FB73384B5B6A03F001034F
:1026F000012B02D10120FFF771FA344A7B6913667E
:1027000000BFB9693248FFF7C0F80346002BF8D084
:102710007B79002B54D000BFF9692D48FFF7B5F83D
:102720000346002BF8D0FB79022B49D1FB7B002B11
:1027300046D0264B5B6A03F00103012B05D1012231
:102740002021022000F04AF903E00021022000F0DD
:10275000FBF8022000F03EF8B860012200210220C0
:10276000FFF768FFB968022000F06EF8174A7B692E
:10277000136600BFF9691648FFF787F80346002B78
:10278000F8D01DE0114A3B69136600BF0F4BD3F828
:1027900090300121BA6901FA02F21340002BF5D101
:1027A0007B79002B0CD000BF084BD3F8903001216F
:1027B000FA6901FA02F21340002BF5D100E000BFE4
:1027C0002037BD4680BD00BF00300E4000400E40A7
:1027D00090400E4080B485B000AF0346FB71FB799A
:1027E000013B032B23D801A252F823F0FD27000060
:1027F000212800000928000015280000114B1B6A41
:10280000C3F30803FB6015E00E4B1B6903F07F0365
:10281000FB600FE00B4B9B6903F07F03FB6009E05B
:10282000084BD3F89C30C3F30A03FB6002E000239B
:10283000FB6000BFFB6818461437BD465DF8047B9B
:10284000704700BF00400E4080B584B000AF034623
:102850003960FB71FB79013B032B6AD801A252F866
:1028600023F000BF75280000F7280000A32800000F
:10287000CD2800003B68C3F308033B6000BF1A216A
:102880002E48FFF702F80346002BF8D12C4B1B6AA9
:1028900023F4FF7323F0010329493A6813430B62C1
:1028A00048E03B6803F07F033B6000BF18212348EA
:1028B000FEF7EBFF0346002BF8D1214B1B6923F0F9
:1028C0007F021F493B6813430B6133E03B6803F011
:1028D0007F033B6000BF19211848FEF7D6FF03466F
:1028E000002BF8D1164B9B6923F07F0214493B68FB
:1028F00013438B611EE0124BD3F89030104B5B6A90
:1029000023F030030E4A43F0100353623B68DB09A7
:1029100003F00F031846FFF737F9F860084B1A6BFE
:10292000084B13403A681A430549FB6813430B638D
:1029300000E000BF00BF1037BD4680BD40410E40E3
:1029400000400E4000F8FF0F80B584B000AF034692
:102950000A46FB711346BB71FFF732F90346002BA1
:1029600003D14FF44003FB6016E0BB79202B04D069
:10297000302B0AD0002B04D00BE04FF40003FB6097
:102980000AE04FF44003FB6006E04FF44003FB60B5
:1029900002E0104BFB6000BF00BF0F4BD3F890204C
:1029A000FB681340FA689A42F7D1FB6803F480038E
:1029B000002B0AD0084BD3F8A03003F48063002B1F
:1029C00014BF01230023DBB200E0012318461037B7
:1029D000BD4680BDFF33E10700400E4080B582B0A8
:1029E00000AF0346FB710B46BB7113467B71FB794D
:1029F000022B00D016E0BB79002B07D00C4B4FF414
:102A00008062C3F8A8200A4ABB7953667B79002B01
:102A100007D0BA79FB7911461846FFF795FF0346B0
:102A200001E000BF012318460837BD4680BD00BF46
:102A300000400E4080B483B000AFEFF310833B60E2
:102A40003B687B6072B67B6818460C37BD465DF804
:102A5000047B704780B483B000AF78607B68002B44
:102A600000D162B600BF0C37BD465DF8047B7047ED
:102A700080B483B000AFEFF310833B603B687B60B2
:102A800072B67B6818460C37BD465DF8047B70470C
:102A900080B483B000AF78607B68002B00D162B651
:102AA00000BF0C37BD465DF8047B704780B500AFB2
:102AB00001F08EFE00BF80BD80B487B000AFF8602B
:102AC000B9607A60FB6803F10473DA00BB681344F1
:102AD0009B007B617B697A681A6000BF1C37BD462A
:102AE0005DF8047B704780B485B000AF78603960D2
:102AF0007B6803F10473DA003B6813449B00FB60BE
:102B0000FB681B6818461437BD465DF8047B7047A8
:102B100080B500AF00BF12210348FFF7E4FF034672
:102B2000002BF8D100BF80BD04300E4080B500AF4F
:102B3000FFF7EEFF034B5B681B0C03F00303DBB2F4
:102B4000184680BD00300E4080B400AF044B4AF6FA
:102B5000E8529A6000BFBD465DF8047B704700BF35
:102B600000300E4080B400AF044B0022C3F8802137
:102B700000BFBD465DF8047B704700BF00400E40BB
:102B800080B400AF044B45F60E02C3F8802100BFAD
:102B9000BD465DF8047B704700400E4080B483B0B2
:102BA00000AF0346FB71FB79C3F10203102202FA66
:102BB00003F318460C37BD465DF8047B70470000F0
:102BC00090B585B000AF0346FB71FB79002B1BD19C
:102BD000484BD3F89030484A13601120FFF724FA8D
:102BE00003461A46454B1A70FFF792FF444B5B6849
:102BF0001B0CDBB203F00303DAB2424B1A703D4BFD
:102C00001B69414A136070E03E4B1B783C4C1846F0
:102C1000FFF7C4FF03462361364BD3F8803103F03E
:102C20000103FB60FFF7ACFF0023BB60324B1B6866
:102C300003F00103BA681343BB602F4B1B6803F01A
:102C40001003BA681343BB602B4B1B6803F04003AF
:102C5000BA681343BB60284B1B6803F00403BA68CF
:102C60001343BB60244B1B6803F48073BA6813439F
:102C7000BB60204ABB681366FFF74AFF204B1B6806
:102C800003F01003002B18D000BF1A4BD3F84031CB
:102C900003F08073002BF8D1164A1B4B1B6813619D
:102CA000164B1B78052B08D1184B1C68FFF73EFF0D
:102CB000034619462046FEF747FF104B1B78052BAD
:102CC00005D00E4B1B7819461120FFF78DFA0A4BE1
:102CD0001B6803F00103002B02D1064B02221A6687
:102CE000FB68002B01D0FFF73DFF00BF1437BD4646
:102CF00090BD00BF00400E40381A00203C1A002052
:102D000000300E403D1A0020401A0020180000201C
:102D100080B582B000AFFFF7FBFE104B1B681B0AAB
:102D200003F003037B600D4B5B681B0C03F0030394
:102D30003B607A683B689A4206D9084B1B68074A91
:102D400043F01003136005E0044B1B68034A23F0B3
:102D50001003136000BF0837BD4680BD00300E4031
:102D600080B483B000AF0C4B1B6803F01003002B42
:102D70000BD00A4B1B691B0C03F01F037B607B68A5
:102D8000082B02D1064B074A1A6000BF0C37BD461C
:102D90005DF8047B704700BF00300E4000400E40DD
:102DA00018000020C0EA210180B400AF00BFBD467A
:102DB0005DF8047B704780B400AF00BFBD465DF88E
:102DC000047B704780B582B000AF0346FB71FB798E
:102DD000002B02D00020FFF7F3FEFFF799FF0D4B09
:102DE0001B690C4A43F004031361FFF7DDFF30BF9A
:102DF000FFF7E1FFFB79002B03D00120FFF7E0FE96
:102E000003E0FFF7ADFFFFF751FE00BF0837BD46F7
:102E100080BD00BF00ED00E080B584B000AF034688
:102E2000FB71FB79002B02D00020FFF7C9FEFFF7F2
:102E30006FFF154BD3F8803103F00103FB60FFF700
:102E40009FFE114B4FF420721A66FB68002B01D0D5
:102E5000FFF788FE0D4B1B690C4A43F00403136116
:102E6000FFF7A2FF30BFFFF7A6FFFB79002B03D0CF
:102E70000120FFF7A5FE03E0FFF772FFFFF716FE44
:102E800000BF1037BD4680BD00400E4000ED00E0A1
:102E900080B584B000AF124B9B6923F4403343F4F8
:102EA0000033BB600E4B9B6943F440337B60FFF7FC
:102EB0004BFE0023FB6008E0094ABB689361084AA7
:102EC0007B689361FB680133FB60FB68032BF3DDD8
:102ED000034ABB68936100BF1037BD4680BD00BF89
:102EE00000300E4080B500AF012200210348FFF7FB
:102EF000E3FDFFF7CDFF00BF80BD00BF18300E40DF
:102F000080B500AF002200210348FFF7D5FDFFF791
:102F1000BFFF00BF80BD00BF18300E4080B584B039
:102F200000AF78600B46FB70154BD3F800311B0ADD
:102F300003F01F030133BB607B68002B07D101F056
:102F400071FC0246BB6802FB03F3FB6001E07B6897
:102F5000FB600C4B1B78002B09D0FB680A4A93429C
:102F600005D8FB781946022000F010F804E0FB7841
:102F70001946002000F00AF800BF1037BD4680BD9A
:102F800000400E40341A0020FF2C310190B587B06C
:102F900000AF03460A46FB711346BB711B4BD3F8C7
:102FA00000311B0A03F01F0301337B6101F03AFC7F
:102FB0003861FFF7BBFD0346FB73FA7BFB799A424E
:102FC0001FD03B697A6902FB03F3BB60FB79022BDC
:102FD00003D102213869FEF7B7FD0D4CFB79184685
:102FE000FFF7DCFD03462361BB79002B01D0FFF71F
:102FF0008FFDFB79002B05D100213869FEF7A4FD78
:1030000000E000BF1C37BD4690BD00BF00400E4031
:1030100000300E4080B48BB000AF01237B627B6A2E
:103020001B053B62324BDB6C1B0A03F00F03FB6199
:10303000304B1B881A462F4B1B8828335B081344E0
:1030400003F12801FB695A1C13469B001344B1FB92
:10305000F3F3013BBB61BB697B6107233B613A69C9
:103060007B69934228BF1346BB61BB691B06BB61EA
:103070001F4BDB6C23F0EE62B9693B6A0B431C49C2
:103080001343CB641C4BB3F90030002B29DB1A4BE4
:10309000B3F90030FB81FA89FB8928335B081344BC
:1030A00003F12802FB6901335900FB6901335B0816
:1030B0000B44B2FBF3F3BB60BB687B6007233B6050
:1030C0003A687B68934228BF1346BB60BB681B010C
:1030D000BB60074B1B6D23F070020549BB681343AF
:1030E0000B6500BF2C37BD465DF8047B704700BF01
:1030F00000300E402E1A0020321A002080B584B015
:1031000000AF78600023FB60314B1B6F03F00703B7
:10311000BB602F4BDB6C03F00103002B14D0BB68AA
:10312000012B11D97B68132B02D80423FB6037E0F5
:103130007B68132B05D97B68272B02D80823FB60FB
:103140002EE01023FB602BE0214BDB6C03F001032E
:10315000002B14D1BB68012B11D87B68092B02D836
:103160000423FB601CE07B68092B05D97B68132BCB
:1031700002D80823FB6013E01023FB6010E0144B1F
:10318000DB6C03F00103002B0AD0BB68012B07D8CE
:103190007B68272B02D80823FB6001E01023FB602B
:1031A000FB68013BFB60FB681A02FB681B031343CF
:1031B000FB60074BDB6C23F47F420549FB6813433C
:1031C000CB64FFF727FF00BF1037BD4680BD00BFAF
:1031D00000300E4080B584B000AF0346FB71002183
:1031E0000E48FFF780FCF860FB68002B02D1FB79EA
:1031F000012B01D9FB68002B00BF094B1B6F23F08B
:103200000702FB79064913430B67064B1B881846D8
:10321000FFF774FF00BF1037BD4680BD4C300E4035
:1032200000300E40301A002080B483B000AF104B45
:1032300002229A630E4BDB6B0D4A43F48063D36327
:1032400000BF0B4B9B6F03F00103002BF9D1084B20
:1032500003221A64064B1B6C032B0CBF01230023B3
:10326000FB71FB7918460C37BD465DF8047B70474F
:1032700000300E4080B487B000AFF860B9607A606B
:10328000FB6803F10473DA00BB6813449B007B61A5
:103290007B697A681A6000BF1C37BD465DF8047B05
:1032A000704780B485B000AF786039607B6803F107
:1032B000C063FB60FB683A681A6000BF1437BD4604
:1032C0005DF8047B704780B485B000AF78603960EA
:1032D0007B6803F18063FB60FB683A681A6000BF9B
:1032E0001437BD465DF8047B704780B584B000AFED
:1032F000F860B9607A60B968F868FFF7E4FF796848
:10330000F868FFF7CEFF00BF1037BD4680BD000054
:1033100080B483B000AF7860044A7B68C2F824347C
:1033200000BF0C37BD465DF8047B704700A000402D
:1033300080B582B000AF03463960FB71FB79002B8A
:103340001CD0FB79012B19D0FB79022B16D0FB790D
:10335000032B13D0FB79042B10D0FB79052B0DD058
:10336000FB79062B0AD0FB79072B07D0FB79082BBA
:1033700004D0FB79092B01D0FB790A2BFA7913468B
:103380005B0013441B010C3303F1804303F520431E
:1033900001213A6801FA02F211461846FFF793FF3D
:1033A00000BF0837BD4680BD80B582B000AF034680
:1033B0003960FB71FB79002B1CD0FB79012B19D0F4
:1033C000FB79022B16D0FB79032B13D0FB79042B4E
:1033D00010D0FB79052B0DD0FB79062B0AD0FB7999
:1033E000072B07D0FB79082B04D0FB79092B01D0E0
:1033F000FB790A2BFA7913465B0013441B010C334B
:1034000003F1804303F5204301213A6801FA02F2F7
:1034100011461846FFF745FF00BF0837BD4680BD7F
:1034200080B586B000AFB9607A601A460346FB7378
:103430001346BB7300237B61FB7B002B1CD0FB7B03
:10344000012B19D0FB7B022B16D0FB7B032B13D057
:10345000FB7B042B10D0FB7B052B0DD0FB7B062BBD
:103460000AD0FB7B072B07D0FB7B082B04D0FB7B10
:10347000092B01D0FB7B0A2B7B68072B0ED87B68BE
:103480009B000F2202FA03F1FA7B7B689B0002FA91
:1034900003F31A462B48FFF728FF10E07B68083B30
:1034A0007B617B699B000F2202FA03F1FA7B7B6947
:1034B0009B0002FA03F31A462348FFF716FF7B68C6
:1034C000072B10D87B689B00032202FA03F1BB682C
:1034D00003F003027B689B0002FA03F31A461B48C1
:1034E000FFF703FF0FE07B699B00032202FA03F161
:1034F000BB6803F003027B699B0002FA03F31A46E0
:103500001348FFF7F2FEBB7B1A4679681148FFF7B4
:10351000B1FE97F820301A4679680F48FFF7AAFEE7
:1035200001227B6802FA03F31846FFF7F1FE97F8D1
:1035300024301A4679680948FFF79CFE00BF183707
:10354000BD4680BD00A4004004A4004008A4004083
:103550000CA4004010A4004014A4004028A4004083
:1035600080B584B000AFB9607B600346FB7313463F
:10357000BB73FB7B002B1CD0FB7B012B19D0FB7B8F
:10358000022B16D0FB7B032B13D0FB7B042B10D01C
:10359000FB7B052B0DD0FB7B062B0AD0FB7B072B7F
:1035A00007D0FB7B082B04D0FB7B092B01D0FB7BD6
:1035B0000A2BBB7B002B0DD07B68002B05D0FB7B3F
:1035C000B9681846FFF7F0FE04E0FB7BB9681846BF
:1035D000FFF7AEFEBB68072B20D82E49FA7B1346B7
:1035E0005B0013441B010B4404331A68BB689B0047
:1035F0000F2101FA03F3DB431340B97BBA68920051
:1036000001FA02F211462348FA7B194313465B0084
:1036100013441B0103440433196025E01D49FA7B60
:1036200013465B0013441B010B4408331A68BB6844
:1036300003F18043083B9B000F2101FA03F3DB43B6
:1036400002EA0301BA7BBB6803F18043083B9B009D
:1036500002FA03F30F48FA7B194313465B00134445
:103660001B01034408331960BB7B002B0DD17B6821
:10367000002B05D0FB7BB9681846FFF795FE04E0E8
:10368000FB7BB9681846FFF753FE00BF1037BD46F5
:1036900080BD00BF00A0004080B483B000AF786060
:1036A00039607B683A68DA6300BF0C37BD465DF865
:1036B000047B704780B487B000AFF860B9607A606F
:1036C000FB6803F10473DA00BB6813449B007B6161
:1036D0007B697A681A6000BF1C37BD465DF8047BC1
:1036E000704780B485B000AF786039607B6803F1C3
:1036F000C063FB60FB683A681A6000BF1437BD46C0
:103700005DF8047B704780B485B000AF78603960A5
:103710007B6803F18063FB60FB683A681A6000BF56
:103720001437BD465DF8047B704780B584B000AFA8
:10373000F860B9607A60B968F868FFF7E4FF796803
:10374000F868FFF7CEFF00BF1037BD4680BD80B4DC
:1037500083B000AF786001E07B68DB697B68DB6881
:1037600003F48073002BF7D100BF0C37BD465DF822
:10377000047B704780B588B000AFF860B9607A60AC
:10378000FB707B68002B77D0FB7803F00303FB70A2
:10379000FB681B6823F44072FB681A60F868FB78CA
:1037A0001B021A464FF44071FFF7BFFFBB68002BA6
:1037B00010D1FB68334A934204D13348FEF72EFB05
:1037C000B86007E0FB68314A934203D13048FEF706
:1037D00025FBB8604FF0FF33BB61FB681B6803F04B
:1037E0000203002B10D0FB78012B07D0022B08D04E
:1037F000002B00D019E0274BBB6116E0264BBB61C4
:1038000013E0264BBB6110E0FB78012B07D0022BA5
:1038100008D0002B00D008E01E4BBB6105E0204B18
:10382000BB6102E01F4BBB6100BFFB781E4AD35C4B
:103830007B617B697A6802FB03F33B613B69002B88
:103840001CD07B68DB00BA68D21A3B6913445A1E4D
:103850003B69B2FBF3F3013BFB61FB681B6803F0C0
:103860000203002B04D0FB69002B01D10123FB6173
:10387000FA69FB681A6102E000BF00E000BF203770
:10388000BD4680BD00C000400082040000C400406E
:103890000092040080841E00404B4C00809FD500A5
:1038A00040548900002D31012C28020080B582B0DF
:1038B00000AF78600B46FB707B68084A934202D0E9
:1038C0007B68074A934200BF7B68FA78002118465C
:1038D000FFF7F0FE00BF0837BD4680BD00C00040C6
:1038E00000C4004080B582B000AF786039607B686A
:1038F000154A934202D07B68144A934200BF7B680A
:1039000000221A6412497868FFF7C6FE78683B689F
:103910005B7883F00103DBB21A460121FFF7CAFE90
:103920003B6859683B689A683B681B7B7868FFF77F
:1039300021FF3B681B7819467868FFF7B7FF00BF87
:103940000837BD4680BD00BF00C0004000C4004035
:10395000FFFF070080B588B000AF78607B68A04AA1
:10396000934202D07B689F4A934200BF7B689C4A87
:10397000934202D19C4BBB6109E07B68994A934218
:1039800002D19A4BBB6102E06FF0030313E2BB6903
:103990009B687B617B685B6B3B613B6903F4C06345
:1039A000002B14D03B6903F40073002B03D0BB69D8
:1039B000FD225A7007E03B6903F48063002B02D0BC
:1039C000BB69FE225A70BB6909221A70DEE1BB692D
:1039D0001B78082B00F2C68101A252F823F000BF29
:1039E000053A0000573A0000E33A0000393B000076
:1039F0008B3B0000F13B0000793C0000B93C00002B
:103A0000493D00007B695B8803F01003002B09D05F
:103A10007B691B881B0A9BB203F0060343F0F0038B
:103A2000FB610EE07B691B8803F0FE03FB617B6991
:103A30005B8803F00203002B03D0FB6943F0010312
:103A4000FB61BB6901221A707B68FA69DA627B68E4
:103A500001225A609AE13B6903F08003002B0DD0EC
:103A600080217868FFF718FEBB69FF225A70BB6996
:103A700008221A707B6802225A607CE13B6903F0DD
:103A80004003002B00F0778140217868FFF704FEA7
:103A90007B695B8803F01003002B08D0BB6902220E
:103AA0001A707B691B88DAB27B68DA6263E17B6932
:103AB0005B8803F00203002B0FD0BB6907221A704A
:103AC000BB691B797A69DB0013441B89012B40F029
:103AD00052817B6808225A604DE1BB6905221A7049
:103AE00048E13B6903F08003002B0DD0802178680A
:103AF000FFF7D2FDBB69FF225A70BB6908221A701A
:103B00007B6802225A6038E13B6903F04003002BD6
:103B100000F0338140217868FFF7BEFD7B695B8848
:103B200003F00203002B03D0BB6903221A7021E1CA
:103B3000BB6905221A701DE17B695B8803F01003E5
:103B4000002B09D07B691B881B0A9BB203F006037C
:103B500043F0F003FB6104E07B691B8803F0FE0384
:103B6000FB617B695B8803F00403002B03D0FB69D6
:103B700043F00103FB61BB6904221A707B680122D8
:103B80005A607B68FA69DA6200E13B6903F08003FE
:103B9000002B0DD080217868FFF77EFDBB69FF22E6
:103BA0005A70BB6908221A707B6802225A60E6E0EC
:103BB0003B6903F04003002B00F0E180402178686E
:103BC000FFF76AFD7B695B8803F00403002B03D0D9
:103BD000BB6907221A70D2E0BB6905221A70C9E0DE
:103BE00000C0004000C40040441A0020501A0020C9
:103BF000BB695A88BB691B797969DB000B441B8957
:103C00009A4224D3BB6900225A80BB691B790133D5
:103C1000DAB2BB691A717B695B8803F00403002B7D
:103C200003D0BB6903221A70A4E07B695B8803F0B0
:103C30000103002B04D1BB691B79012B40F2998051
:103C4000BB6908221A707B6802225A609EE0BB6939
:103C50001B797A69DB0013445A68BB695B88591C7D
:103C600088B2B969488013441B781A467B68DA62C7
:103C7000BB6906221A7089E03B6903F08003002BC0
:103C80000DD080217868FFF707FDBB69FF225A70CD
:103C9000BB6908221A707B6802225A6071E03B6996
:103CA00003F04003002B6CD040217868FFF7F4FC50
:103CB000BB6905221A705DE03B6903F02003002B0D
:103CC00061D0BB691B797A69DB0013441B89FB60F7
:103CD0007B68DB69FB72BB695B881A46FB689342B1
:103CE0000ED9BB691B797A69DB0013445A68BB693A
:103CF0005B88591C88B2B96948801344FA7A1A70F3
:103D0000BB695B881A46FB6893420CD8FB68012BA1
:103D100002D17B6808225A60BB6908221A707B684E
:103D200002225A602FE07B6804225A60FB68012B54
:103D300029D9BB695B881A46FB68013B9A4222D1AC
:103D40007B6808225A601EE03B6903F48073002BF5
:103D50001BD04FF480717868FFF79EFCBB69092285
:103D60001A7012E0BB69FB225A70BB6909221A70F3
:103D70000CE000BF0EE600BF08E000BF06E000BF99
:103D800004E000BF02E000BF00E000BFBB691B7899
:103D9000092B0BD17B6800221A64BB6993F90130AF
:103DA000012B05D1BB6900225A7001E0012302E01A
:103DB000BB6993F9013018462037BD4680BD00BF6E
:103DC00080B584B000AF786039607B682F4A934239
:103DD00002D07B682E4A934200BF7B682B4A9342F5
:103DE00002D12C4BFB6009E07B68294A934202D147
:103DF000294BFB6002E06FF0030342E07B689B68A5
:103E000003F00103002B02D07B6820225A603B683C
:103E10005B8803F00203002B03D03B681B89002B57
:103E200009D03B685B8803F00403002B06D03B6895
:103E30001B8A002B02D16FF0030322E0FB680022F3
:103E40001A70FB6801225A70FB6800225A80FB68D6
:103E500000221A71FB683A689A607B68C0225A6037
:103E60007868FFF774FC0D497868FFF715FC7B68EC
:103E70001B6C43F4FC627B681A647868FFF76AFD88
:103E8000034618461037BD4680BD00BF00C0004045
:103E900000C40040441A0020501A0020FFFF070011
:103EA00080B483B000AF0346FB7197F90730002B55
:103EB0000BDBFB7903F01F02074997F907305B0919
:103EC000012000FA02F241F8232000BF0C37BD4662
:103ED0005DF8047B704700BF00E100E080B483B070
:103EE00000AF0346FB7197F90730002B0CDBFB7921
:103EF00003F01F02074997F907305B09012000FA18
:103F000002F2603341F8232000BF0C37BD465DF854
:103F1000047B704700E100E080B483B000AF03464B
:103F20003960FB7197F90730002B0ADB3B68DAB286
:103F30000C4997F907305201D2B20B4483F80023A1
:103F40000AE03B68DAB20849FB7903F00F03043B4F
:103F50005201D2B20B441A7600BF0C37BD465DF851
:103F6000047B704700E100E000ED00E080B485B024
:103F700000AF786039607B6803F18063FB60FB68A9
:103F80003A681A6000BF1437BD465DF8047B70477D
:103F900080B584B000AF786001211A48FDF7D8FEE3
:103FA0007B681B781B06FB607B685B781B027A686A
:103FB000927813431A46FB681343FB60124AFB686E
:103FC0001360114B00221A620F4B0022DA620E4B73
:103FD00000225A630C4B4FF00042DA660A4B4FF056
:103FE000FF329A660920FFF779FF7B68DB78194674
:103FF0000920FFF791FF0920FFF752FF00BF10379C
:10400000BD4680BD00550A0000200E4080B588B036
:1040100000AFF860B9607A60FB68DBB21A46012332
:104020009340BB614C48BB681968FA6813465B0053
:1040300013441B01034480331960BB685B7B464912
:104040001846FA6813465B0013441B010B4488337F
:104050001860BB689B7A1A04BB68DB7A1B051A439D
:10406000BB681B7B5B0513433B491846FA68134644
:104070005B0013441B010B44843318607B68364893
:1040800023F00301FA6813465B0013441B01034449
:1040900098331960304ABB699366FEF7E9FC786192
:1040A0002D4BDA6E2C49BB691343CB66BB681B7A78
:1040B000002B05D0284B5A6B2749BB6913434B6330
:1040C000BB685B7A002B05D0234BDA6A2249BB69B7
:1040D0001343CB62204B1B68FB61BB681B79002B31
:1040E00008D0BB681B79DB431B0263F47F43FA698A
:1040F0001340FB61BB685B79002B06D0BB685B7922
:104100001B021A46FB691343FB61BB689B79002BBA
:1041100007D0BB689B79DB4363F0FF03FA69134068
:10412000FB61BB68DB79002B05D0BB68DB791A46E5
:10413000FB691343FB61084AFB691360B9690748CF
:10414000FFF714FF044ABB69D3637869FEF7A0FC4C
:1041500000BF2037BD4680BD00200E4028200E4005
:1041600080B586B000AF78600023FB757B68DBB25A
:104170001A46012393403B61FEF77AFCF8600B4B33
:104180001A6A3B691340002B08D1084B9A6A3B69B5
:1041900013403A699A4201D10123FB75F868FEF792
:1041A00077FCFB7D18461837BD4680BD00200E40C9
:1041B00080B400AF094B5B68084B5B68084B41F665
:1041C00071321A64064B9B68054A23F00103936021
:1041D00000BFBD465DF8047B704700BF00300E4055
:1041E00000000E4080B400AF064B9B68054A23F0E8
:1041F00001039360034B00221A6400BFBD465DF8C3
:10420000047B704700000E4080B400AF034B0122D6
:104210009A6000BFBD465DF8047B704700500E40B9
:1042200080B485B000AF284B5B683B600023FB6027
:1042300000237B603DE0254A7B68DB0013445B681C
:10424000BB60234B1B6803F00403002B19D11F4AEA
:104250007B6852F83330B3F5806F0DD0B3F5806FC3
:1042600003D8B3F5007F07D00CE0B3F5006F03D09F
:10427000B3F5803F00D005E0BB6843F48073BB60BA
:1042800000E000BF114A7B6852F833203B681340BE
:10429000002B0BD03A68BB681340002B06D10B4AA9
:1042A0007B6852F83330FA681343FB607B68013354
:1042B0007B607B68082BBED9FB6818461437BD4667
:1042C0005DF8047B704700BF00500E4030280200AC
:1042D000E841E00F80B485B000AF78601A4B5B69AD
:1042E000DBB29B00DBB203F03C03FB73164B1B6994
:1042F0009B09DBB203F00303DAB2FB7B1343FB73CE
:104300007B68FA7B9A70104B1B69DBB203F03F03AA
:10431000DAB27B685A700C4B9B691B09DBB21B013C
:10432000FB73094BDB691B09DBB203F00F03DAB245
:10433000FB7B1343FB737B68FA7B1A7000BF143757
:10434000BD465DF8047B7047D0FF0FE080B483B0BA
:1043500000AF78607B680D4A93420BD07B680C4AB3
:10436000934207D07B680B4A934203D07B680A4A8A
:10437000934201D1012300E0002303F00103DBB2EB
:1043800018460C37BD465DF8047B7047008001403D
:104390000084014000A0014000A4014080B584B029
:1043A00000AF786039607868FFF7D0FF0023FB60CA
:1043B0003B681B7883F00103DBB2002B02D07B68E3
:1043C00002225A607B6800225A623B689B781A0678
:1043D0003B68DB781B041A433B689B799B021A43BA
:1043E0003B68DB791B0213433A68127A13433A683D
:1043F0005278002A01D0402200E0002213433A689C
:10440000527A002A01D0802200E0002213433A6849
:10441000927A002A01D0202200E0002213433A6859
:10442000D27A002A01D0102200E0002213433A6819
:10443000127B002A01D0082200E000221343FB6017
:104440003B681B79002B02D04FF4005200E00022A1
:104450003B685B79002B02D04FF0805300E00023D3
:104460001343FA681343FB607B68FA681A603B6881
:104470001B78002B02D07B6801225A6000BF1037E6
:10448000BD4680BD80B483B000AF78600B46FB7042
:10449000FB7863F07F03DBB21A467B689A6500BF46
:1044A0000C37BD465DF8047B7047000080B586B0D0
:1044B00000AFF860B9607A60FB70BB68002B03D175
:1044C0002448FDF7ABFCB860FB78202B0CD0202BE8
:1044D00002DC002B05D03AE0402B08D0602B09D03D
:1044E00035E010237B6108E008237B6105E00623AB
:1044F0007B6102E004237B6100BFBB685A017B69DA
:10450000796801FB03F35B0813443B617B697A68BC
:1045100002FB03F33A69B2FBF3F33B613B69203BD7
:104520003B613B69DB003B613A690B4B13403B61EC
:10453000FB681B6823F06002FB681A60FB681A685E
:10454000FB781A43FB681A60FB683A695A611837AE
:10455000BD4680BD40410500F8FF7F0080B485B0B6
:1045600000AF78600B46FB707B68114A93420AD01B
:104570007B68104A934206D07B680F4A934202D070
:104580007B680E4A934200BFFB78DB43FB60FB680D
:1045900003F00503FB60FB685A007B68DA60FA7879
:1045A0007B68DA6000BF1437BD465DF8047B704756
:1045B000000001400004014000080140000C0140DF
:1045C00080B582B000AF786039607B68334A93422F
:1045D0000AD07B68324A934206D07B68314A9342C4
:1045E00002D07B68304A934200BF786800F05EF8E2
:1045F0003B689B7C002B05D07B681B6843F08042A6
:104600007B681A603B68DB7C002B05D03B681B7D18
:1046100019467868FFF736FF3B685B7B1A463B68B4
:104620001B8A13433A68D2891A437B685A603B68F5
:1046300059683B689A683B681B7B7868FFF736FFD0
:104640003B685B7D002B05D07B681B6843F48032A0
:104650007B681A603B689B7D1B0703F0E0423B6868
:10466000DB7D1B0503F4E0031A437B681A667B6855
:104670005B6F23F030027B685A677B685B6F3A6838
:10468000127E1A437B685A673B681B781A467B6820
:10469000DA6000BF0837BD4680BD00BF00000140A2
:1046A0000004014000080140000C014080B483B0C8
:1046B00000AF78607B682C4A93420AD07B682B4A13
:1046C000934206D07B682A4A934202D07B68294AEB
:1046D000934200BF7B6840F6AA62DA607B680022E2
:1046E0001A607B6841F205025A607B6800229A607A
:1046F0007B6800225A617B680022DA647B681E4A6C
:104700009A647B6800221A667B6800225A677B687D
:1047100000229A677B680022DA677B68124A93421C
:104720000BD07B68114A934207D07B68104A9342B2
:1047300003D07B680F4A934202D17B6800221A653E
:104740007B6800229A657B68084A934203D07B68A5
:10475000084A934202D17B680022DA6500BF0C3719
:10476000BD465DF8047B7047000001400004014035
:1047700000080140000C0140F9FF010080B483B043
:1047800000AF786000BF7B681B6903F08003002BDB
:10479000F9D07B68DB69DBB218460C37BD465DF8A3
:1047A000047B704780B483B000AF78600B46FB7029
:1047B00000BF7B681B6903F04003002BF9D0FA7837
:1047C0007B685A6300BF0C37BD465DF8047B7047B9
:1047D00080B582B000AF00F025F878600A4BD3F8BE
:1047E00008311B0AC3F308033B603B6801337A6856
:1047F000B2FBF3F37B60054A7B6813607B68184665
:104800000837BD4680BD00BF00400E4014000020A8
:1048100080B400AF024B1846BD465DF8047B70477C
:1048200000F0490280B483B000AF164BD3F8943047
:1048300003F00703032B08D0042B02D0022B08D06F
:104840000BE0114B1B687B600BE04FF400437B6077
:1048500007E00E4B1B687B6003E00D4B1B687B6021
:1048600000BF084BD3F800311B0A03F01F030133CC
:104870007A68B2FBF3F318460C37BD465DF8047B4B
:10488000704700BF00400E40100000200C000020C8
:104890001800002080B400AF034B1B681846BD46CB
:1048A0005DF8047B704700BF0C00002080B582B02B
:1048B00000AF7860074A7B681360074BD3F89430E9
:1048C00003F00703022B01D1FFF782FF00BF083777
:1048D000BD4680BD0C00002000400E4080B400AFFB
:1048E000074B084A9A60064BD3F88830044A43F4D1
:1048F0007003C2F8883000BFBD465DF8047B704786
:1049000000ED00E00000000080B400AF4FF4004371
:104910001846BD465DF8047B704780B400AF4FF485
:104920007A731846BD465DF8047B704780B400AFCB
:10493000034B1B681846BD465DF8047B704700BFFB
:104940001000002080B582B000AF7860074A7B6815
:104950001360074BD3F8943003F00703042B01D105
:10496000FFF736FF00BF0837BD4680BD10000020AE
:1049700000400E4080B584B000AF78603960214BB4
:104980001B7883F00103DBB2002B01D01E4B34E017
:104990007B68002B01D11D4B2FE0FEF769F8B86052
:1049A0000023FB6022E01A4AFB681B0113440C330E
:1049B0001B7883F00103DBB2002B14D0FA687B680C
:1049C0001A60134AFB681B0113440C3301221A704E
:1049D0000F4AFB681B01134400221A60B868FEF7F7
:1049E00057F8002309E0FB680133FB60FB68072BE5
:1049F000D9DDB868FEF74CF8064B18461037BD46AF
:104A000080BD00BF5C1A0020028000F0018000F031
:104A1000601A0020048000F080B584B000AF194B0C
:104A20001B687B6000233B71FEF722F8B860164BD1
:104A30001B78002B04D0B868FEF72AF8134B1CE053
:104A4000114B01221A70B868FEF722F80023FB60B0
:104A500009E00F4AFB681B0113440C3300221A7053
:104A6000FB680133FB60FB68072BF2DD0423FB715D
:104A70003B1D1846FFF78CFA002318461037BD4639
:104A800080BD00BF782802005C1A0020038000F07F
:104A9000601A002080B586B000AF324B1B6EFB6001
:104AA000304BDB6EFA681340FB60FB68002B00DACA
:104AB000FEE700237B6101233B614CE0FA683B6920
:104AC0001340002B41D0274A3B6993667B691B0149
:104AD000254A1344BB60BB681B68002B35D0BB68FC
:104AE0009B685A1CBB689A60BB681B68BA6891686F
:104AF000BA685268786998470346002B14BF0123AF
:104B00000023DBB283F00103DBB2FB71FB7903F01E
:104B10000103FB71BB685B7B012B16D1FB79002B7A
:104B200013D0124A7B695B01134403F10802137925
:104B30006FF3410313710D4A7B695B01134403F169
:104B4000180213796FF3410313717B6901337B61A1
:104B50003B695B003B617B69072BAFD900BF18370E
:104B6000BD4680BD00200E40601A0020E01A0020E3
:104B700080B483B000AF0346FB7197F90730002B78
:104B80000BDBFB7903F01F02074997F907305B093C
:104B9000012000FA02F241F8232000BF0C37BD4685
:104BA0005DF8047B704700BF00E100E080B483B093
:104BB00000AF0346FB7197F90730002B0CDBFB7944
:104BC00003F01F02074997F907305B09012000FA3B
:104BD00002F2603341F8232000BF0C37BD465DF878
:104BE000047B704700E100E080B483B000AF7860E0
:104BF000044A7B68C2F8243400BF0C37BD465DF818
:104C0000047B704700A0004080B483B000AF074B26
:104C1000D3F828347B60054BD3F81C247B68134001
:104C200018460C37BD465DF8047B704700A0004075
:104C300080B485B000AF78607B68FB60FB6893FA56
:104C4000A3F3BB60BB68B3FA83F3DBB21846143737
:104C5000BD465DF8047B704780B500AF1220FFF7BA
:104C6000A5FF1220FFF784FF0A20FFF79FFF0A200D
:104C7000FFF77EFF00BF80BD80B584B000AF034664
:104C80003960FB71FDF7F4FEF860FB7905493A687D
:104C900041F82320F868FDF7FBFE00BF1037BD4642
:104CA00080BD00BFE01B002080B584B000AF7860FD
:104CB00019E07868FFF7BCFFF8600122FB6802FA90
:104CC00003F3DB431A467B6813407B60094AFB68A9
:104CD00052F82330BB60BB68002B04D0FB68DAB20B
:104CE000BB68104698477B68002BE2D100BF1037A5
:104CF000BD4680BDE01B002080B582B000AFFFF74D
:104D000083FF024645F2555313407B607868FFF7F6
:104D10006BFF7868FFF7C8FF00BF0837BD4680BD4E
:104D200080B582B000AFFFF76FFF02464AF6AA23B4
:104D300013407B607868FFF757FF7868FFF7B4FF90
:104D400000BF0837BD4680BD80B483B000AF786037
:104D5000064A7B6804331B01134404331B6818465E
:104D60000C37BD465DF8047B704700BF002004404F
:104D700080B483B000AF78603960074A7B68043341
:104D80001B01134404333A681A6000BF0C37BD4658
:104D90005DF8047B704700BF0020044080B582B0FE
:104DA00000AF78607868FFF7CFFF034618460837F2
:104DB000BD4680BD80B582B000AF7860396039688B
:104DC0007868FFF7D5FF00BF0837BD4680BD0000FB
:104DD00080B400AF034B9B681846BD465DF8047B6A
:104DE000704700BF0020044080B483B000AF7860FB
:104DF000044A7B68136200BF0C37BD465DF8047B34
:104E0000704700BF0020044080B483B000AF7860DA
:104E1000064B5A6A7B68DB43044913404B6200BF70
:104E20000C37BD465DF8047B704700BF002004408E
:104E300080B483B000AF7860054B5A6A04497B6840
:104E400013434B6200BF0C37BD465DF8047B7047CF
:104E50000020044080B483B000AF064B5B6A7B60E7
:104E6000044B9A697B68134018460C37BD465DF8C1
:104E7000047B70470020044080B586B000AFFDF78A
:104E8000F7FD3861FFF7E6FFF860FB6823F00503E4
:104E90001846FFF7A9FFFB6803F00403002B30D08E
:104EA0001B4B01221A70FFF793FF78610420FFF774
:104EB000ABFF184B1B687A69D31ABB60B86800F067
:104EC0002DF800F093F9786900F0C2F9FFF780FF40
:104ED0007861104B1B687A69D31ABB600120FFF719
:104EE0005DFF02460B4B1B68D31A7B600A4B1B7895
:104EF000002B03D0BA687B689A42D7D2044B0022B9
:104F00001A703869FDF7C4FD00BF1837BD4680BD73
:104F1000C41C0020C01C0020C51C0020F0B587B0B8
:104F200000AF786000237B6156E1AF497A69134690
:104F30009B001344DB000B441D3300221A70AA4966
:104F40007A6913469B001344DB000B441C331B7827
:104F5000002B00F03E81A4497A6913469B0013445C
:104F6000DB000B44D3E900347A6811464FF00002AD
:104F7000A24208BF99421AD29B497A6913469B0004
:104F80001344DB000B44D3E900567B684FF0000468
:104F900029463246C91A62EB0402934C78690346EB
:104FA0009B000344DB002344C3E9001211E18E4956
:104FB0007A6913469B001344DB000B441F331B78B4
:104FC000002B0AD188497A6913469B001344DB0001
:104FD0000B441C3300221A70E6E07B6819464FF040
:104FE0000002814C786903469B000344DB002344A4
:104FF000D3E900560B4614465B1B64EB0604C7E975
:10500000023479497A6913469B001344DB000B4450
:105010000833D3E9004574497A6913469B00134469
:10502000DB000B440833D3E90023D7E9020117F072
:10503000E9FAA41A65EB030521462A466A4C786909
:1050400003469B000344DB002344C3E90012664986
:105050007A6913469B001344DB000B4410331B6832
:10506000002B50DD60497A6913469B001344DB0036
:105070000B44143319685C487A6913469B00134447
:10508000DB00034410331B68194457487A69134600
:105090009B001344DB0003441433196052497A69BE
:1050A00013469B001344DB000B4414331B681D2B79
:1050B0007AD94D497A6913469B001344DB000B44AF
:1050C000D3E90034591C44F10002474C7869034687
:1050D0009B000344DB002344C3E9001242497A6980
:1050E00013469B001344DB000B4414331B68A3F1ED
:1050F0001E013D487A6913469B001344DB000344BC
:105100001433196050E038497A6913469B00134400
:10511000DB000B441433196833487A6913469B004B
:105120001344DB00034410331B68C91A2E487A6904
:1051300013469B001344DB000344143319602A49CF
:105140007A6913469B001344DB000B4414331B683D
:105150001D2B29D924497A6913469B001344DB008F
:105160000B44D3E9003413F1FF3144F1FF321E4CFC
:10517000786903469B000344DB002344C3E9001223
:1051800019497A6913469B001344DB000B4414331E
:105190001B68A3F11E0114487A6913469B0013444F
:1051A000DB000344143319600F497A6913469B00EE
:1051B0001344DB000B4418331B68002B09D00A4949
:1051C0007A6913469B001344DB000B441D33012214
:1051D0001A707B6901337B617B69032B7FF7A5AE76
:1051E00000BF1C37BD46F0BD201C002090B583B029
:1051F00000AF00237B6022E014497A6813469B00CD
:105200001344DB000B441D331B78002B14D00F49D3
:105210007A6813469B001344DB000B4418331C6868
:1052200078680A497A6813469B001344DB000B44F4
:1052300020331B681946A0477B6801337B607B687D
:10524000032BD9DD00BF0C37BD4690BD201C0020CC
:1052500090B58BB000AF78604FF0FF334FF0FF3464
:10526000C7E9063400237B6227E031497A6A134696
:105270009B001344DB000B441C331B78002B19D01C
:105280002B497A6A13469B001344DB000B44D3E995
:105290000012D7E90634A24208BF99420AD2244933
:1052A0007A6A13469B001344DB000B44D3E90034B5
:1052B000C7E906347B6A01337B627B6A032BD4DD4A
:1052C0001C4B00221A70D7E90634B4F1FF3F08BF27
:1052D000B3F1FF3F27D0D7E90634C7E904346FF0B4
:1052E0006403FB60FB6819464FF00002D7E9043401
:1052F000A24208BF994201D20B461446C7E90634C0
:105300000D4A7B6813600420FFF76EFDBA697B6865
:10531000134419460120FFF74DFD064B01221A7078
:105320000420FFF785FD00BF2C37BD4690BD00BFB0
:10533000201C0020C51C0020C01C002080B483B0AD
:1053400000AF7860044A7B68D36200BF0C37BD466B
:105350005DF8047B704700BF00300E4080B483B01E
:1053600000AF7860064B1A6B7B68DB43044913403F
:105370000B6300BF0C37BD465DF8047B704700BF70
:1053800000300E4080B483B000AF7860054B1A6BDC
:1053900004497B6813430B6300BF0C37BD465DF8BF
:1053A000047B704700300E4080B483B000AF064BE2
:1053B0001B6B7B60044B5A6A7B68134018460C37A2
:1053C000BD465DF8047B704700300E4080B500AFED
:1053D00000F002F800BF80BD80B582B000AFFFF7DB
:1053E000E3FF78607B68002B1CDA224B1B681B688C
:1053F000002B12D01F4B1B681B683B601D4B1B68AA
:1054000008220021184617F000FB00F0F9F80346C7
:105410001A463B680021104698474FF00040FFF7BE
:105420008DFF20E07B6803F08043002B1BD0124BE4
:105430001B681B68002B12D00F4B1B681B683B605E
:105440000D4B1B6808220021184617F0DEFA00F009
:10545000D7F803461A463B680121104698474FF09B
:105460008040FFF76BFF00F031F800BF0837BD4602
:1054700080BD00BF1C1D0020181D002080B485B019
:1054800000AF78600F4B1B6819467B68DB000E4A43
:10549000A2FB03239B08CB1AFB60FB6813F1800F70
:1054A00003DA6FF07F03FB6004E0FB687F2B01DD14
:1054B0007F23FB60FB685BB218461437BD465DF87E
:1054C000047B7047201D0020CDCCCCCC80B582B0B1
:1054D00000AF00237B6024E0444A7B6852F83330FD
:1054E000002B1BD0424B1B681B68002B06D17B682E
:1054F000DB003E4A13443E4A13600FE03B4A7B68A0
:10550000DB0013441A793A4B1B681B799A4205D980
:105510007B68DB00354A1344354A13607B680133EE
:105520007B607B68042BD7DD00237B6024E0314A5D
:105530007B6852F83330002B1BD02F4B1B681B6845
:10554000002B06D17B68DB002A4A13442A4A1360E9
:105550000FE0284A7B68DB0013441A79264B1B684E
:105560001B799A4205D27B68DB00224A1344224A07
:1055700013607B6801337B607B68042BD7DD1C4B99
:105580001B681B68002B0FD01C4BDB6923F0FF034B
:10559000174A126812791146184A0B43D3614FF02B
:1055A0008040FFF7EFFE03E04FF08040FFF7D6FEAC
:1055B000114B1B681B68002B10D0104BDB6923F4C8
:1055C0007F430D4A12681279120211460B4A0B43AF
:1055D000D3614FF00040FFF7D5FE03E04FF00040ED
:1055E000FFF7BCFE00BF0837BD4680BDC81C0020C9
:1055F000181D0020F01C00201C1D002000300E4053
:1056000080B582B000AF064B1B6ADBB27B60786866
:10561000FFF734FF03465BB218460837BD4680BD2E
:1056200000300E4080B483B000AF786039607B6892
:105630003A685A6100BF0C37BD465DF8047B70477D
:1056400080B483B000AF78607B68DB6818460C37A5
:10565000BD465DF8047B704780B582B000AF0A4854
:10566000FFF7EEFF78607B6803F01003002B06D095
:1056700010210548FFF7D6FF044B01221A7000BF26
:105680000837BD4680BD00BF00800140241D0020BA
:1056900080B588B000AF78600023FB610023BB6158
:1056A0007B68FB6027E07B681B68184618F0BDF933
:1056B0000346BB607B685B68002B07D07B685B6838
:1056C000184618F0B2F903467B6101E000237B61C4
:1056D0007B689B68002B0BD0FA69BB689342B8BF0C
:1056E0001346FB61BA697B699342B8BF1346BB613D
:1056F0007B6810337B607B68002B03D07B681B6862
:10570000002BD0D1284818F04DF8284818F04AF856
:10571000FB687B603CE0264B3B617B689B68002B11
:105720002AD0FB6959427B681B681A46214817F04A
:10573000B1FF7B685B68002B07D07B685B681B78D8
:10574000002B02D07B685B683B61BB695B423A69B6
:105750001946194817F09EFF7B68DB68002B11D0B3
:105760007B68DB681B78002B0CD07B68DB681946F4
:10577000124817F08FFF05E07B681B681946104838
:1057800017F088FF0A2017F09DFF7B6810337B60BD
:105790007B68002B03D07B681B68002BBBD10123E7
:1057A00018462037BD4680BD042902002429020086
:1057B0007C29020080290200842902008C29020031
:1057C0009029020080B485B000AFF860B9607A60BB
:1057D0003B60FB68002B02D0BB68002B01D101238A
:1057E0000FE0FB68BA681A60FB6800229A60FB68E9
:1057F0007A68DA60FB683A681A61FB6800221A71FD
:10580000002318461437BD465DF8047B704780B509
:1058100088B000AFF860B9607A600023FB75FB6860
:10582000002B02D0BB68002B02D14FF0FF337AE08F
:10583000FB689A687B681A44FB68DB689A4202D36B
:105840006FF001036FE0FB689B68FB61FB681A68FF
:10585000FB689B6813447A68B968184617F0B1F87A
:10586000FB689A687B681A44FB689A600023BB61F6
:105870003EE0FB681A68FB6913441B780A2B06D0CC
:10588000FB681A68FB6913441B780D2B2DD1FB684C
:105890001A68FB6913441B78BB75FB681A68FB69BF
:1058A000134400221A70FA69BB699A4208D0FB6857
:1058B0001869FB681A68BB691344194600F0B6F80A
:1058C000BB7D0A2B07D1FB681B790D2B03D1FA692D
:1058D000BB699A4203D0FB7D0133DBB2FB75FB69E8
:1058E0000133BB61FB68BA7D1A71FB690133FB614F
:1058F000FB689B68FA699A42BBD3BB69002B10D046
:10590000FB689A68BB69D21AFB689A60FB681868E2
:10591000FB681A68BB69D118FB689B681A4617F0C8
:105920005BF897F9173018462037BD4680BD80B523
:1059300082B000AF786000220021786819F00EF87C
:10594000034618460837BD4680BD80B582B000AF1B
:10595000786000220021786818F070FF034618462E
:105960000837BD4680BD000080B584B000AF7860C8
:105970000B46FB700023FB73FB78733B042B1BD897
:1059800001A252F823F000BFAF590000B95900003E
:10599000A9590000A35900009D5900000423BB60D1
:1059A0000CE00223BB6009E00123BB6006E0042396
:1059B000BB600123FB7301E0002306E0FB7B1A467A
:1059C000B968786800F0C6F9034618461037BD4636
:1059D00080BD00BF80B485B000AF78607B68FB609D
:1059E0007B68BB6014E0BB681B78082B07D1FA68A2
:1059F0007B689A4209D9FB68013BFB6005E0FB68C4
:105A00005A1CFA60BA6812781A70BB680133BB601E
:105A1000BB681B78002BE6D1FB6800221A7000BF20
:105A20001437BD465DF8047B7047000080B59CB01C
:105A300000AF78603960002387F86F307B683B6681
:105A40003868FFF7C7FF07F15C031A465149386809
:105A500018F064FEB866BB6E002B68D1012394E099
:105A600000237B667B689B68002B5DD07B681B688E
:105A70001946B86E17F0A4FF0346002B54D17B687B
:105A80001A687B6E9B0007F170010B4443F8642C8D
:105A90007B6E01337B6607F15C031A463D490020AB
:105AA00018F03CFEB8661BE07B6E9B0007F17002AD
:105AB0001344BA6E43F8642C7B6E01337B667B6EB5
:105AC000132B05DD012138680AF0FCFD00235CE0A2
:105AD00007F15C031A462F49002018F01FFEB86634
