:020000040000fa
:10000000e8ff0120050400006d0400006d040000fd
:100010006d0400006d0400006d0400006d0400001c
:100020006d0400006d0400006d0400006d0400000c
:100030006d0400006d0400006d0400006d040000fc
:100040006d0400006d0400006d0400006d040000ec
:10040000060000001049086800281bd00f4a9047da
:100410000d490868002815d00d4a012010600d4aca
:1004200011600d49012008600c4a0020106008206e
:1004300008600b4a10684008fcd2054a0020106092
:100440000848004708480047fc41e00fd905000074
:1004500008000e4010000e400c000e4018000e4028
:100460001c000e406d04000095040000bff34f8f88
:10047000054944f244400860bff34f8f03490448e4
:100480000860bff34f8ffee700500e400ced00e018
:100490000400fa0500b54148414a4249121a91b098
:1004a0009208002393424fea830465d13e4b3f4ab2
:1004b00021440020934265d13d483e4b1b1a9b08c6
:1004c00000229a4261d13c4b3c4a0021934262d1c6
:1004d0003b4ad2f84031d801fbd4d2f8903099078a
:1004e000f7d538494c684b6823f0407343f080736c
:1004f0004b60354b1569d3f8b030136101f036fd10
:1005000001f084fc00f0aaf800f0fefb00f0b6fe5b
:1005100000f0f0f908b100f0d7fa294bd3f84021e8
:10052000d201fbd4d3f890209007f7d51d61244b5e
:10053000d3f84021d101fbd4d3f890209207f7d50e
:10054000204b01215c60684600f0a6fc01a90098e0
:1005500000f053fc20b9039b1c4843f0010398476b
:10056000bff34f8f1a491b4bca6802f4e062134372
:10057000cb60bff34f8ffee751f8234040f8234094
:1005800001338fe743f8040b94e751f8224040f819
:100590002240013295e743f8041b97e70000002052
:1005a000200100207023000020010020d001002045
:1005b00000040020080400200c0400205027002024
:1005c00000400e4000000e40b081e00fd42100003a
:1005d00000ed00e00400fa0580b400af00bfbd46a6
:1005e00080bc704780b400af00231846bd4680bc75
:1005f000704780b485b000aff860b9607a600323bb
:1006000018461437bd4680bc704780b485b000af33
:10061000f860b9607a60032318461437bd4680bc81
:10062000704780b483b000af786039600323184608
:100630000c37bd4680bc704780b400af002318461d
:10064000bd4680bc704780b483b000af78600323a0
:1006500018460c37bd4680bc7047000080b483b09c
:1006600000af074b9b697b607b6843f010037b60a6
:10067000034a7b68936100bf0c37bd4680bc70475e
:1006800000300e40044a536843f010035360034b9c
:1006900044f244421a60704700000e4000500e4081
:1006a00010b5002300f110044ff0ff3210f8011bc9
:1006b000914218bf00230133042b04d0a0420a4604
:1006c000f4d1012010bd0020fce7000008b501f0c6
:1006d0004bf8bff34f8f0549054bca6802f4e0623f
:1006e0001343cb60bff34f8ffee700bf00ed00e088
:1006f0000400fa051fb5436a8b4204d84ff0ff305f
:1007000005b05df804fbc269531c1ad0036b8b4221
:1007100004d98269c9431344585cf1e70a48c91aed
:100720000023cde900300948013a521a01230df1a6
:100730000f01006800f0dafb0028dfd19df80f0000
:10074000dee70020dce700bfa08601003c040020bb
:1007500038b5026a836a9a42044602d34ff0ff30ea
:1007600038bdc36a0f2b11d941690c48102200f023
:10077000c9fd05460028f1d110232246074920690a
:1007800001f012fc6369e56210336361236a01338f
:100790002362e36a5a1ce262e05ce1e75017002042
:1007a000f7b51446114e124a0023cde90032054632
:1007b0000246234630680f4600f00afc10b10020c4
:1007c00003b0f0bd0b4b0c49cde900033a4623467c
:1007d000306800f08bfb0028f1d1224606492846fc
:1007e00001f0bcfcb0fa80f04009e9e73c040020cd
:1007f00020a10700a086010050170020c369013323
:1008000010b5044616d0036b8269581c2063d1547e
:10081000d4e90c3293420dd3d4e90601fff7c0ffaf
:1008200010b9a36b0133a363e369626b1344e36103
:1008300000232363636a01336362002010bd00005c
:10084000f0b51d46244b9fb007460c461868694614
:10085000164600f0d2fa20b1731c39d14ff4805300
:100860000493049b22681992b3f5805f84bf4ff410
:1008700080530493194b1a49cde91337194b4ff0a4
:10088000ff32cde915360023cde91a23049acde9cc
:100890001733cde91c230fa8134b144a01f0def9de
:1008a000134a1d9b11680b44136028b105200de00d
:1008b000ff210fa8fff7a2ff1b980028f8d1189b73
:1008c000ab4207d8169a013200d023601fb0f0bdaa
:1008d0000820fbe70620f9e73c0400200c04002078
:1008e000fd07000048040020f50600005107000045
:1008f000681400202de9f04f534d544b2b60a7b0e6
:10090000534b00220df11b001a6000f021fc00285f
:1009100040f098809df81b305a1e012a40f29280c8
:10092000052b00f08f800ba800f0b6fe002840f0e9
:1009300089800f9b002b40f08580109c621c40f04a
:100940008180fff79ffe9df81b30032b02d1022010
:10095000fff7bcfe042b01d10320f9e70d9b3d4eb0
:100960003d4f3e48a3f1300131603d4930220a60dd
:100970003a603c4a402111603b4a403b13602021d1
:10098000102200f0bffc00285cd13b68dff8e0b02b
:10099000d6f800a004932e68054606eb451112a870
:1009a00000f038ffbaf5805fddf8109094bf4ff08b
:1009b00000084ff0010857466fb1b7f5805f3b461e
:1009c00028bf4ff480531a4649465846059300f015
:1009d00099fc059be8b11022204907a801f0befb55
:1009e000002808bf2c4601351c2dd6d1631c1f4d95
:1009f0000ad006eb44163046fff752fe20b106f14e
:100a00001000fff74dfec8b94ff0ff332b600420f4
:100a10009ee7ff1a994404d1b8f1020f08bf4ff0c6
:100a20000308cde90138cdf800b0102307aa002152
:100a300012a801f0edf94ff00208bde72c6027b0d5
:100a4000bde8f08f0020fae74c1400208038000049
:100a5000681400206014002040040020501400207e
:100a60007c1400204404002064140020481400205a
:100a700050170020f0b5124e95b00746012405a985
:100a80003068039400f0b9f9b0b9bfb10a9d049081
:100a9000013f6d423d400b4f049bab4202d9012008
:100aa00015b0f0bd0097002303aa04a93068039491
:100ab00000f0d8fa0028efd00020f1e72046efe759
:100ac0003c04002040420f002de9f04f7c4b7d4854
:100ad0001968c3b0102200f015fc002840f0ec802b
:100ae000794a7a4b11681b68764a7948dff8f081b9
:100af000dff8f0b101eb4311103100f076fe754bd9
:100b0000d3f80090744b1f680fb93e46cae010221c
:100b1000494603a809f1100a00f0f4fb002840f050
:100b2000c0800f2f40f2c680049b03f11002974251
:100b3000c0f0c080069a002a40f0bc80644d029349
:100b40000fcd18ac0fc40fcd0fc495e80f0084e88b
:100b50000f000398c8f8000024a900f04ef90028ff
:100b600040f0918033a8259d00f096fd002840f0cc
:100b700085809df8e4304bb99df8ca30022b05d131
:100b8000359b203ded1a299b5b421d402b464ff0c3
:100b9000ff3202a95046fff753fe0646002840f0f8
:100ba0008180d8f80030013376d02846fff762ff05
:100bb000002876d00df1600cbce80f00444c0fc447
:100bc000bce80f000fc49ce80f0084e80f00324619
:100bd0002b4602a95046fff733fe0646002861d196
:100be0009df8c930002b57d011a800f055fd139b7c
:100bf000d8f800000990203b0793bdf85030adf8bd
:100c000020309df852308df822309df853308df809
:100c100023309df814308df828309df815308df86c
:100c200029309df816308df82a309df817308df850
:100c30002b3033a9029b0b9300f0dff860bb349b91
:100c4000232b29d901230093cdf804b014231022bb
:100c50000ca9d8f8000000f049f9e8b90cab11aaca
:100c60009a4215d818d11422102107a8fff798fd31
:100c700090b91a4a1368013313600de04ff0ff3347
:100c8000c8f8003082e74ff0ff35c8f800507de724
:100c900013f8011bff29e3d0049b10339944ff1a7a
:100ca00032e708260d4b1b68002b0cbf3046012095
:100cb000fff70cfd0726f5e743b0bde8f08f00bf56
:100cc0007c1400206c1400204c14002048140020d8
:100cd0000c04002044040020641400206814002048
:100ce0003c040020a086010010b5064900235a18d4
:100cf0009468844204d01033802bf8d14ff0ff3237
:100d0000104610bd0038000010b501f0e1f90446ae
:100d1000fff768fc002c18bf204610bd70b51446c4
:100d20000e461d46fff7e0ff421c11d042686319d2
:100d300093420fd8c36801689b0721442a46304676
:100d400002d5fff756fc70bdbde8704001f0ccb98c
:100d50000520f8e70420f6e7f8b517460c461e46ce
:100d6000fff7c2ff421c054611d04268a319934207
:100d70000fd8eb6800689b0720443246394602d5fd
:100d8000fff743fcf8bdbde8f84001f015ba0520b7
:100d9000f8e70420f6e773b50e461546fff7a4ff03
:100da000336802681344421c0446019310d08db18d
:100db000c3689b07294601a807d5fff732fc2268c4
:100dc000019b9b1a336002b070bd01f0f1f9f6e7a8
:100dd0000520f4e70420f2e708b5fff785ff421c81
:100de00009d0c3689b0702d5fff726fc08bdbde804
:100df000084001f083b90020f8e7f0b58db00c464b
:100e0000fff772ff421c05462ed0c3689b0701a85e
:100e100027d5fff718fcab6823606b6863602b680d
:100e2000a360074601ab04f10c020df12c0c1e4629
:100e300003ce664510605160334602f10802f6d1d8
:100e400030681060eb68c3f3400284f8382003f088
:100e500001029b0884f8392084f83a3038460db0f6
:100e6000f0bd01f04df9d6e70527f7e770b5094d5c
:100e7000002305eb0314dab2a468661c08d00e78d0
:100e8000964288bf40f823400133082bf1d11a461f
:100e90000a7070bd00380000f0b599b00f4618a96f
:100ea000082301f85d3d4ff0ff330360064601a8bb
:100eb000fff7dcff00259df80330ecb2a34201d818
:100ec00001200fe018ab03eb840409a954f85c0c73
:100ed000fff793ff40b99df85e30bb4204d154f850
:100ee0005c3c336019b0f0bd0135e4e72de9f04f0b
:100ef00091b0884601a9074691469a46fff77dffc3
:100f00008346f0b90e9e1b9d9df86840b54204f1e2
:100f1000010438bf3546e4b253464a464146384696
:100f2000fff7fcfe834640b93846fff755ffad1b7f
:100f300018b1002df8d14ff0060b013c14f0ff045e
:100f4000ead1584611b0bde8f08f000030b589b045
:100f500005460c46fff7c8fe431c34d0c368d807cb
:100f600002d4012009b030bd18490123cde9003178
:100f70001022142303a92846fff7b8ff0028f1d157
:100f8000039b002bedd01a07ebd1059a0132e8d074
:100f90009df81850ff2de4d09df81910ff29e0d0de
:100fa0009df81a20ff2adcd020332360bdf81030d2
:100fb000a3809df81230a3719df81b30e57121725a
:100fc0006272a372cee70520cce700bfa0860100c5
:100fd0002de9f04f95b00d461f4605a99df87830d4
:100fe000009093460293fff708ff804638b91f9b95
:100ff000ddf848904b4538bf4b4601931fb940463a
:1010000015b0bde8f08f099b5c422c401c44dde923
:10101000016aeb19a3428cbf641b3c4623465a4627
:1010200029460098fff798fe034660b9009803939d
:10103000fff7d2fe4e45039b0fd3a6eb090610b176
:10104000002ef3d106231af1ff3ae7d21bb925444b
:10105000a3443f1bd2e79846d1e70026b04218bf11
:101060000623f0e72de9f04790b00f4601a90646a8
:1010700090461c46fff7c1fe8246e8b9189b0e9dbc
:10108000ab4238bf2b4601349946e4b2424639465a
:101090003046fff780fe824650b93046fff79cfe8f
:1010a000a9eb050920b1b9f1000ff6d14ff0060afe
:1010b000013c14f0ff04e9d1504610b0bde8f087c0
:1010c000044a00231370044a1360044a1360044a5c
:1010d00013707047c0010020bc010020c401002033
:1010e000c101002030b5164b91b001a91868fff777
:1010f00084fef8b9134b02991b78134c134a13b1b1
:101100002060116016e0039d05f110032d699db16b
:101110002d0711d19d6801350ed01d7bff2d0bd001
:101120005d7bff2d08d09d7bff2d05d01b692360c3
:10113000cb1a136011b030bd00232360e1e700bf7c
:1011400024010020200100202c0100202801002083
:101150002de9f04f3f4c8bb023780390002b75d1d5
:10116000052323703c4b1b78002b71d1dff808a1bd
:101170003a4e3b4a4ff00109cde9009a102312681c
:10118000306806a9fff7b2feb046054638b910220e
:1011900006a9344800f0e2ff40b10223237023780f
:1011a000039a284613700bb0bde8f08fcde9009a82
:1011b0002d4e2e4fd8f800003a6810233146fff725
:1011c00095feb34605460028e9d13668284ba6f1be
:1011d00040029a4201d8330701d00323dee73f687b
:1011e000cdf810a0bf1b4ff6ff79049b0193702e22
:1011f0004ff00003b246009328bf4ff0700a5346e9
:101200003a461c49d8f80000fff770fed8b9574499
:10121000a6eb0a060346174a0593d15c484600f040
:1012200017fb059b01339a458146f4d1002edcd192
:10123000bbf804304b450cbf4ff006094ff00409d2
:1012400084f80090abe74ff6ff79f1e70025a6e7b9
:101250000725a4e7b4010020c001002024010020dc
:10126000b8010020c1210000a4010020a00100203d
:10127000c0ff0f0030010020a086010070b51a4c9d
:101280001a4d04212046fff707fe2646e0b92368e1
:10129000013319d0164b01221a70fff723ff0446c1
:1012a000e8b9144b144a1b6812681344134aa3f19b
:1012b00010011160124a203b1360fff701ff2870f4
:1012c0000a48fff745ff0de002210748fff7e4fd5c
:1012d00028b93368013302d0054b1870dde70523c8
:1012e0002b700124204670bd24010020b401002091
:1012f000200100202c01002028010020b80100203e
:10130000a0010020314b2de9f34715461a78074616
:101310000c46002a53d12e4b1b78062b4fd12d495a
:101320000b682033a34288464bd91b1bab4248d3e2
:10133000002846d01f2c2dd8dff8a8a0dff8a890f1
:10134000254ecde9002a254a306812681023494607
:10135000fff7ccfd80bbcde9000a214a3068126856
:10136000102309eb0301fff7c1fd28bbc4f12006e0
:10137000ae4228bf2e464ff000404ff0ff33c9e980
:10138000060309eb04013846324600f0f6fe344409
:10139000ad1b3744bdb1124b12491a68d8f8003062
:1013a0000d48203ad21a0023cde9003122442b46c1
:1013b00039460068fff79afd02b0bde8f0870720c4
:1013c000fae70420f8e72846f6e700bfc00100204e
:1013d000b4010020a401002024010020b801002055
:1013e000a0010020a0860100300100202de9f0437b
:1013f000194e1a4d95b0074605a93068fff7fdfc58
:101400002b78012b14d0164b164a1c680a9b1268c5
:10141000dff854905b421a400f3403921c404ff0a7
:101420000108039ba34205d985f80080fff748fe19
:1014300000200de0cdf8108007b1b847cdf800903e
:10144000002304aa03a93068fff70cfe0028e8d0a7
:1014500015b0bde8f08300bf24010020b4010020d6
:10146000b80100202c01002040420f006f2838b541
:1014700004460d4601d8012038bd0307fbd1094bb6
:101480001b688342f7d31046fff7b0ff0028f2d164
:10149000054b01221a70054b1860054b1c60054b6b
:1014a0001d70e9e728010020c0010020bc010020d8
:1014b000c4010020c10100202de9f04f1d46684bfa
:1014c00085b014461a780293064689463ab9fff762
:1014d000f7fd03232b70042005b0bde8f08f6148b1
:1014e0000368b342834604d0fff7eafd0420287066
:1014f000f2e7a00703d0fff7e3fd0523eae7702c2e
:10150000f9d859480390d0f800a09a45ecd3aaeb3b
:101510000303a342efd319b9fff7d2fd0723d9e79d
:10152000012a68d1c6f12007a742dff8588128bff9
:1015300027463a4608eb060000f01ffef3191f2b62
:10154000cbf8003001d80020d1e7102247494046af
:1015500000f004fe28b1fff7b3fd06232b70012035
:10156000bae7d8f81030424aa3f140019142f2d8cc
:101570001907f0d1d8f8182032f00042ebd1d8f892
:101580001c100131e7d120339a45e4d14ff00043dc
:10159000c8f81830374bdff8f8a01b7888f81630f9
:1015a000354b36491a70364bcde900231023354aa6
:1015b0000968daf80000fff70bfd08b10823cde752
:1015c0002f4bdff8d0803049cde90003424610238d
:1015d0000968daf80000fff7fbfc0028eed198e874
:1015e0000f00dff8a8c08ce80f00029a02231370e6
:1015f0003e44e41bb944002ca5d02246494621486c
:1016000000f0bbfd204b1e4a1968204b20481b6888
:101610002039c91a0023cde9003231442346194a42
:101620000068fff7d5fc0028c8d1dbf80030124e67
:101630001c44039b30701b68cbf800409c4282d155
:10164000fff73efd30703046fff782fd10b933786a
:10165000062b01d0022381e701232b703ce700bf5a
:10166000c0010020bc010020c4010020c1210000f5
:10167000c0ff0f00c1010020b4010020b80100200c
:1016800020a1070030010020a0010020a4010020bb
:10169000240100204001002030b5164d044691b0d1
:1016a000fff720fd2b682360134b1a682032a260dd
:1016b0009a88a2819a79a2739a682261da68db79a2
:1016c000e3730e4b62611b7823760d4b01a91868fa
:1016d000fff793fb20b14ff0ff33636011b030bdd3
:1016e0002b68069a0d99b3fbf2f20a9b0b44534305
:1016f000f3e700bf28010020a40100202001002002
:101700002401002030b5144b89b00df10f001d6885
:10171000fff71efd0446e0b99df80f30062b18d1e7
:101720000e4b9a6892b10fcb0df1200c0ce90f0013
:1017300062460b4b42f8084dcde9004309480423ab
:1017400005f108010068fff743fc0446204609b094
:1017500030bd0724fae700bfa0010020a40100204b
:1017600020a107002401002030b50f4bda680132b8
:1017700087b0054616d10d4a14680fcb0df1180c31
:101780000ce90f000a490b486246002342f8045d49
:10179000cde90031042304f10c010068fff718fcc7
:1017a00007b030bd0720fbe7a4010020a001002006
:1017b00020a107002401002030b501f1100300f141
:1017c0001005002213f8014d42ea440205f8012dec
:1017d00093f900408b424fead472f3d1002cbebf84
:1017e000c37b83f08703c37330bd30b5034601f17b
:1017f000100451f8045b43f8045ba142f9d11030a6
:1018000002f1100352f8041b40f8041b9a42f9d16c
:1018100030bd000030b50d4d85b004462a46fff7b7
:10182000e4ff10236a462946204604f1300500f003
:10183000bbfb04f120012846fff7beff294604f157
:101840004000fff7b9ff05b030bd00bf1c2200000b
:1018500040ba80b24140c1f30310484080ea0030f2
:1018600000b2430103f4ff53584080b27047f0b513
:101870000368064689b09c1e1f4603f11e00002522
:1018800024f8025f8442fbd1002595421fdbb3f9a7
:101890000000904235d0012037f9025fd5eb4000bf
:1018a00013d4bc42f8d10024adf8024001242746ed
:1018b00001343df8175033f817700f2c3d442df8c4
:1018c0001450f4d1002393420adb09b0f0bd31f982
:1018d00015c033f81c00013023f81c000135d4e793
:1018e00031f913405cb108af07eb4404756834f973
:1018f000207c07f1010c25f8173024f820cc0133a7
:10190000e1e70020e1e770b5056904460e4663692a
:10191000b34209db0120b04025fa06f29b1b0138d7
:1019200022616361284070bda36820689847002841
:1019300004da012104f1180000f030fc6369c0b240
:101940009840083305436361e1e72de9f84f054608
:101950000b68d0e9040200270e4603f1020ab846dc
:10196000bb464ff0010962b9d9f1100437d0aa681b
:101970002868904700282cda012105f1180000f0b2
:101980000dfc00f00103baf9004043ea0b03a3eb9e
:10199000040cc4454fea50000af102010eda6a69ec
:1019a0002861a2eb090202f00702a3eb08036a61b7
:1019b0003b44726832f91300bde8f88f2744444471
:1019c000013a4fea44084fea430b09f101098a46fc
:1019d000c9e7082c2246c0b2a8bf0822c3e76ff0af
:1019e0000900e9e72de9f84f314f82460e4690464f
:1019f00031465046fff7a9ff041e0cdbff2c0ddc1f
:101a0000daf80430002bf3d0e1b2daf8000098479e
:101a10000028edda01242046bde8f88fb4f5807f78
:101a200001d10024f7e76ff480731c441c2c38dcd0
:101a3000204b37f9145033f914105046fff763ff69
:101a4000414683465046fff780ff041ee3db1a4af7
:101a50001a4b32f9141033f914905046fff753ff24
:101a6000daf804201ab9b4f5807fc1d1d9e7ab44c4
:101a700009eb0005013dbbf1000ff4d02946daf86f
:101a80000c30daf800009847011e0ddbdaf804305c
:101a9000daf80000c9b2984700280bf1ff3beadaf8
:101aa000b8e76ff00904b6e76ff00a04b3e700bfc8
:101ab000a4220000de2200002c2200006822000088
:101ac0002de9f04fadf2445d04ab009323ab0193dd
:101ad0000cab0293052114ab06460393fff713ffeb
:101ae000052100f201173046fff70dff042100f138
:101af00001083046fff707ffb7f58f7f044600f374
:101b00009580b8f11e0f00f39180dff84cb14ff0d3
:101b1000000900f1040ab2add14542db6ff00302c7
:101b20009442b8bf14464c4b221d0021132a43d1c6
:101b300029466846fff79bfe00287ad1044607eb4a
:101b40000809a1453edcb5f90032002b7ad03a46af
:101b500029466846fff78bfe002808d075db009aff
:101b6000b2f90030b2f902201344bb426dd14246b3
:101b700005eb470102a8fff77afe002808d067dbd3
:101b8000029ab2f90030b2f90220134443455fd102
:101b900002aa69463046fff725ff0df2445dbde815
:101ba000f08f03213046fff7aefe3bf9193009f103
:101bb000010925f81300afe733f91200013225f8c7
:101bc0001010b3e769463046fff7bffe0028e4db9c
:101bd0000f2804dc25f81400621c1446b1e7102815
:101be00014d14cb3631e0221304635f913a0fff720
:101bf0008afe033022184a4521dc05eb4404002309
:101c00008342ead024f813a00133f9e7112807d161
:101c100003213046fff777fe03304ff0000ae9e773
:101c200007213046fff76ffe0b30f6e76ff002003a
:101c3000b3e76ff00300b0e76ff00400ade76ff0bb
:101c40000500aae76ff00800a7e76ff00600a4e719
:101c50006ff00700a1e700bf182300002de9f04f47
:101c6000adf5317dcde90301cde9052309a80023b8
:101c7000cde9073300f08cfa0646002840f0ab802f
:101c8000dff87c91594fdff87c8103ac01212046bd
:101c9000fff739fe022101902046fff734fe0028ad
:101ca00046d1c4e90400a368206898470028c0f220
:101cb00092805ffa80faa26820689047051ec0f201
:101cc0008a80a3682068dff840b198470bea0525b1
:101cd00045ea0a050028adb27ddb5ffa80faa2680a
:101ce00020689047002876db0bea002b4bea0a0bb2
:101cf0006fea0b0b1ffa8bfb5d456ed16368a3b9ce
:101d0000019b002bc1d030460df5317dbde8f08f31
:101d1000a36820689847011e5ddb63682068c9b22c
:101d20009847013d0028adb25adb002df0d1e7e71e
:101d300001284ad1d9f80030002b3ed02c4bc8f8ee
:101d400000302c4bc8f804302b4b3b602b4b7b6096
:101d500020aa3346082122f813100133902bfad120
:101d600020aa092122f813100133b3f5807ff9d19d
:101d700020ac072224f813200133b3f58c7ff9d16e
:101d80004ff008134ff4907221464046c4f83032a9
:101d9000c4f83432c4f83832c4f83c32fff767fd77
:101da0003246052321f8123001321e2afad1384674
:101db000fff75dfd0023c9f800303a46414603a80d
:101dc000fff710fe00289bd09ee702280ad120468c
:101dd000fff776fef6e7022096e76ff0010093e743
:101de000012091e74ff0ff308ee700bfa0140020e4
:101df000e41400200c15002080140020a8140020fa
:101e0000000400200415002000ffff0070470000c0
:101e10002de9f04f85b004464ff4807088469b460c
:101e20000192dde90e759df8406000f027f94d49fb
:101e300001230b60bff34f8f4b4a002313605360a5
:101e40002368536263685362a3685362e368536212
:101e5000012e029107d8b8f1000f21d1c4e90888fa
:101e60000023c4e90a3304f1300303933e4b04f129
:101e700010014ff080084ff0000904f1400ab5b995
:101e8000029b4ff480701d6000f00cf9019b203420
:101e9000013b04eb0b0294425ed105b0bde8f08f2c
:101ea000d8f800302362d8f804306362d8e7102de8
:101eb0002a4628bf1022ad1a04f10f0007eb020ecc
:101ec00017f801cb00f801cf7745f9d1501e8f18d4
:101ed0000844ddb90eb1032e18d1d2f1100c39d05f
:101ee00001f802806044874231d15246101f0c3203
:101ef00004f10c07009250f8042f57f804cf8cea35
:101f0000020c009ac7f800c08242f4d1084604f1de
:101f1000200c50f8047bc268844582ea070240f82e
:101f2000042cc3f88020f4d105229a601a69920724
:101f3000fcd4d3f880202262d3f880206262d3f8e8
:101f40008020a262d3f88020e262774697e707f804
:101f5000019fc8e7039ac9e714f8011b03f8011fa2
:101f600099e700bf0016c84300000f4000b599b0c4
:101f700004a80a49fff74efc094b0a4a9b6c1b0c4c
:101f80009b02002101934ff0005300930291042320
:101f900004a8fff73dff19b05df804fb1c22000008
:101fa000b081e00f080400202de9f04704464ff40b
:101fb00080700f461d46904600f060f82d490123c1
:101fc0000b60bff34f8f2c480023036023684362ec
:101fd00063684362a3684362e36843624ff0050e9f
:101fe00035b90d604ff48070bde8f04700f05ab885
:101ff0002269c0f880206669c0f88060a369c0f8d3
:102000008030d4f81cc0c0f880c00132c0f808e0ad
:10201000226142b9013666612eb90133a36113b959
:102020000cf10103e36103699b07fcd4d0f8803015
:102030002362d0f880306362d0f88030a362d0f899
:102040008030e362102d2b4628bf102304f1200cb2
:10205000ed1a08eb03093e46c84501d11f44bfe70e
:1020600016f8012b1cf801ab82ea0a0208f8012bd2
:10207000f2e700bf0016c84300000f4072b6074bde
:1020800007491a6801321a600a68104308601a6822
:10209000013a1a601b6803b962b670474c170020fa
:1020a000c801002072b6084b08491a6801321a604c
:1020b0000a6822ea000008601a68013a1a601b6880
:1020c00003b962b6704700bf4c170020c80100205a
:1020d000044b41f671321a649a6822f001029a6048
:1020e0000020704700000e4010b5eff3108472b668
:1020f00000f043f804b962b6002010bd002070471c
:1021000070b5144c0246034604f12806254603cd5b
:10211000b542186059602c4603f10803f6d12868cf
:1021200018600d48836c9bb29b021360436b1b0ebf
:102130000a33012103f01f0301fa03f35360436bd9
:102140001b0e0a3303f01f0301fa03f39360002010
:1021500070bd00bf40230000b081e00f30b5002407
:10216000a24201d1002007e0035d01340d1915f8ea
:10217000015cab42f4d0581b30bd10b5431e0a447d
:10218000914200d110bd11f8014b03f8014ff7e760
:10219000ec46a0e8f05f4ff000007047b0e8f05f59
:1021a000e546080008bf0120704700bf000000009e
:1021b0005ff800f0950000205ff800f001000020bb
:1021c00000534352319a933082d9eb0afc3121e318
:1021d0003700000006000000e0210000002200009f
:1021e0001d0d0000590d0000970d0000d90d0000d5
:1021f000fb0d00006d0e0000990e00004d0f000059
:102200005111000005130000ed1300006d140000d3
:10221000b914000099160000051700000000000026
:1022200000000000000000000000000000000000ae
:102230000000000001000100020002000300030092
:102240000400040005000500060006000700070062
:1022500008000800090009000a000a000b000b0032
:102260000c000c000d000d00010002000300040032
:102270000500070009000d001100190021003100c0
:10228000410061008100c1000101810101020103df
:10229000010401060108010c0110011801200130a0
:1022a000014001600300040005000600070008006b
:1022b00009000a000b000d000f00110013001700a9
:1022c0001b001f0023002b0033003b004300530082
:1022d000630073008300a300c300e3000201000059
:1022e00000000000000000000000000000000100ed
:1022f00001000100010002000200020002000300d0
:1023000003000300030004000400040004000500af
:10231000050005000500000010001100120000007b
:1023200008000700090006000a0005000b00040071
:102330000c0003000d0002000e0001000f00000061
:102340000000100000080000000800000400000069
:10235000000000000000000000000000520000002b
:1023600002a00000ba880000020000000000000087
:1023700040ea020313f003032de9f0433dd1920834
:10238000eff3108672b61e4fbc6844f00104bc60c7
:102390003d464ff0010c4ff0080e934207d3ab6857
:1023a00023f00103ab6006b962b6002026e000eb23
:1023b00083042c61c4f30a04c4f50064a408a2ebee
:1023c0000308444528bf44462344c5f80cc001eb2c
:1023d00084048c42e1d0d1f80080d5f81c9019f02b
:1023e000080ffad0c5f818800431c5f80ce0d7f80a
:1023f0001c8018f0010ffad1ebe70420bde8f08350
:1024000000000e4030b58db0044601a80d4600f026
:102410003bf8039b2268591e114230d1296801986c
:1024200001fb032181422ad81a44d11a4bb92368ef
:10243000039a134423602b68013b2b6000200db0ee
:1024400030bd09680131a3f10403eed0eff3108130
:1024500072b60c4b9a6842f001029a6022681a61c7
:102460000122da600222da60da69d207fcd49a68c3
:1024700022f001029a600029d9d162b6d7e7042080
:10248000dde700bf00000e405ff800f00121000012
:0c2490000100000000000000000000003f
:020000040000fa
:103800000078080000780700050000301000000074
:103810000040000000c0030005010000050000009a
:1038200000f00f0000100000050000200c00000058
:103830000000040000780300050331cc09000000fb
:103840000078070000000100050332cc14000000de
:103850000000000000400000050100100000000012
:020000040000fa
:103880003e1daecf9d0a77f9e2bf6c049026c15071
:1038900017c02538c6427d82d787ad35acbd6b4099
:1038a0004b5c252486b6f8bd77416b954d2753b602
:1038b000f7ab34b47d9fe35f3cc86143c530fe3055
:02000004000cee
:10e1f000f154d5a66b16e7e7a20bfcdc784435a7f3
:10e20000d74425bbe620f86475859789baffdcff03
:10e2100005010000a0c6010005000100000000008b
:10e22000cf33546bceb0b97837497dcf9749a4ca64
:10e230000faede8e44ff29d0470e1d3500e9498719
:10e24000610e44490f7e0ba5a6dadee9d55048a23f
:10e2500081d2c82b2c73be8d57c9f3f1734ade0ee1
:10e26000237814cf5cab820e52a6313e13bb07d18c
:10e27000abdff1f6f5c98233b742f5bf1e6ec32d91
:10e280001719e65a6dd219fa3a767b1ba811954bed
:10e290000dfec343eee4a9a0fa14d3f144aca3d21b
:10e2a00053b114e71234c4bc9072a4b56538bf01f1
:10e2b00079fb98deedea3d322fa6e691ff2a491a56
:10e2c000d17f014ab9bfc52b22ccd5808bb512cde9
:10e2d0004b8cd020bfbe4dd58f8f0e59d5cd7c9b9a
:10e2e000765dcee5afc584f962a00322bdb4465f7a
:10e2f000ae2a52d4854423a727452eef8d73bead99
:10e300000611c7f6b846e0665fe8f336eaeab09071
:10e3100060766f52a3e03d8a0f8145b1f237b13785
:10e32000ac454551ac384fbc88e345c5ed8835094f
:10e33000ffe2389ab40a620f11cdae77042a236740
:10e34000203d36dff9024dcb203f8acf1fe9ecb0ec
:10e35000a4769fa6cf8cf8ef36cb4dbd009db1883b
:10e3600023bea16d3223d6881c1751b937db6edb73
:10e370002df8dc0cfec2120dfbdf212467bcfda9c9
:10e38000945848d3e8659ab8dd76c7a7585202acce
:10e39000e94e98133e380209d53e4760f18ee944b4
:10e3a0008b72077fe52f8e16208f238c481f3945ef
:10e3b000653ebda394622f9fe5cbefdc9f27868b44
:10e3c0001ce063329705afaeb4a91ab8d4804d7182
:10e3d000e399df1a3bb306a3e8e5ecc8e93e54fc39
:10e3e0002fd5267cfd7db744e2bf23590ac922f60a
:10e3f000b6a3977361689d51ad4bb9350dae4ad147
:10e40000e3b40974a00f97b07d21645ee0203d5213
:10e41000672210a313d3129b7e49ccb82a3bcf3b73
:10e42000e09db1de4faf308aad11538535900fab13
:10e43000c3b171ba483c374235bfe74e60e711fcc3
:10e4400045c1eaf3caa08027766705e8837bde270b
:10e450007089a06cdb045f44e18641f6826074043d
:10e460004b2794b3d85277084cb91fdd3d5aa0d83a
:10e47000e18c8c30260422a782438160908f8ec568
:10e480000144a1a7e9b6af536126139f1589985996
:10e49000dea267b8fb38fcfebc7c8cb120628ab47b
:10e4a00047912b3cebe4caad5c59389fbf585deafd
:10e4b0001393f4439f5de74c8a264b9b7a0d21957d
:10e4c000bbada14d1b95b892dc031bccae991eaa27
:10e4d00014ff0ea4f4d08a400963f403d315a39764
:10e4e00091e1277d7a26dfddf7454b5741b803ab35
:10e4f0006c242c7e71ce9ade77632ec4d80167948b
:10e500006baff3285b2ceadd54bb7bbfd2bca656b5
:10e51000024a8e53ebb637b77cef8f97b05bfe0c99
:10e5200085527a4e531ffba519ef80ccb55967fd74
:10e530007d2bb330fe574adb867454a25dce103c6f
:10e54000448347600da7718ac7b9e052cd13981074
:10e550002f529361824218371f2fc2a636e0d4b2e1
:10e5600027510e8f4fe09d2be95b2e66a6ff3a4b9d
:10e57000bf3595e8cee35b747b094b53a4a2d40965
:10e580009decf52d16f2a2bdb5d6425f0a4102d12f
:10e590003d8a04f0e44443152abe671a59887b304b
:10e5a0005cd34bebdf08c45d1ef9e41b2f24dcd6e3
:10e5b00025dcf88c576a873c92669516c93660de72
:10e5c00055d9bc14c418cd198c99ce11f42c23f450
:10e5d00053ce2ac616a17a974eba4774f3a2ead24e
:10e5e000ed68f36b69c802e404d40aac26144a99b6
:10e5f000b4d63234aa1822e892aa5911c9ad23aa76
:10e60000baf7c3b7eb74ec60d5ecb71e1540f3ee68
:10e610001e2cfabb4acbbf7e86a0f0f389caa0e7c6
:10e6200088014876698f66cee60f83601071f5ef3a
:10e6300067f80d70eeca4ca668aa01c35e7470e854
:10e640002bb755d62f8a4d489b5df6efc1fdfd795e
:10e6500042eb6f21df9c5034752d9f81fcf70d2517
:10e660000c51b6b0fcdde789b50352e8f2f188a79a
:10e6700098815c97810daf05357f0d14f53787388c
:10e6800047e8d669788c1c683985099e919fedf31f
:10e69000b12871dcc1313273736fd8023ea05e21a4
:10e6a0004b4dd2923d2b04c47a06a6e5d5cd9b8274
:10e6b000d0780469296821b85a036395bd77f54e6f
:10e6c000668815bc73882943736b87d3e880c9d4e7
:10e6d0001d7c028255bbec749c5cebf823700cc96a
:10e6e000303ef876455166a6ed102f2cdc99b1101e
:10e6f0003b260bd58eea850bba43567eb887595711
:10e700009de10333b153aac595cd2d5d38176d49f1
:10e7100018569c03ca1825e6d56492e629626ad584
:10e7200030c83c7dc494ba0dd7adf7e431dd17494c
:10e730009da65aa3899459466345276383e214df53
:10e740008f3b56ba9024b7cd4567441db54ef7f5bb
:10e7500057e606224d2682fb4dfaffde58e2fdd930
:10e76000f320d4f1792844d5228c21549c92b549c8
:10e770004f400e9dae5e3575ccd7af9aa97dd62b96
:10e7800043d505324c6c443fc008f88fb88642e54b
:10e7900032487fd2451de64bdd16e81421c02559cd
:10e7a0000397e972bbcb4246da1131f1d0a07cabc2
:10e7b000c987f7049bdf19a63946aeadcf218ca0df
:10e7c000efdad3117b0075f004696cc527bc2e55b8
:10e7d0002aef16cdb70fa325df260c11f6f304752b
:10e7e0009d3c5270c4628ae9b0c08fd1e5b05747f2
:10e7f0000479a92b6a49f175b9aeb2a27836cc2c4e
:10e800007a2c68a650bd688b86e1ff154037716190
:10e81000bf30293ca19fdc942db1e8dd5b9a1ef945
:10e82000093e9e2939e9edad3be42421b98d0a6406
:10e83000f22d959dfed24bf76f5858ec7e623458fe
:10e84000645bc6def2ff9b80dbf75ea7d9f79226fa
:10e8500033cc56b299e04b8302e163e0df1f64bd25
:10e86000e3963da61b7f10e2e6f2f975d7ebd49153
:10e870007ad435bc03374fe2356ce758e0fab482fe
:10e8800010d2e3d163fff37d42cc919bb5e8ee60fb
:10e8900061689420a0514ec4f3d143c2afcd99a07a
:10e8a00044a74362ae83120d2d19461ec6f9b76305
:10e8b0001ac272ebe65dd35ccd9243d08843f8aace
:10e8c00044b8cd70deb5892c70090e13e85fd654bc
:10e8d000c484dbfca78bdd6423756872aacd5ad48f
:10e8e000cc3bf734cb05baad8d201d5eef877c3a6b
:10e8f0003147b3e943f5ce8299d748793fdceaae98
:10e90000595315e5375f4b711789668d8f6d489a9e
:10e91000453960b8b0786d26c7f9ff3df3a4866a23
:10e9200054960fe4a54af2563445d9647be87d55e8
:10e93000bf6b1c51606f8a95b869c3640aef8e8102
:10e9400047516d62710f6ac8b7c2125d3ffc016a20
:10e9500041b285974d1ab08bbe8ba4477a0510043f
:10e9600041fc9c7e5916b37c7f6a1086250197b9bd
:10e97000c712236bf198c2fa1673f287073429c5c0
:10e98000ddbb5bfd306c576b00affc6a622220b6ca
:10e99000c4d59a85ed1ffe6a019c1a05cd78a9e9b8
:10e9a00067ca16bf93f803c4ee00b2ab66fde90f69
:10e9b0002f49f91fb358ab32f394f3437aea90121c
:10e9c00005fb392e2c7a3b442b7d49f721e26fc49d
:10e9d000d643fc397c8a113f795dd19c902c9d46b1
:10e9e000ace593f46bb7a19ea2ab54e193ec653612
:10e9f000b1fd3b8396073ea8d7c32d79d4106f5d38
:10ea0000fc6612779f31ac175ab802443ebc6fb710
:10ea100010fc9586c3cf68e2b552c31efd68989f6f
:10ea2000200bd9f419b060e840016cb0f83605d776
:10ea30004ca4646725bfa6e54f442d35aaed9e0280
:10ea400022b0097eb975b91386c132233442df0e74
:10ea50000cbe8f9aa1b092181775ea97d70b28476a
:10ea60008315a5eaaaf3e40e0ba84489bfbec0270c
:10ea7000bf91a0aadd24a9d09c43c7ccf40966bbf2
:10ea80006b0105e6dd60847a49e9c6c3fa23b483e5
:10ea90006658366eecddb01bb376106821605168a5
:10eaa0009452c3526446d1a0a3774e58110d34f44a
:10eab0002b4d147e3a80becbee62021ce25a232319
:10eac0007fe4cc6cddc6a58dfc39399829ce566d16
:10ead0004856c17fc6b18e748863f99da6a92cf5ee
:10eae00006a2bf9e0be23d8a0d29bcb3d1f1cd47f2
:10eaf0003609f8373dc2d7d6fdcf60acb8e7a6a936
:10eb000051b91374e8ef956cf6c8fcda6e48063c10
:10eb10008fc255cd4824a8574b0cceabbd92d243e3
:10eb200042743826a99f645e6044385cf239a7b805
:10eb3000a7d5a58c98427aac71716a560ccb1cd1c2
:10eb4000b5dc170b8d95bc3297920896e13773862a
:10eb5000eee63c08218b00c549b111fc3ca886f2c9
:10eb6000dffc04ce48338b9fe69e90836568c99195
:10eb7000dabbceb471f0959d9eb2e2a6c182ac1410
:10eb8000275d3aabe9d063a6c6f389b8d662f56bc8
:10eb9000d69bd340d649adab259c09eb833abac589
:10eba00046addd1afbc948480b6e7f3017d97f6a26
:10ebb00076c34a5eb7fbc6546c2d2d1956b5cded04
:10ebc0000701c3012248756ac84493d06555b1d284
:10ebd0004232d8f1223454b017ffdf9e9e5aca4207
:10ebe00038d2ec58a95b65500357cd8644f774675b
:10ebf0009b70a978fecbd74c66c9cf8ea907295444
:10ec00002cc67ad813222f91ef2d551b67c0e3da5b
:10ec10006e58f218a886d3eb8b424295e4a4fbc051
:10ec200069cf106178a534bbbb562b2fda976f09db
:10ec300039ded7e3d507d98a5961e66d5962d59a8d
:10ec400046023b565d1d7938376165b212c2b5c4c4
:10ec5000706b1534891da4db282294034867bb160a
:10ec600004b7ba13871f5a0364e08c3cb99db453b0
:10ec7000360b985c0f0cec05298d4b6136fbfd4380
:10ec80003a329407dd6b6c2513c22fea2c16d6e0be
:10ec9000d5705c39304e7ea6f6a158dbf2459293d2
:10eca000a11162230bebfbd9baf0747a5595a147f9
:10ecb000f14e9f16f00cbff5a182a5b2d6e67538cd
:10ecc000627b614632c6bc361da7bbf7adab7d612a
:10ecd0005373f517f19791bba2f043b85f79db91bd
:10ece000072de7235f7f0e6c440411b5c503262c66
:10ecf000b42060986dedd89ada8efd149be2de1395
:10ed0000840b97ab57a4d3ed8537a072e69b96830f
:10ed100010424b546aa7183aae746f57d35502c8c5
:10ed20003354f17673483914053e4eb15b403434a8
:10ed30003e2270d39ea1eee895ba7d70b6bcfc343d
:10ed40006bfd40e72a034dd6919dd2f9ecea5507b9
:10ed5000b6d5076f6a8025161f85528dd8b77ad130
:10ed6000e8aa60ff72e83e2f321c00035672b2df41
:10ed7000be4edfe546bdcf9ac89fe5ed330957bad1
:10ed800028e705275a9dfd5cf0b74e74adc55d3c84
:10ed9000db38e521fe33761bc00368598e0c82c731
:10eda000169925c231ddddd349aa0e0b4830a30cdc
:10edb00060ab9c9534e078e6c9c379157bcfeb3323
:10edc0000bd58532037bad3a1b40f5f0ef5064cd97
:10edd000f8514a0f96669849d32d3bbb45ecbe4a85
:10ede000b77a66c4f37819cc5bc88a32a8cc5d9335
:10edf000ed76b790057925ecf97e268ce735eb3c6e
:10ee0000ba19f75b813556a2a7fe12d97d2f7ad7a2
:10ee10005922966d64c5ce16185b20ceb62b731a98
:10ee2000b132f5ed12fd0f2a281c8db960fbb5a596
:10ee300070d8c63801eaa9e3fd833bfdd2a999bf8a
:10ee400050560b0998a0bb822be280fa145bd5b315
:10ee50007ed442aa230447be5f9d3155e52ffc05b1
:10ee6000685d193d759c53ae5a82b6074f11f5c4c3
:10ee7000f0b61482b63a018c4b0826bae1e7e74bac
:10ee8000bdf43cf05be7b7f8299fb41783cf0f714f
:10ee900033ea96bda7435335469957f1d209322933
:10eea000aee65c3ef75a55933bc4f3da67babe9ab6
:10eeb000e867d044285df72622e8dcb968e5c1c5db
:10eec000ecd41bf92931ef2bfec6c19eb2fbfb31fe
:10eed00086b362b25cb92b90cc520f8839e91e58c8
:10eee0006c481ceca162d6094bf74cd2fb46b775b7
:10eef000fc1967655e097d0a3da2a7003a2b2197a0
:10ef0000945064cbf65eca39d459d13a81097f1b3b
:10ef100002bd960f3af7a1bbe1fb4705bb8bc28749
:10ef2000f02daeff1548d79d90f1a93cf453bf8654
:10ef3000fa2281bdd6ff416367409c109c124a961d
:10ef40009bec696d42584d0dc5026cfb866c6313da
:10ef50005e85f6eebdc293e50f9aa9b7644dd12246
:10ef600045a72a6b5f9c134af66555411cf3b0bf59
:10ef70001a2a4122ed57bb8b25c8d5c75d37b0e1b2
:10ef8000c717d25cc9d70647d7bbed1d285b542ee7
:10ef9000a6907e8fd513ae706366c717d584b7fc75
:10efa0002341ed213d2da4c23fa209bb78cce2fb59
:10efb0007cf021c11150be87004c256941a8de308c
:10efc0005b9c2bcb2442599363eb5d9949333dac59
:10efd00096e3deb67b5eeb369bc8855eb9171324dd
:10efe0007c5c89a90ab48c016fc9c7600974468723
:10eff000908812205cf5236d980b0b33eb35811054
:10f00000d9307065b0768a1bd09f00e343da786f01
:10f010001733288fbe8bd04acc72cb9a59397136b0
:10f02000b1ef0bf129dca514adcf664b65d8d42028
:10f030003c04116d58a066bd9e22e24342c93bb715
:10f040005a5830dd03d3427edaaa4e232dd89dc60e
:10f0500053cd3d91fba1aa1f95c7cd808517fa021c
:10f06000b7fdafaf33d2012059bc7e0a4e2359d928
:10f07000f450e46fa88c8cc96282c3cf649d44991c
:10f080006e6ca7c6d4555da8e2a64991ca6e0f233f
:10f090008ebe1a1e37e68d29a3cb08f1cbadcb214e
:10f0a000e3185f9f14d5b5a1a5d99e8bcf40798f6a
:10f0b0002ccbc5d63d100b923d371e596c143af639
:10f0c00051db6eabb3ce3e36b60e5ad5c65606b63b
:10f0d0008b06220bb440cf71f0294daa38b7a2821b
:10f0e000eb5f6df262cffecc3ce31aeab40c2f6a00
:10f0f000d9ad0d4ce9f2021e122ed796bfa80545d8
:10f1000063891fff175cde68154df54d459078fb50
:10f110004e9af536e11850a29fa7f4735c67820cf3
:10f120008103912d8e0d0c0eabb87fe14e8ba6376f
:10f13000fa9928d5de68b0acd7051c41015281434d
:10f140007e585599953a5dd9246641eb3587bba326
:10f15000c48e2b8bec59ca01815365e3ade33d634b
:10f16000862bc5a74f41e88b91066d7010371c9513
:10f17000f8eff85197f013610f9cb4c5dc9f32355e
:10f180007df2b2d3031796cfe6c756211272ef096c
:10f1900054294ff36df37366c64a9dd351e7cd7c76
:10f1a000d85261564f0a32ab76a9d9070d461105e0
:10f1b00043005c95899d3419ade3ebbe5ada744f78
:10f1c0006cb8c0e573a61c250d8961bb61852a78e2
:10f1d000ddfc89a331f85699d860b28d0043381c04
:10f1e000a7b3fe4ec69a008ebd7f95e3aa9bf8c6d4
:10f1f0001c63aac41c21aadd681e4ba5426b70ca01
:10f20000553cd053c9592f50270c651c803770d2fc
:10f21000d9576ce2fb6713008da50dfe66688b194c
:10f22000cd674b23b88ef1305769ae5615aab5524b
:10f23000bc73c69b1f3c31e00094c65ee6ca389f93
:10f240008e16739b544cb0916d97ed248e5e487072
:10f250009836dad234a9ff760020364525aa57ec35
:10f26000ed95162a052f84a53a22d50175217d9b9f
:10f270000a3c1be5e1a8f42e44d050df45c6ae168b
:10f2800024fda4353ae61ccac1160aef04a428d905
:10f290009e37de962ff070320182dc781a9877174d
:10f2a0009f7bea7ceaa78c35ed6562d64f67e071fb
:10f2b000412e156178a6fed9016e8a544585362007
:10f2c0002dfcbef98c13ac6fc093babf4a135f57c5
:10f2d0008da8693235e875d8c6d215abfb7af141f5
:10f2e000f5e75791218078ebd442cc2d810320dec5
:10f2f0006f64b8fec2af257bb7c01a1f4d3f40e315
:10f30000cd7d218a707440de093d86bcdeda37335c
:10f310005396e8be3f8f3080525bc7746f614c6a72
:10f3200025d6b164044009ee4437d71456d63618b2
:10f330002691bc38f3515d75ab96539e22b6458637
:10f340008ca9dd5f7fd2cd962eb7a4212bd208f6f3
:10f350002f0f34ce70dd4929824bcb1dfb75bfbe0c
:10f360003a136405c8cf2e4258b28555bb87322761
:10f370001de9e3af6ee33abeb7eb8cc19a930a2e58
:10f3800069a0c8ff6e74a7dd34e1fcd5f13a1251d3
:10f39000e88787234a8a2330fe4ac9206a0ed7bcf1
:10f3a0006ffdb173b7f9100d5f88af85fe0fc40f05
:10f3b000d6318fbc67d3d2075fdd87d94cf57b652b
:10f3c000d3979257ccf41f7efae2254a3b752b392e
:10f3d000b66bf2bbe662659b67a019a5fe1462e9f5
:10f3e0006247372acf8294899105be84eed2844f3a
:10f3f0002de9cac2bca7e967764460dd8ac5c2dcd4
:10f400001d393c01887033e567aec050f5c8b8b906
:10f41000fcdb7e90cf0a2bea915b3dd8d0785c88ec
:10f4200092feec37c8413b2e651b2e19829630ebbd
:10f43000f6b8179e0c4a02f77ac685da6ab79121a8
:10f44000afa45e719a3d0bfec16a84666ccc8f439b
:10f450009d147f96d79e3c42e562fd4c36c8bf990d
:10f46000c5c05f8a1b3501772518d0ea8866b8deeb
:10f470002b26f08d1683bb941f2b19c908fe80889c
:10f4800051ced488a368c6833931cd2d1d8eccf8da
:10f4900025ae98348b4b50baba0872fefc300fc2be
:10f4a0002fe6f4883b525541116278cb8788e56e90
:10f4b000ac7c4b015793db6beb06024aa3b9af4b15
:10f4c000d7289e5bf69bd10550362ac9431065a10b
:10f4d0000a34895c7f27b35df111ac945021a907f0
:10f4e000c9bca45bccdb4694ccd5e90b062571b630
:10f4f000b4a2a387c439e4e2a0ca35db7419151598
:10f5000089d613c6994787ab4e42fbc9e32f1cb976
:10f510008c2165859408c406f6e873457e87239d93
:10f520001a7a69ebf6acc91a60e26702ffefc4927f
:10f53000b32465629307167d07082718d1a9cad39b
:10f540006a72317426d08bc3ca0a4cdd8c4077fabc
:10f550004faf1f93e908f709caaf11f5e66c825c5b
:10f5600079f927e7f9aa5bc048614d61d99970e93b
:10f5700059135113b5684f65fc79abe3ba93bdeaf3
:10f58000831f63f45852ca93afb3fcb42675440585
:10f5900035750f38893633f7a052b15e765ff23e8b
:10f5a000c93a049f2987db25e793ffbbbcccc4e79e
:10f5b000bca846f1a4ff93f3ed61e45cc56c12b9fd
:10f5c000f580e6d5e38ff637ef3bd100974e4f2d10
:10f5d000326287005c89fd4cf175b702718f1b9a0e
:10f5e000856a9aeb8442ae7df1dddf0727a0b7f68e
:10f5f00029e1c7847db52078a02f001c50b1755833
:10f600001efcdf6ca0aeb9a6bfcf55ca9f0e0dd4ad
:10f61000f7105d6440cf853daed1b697b82fbcb230
:10f620005376f65c2f5b1eb603bf144b6cef17ad21
:10f630005dfa984cea5e072bd32b3f51bbaf6e703f
:10f64000b0b7bc85e2eeaaed229c29228c9041182d
:10f65000e5d00df79e8ac477bf57fafad104973ddb
:10f66000d5e18914683ca0860e49040ca32e8b16a4
:10f67000a858f79d6d565ffa9593e51d10df97d753
:10f6800005023bad6f19d1d484b637c893fead27c0
:10f690006a5ffb457390337d19c5f501b9d6660fd6
:10f6a00083c898d665935e737c00eea6e42674c981
:10f6b000f30fbc5b4b2d5e7c0d0ed8f0bdb0f87a1d
:10f6c0000ad7fbb47e111dbbeb3f6af0cfd61cb44a
:10f6d0003dbca795109976832a248dcf5f40f760b3
:10f6e000280d1cf476ca4dd724e6856d1ec7023e50
:10f6f000dbd8d9fbec1c5815a4f4078463fbbd4f81
:10f700000bbb85b12922c9bb2648d98bee32684b89
:10f71000abcda140d98b9a3946caa87d0bfa935834
:10f72000c420471e36b2868b1c388b82b22ca4e2d2
:10f7300045f0240a83a0f9fac12de22a814093dc26
:10f740007eaaf46c5ea532823a40a2a6be945c9476
:10f75000e4e4806071b983bf24ad8d1b1e65316602
:10f760003c5d8384055793b5a97134197982c78f9d
:10f77000702e45d853b1361562308fd4755768db7b
:10f780006c795e964bb714a02a9b4117adca95ab16
:10f790008991ee083a5e7e8d8d13b1e46841990b34
:10f7a000d4654c611499272306522fb97ad020755d
:10f7b0003791b9d6cfeb7d787c8f7c4952269680e5
:10f7c0007310db05accb9c03ea9c92581950e4b152
:10f7d000518a35635f3281e1c2f0bbd07a22c341e6
:10f7e00031c548b0b44eb7f713f8809c036c48f9a4
:10f7f0004c8eda40c10055a593f4cff4d6559b8ebc
:10f800005828dd14b6b1bace23d8809d6ef1e4211c
:10f81000fb3a83e944dc4c82c6c5957fa81dd6041b
:10f82000416589278c5dab58ab3a5c34881435e36d
:10f83000bbbd0543f6eedd47c58d13d8d11318ebdc
:10f840002b88adc3ef3287176b966102769d933f8d
:10f8500055988e3c4ce6e04c34c3dd00eed3c1e558
:10f86000bccb10febd53dca9d187867e2807f42ec1
:10f8700021b1d527661c44d41da790a702b2da1681
:10f8800019cfbbd5b5874c42d5d17b1c95c451a4ab
:10f8900098ea723a8972fd1677ebc485064829ed1d
:10f8a000e7d14b7afb0893dcdec95a0a68601c5624
:10f8b0004e613a927505d5b4f2e5040d779d7e7fd1
:10f8c0004df101f2568ce38e109110e0b537259e74
:10f8d000464358d7bea3e21c23dd7d120184d16bc1
:10f8e000b5802a7b3137a8b599c5b5e8b40238365a
:10f8f0001ee614c54eb2cdd7b49fdf4c43668a13c3
:10f900006ef0263797ae791a9f38ed91f5ffab1a56
:10f91000134c7a888202a933008e8ff5be8939276d
:10f92000941ca27c205104fda270f637c85de9004a
:10f93000c5cff644cc6b37b19666338bf46c325b33
:10f940004556427f793cc803a3494c831ff1d45ce0
:10f950001ba952cee71f684237caaaeb98e5b4cd7f
:10f96000797757c4477772d860e3244d4399bc1028
:10f970000d8e6f627c207217f1b50511bbd612cdca
:10f980004d19818b94326e4f744333c6210e16226b
:10f9900067fbccf8155e4e2e95ce3099f454a169d4
:10f9a000abb02c4e21ac8409202676793682afbdcf
:10f9b00003037142d23de6243ccac9fedc3830372d
:10f9c0007337fa44337e1a0f149620b0b1b81a3741
:10f9d000937947741315509182887ad0e121048f6e
:10f9e00044ab9c05ee9b4943ce1b9b2ff98bf6ec59
:10f9f00062c396f789f8f7155e839879427848b420
:10fa00007e325979737d6854ed56bc0e42099a2bab
:10fa10002e7371d371ef19f32bcfd37d435c5d95ba
:10fa2000e88c16460a5fee1117112c22d11b8109b2
:10fa30006f3fb3dc389592b95bc023cd3325eea779
:10fa4000167477acc51124f9b574b7e31760f2e109
:10fa500066771955a558ef6cc9772e1aa773afe9c9
:10fa6000819111e546eeac4d0d973da27ba0e0e102
:10fa70009f8d02745cc451460be8cd05dce003ecbd
:10fa80003b9e4b9cec1ecef2d73d5d9c91916996be
:10fa900002941f4b0b33283c9fe9a112b2be5b3787
:10faa00036cd108fb40a260d01548b968077580fef
:10fab000b95966da8feb3d43800dd866636418c28e
:10fac000beccdd40e2a8945b0e9d56dd7665ce6b24
:10fad0002c5e0d6a99d1f4790d7a865f1cd33f1f95
:10fae0001646162f05bfc7809ce9d2407f4bb94f01
:10faf0005766160cfeae0e4e27b05c71aaf65490f7
:10fb0000b62b49ca789ca7049fc1498fd1356df89f
:10fb10006312c5cbdd8a2b4f064e8a4d4c0a8a4ba9
:10fb20006545a4de6c686fec54044057a19df86fe6
:10fb3000e2c1c8c9cba9851d73d8100939a594abfa
:10fb400019314b7b43972fd31a39de7854eb513c54
:10fb50009d1bca8b2f8873848e0425bf5a14d48ba7
:10fb600017023b0c0e1bdd7d044abb31d894e033f9
:10fb7000306577e52d36bb8fdac38ce990d1a8626a
:10fb800011d14b4eec842f126fcd4f1626a4154881
:10fb900005e9133e85b6c82d53a1e5806280311575
:10fba0004e07a97c9432dcfc76957f89f5fe978818
:10fbb000eb50ac76fd8e835f7638d50fff855bd238
:10fbc000607f2fea3af5134273f7d655c51d644a94
:10fbd00063ea1f44741a31c81774b52c0dea95c82e
:10fbe000aa56ccfed9e735b2a4ccedcf0c68f8eb21
:10fbf000ce86d68d590a6f605f76eb56b9f35955ac
:10fc0000815126fc0dcd5091b137746b2150ef33eb
:10fc1000d82904044969fccbcbb718bfc7647f0857
:10fc2000860a52627b86e66a944499fc20b1dc75b0
:10fc30005b0d7d01ff109e025fdb771483dfb8cb85
:10fc400022710a81ba8faad57bdda4091fbf5deaa4
:10fc5000eca5eee130df289f6c4874f737ab041554
:10fc60004342fdb53c82849c9632b6ac8617b3f80d
:10fc70009b5440dc8980524f85cca5b5adebcaead8
:10fc8000633a585dbd7922f3d29de82e255e5d432f
:10fc9000a19f530d5bcb0b6122cecad22471826629
:10fca0006e175646277bed906883a428742860a5bc
:10fcb00071fb8e050f05ff4abdc4cbbe1aa4bd4f14
:10fcc0008404a3fbfe7c082c679dce3cc5bb1bc4f3
:10fcd0001bc293a4b4c949c321c196883b0077369f
:10fce000a95d35aa9c5badee8cbf82a87a605bf8fb
:10fcf0006ddd7fca092c65af08d782854217afcc6e
:10fd0000be568cebb6530db6091e1d64c267fc1ab5
:10fd10006757ba7976a6e830eef0b7300871294512
:10fd20005f4422e6bef181894ca416f64a11ccae9e
:10fd3000caa42de2d7425e51f6f41eceb792ef2f41
:10fd4000c23953f4c449e535d9d904bed141591754
:10fd5000058689452906846d74f2cbd83f3445bfaa
:10fd6000200313b9c081450b575190dcbaf7360018
:10fd70002921535fcc890f31f3901b982270ec48f6
:10fd80001117d5974c5d4972b1e84670eefe3a12f4
:10fd9000ce08f0412e7088975818e7f1265bf4edf5
:10fda000bb6320899b05a582624953e6bebceaa4d9
:10fdb000d19bca29466f3c0bd13f54ce8521fead65
:10fdc000fb4609ef533141671bf2f630d26cb94f55
:10fdd00062d4cd78fee0d618a0d3ebf87a1acd4dd8
:10fde000a2bb762ec80ff5fc68d0a461761ec3872f
:10fdf00052e423e3148f25852e6471a3c6866fa772
:10fe0000f9bec1ce54a9bef2259c84321aaca1150c
:10fe1000fff63af3b7ee0ee525b3e438fec71b2034
:10fe20005d03f0dfb6215c84acc3f4fac084fadc75
:10fe3000aff92f656ff0d251969689c23d429d363b
:10fe4000bd6337ba8ce7ec659f859528720217bab7
:10fe5000451a97c13771aafbea8d4b43352e1b68b3
:10fe60003db0d47777c19eb664d9d0a4151ca21535
:10fe7000b71f707614b72502c03edb310cb90f6591
:10fe80008efcca17bbbf45407dcdd613ac237e1276
:10fe90000a3cfe6d2f27b61501e150847e06f2c3a1
:10fea0003a61e1939076fa760546463333206d8bbe
:10feb000fc588938b79c74f2eaff02c9da4242184a
:10fec000b515abebc4bef1f9b3660cb86edb94614b
:10fed000ecd206ef7dafe4c1996017f0eab13f20a4
:10fee000fe0b5cf3ca405ac29584cd7e056cf7b315
:10fef000b2e58e966e33b4ea8b0017dc470668dbfa
:10ff000090d0bce4ca4465b619e8f7881c6ce47f5d
:10ff1000c531a8f21a5130c54ff1905e6bed9414c3
:10ff2000525e9644d0f9f5b934042116029b15ebc4
:10ff3000cd96bac5b56766ade3ddb1c08f4803e2c3
:10ff4000c18a13a6b540a97c1bc3ff8471c1f9be49
:10ff500091dcaf71707d423047af1966e5de17ef77
:10ff600011e4a16a28c1a52ec69231fe2df22756b2
:10ff70009663aa7acd537e127b6ac74dc6e9b077e5
:10ff80003937cb789ab5802a65697a4e1393b19e3a
:10ff9000b0c1cf73707ad81c823c8cf8173a5bc121
:10ffa000a4ce9f9e380571cc337aea273d93d5dee7
:10ffb000426abbd4531e5257c4b3fd8796fb86e8f2
:10ffc000fcfe16bf81568f77fac5b05e9794d25d5e
:10ffd0000ca9b4e07bbbc55abfc440695f03548a17
:10ffe0006f98d9896bf21fa3675064dd97a92db56f
:10fff000f3d2e6426a06a3c0ea34e3cd84f906a54b
:02000004000ded
:1000000026cd4e05395e389afb83d3603e6dae7bbc
:10001000aee896453fe817c595230c5322ad96a54b
:10002000db4aa124b7c223643d2e580e435bcce5c6
:10003000f8fe482d8904b00cd8573e0250d1bb774a
:1000400029be44b677710c8714aa7829f6be746568
:10005000604a04bd26a8862d27d3405d2dbf8b8c1a
:10006000bce1d13928144fc1713a522900c1b127de
:100070000900a62a12869bb0a042d66df5eb2b682c
:10008000e8be3c95b81dae59c57329530f2bfd4ae8
:1000900004b15bade8cd0e868810c1ad29c5f7e986
:1000a0002de3099e686e3622cfa0d87cb189e89de9
:1000b000e06aaa82946ed81fe717e0425aebb2b109
:1000c000c52a2a10a086fed55de135cddd35942800
:1000d000db4defd5b39df617f373a8fee7f1db1cfc
:1000e000cc754414d955324d70fe3a57babcd1780c
:1000f000177ce35339ed81333a01e0b0f8a21b7a63
:100100007ccae2632a12ad47383d4cd3d9450c4d29
:10011000e5e5baa709253a61a2fad684ef84c4b905
:10012000b0effc03990834c3e204ae3c9da9c6a419
:1001300087038808bcccf6be0b64bcd47c78e85638
:10014000e3feb6ae373cfd5ef97852a8dd844e96ec
:10015000e8759350281647de0db50adbe89151b7d4
:100160004afa222a7d351e632023c955fd8bb70428
:10017000d7de97b8c8a39563fc25f37fd2902142c0
:10018000491815f65066ecd52db9913190c792aa51
:100190004a362e29e61e5735c737e3691ae92989f9
:1001a000db956051095852eeedade6b2634d150c8a
:1001b0006f975b782adc782bec8511a3a5b57316b5
:1001c000ec8c4852a588f7538e10efa26fc89c673d
:1001d0006abf6910ab7b585193f131d88c6fc1c1a4
:1001e0004253cdb9c215b9188e37403c22d6988bf0
:1001f000746e02d6e4fcf9011bad3f8d9d9bbcc61d
:10020000f36d2c3478bf2823d141803b2be1bd48ce
:10021000c1f7df896be270afd9752022e4e0738902
:10022000d8b6ce111b3d5c7abf7f0809353e7b8c6a
:10023000eaf704f4877145bdebd6ab0e3919854951
:10024000759430c54f603b7be1b5369c1abd563086
:100250004d52425683b467d5dd90ffa5391687d934
:10026000ba3b0282842c1555665c8b4a796cdf336d
:10027000928c8b5914d6a3cccedd86af8d71e5451b
:10028000f7b4c08bbb5e37983a04a786083ebdbe64
:100290000afef42bf7e4cc7d1a049446c7f0f63e30
:1002a00086c36e39b6afad80bc003f44e64c7ba838
:1002b0005d6adf55b92192d5de586690b76b0aeac0
:1002c0008d0615050627bf743daa152694a572fb59
:1002d00055721dba0e414559b9e9189999f02d3f4b
:1002e0007c8db6a8f913ba8250fad5a62ece73e04b
:1002f000f78a3e91d4839d996aa8112e5b18532ddd
:100300009c27d543cb520d67cccbed1da07d31137f
:100310005f16a8d5fc3b7512d205c4f33edf0095ed
:100320002f523da09d7f85af94b7de8409ac3fa7d7
:10033000061d3c88c92233ad43574ddc196b217d26
:10034000a1ff13844df809ba4cc83adbda511ae11f
:10035000b2c7dd1129d4e32fbe4a0becd15e37fec4
:10036000945166d9eae8af9a59da74786c9703a188
:10037000a3162c6fdc91d3a147d069aa891f3381c2
:100380008935446a4d7b8a3eaac7432e210d74f9f4
:10039000b230adc71a8e6676f6cc3c8304463d2655
:1003a000cda87ec6ccf06341eaccf19946f8d01acc
:1003b000e6b3f1bfea6a6090eb80b679a8282de633
:1003c000ba2bf9d69520d2fae37eb53e0fe44c0a5b
:1003d0000526f7545ee6f1798b86e2fe6664c3205b
:1003e0008b7ec7c36631bb2abc035e6af89c30efc4
:1003f000415c11e6534cb8436767d0dedf39cc8ae5
:100400002f7029b0c3188929dc646a02be29f0f173
:1004100042d757fe3d11eadf0836e8e8b4d8ed15bb
:1004200068de27f9478a5af73dbd4558a33e6f2637
:10043000e3533b6529de2b8c40ed4bc26ed5abdd23
:1004400005a15f62afe95ea7128b48622870534531
:10045000e6444d92e346f2ab379f02754681e04693
:100460005998ec5c4411614b0365f9abf1fa6ceb04
:10047000878dcf6471e497dcc439e5b5012b76b480
:1004800029abd257eafb688714c0149c46522678e1
:1004900038de27f688326fd5e041e631433d2c3017
:1004a0005ccd3e4af6c95f6bb18b0bf85b5f0c41cc
:1004b000ebb599a5cef9b725a5636ed66076f9e0c0
:1004c0001cd0be74ea1a5d7eeae62bf5544b7683a7
:1004d0009d8e7138c9570a1d64203660044069e654
:1004e00070bf9664dcf0d16e311a7da3b16639bc61
:1004f0008bd3a3f8d303dbbf345bc817e05a69f88a
:10050000caef100009674743638c47a91f51c80110
:100510005e0cc05f610f0153bfced0535a926c186e
:1005200073625b49c24bb450f1a6a9aa0fc0d98a25
:10053000b06ea410964ac03ae7c1c9429fe6584738
:100540006e5ce8daa0494ff2b8cf2ba0f558f194d1
:1005500028549896e3f280a3052e67dde50fbdc70a
:10056000e1099210c6841074fb99a3a0d9d5233f4a
:100570006f9bb6304fd576323af514bb7f53562673
:100580007579790941ecc3a1776b0cdff60cf5277f
:10059000a96ad1d0df5db800302479023f4cd3a2e4
:1005a0008f146cb85e647d154fa6d1fee1403adc35
:1005b000fb8598f2b30ffeea9efb4affff3b5d947a
:1005c000d7f42b5c8c9908375717fa34c77d142859
:1005d000ef7f03d3c46efbb33db0ad2024ca87f7d1
:1005e000c37acbe249ef3714e21437f0c6f951224f
:1005f00032fcd497191da05ac5594f3727f3c61d91
:1006000035ee9e612bee9b7fbb4f667191fb67d4ed
:100610003b95acad76389a5767e1550bd7f7a131ca
:10062000dffa58f1034210b31c25f36b237e8e9141
:100630002436376f0ac420c11a3dee2b025e1c9d82
:10064000f4f2832707815d234a1ba870f58c43636e
:100650008dc6387ddbc7df4e45cba0dcfff9f26be2
:10066000281911fe6cf1c7f3002a291ac230d4965a
:100670004df1c2a2353a09ffb5dff1894430256c4e
:100680009f09000c218a8bb56a252cb3dedb23a8d9
:100690001f2f243b34280c6f6c5c9abab390a35282
:1006a000ebcca3f0908b418acaeaf712ff5bb4bd92
:1006b000aaa72d10209fc13d8923d3c1a8ce33ad59
:1006c000a89c33cc461484ff824b4da011c869f21c
:1006d000ff24bbd0eccb88697329ab2842a01187db
:1006e000ac22deb0249b0e7598703e8a69b8ca7b36
:1006f00070528b8d126b589acfa231c72aef378177
:100700004b2ab06e7d8be7a99fed9c540e483fc7e6
:10071000301d78175d22f9eb669de100464cf649e5
:1007200071039fcd368d3780d0b116bfe8bd6633db
:1007300098b5a1a7f3506874850d4a21894b150718
:1007400082b047a6c9e265324441ca295b99f340a9
:10075000855cd183f9f5d9651b202a52d7799fa1f1
:10076000d4e5a9fe7ddd690a5083a6ba6bc13a3c87
:1007700008a1cb2c093321bf269482e2fd394c6bb2
:10078000ed7547713b4f4b96431a07917b93643f3e
:100790007c93a29c4e8e6d75f25b9dbb9b15f732d0
:1007a000cc1dc4f6d4338f87d5fc4c039882fac68f
:1007b000fcbbaa09aa76c8d4326014624f01af4fbd
:1007c0001f5cf2dc0854f370d600e53dbc3305e154
:1007d000a78ed9fe9c47606f8dfa3eb23d98527746
:1007e0003804f2db4475f3cf527b6dfd020c60c61a
:1007f000c3601257654ce81361beb30ce05eddf5d3
:100800003b3338e2ed490ca728204b390901014c54
:10081000d9cfe45d923d886c9f21df3e990c689ea4
:10082000da9e0672caceecac2cec3a196e53060472
:100830008eb4a31a72ff85f73f97ba0cb3c646d899
:10084000b77a700cc28298352d173ead36281493b6
:10085000e66e91067f6a5f29e20148aa320cc9332d
:1008600018d295100eb171c330502bef61d81725f7
:1008700033e7252295051914bc5c6d3f20f5938f55
:1008800063419c5d53724262123a86238782f0b6be
:10089000808f2e5860b8d79dc5aa165ab55ff991ba
:1008a0007f141567cd16da5c0b9117b4e29ec2e196
:1008b0003051c7d8f7844d166f82b301b82b7652ea
:1008c000ce52ee639dc28da0e3e05439b02db44307
:1008d000803099d75eb71432c0d24db9c60bb24d35
:1008e0006dc06fd9420c660b0603954c79edcba910
:1008f0008398b799a27c3d6c509149404cd3438f6b
:100900001a7fadf12cf7454c62fd8e676574def2ff
:10091000baabe21e4bfef4c55b532160de8bf08662
:100920005294768268f48a9cc01cad9d3458ed3197
:10093000b4f6c7956aec1cbe075617d955e8ccd15a
:100940000306322d8e87029663c65f13a7fa1e1226
:10095000e587470ef7e1dcf5394fe376f0cfc42c9d
:100960002ba66126384d04d2e7a23e35b3b0c89617
:1009700046e49136cfbf8b5c0216fcb2c284f8838a
:100980002b9289fa3046e9671d85279203d164c608
:10099000e2c4da5a22c55d3e101c9c1793323876a9
:1009a000cd1a8a1dae3ce204f9584a31a52f9ecae1
:1009b000de77c02e32a101f44336be9592ae4400dc
:1009c0007deb197e76bcba9d7fa4554abfc015db6e
:1009d000a66a3ab9a6102c25f5bebbde6d0ff90d3f
:1009e00033eda6be938503305439dff3061f355b24
:1009f000bbc5b1dee363f9b1c256aea22571b91f22
:100a0000129fb6efc44d3e334cb57b4366d7ee40e4
:100a1000c81801b8ad5a4a8d02980473974afd5d13
:100a20002c9b870e916af5ae2234a10cce51db408f
:100a3000d0fcd7f8ca3268c4b91f22de344710f19f
:100a4000796737b7fc4f556254cc219036198078be
:100a5000ef5c817178bc3d39b48a3205e5ebb24870
:100a6000b07c81b8137d6b50a0ff69b90818a91834
:100a7000ad08e985340c1fba0d5652a574237b3d91
:100a8000681b306283e10052447ddc0c482d86a057
:100a900038d70324b6b99f3855d68e44498dcc62d9
:100aa000850718331290912ce45b331ebda80e6aa3
:100ab0005228b7f005179c7d66a8a4459f67cec94c
:100ac0007ac50ccb6b6cc66200bb08cfb8e93be9ba
:100ad000085422c104284e160748a670da27a389b5
:100ae0007840dc534a28a1a00ef4c1f2aa3d742e2e
:100af0000a0fb4ad84722179f9c74e87be5cff63db
:100b000010e740e1611f614407e4655402c8786f53
:100b1000c6077ae671e1d348db62a89db8972c8ab4
:100b2000dc4e64bc2cbdd8f6b23aadfde4d7715ca6
:100b3000301c0faee58e00fbf2d08b8e9629495cff
:100b40004fc4631d5528f604ae3234e1ced7d49b92
:100b50005b318d061791af4489065f81df1c83529c
:100b6000d4e12e7baf4e85a7967e81e5697b8266b8
:100b7000620abc4eb3a82424228246165ef0947dfd
:100b80007dbf1583060423eb95cb39058ea8b56b85
:100b900070bd7bde7ffcc64375a4b3550900c5ff5d
:100ba000b5003f8d257ead25a18953798611081aa0
:100bb0007e814daf84700e418a305d0b02a5ed8db4
:100bc00085f311d7f00a9105d17499eb2934e65dcc
:100bd0009d5a0d889cfd3c86aba076b31bb106dd0b
:100be0006086cd22988ea99e8b78f9721545bbf54b
:100bf000b1b30aaaff20167736e2498be00d608d6b
:100c0000b07e62ce49d9d76e180963bed6a7aec5ed
:100c1000df93e8ddbc30edb89486b42fdde2fa9bbb
:100c200062e39eb3217050a5ccf538d6cfd7b89edd
:100c300058f119d2d8bdd669fc161662ea918aba63
:100c40004cd1e5dbf05b7fe82681d276ae4c2128e3
:100c500040946c41bc0830b0a0d53cf6c4f232e000
:100c60002b7f48aa016fbeb5e43ebb3d5b9b6ebec9
:100c7000b5f5c6ca965b0c7b44ad562c063257fec2
:100c80002a4f662eeb2929182ea6c55859cb2f2b93
:100c9000363bc5e228051ae6fc9738403b68fe2241
:100ca000ff391b0b2ab46485c07575c02c334a8b81
:100cb000aa18017247f5986700c78c9fb901c9311e
:100cc0008943d8a4cd5e5754489e2cc57a3220283b
:100cd0003adead1b11962c957c1e1555698fa2ab83
:100ce00047a610ba35d92c76c160dcb5001a77a7b3
:100cf000b20498eb9412d18ab678e8bbb8e7056dd8
:100d00006a32c8f215a2416f99184823ada7c0f402
:100d10003d14c302ee3de2c57b413b330a582b60d4
:100d2000a0baa6050b68b2d9be35f5b8396aa3a931
:100d30000539f5e8e318920a6e03e20da00c449918
:100d40003bd761004fbbf06d0954e9106d9a7c747c
:100d500050dccc3a6b308c522e52751f8a2adb85c0
:100d6000989e6531f018200c8b5b72c3b1ba036298
:100d7000e25cd83021cd909e14cbaaf1525da9043b
:100d8000fe61060932112229f4b3f469936990fcdb
:100d90004326619e9bcb3c36df3b71aa2a16ed1e93
:100da000c5b09e7755f104c83af703049ac026eb04
:100db000a07f7437e71704c4534adbfa5d5cc30da8
:100dc00017376123f2b11eb0f656f6f9622de72609
:100dd0008bd68dab73807bad79c433ca46a8b84a35
:100de0003c3b5dff15b7e5598cd67755b91a8d2177
:100df000709734b4565fe6c95bdb151e118a6d34fb
:100e0000cf557e1555fb2dfa87cef075eb06023fc8
:100e1000e53816626c4a35ae13a128d09e140eab8d
:100e200035bd93f44ed7d41a365cdf942e4e301d68
:100e300070c0f077881a94b6989341d584945a5923
:100e4000012870e451de9117a4976484d0e47fb741
:100e5000ec9a07f961e7a10b2bbcaf5681852bfdfe
:100e6000bb817f6e6a4edbdcdd61af239745292aab
:100e7000cfc4c7445fd6b10fd23f7c21018ffefba8
:100e80009b6ed3dec438a1d06bc779b98a797d1443
:100e9000090d7454c7cb86280e3711cf566164955f
:100ea000a78921a9a14faf2671d36d2c1416bc7d43
:100eb000cbd2394af49f08d14804cfcbab174ca60c
:100ec000597d72c6009fa8a3d742781b91733d9da0
:100ed000187d1dff6ab009db986c3ce63d56737eb9
:100ee00042a223fb63c57c0b7228cc5c8bb3289e8b
:100ef00080ada6149e7ee3bf412624418188be506a
:100f0000165398af6418899a085b8ba38ece9b20ea
:100f1000b6e945136c4a9ac98ff283048ae26c15cc
:100f2000a9c0e05e2b933b48772239458c2d378f43
:100f3000f3a1c92f3d075b08b1dab7145b560c8ae1
:100f4000e2d8625f410994aed6ab84e02b06090d6e
:100f500050ce66b1092bd2cf626332f1c801883f0f
:100f6000f7f5cc2ce4266792245b2c28ebc4b63032
:100f7000cd4d8995aede7bd27fb11dd5b1e0497fe5
:100f8000666cb53685e2503f69c77ba2c120c9dfd8
:100f9000b1f2c7b7f066e7a3de1695fa46961a19be
:100fa0009f5bc1a903437c1be43c82985055594088
:100fb000a1a04d68da801a53594124c13620fa069f
:100fc000d4a509bfee9dca793af0585edc15694098
:100fd000fb52b53e1aaeb085eef92d7b97199403fe
:100fe0005c2489f8b8179c0258cfed46ca06b04e6b
:100ff000b936fbe008bc8c392661fc8e0c194427fd
:10100000fb6a519857725eb2ae81c127954da7df3a
:1010100099964d7f3b45564c71ff18f130b061dd1c
:1010200084afd4d797b6c056ea821bef13ab444fb8
:10103000fd5a7d50d1d1400c8e8eb35fbdd1ae60d4
:10104000129c5aa291a17e59b100e7cdf934508388
:101050008ef769ffa91b20d647f3fa3a2fe2c21296
:10106000bf1faf7480da3c517d27aef2e388f9b937
:10107000bbcf36db044ef55b15d9293ed5b3cee1a7
:101080005a8afa96e060c8b6bc3caccae0dfebaf67
:101090006a39b8c0484b44e47050f7080f7090208c
:1010a000343d12fe7f092748299007934c9dc03c90
:1010b000aaf51f90293a3ea70d69c589850a2b9c80
:1010c000a854a7ab0c2008c35cd62f632487cd3d62
:1010d000ffebff7a1d4b376d49a78a221860f09508
:1010e00081f437ec0faad28f5d57679f0a2e4958bb
:1010f0002d3a4e23f2c6d40ffee89eb495825e7a56
:10110000d861aeb24fd4799cb7d314a90c30867c89
:10111000351627d85017d71cbed043dbc9f2d2589a
:10112000ef017d121d79e9e4a0f14363fffa2e740b
:10113000b056d7db34663b474220b675135cbddc46
:10114000bebd0a82ee0982fecb421b0cdffe669a10
:101150000e400f6ce85807fde62935d155a0da0797
:1011600040ff6502e75893f0483ec2d3065b640532
:101170001d646c7bb8bf1ed8de880c16ba2366636c
:1011800033ee6eac94cc2cb9b54089919e5aa978b7
:101190009440036d27ea1a494fb39a5b2860fd5fbc
:1011a00071a5a7b6559f641096f099e145b3ecf28e
:1011b000a08ae4beb6b7e1218f83afe9ff2689306c
:1011c0003d61290dd4eba683c6bf8d956fef837863
:1011d000a780acc469572ac67122237f830c9cbaae
:1011e0008d25c86ba0e7891d7e365f7e1ef2a8990b
:1011f0001be11cad0c6eda26cc71b8e1521d7c30bf
:10120000f34884ff491dae3bed5fbafb7dfdad4366
:1012100046d542835f71197d1467be2b115f5ab6a4
:1012200048b8f98c6fb9f4c117c5d0f5f66283c41c
:10123000962556404673be790cdb9942274f5f5d79
:1012400000787d2be4e19c2631fca2f5386ac0f3de
:10125000f55947422e8347442c03df787551e30943
:101260000e22d0da0b8ad8339718af246f2aa9ba86
:10127000629cfdcd31b0ed6442a093cf56a743ec04
:10128000368f63c84383348632bdacfd4e2fd6a45f
:10129000c3c64506db3ffc598425b7b6b7697885d8
:1012a000deed5d62508c71f26689b00e6ed248023e
:1012b0001e28f39c49b6f35020821b9d5aa42ad1c4
:1012c000b838c5b20632360e4850df16bdc1ce1052
:1012d000830149cf5146bb0b9bda8d4e17f6f45074
:1012e00094e31b2041475086c54a867af5ffc1d951
:1012f000ad7e37b511172dd9ac88ce7daa16018fda
:10130000063965b2edfb13ded35109707a644d776f
:10131000dada96c7949935ea160fff8ffb878a1c95
:10132000461ee7647c17032fb38eb89f7110367486
:10133000ff107ec6407fb6c07adae934b36f803dd5
:10134000ecfbb0d74c70812880cf7dbf1ae33842c8
:10135000d5fcf6c073d97b49ddb480370b941934c2
:10136000f37dd6bd6bad92e086e07878d2245e2422
:101370001339bf48f74379e5e9331e46c56083e872
:10138000bfe3ccb98c87686325978e9a0422b6c9cf
:1013900036016ab604deccf36af9d814a6883da7f4
:1013a000435ed95ce9a78cbeb85a439c1ee831e184
:1013b000673b81337847995c1393be0d101b64fc27
:1013c000809711d46864e30e58a163b20d8980023e
:1013d000442a7700ea72f755c12f0d33734ea6fdec
:1013e000b8e6406d9dbb2fda815ddba7b65132eace
:1013f0003829a7276a7d56778b237a213e35a57237
:10140000517530dc6e0914278b68420626e76f029f
:1014100035c0252add2f01b11c1afb3edc95635037
:10142000c90ebe6e828bd55f0f7adad3fe67f68067
:101430000b9ec1ca6232d1a7f3c8d4d8a0ec96bf24
:10144000e9c6578c15c8f0796acdb3aa9364e6ee65
:10145000e048c76fa5104df5b8690eaf6bb434986e
:1014600057723f16fb4428bf6c95790c148458f3cf
:10147000bd18574e2f544813c5a6548a38c1faca0e
:101480005dfd8e411e34e45880785ea4ed71a1d4d8
:10149000509717d5edb652a6d2803ec0a5e82dc014
:1014a000af61bb695cfc348807ea7a3b284c7e4319
:1014b000cf3061b504701a4302ff47f7e97abd26c1
:1014c000449a9fac447ce786d0ff1a906ba9ecf05d
:1014d00004d18b16ba692c72d04ed7227324d6b899
:1014e0001458874d5d01790cd416300902defb1dbe
:1014f000e1a02adf96b2b08051074af129004d6a77
:10150000c1a1d3d7f27209e257407873444affbfb2
:101510009b9cb654a02e744c55857d2d339279e159
:10152000fcd17ce0e2d647248606930672fae66098
:10153000a997db4be811c474e0fdebc14d5705637f
:10154000a1e6743243a8537d43257f0fe760bc2199
:1015500071266f18004aea8d3eed448a79d1dbb0de
:10156000d57d7d4deab7ec236b82f9b46b0d6d250b
:1015700044ca3572a13cf4f6d32c8ac0ee091db7db
:10158000c210c78c2418d480bc18434ed839be3141
:101590009cdeae137a0b574bffe7ef2829a2b174fc
:1015a0009aa937292bfe97855baa46f76f120ae89e
:1015b000969bd6021512f2b66e93b14dbc425b8576
:1015c000a78f2651866d5e6eb571dffb6381ebae32
:1015d000c1a5333949d4545568b204c882de7f406e
:1015e000b4e089e629dbcbdf32ef0d2f72e7fed8be
:1015f0005d7cb2c21d978a8beda23744628ee4985f
:10160000bd8edbd36f847dda95100c880979f25199
:1016100081f2619e908a28108d4f0655f2e4c5a78d
:101620007724db72ba18beb7988aae4aa2385051f6
:101630000f2dc68f087af80f98b5f226291d73c1b1
:1016400017c1537218de3a1eb8ce1cc9f485a8bc67
:1016500066d4f9bc247a8178336530884bf2cd7832
:10166000c1f58803322253a8853a895b5b18b7ab72
:10167000167bc012cf1248287b9e660c380b639fe6
:1016800016365da9d77f1971c7b2e3df9425ada3e4
:10169000cbfe97e2573c0db17a26deecae8b974d30
:1016a000c3a398a94187d9ab190a6acb325f8aab29
:1016b000e1d23ebbf5fd6891db6bae9dafa7681c28
:1016c000b078ca2682fce062619831019f5fbe0853
:1016d000edd77143699f0f8a2f87cb0042d28c06ca
:1016e000b23a68ccb7d744101e9326d9dfc5a1a45f
:1016f0004bd9ccddb1fd45facd5f5ae427f270b885
:1017000032dff84d8ed6e1382076cf8a4922f5c3f4
:10171000bb71b5e8244b8a52b9dde6e9519560bc4e
:10172000ff0a05947ac6cdf13a7ce0d8d79cdd2b30
:101730007b767dcc646d86e2ed9f525bc6291a7a7a
:10174000dc8fac61de8440051aa7f8da54574a07eb
:101750008ea7d8418b8a5771568ddb2a12ff2da692
:10176000594b4cb60cd96c0bdc2e8cb834cd278a77
:101770002550c4d7b347a01445050879a9e8cd1072
:10178000397eb0207cde68912c75274632fdca1c5c
:101790006841e2567ec65ca87621670e95d458064d
:1017a0002ca353a6e0184a209f662e77dd540c6eba
:1017b00090472867847a11c30e67e9ad10a5de76dd
:1017c00016f330d3f899634b6dc51180336c70f309
:1017d0002f3e86c523ca10c0604afcabd3d39d3ac6
:1017e000e619b3545337e8c1776cfde3603048a481
:1017f0004891adadcf384d1ba7600d2f817098e299
:10180000faf3a04d9b65380760fc5b54e6be14f20a
:10181000b16247aedd4f169e0a3ad908a9ec75248d
:101820002f0dc1ab9b9f90f91dcb9c01a5dbd05424
:1018300037071b5dc3ca176520c3df66573f0475b2
:10184000310fe5040ab9597ee5f155188769f7f8b3
:101850005363e15af33c1041ac6c998a505a3641bb
:1018600095f3dc1ed21d11b3f795973424225dc386
:1018700083365a1db65bb81946196909622360bae6
:10188000ea34b808809e4ca93aded7cf23db555600
:10189000245122edf7f82ea9ca925c38fab48fa928
:1018a0005ae1befb6d84334b4f7a7e23e06b0275a9
:1018b00027e3ac9b7d86b75075e51207ebb79e1cfe
:1018c000ff9716d4257b283b13177088d305985ea5
:1018d000e660d90f1c8d842f8723fc9de0ab36c7b3
:1018e000e448a15e5f02ae1304181c27b9bee448a9
:1018f00096496e9556e81323b7097ef4ec382dd23d
:10190000c9779152eee37e9a71cb75938ecc29a163
:10191000c5817d5f75cef76d8f6d67d123ba350cac
:101920009f82899a62bd10ec4440327b85c16cf382
:1019300040cf2bea6df557fe426be2da33e5717763
:101940005aaae648eef299388d43cd679f26b7171d
:1019500077822b7f773114937b0820890c100a6ad9
:101960009d40db6fef4f29e18a3ebdb1e79af0bba6
:10197000ff0866324861732a9f293d9a05d18e027d
:10198000df42eac884f9825ada424b785e278c54e7
:10199000091800f15a9ac825135c1b6f2836598e16
:1019a0000e209bfe8f1c33b6a32e5399a6d1f53c77
:1019b000145271b3ae1a999699b386afe672f20fcc
:1019c000ec3088e343292a5c68cdda6b10da475c97
:1019d000f66dce3ef173b7d15449f8850568624e75
:1019e00074589c9426890055195ed9db05f51f0ea5
:1019f000821eef1b9d302553302cc6ecae4cf616e4
:101a000086caae733e836fed998c0361c6b8bdf490
:101a1000837a9fede0af955cf6f4766237a0afcca9
:101a20007a7b3dd68d06335dec41ad0251662728a9
:101a3000e816f434f36b31f529424bf181fa71baaf
:101a40008cb61cdd2168a27a117dbbb8893660e1b5
:101a5000a09046d03f0a09062a2ac748c3753ac053
:101a600049c492ce948ec7e9f9820645b9da4a4a4a
:101a700052412ec6d3a9dbaa48ee2c8a74ec72e23e
:101a8000461117c01399d463dbe7d59b082d8cc48e
:101a9000cd49bca964994900787687a95ab803ea68
:101aa000b7dc8cbba31c670aef26c2ee81e35a2683
:101ab0001719d6367cd15984f70b426070cdc8ce49
:101ac000176028be5571ebdba97cff2decd565991d
:101ad000f4055a7e068ffd75f55d838ea205cec98d
:101ae00046afa6e45f151194a0afa4a1d4209b0b30
:101af00031b43a26d7a6c88b66c63536fbb2b415c4
:101b00006a1e80b740d9157fbccba457eb6b8e06fd
:101b10007dc66093bd6ec0538ed50989305ac07a98
