:020000040000fa
:10000000e8ff0120050400006d0400006d040000fd
:100010006d0400006d0400006d0400006d0400001c
:100020006d0400006d0400006d0400006d0400000c
:100030006d0400006d0400006d0400006d040000fc
:100040006d0400006d0400006d0400006d040000ec
:10040000060000001049086800281bd00f4a9047da
:100410000d490868002815d00d4a012010600d4aca
:1004200011600d49012008600c4a0020106008206e
:1004300008600b4a10684008fcd2054a0020106092
:100440000848004708480047fc41e00fd905000074
:1004500008000e4010000e400c000e4018000e4028
:100460001c000e406d04000095040000bff34f8f88
:10047000054944f244400860bff34f8f03490448e4
:100480000860bff34f8ffee700500e400ced00e018
:100490000400fa0500b54148414a4249121a91b098
:1004a0009208002393424fea830465d13e4b3f4ab2
:1004b00021440020934265d13d483e4b1b1a9b08c6
:1004c00000229a4261d13c4b3c4a0021934262d1c6
:1004d0003b4ad2f84031d801fbd4d2f8903099078a
:1004e000f7d538494c684b6823f0407343f080736c
:1004f0004b60354b1569d3f8b030136101f036fd10
:1005000001f084fc00f0aaf800f0fefb00f0b6fe5b
:1005100000f0f0f908b100f0d7fa294bd3f84021e8
:10052000d201fbd4d3f890209007f7d51d61244b5e
:10053000d3f84021d101fbd4d3f890209207f7d50e
:10054000204b01215c60684600f0a6fc01a90098e0
:1005500000f053fc20b9039b1c4843f0010398476b
:10056000bff34f8f1a491b4bca6802f4e062134372
:10057000cb60bff34f8ffee751f8234040f8234094
:1005800001338fe743f8040b94e751f8224040f819
:100590002240013295e743f8041b97e70000002052
:1005a000200100207023000020010020d001002045
:1005b00000040020080400200c0400205027002024
:1005c00000400e4000000e40b081e00fd42100003a
:1005d00000ed00e00400fa0580b400af00bfbd46a6
:1005e00080bc704780b400af00231846bd4680bc75
:1005f000704780b485b000aff860b9607a600323bb
:1006000018461437bd4680bc704780b485b000af33
:10061000f860b9607a60032318461437bd4680bc81
:10062000704780b483b000af786039600323184608
:100630000c37bd4680bc704780b400af002318461d
:10064000bd4680bc704780b483b000af78600323a0
:1006500018460c37bd4680bc7047000080b483b09c
:1006600000af074b9b697b607b6843f010037b60a6
:10067000034a7b68936100bf0c37bd4680bc70475e
:1006800000300e40044a536843f010035360034b9c
:1006900044f244421a60704700000e4000500e4081
:1006a00010b5002300f110044ff0ff3210f8011bc9
:1006b000914218bf00230133042b04d0a0420a4604
:1006c000f4d1012010bd0020fce7000008b501f0c6
:1006d0004bf8bff34f8f0549054bca6802f4e0623f
:1006e0001343cb60bff34f8ffee700bf00ed00e088
:1006f0000400fa051fb5436a8b4204d84ff0ff305f
:1007000005b05df804fbc269531c1ad0036b8b4221
:1007100004d98269c9431344585cf1e70a48c91aed
:100720000023cde900300948013a521a01230df1a6
:100730000f01006800f0dafb0028dfd19df80f0000
:10074000dee70020dce700bfa08601003c040020bb
:1007500038b5026a836a9a42044602d34ff0ff30ea
:1007600038bdc36a0f2b11d941690c48102200f023
:10077000c9fd05460028f1d110232246074920690a
:1007800001f012fc6369e56210336361236a01338f
:100790002362e36a5a1ce262e05ce1e75017002042
:1007a000f7b51446114e124a0023cde90032054632
:1007b0000246234630680f4600f00afc10b10020c4
:1007c00003b0f0bd0b4b0c49cde900033a4623467c
:1007d000306800f08bfb0028f1d1224606492846fc
:1007e00001f0bcfcb0fa80f04009e9e73c040020cd
:1007f00020a10700a086010050170020c369013323
:1008000010b5044616d0036b8269581c2063d1547e
:10081000d4e90c3293420dd3d4e90601fff7c0ffaf
:1008200010b9a36b0133a363e369626b1344e36103
:1008300000232363636a01336362002010bd00005c
:10084000f0b51d46244b9fb007460c461868694614
:10085000164600f0d2fa20b1731c39d14ff4805300
:100860000493049b22681992b3f5805f84bf4ff410
:1008700080530493194b1a49cde91337194b4ff0a4
:10088000ff32cde915360023cde91a23049acde9cc
:100890001733cde91c230fa8134b144a01f0def9de
:1008a000134a1d9b11680b44136028b105200de00d
:1008b000ff210fa8fff7a2ff1b980028f8d1189b73
:1008c000ab4207d8169a013200d023601fb0f0bdaa
:1008d0000820fbe70620f9e73c0400200c04002078
:1008e000fd07000048040020f50600005107000045
:1008f000681400202de9f04f534d544b2b60a7b0e6
:10090000534b00220df11b001a6000f021fc00285f
:1009100040f098809df81b305a1e012a40f29280c8
:10092000052b00f08f800ba800f0b6fe002840f0e9
:1009300089800f9b002b40f08580109c621c40f04a
:100940008180fff79ffe9df81b30032b02d1022010
:10095000fff7bcfe042b01d10320f9e70d9b3d4eb0
:100960003d4f3e48a3f1300131603d4930220a60dd
:100970003a603c4a402111603b4a403b13602021d1
:10098000102200f0bffc00285cd13b68dff8e0b02b
:10099000d6f800a004932e68054606eb451112a870
:1009a00000f038ffbaf5805fddf8109094bf4ff08b
:1009b00000084ff0010857466fb1b7f5805f3b461e
:1009c00028bf4ff480531a4649465846059300f015
:1009d00099fc059be8b11022204907a801f0befb55
:1009e000002808bf2c4601351c2dd6d1631c1f4d95
:1009f0000ad006eb44163046fff752fe20b106f14e
:100a00001000fff74dfec8b94ff0ff332b600420f4
:100a10009ee7ff1a994404d1b8f1020f08bf4ff0c6
:100a20000308cde90138cdf800b0102307aa002152
:100a300012a801f0edf94ff00208bde72c6027b0d5
:100a4000bde8f08f0020fae74c1400208038000049
:100a5000681400206014002040040020501400207e
:100a60007c1400204404002064140020481400205a
:100a700050170020f0b5124e95b00746012405a985
:100a80003068039400f0b9f9b0b9bfb10a9d049081
:100a9000013f6d423d400b4f049bab4202d9012008
:100aa00015b0f0bd0097002303aa04a93068039491
:100ab00000f0d8fa0028efd00020f1e72046efe759
:100ac0003c04002040420f002de9f04f7c4b7d4854
:100ad0001968c3b0102200f015fc002840f0ec802b
:100ae000794a7a4b11681b68764a7948dff8f081b9
:100af000dff8f0b101eb4311103100f076fe754bd9
:100b0000d3f80090744b1f680fb93e46cae010221c
:100b1000494603a809f1100a00f0f4fb002840f050
:100b2000c0800f2f40f2c680049b03f11002974251
:100b3000c0f0c080069a002a40f0bc80644d029349
:100b40000fcd18ac0fc40fcd0fc495e80f0084e88b
:100b50000f000398c8f8000024a900f04ef90028ff
:100b600040f0918033a8259d00f096fd002840f0cc
:100b700085809df8e4304bb99df8ca30022b05d131
:100b8000359b203ded1a299b5b421d402b464ff0c3
:100b9000ff3202a95046fff753fe0646002840f0f8
:100ba0008180d8f80030013376d02846fff762ff05
:100bb000002876d00df1600cbce80f00444c0fc447
:100bc000bce80f000fc49ce80f0084e80f00324619
:100bd0002b4602a95046fff733fe0646002861d196
:100be0009df8c930002b57d011a800f055fd139b7c
:100bf000d8f800000990203b0793bdf85030adf8bd
:100c000020309df852308df822309df853308df809
:100c100023309df814308df828309df815308df86c
:100c200029309df816308df82a309df817308df850
:100c30002b3033a9029b0b9300f0dff860bb349b91
:100c4000232b29d901230093cdf804b014231022bb
:100c50000ca9d8f8000000f049f9e8b90cab11aaca
:100c60009a4215d818d11422102107a8fff798fd31
:100c700090b91a4a1368013313600de04ff0ff3347
:100c8000c8f8003082e74ff0ff35c8f800507de724
:100c900013f8011bff29e3d0049b10339944ff1a7a
:100ca00032e708260d4b1b68002b0cbf3046012095
:100cb000fff70cfd0726f5e743b0bde8f08f00bf56
:100cc0007c1400206c1400204c14002048140020d8
:100cd0000c04002044040020641400206814002048
:100ce0003c040020a086010010b5064900235a18d4
:100cf0009468844204d01033802bf8d14ff0ff3237
:100d0000104610bd0038000010b501f0e1f90446ae
:100d1000fff768fc002c18bf204610bd70b51446c4
:100d20000e461d46fff7e0ff421c11d042686319d2
:100d300093420fd8c36801689b0721442a46304676
:100d400002d5fff756fc70bdbde8704001f0ccb98c
:100d50000520f8e70420f6e7f8b517460c461e46ce
:100d6000fff7c2ff421c054611d04268a319934207
:100d70000fd8eb6800689b0720443246394602d5fd
:100d8000fff743fcf8bdbde8f84001f015ba0520b7
:100d9000f8e70420f6e773b50e461546fff7a4ff03
:100da000336802681344421c0446019310d08db18d
:100db000c3689b07294601a807d5fff732fc2268c4
:100dc000019b9b1a336002b070bd01f0f1f9f6e7a8
:100dd0000520f4e70420f2e708b5fff785ff421c81
:100de00009d0c3689b0702d5fff726fc08bdbde804
:100df000084001f083b90020f8e7f0b58db00c464b
:100e0000fff772ff421c05462ed0c3689b0701a85e
:100e100027d5fff718fcab6823606b6863602b680d
:100e2000a360074601ab04f10c020df12c0c1e4629
:100e300003ce664510605160334602f10802f6d1d8
:100e400030681060eb68c3f3400284f8382003f088
:100e500001029b0884f8392084f83a3038460db0f6
:100e6000f0bd01f04df9d6e70527f7e770b5094d5c
:100e7000002305eb0314dab2a468661c08d00e78d0
:100e8000964288bf40f823400133082bf1d11a461f
:100e90000a7070bd00380000f0b599b00f4618a96f
:100ea000082301f85d3d4ff0ff330360064601a8bb
:100eb000fff7dcff00259df80330ecb2a34201d818
:100ec00001200fe018ab03eb840409a954f85c0c73
:100ed000fff793ff40b99df85e30bb4204d154f850
:100ee0005c3c336019b0f0bd0135e4e72de9f04f0b
:100ef00091b0884601a9074691469a46fff77dffc3
:100f00008346f0b90e9e1b9d9df86840b54204f1e2
:100f1000010438bf3546e4b253464a464146384696
:100f2000fff7fcfe834640b93846fff755ffad1b7f
:100f300018b1002df8d14ff0060b013c14f0ff045e
:100f4000ead1584611b0bde8f08f000030b589b045
:100f500005460c46fff7c8fe431c34d0c368d807cb
:100f600002d4012009b030bd18490123cde9003178
:100f70001022142303a92846fff7b8ff0028f1d157
:100f8000039b002bedd01a07ebd1059a0132e8d074
:100f90009df81850ff2de4d09df81910ff29e0d0de
:100fa0009df81a20ff2adcd020332360bdf81030d2
:100fb000a3809df81230a3719df81b30e57121725a
:100fc0006272a372cee70520cce700bfa0860100c5
:100fd0002de9f04f95b00d461f4605a99df87830d4
:100fe000009093460293fff708ff804638b91f9b95
:100ff000ddf848904b4538bf4b4601931fb940463a
:1010000015b0bde8f08f099b5c422c401c44dde923
:10101000016aeb19a3428cbf641b3c4623465a4627
:1010200029460098fff798fe034660b9009803939d
:10103000fff7d2fe4e45039b0fd3a6eb090610b176
:10104000002ef3d106231af1ff3ae7d21bb925444b
:10105000a3443f1bd2e79846d1e70026b04218bf11
:101060000623f0e72de9f04790b00f4601a90646a8
:1010700090461c46fff7c1fe8246e8b9189b0e9dbc
:10108000ab4238bf2b4601349946e4b2424639465a
:101090003046fff780fe824650b93046fff79cfe8f
:1010a000a9eb050920b1b9f1000ff6d14ff0060afe
:1010b000013c14f0ff04e9d1504610b0bde8f087c0
:1010c000044a00231370044a1360044a1360044a5c
:1010d00013707047c0010020bc010020c401002033
:1010e000c101002030b5164b91b001a91868fff777
:1010f00084fef8b9134b02991b78134c134a13b1b1
:101100002060116016e0039d05f110032d699db16b
:101110002d0711d19d6801350ed01d7bff2d0bd001
:101120005d7bff2d08d09d7bff2d05d01b692360c3
:10113000cb1a136011b030bd00232360e1e700bf7c
:1011400024010020200100202c0100202801002083
:101150002de9f04f3f4c8bb023780390002b75d1d5
:10116000052323703c4b1b78002b71d1dff808a1bd
:101170003a4e3b4a4ff00109cde9009a102312681c
:10118000306806a9fff7b2feb046054638b910220e
:1011900006a9344800f0e2ff40b10223237023780f
:1011a000039a284613700bb0bde8f08fcde9009a82
:1011b0002d4e2e4fd8f800003a6810233146fff725
:1011c00095feb34605460028e9d13668284ba6f1be
:1011d00040029a4201d8330701d00323dee73f687b
:1011e000cdf810a0bf1b4ff6ff79049b0193702e22
:1011f0004ff00003b246009328bf4ff0700a5346e9
:101200003a461c49d8f80000fff770fed8b9574499
:10121000a6eb0a060346174a0593d15c484600f040
:1012200017fb059b01339a458146f4d1002edcd192
:10123000bbf804304b450cbf4ff006094ff00409d2
:1012400084f80090abe74ff6ff79f1e70025a6e7b9
:101250000725a4e7b4010020c001002024010020dc
:10126000b8010020c1210000a4010020a00100203d
:10127000c0ff0f0030010020a086010070b51a4c9d
:101280001a4d04212046fff707fe2646e0b92368e1
:10129000013319d0164b01221a70fff723ff0446c1
:1012a000e8b9144b144a1b6812681344134aa3f19b
:1012b00010011160124a203b1360fff701ff2870f4
:1012c0000a48fff745ff0de002210748fff7e4fd5c
:1012d00028b93368013302d0054b1870dde70523c8
:1012e0002b700124204670bd24010020b401002091
:1012f000200100202c01002028010020b80100203e
:10130000a0010020314b2de9f34715461a78074616
:101310000c46002a53d12e4b1b78062b4fd12d495a
:101320000b682033a34288464bd91b1bab4248d3e2
:10133000002846d01f2c2dd8dff8a8a0dff8a890f1
:10134000254ecde9002a254a306812681023494607
:10135000fff7ccfd80bbcde9000a214a3068126856
:10136000102309eb0301fff7c1fd28bbc4f12006e0
:10137000ae4228bf2e464ff000404ff0ff33c9e980
:10138000060309eb04013846324600f0f6fe344409
:10139000ad1b3744bdb1124b12491a68d8f8003062
:1013a0000d48203ad21a0023cde9003122442b46c1
:1013b00039460068fff79afd02b0bde8f0870720c4
:1013c000fae70420f8e72846f6e700bfc00100204e
:1013d000b4010020a401002024010020b801002055
:1013e000a0010020a0860100300100202de9f0437b
:1013f000194e1a4d95b0074605a93068fff7fdfc58
:101400002b78012b14d0164b164a1c680a9b1268c5
:10141000dff854905b421a400f3403921c404ff0a7
:101420000108039ba34205d985f80080fff748fe19
:1014300000200de0cdf8108007b1b847cdf800903e
:10144000002304aa03a93068fff70cfe0028e8d0a7
:1014500015b0bde8f08300bf24010020b4010020d6
:10146000b80100202c01002040420f006f2838b541
:1014700004460d4601d8012038bd0307fbd1094bb6
:101480001b688342f7d31046fff7b0ff0028f2d164
:10149000054b01221a70054b1860054b1c60054b6b
:1014a0001d70e9e728010020c0010020bc010020d8
:1014b000c4010020c10100202de9f04f1d46684bfa
:1014c00085b014461a780293064689463ab9fff762
:1014d000f7fd03232b70042005b0bde8f08f6148b1
:1014e0000368b342834604d0fff7eafd0420287066
:1014f000f2e7a00703d0fff7e3fd0523eae7702c2e
:10150000f9d859480390d0f800a09a45ecd3aaeb3b
:101510000303a342efd319b9fff7d2fd0723d9e79d
:10152000012a68d1c6f12007a742dff8588128bff9
:1015300027463a4608eb060000f01ffef3191f2b62
:10154000cbf8003001d80020d1e7102247494046af
:1015500000f004fe28b1fff7b3fd06232b70012035
:10156000bae7d8f81030424aa3f140019142f2d8cc
:101570001907f0d1d8f8182032f00042ebd1d8f892
:101580001c100131e7d120339a45e4d14ff00043dc
:10159000c8f81830374bdff8f8a01b7888f81630f9
:1015a000354b36491a70364bcde900231023354aa6
:1015b0000968daf80000fff70bfd08b10823cde752
:1015c0002f4bdff8d0803049cde90003424610238d
:1015d0000968daf80000fff7fbfc0028eed198e874
:1015e0000f00dff8a8c08ce80f00029a02231370e6
:1015f0003e44e41bb944002ca5d02246494621486c
:1016000000f0bbfd204b1e4a1968204b20481b6888
:101610002039c91a0023cde9003231442346194a42
:101620000068fff7d5fc0028c8d1dbf80030124e67
:101630001c44039b30701b68cbf800409c4282d155
:10164000fff73efd30703046fff782fd10b933786a
:10165000062b01d0022381e701232b703ce700bf5a
:10166000c0010020bc010020c4010020c1210000f5
:10167000c0ff0f00c1010020b4010020b80100200c
:1016800020a1070030010020a0010020a4010020bb
:10169000240100204001002030b5164d044691b0d1
:1016a000fff720fd2b682360134b1a682032a260dd
:1016b0009a88a2819a79a2739a682261da68db79a2
:1016c000e3730e4b62611b7823760d4b01a91868fa
:1016d000fff793fb20b14ff0ff33636011b030bdd3
:1016e0002b68069a0d99b3fbf2f20a9b0b44534305
:1016f000f3e700bf28010020a40100202001002002
:101700002401002030b5144b89b00df10f001d6885
:10171000fff71efd0446e0b99df80f30062b18d1e7
:101720000e4b9a6892b10fcb0df1200c0ce90f0013
:1017300062460b4b42f8084dcde9004309480423ab
:1017400005f108010068fff743fc0446204609b094
:1017500030bd0724fae700bfa0010020a40100204b
:1017600020a107002401002030b50f4bda680132b8
:1017700087b0054616d10d4a14680fcb0df1180c31
:101780000ce90f000a490b486246002342f8045d49
:10179000cde90031042304f10c010068fff718fcc7
:1017a00007b030bd0720fbe7a4010020a001002006
:1017b00020a107002401002030b501f1100300f141
:1017c0001005002213f8014d42ea440205f8012dec
:1017d00093f900408b424fead472f3d1002cbebf84
:1017e000c37b83f08703c37330bd30b5034601f17b
:1017f000100451f8045b43f8045ba142f9d11030a6
:1018000002f1100352f8041b40f8041b9a42f9d16c
:1018100030bd000030b50d4d85b004462a46fff7b7
:10182000e4ff10236a462946204604f1300500f003
:10183000bbfb04f120012846fff7beff294604f157
:101840004000fff7b9ff05b030bd00bf1c2200000b
:1018500040ba80b24140c1f30310484080ea0030f2
:1018600000b2430103f4ff53584080b27047f0b513
:101870000368064689b09c1e1f4603f11e00002522
:1018800024f8025f8442fbd1002595421fdbb3f9a7
:101890000000904235d0012037f9025fd5eb4000bf
:1018a00013d4bc42f8d10024adf8024001242746ed
:1018b00001343df8175033f817700f2c3d442df8c4
:1018c0001450f4d1002393420adb09b0f0bd31f982
:1018d00015c033f81c00013023f81c000135d4e793
:1018e00031f913405cb108af07eb4404756834f973
:1018f000207c07f1010c25f8173024f820cc0133a7
:10190000e1e70020e1e770b5056904460e4663692a
:10191000b34209db0120b04025fa06f29b1b0138d7
:1019200022616361284070bda36820689847002841
:1019300004da012104f1180000f030fc6369c0b240
:101940009840083305436361e1e72de9f84f054608
:101950000b68d0e9040200270e4603f1020ab846dc
:10196000bb464ff0010962b9d9f1100437d0aa681b
:101970002868904700282cda012105f1180000f0b2
:101980000dfc00f00103baf9004043ea0b03a3eb9e
:10199000040cc4454fea50000af102010eda6a69ec
:1019a0002861a2eb090202f00702a3eb08036a61b7
:1019b0003b44726832f91300bde8f88f2744444471
:1019c000013a4fea44084fea430b09f101098a46fc
:1019d000c9e7082c2246c0b2a8bf0822c3e76ff0af
:1019e0000900e9e72de9f84f314f82460e4690464f
:1019f00031465046fff7a9ff041e0cdbff2c0ddc1f
:101a0000daf80430002bf3d0e1b2daf8000098479e
:101a10000028edda01242046bde8f88fb4f5807f78
:101a200001d10024f7e76ff480731c441c2c38dcd0
:101a3000204b37f9145033f914105046fff763ff69
:101a4000414683465046fff780ff041ee3db1a4af7
:101a50001a4b32f9141033f914905046fff753ff24
:101a6000daf804201ab9b4f5807fc1d1d9e7ab44c4
:101a700009eb0005013dbbf1000ff4d02946daf86f
:101a80000c30daf800009847011e0ddbdaf804305c
:101a9000daf80000c9b2984700280bf1ff3beadaf8
:101aa000b8e76ff00904b6e76ff00a04b3e700bfc8
:101ab000a4220000de2200002c2200006822000088
:101ac0002de9f04fadf2445d04ab009323ab0193dd
:101ad0000cab0293052114ab06460393fff713ffeb
:101ae000052100f201173046fff70dff042100f138
:101af00001083046fff707ffb7f58f7f044600f374
:101b00009580b8f11e0f00f39180dff84cb14ff0d3
:101b1000000900f1040ab2add14542db6ff00302c7
:101b20009442b8bf14464c4b221d0021132a43d1c6
:101b300029466846fff79bfe00287ad1044607eb4a
:101b40000809a1453edcb5f90032002b7ad03a46af
:101b500029466846fff78bfe002808d075db009aff
:101b6000b2f90030b2f902201344bb426dd14246b3
:101b700005eb470102a8fff77afe002808d067dbd3
:101b8000029ab2f90030b2f90220134443455fd102
:101b900002aa69463046fff725ff0df2445dbde815
:101ba000f08f03213046fff7aefe3bf9193009f103
:101bb000010925f81300afe733f91200013225f8c7
:101bc0001010b3e769463046fff7bffe0028e4db9c
:101bd0000f2804dc25f81400621c1446b1e7102815
:101be00014d14cb3631e0221304635f913a0fff720
:101bf0008afe033022184a4521dc05eb4404002309
:101c00008342ead024f813a00133f9e7112807d161
:101c100003213046fff777fe03304ff0000ae9e773
:101c200007213046fff76ffe0b30f6e76ff002003a
:101c3000b3e76ff00300b0e76ff00400ade76ff0bb
:101c40000500aae76ff00800a7e76ff00600a4e719
:101c50006ff00700a1e700bf182300002de9f04f47
:101c6000adf5317dcde90301cde9052309a80023b8
:101c7000cde9073300f08cfa0646002840f0ab802f
:101c8000dff87c91594fdff87c8103ac01212046bd
:101c9000fff739fe022101902046fff734fe0028ad
:101ca00046d1c4e90400a368206898470028c0f220
:101cb00092805ffa80faa26820689047051ec0f201
:101cc0008a80a3682068dff840b198470bea0525b1
:101cd00045ea0a050028adb27ddb5ffa80faa2680a
:101ce00020689047002876db0bea002b4bea0a0bb2
:101cf0006fea0b0b1ffa8bfb5d456ed16368a3b9ce
:101d0000019b002bc1d030460df5317dbde8f08f31
:101d1000a36820689847011e5ddb63682068c9b22c
:101d20009847013d0028adb25adb002df0d1e7e71e
:101d300001284ad1d9f80030002b3ed02c4bc8f8ee
:101d400000302c4bc8f804302b4b3b602b4b7b6096
:101d500020aa3346082122f813100133902bfad120
:101d600020aa092122f813100133b3f5807ff9d19d
:101d700020ac072224f813200133b3f58c7ff9d16e
:101d80004ff008134ff4907221464046c4f83032a9
:101d9000c4f83432c4f83832c4f83c32fff767fd77
:101da0003246052321f8123001321e2afad1384674
:101db000fff75dfd0023c9f800303a46414603a80d
:101dc000fff710fe00289bd09ee702280ad120468c
:101dd000fff776fef6e7022096e76ff0010093e743
:101de000012091e74ff0ff308ee700bfa0140020e4
:101df000e41400200c15002080140020a8140020fa
:101e0000000400200415002000ffff0070470000c0
:101e10002de9f04f85b004464ff4807088469b460c
:101e20000192dde90e759df8406000f027f94d49fb
:101e300001230b60bff34f8f4b4a002313605360a5
:101e40002368536263685362a3685362e368536212
:101e5000012e029107d8b8f1000f21d1c4e90888fa
:101e60000023c4e90a3304f1300303933e4b04f129
:101e700010014ff080084ff0000904f1400ab5b995
:101e8000029b4ff480701d6000f00cf9019b203420
:101e9000013b04eb0b0294425ed105b0bde8f08f2c
:101ea000d8f800302362d8f804306362d8e7102de8
:101eb0002a4628bf1022ad1a04f10f0007eb020ecc
:101ec00017f801cb00f801cf7745f9d1501e8f18d4
:101ed0000844ddb90eb1032e18d1d2f1100c39d05f
:101ee00001f802806044874231d15246101f0c3203
:101ef00004f10c07009250f8042f57f804cf8cea35
:101f0000020c009ac7f800c08242f4d1084604f1de
:101f1000200c50f8047bc268844582ea070240f82e
:101f2000042cc3f88020f4d105229a601a69920724
:101f3000fcd4d3f880202262d3f880206262d3f8e8
:101f40008020a262d3f88020e262774697e707f804
:101f5000019fc8e7039ac9e714f8011b03f8011fa2
:101f600099e700bf0016c84300000f4000b599b0c4
:101f700004a80a49fff74efc094b0a4a9b6c1b0c4c
:101f80009b02002101934ff0005300930291042320
:101f900004a8fff73dff19b05df804fb1c22000008
:101fa000b081e00f080400202de9f04704464ff40b
:101fb00080700f461d46904600f060f82d490123c1
:101fc0000b60bff34f8f2c480023036023684362ec
:101fd00063684362a3684362e36843624ff0050e9f
:101fe00035b90d604ff48070bde8f04700f05ab885
:101ff0002269c0f880206669c0f88060a369c0f8d3
:102000008030d4f81cc0c0f880c00132c0f808e0ad
:10201000226142b9013666612eb90133a36113b959
:102020000cf10103e36103699b07fcd4d0f8803015
:102030002362d0f880306362d0f88030a362d0f899
:102040008030e362102d2b4628bf102304f1200cb2
:10205000ed1a08eb03093e46c84501d11f44bfe70e
:1020600016f8012b1cf801ab82ea0a0208f8012bd2
:10207000f2e700bf0016c84300000f4072b6074bde
:1020800007491a6801321a600a68104308601a6822
:10209000013a1a601b6803b962b670474c170020fa
:1020a000c801002072b6084b08491a6801321a604c
:1020b0000a6822ea000008601a68013a1a601b6880
:1020c00003b962b6704700bf4c170020c80100205a
:1020d000044b41f671321a649a6822f001029a6048
:1020e0000020704700000e4010b5eff3108472b668
:1020f00000f043f804b962b6002010bd002070471c
:1021000070b5144c0246034604f12806254603cd5b
:10211000b542186059602c4603f10803f6d12868cf
:1021200018600d48836c9bb29b021360436b1b0ebf
:102130000a33012103f01f0301fa03f35360436bd9
:102140001b0e0a3303f01f0301fa03f39360002010
:1021500070bd00bf40230000b081e00f30b5002407
:10216000a24201d1002007e0035d01340d1915f8ea
:10217000015cab42f4d0581b30bd10b5431e0a447d
:10218000914200d110bd11f8014b03f8014ff7e760
:10219000ec46a0e8f05f4ff000007047b0e8f05f59
:1021a000e546080008bf0120704700bf000000009e
:1021b0005ff800f0950000205ff800f001000020bb
:1021c00000534352319a933082d9eb0afc3121e318
:1021d0003700000006000000e0210000002200009f
:1021e0001d0d0000590d0000970d0000d90d0000d5
:1021f000fb0d00006d0e0000990e00004d0f000059
:102200005111000005130000ed1300006d140000d3
:10221000b914000099160000051700000000000026
:1022200000000000000000000000000000000000ae
:102230000000000001000100020002000300030092
:102240000400040005000500060006000700070062
:1022500008000800090009000a000a000b000b0032
:102260000c000c000d000d00010002000300040032
:102270000500070009000d001100190021003100c0
:10228000410061008100c1000101810101020103df
:10229000010401060108010c0110011801200130a0
:1022a000014001600300040005000600070008006b
:1022b00009000a000b000d000f00110013001700a9
:1022c0001b001f0023002b0033003b004300530082
:1022d000630073008300a300c300e3000201000059
:1022e00000000000000000000000000000000100ed
:1022f00001000100010002000200020002000300d0
:1023000003000300030004000400040004000500af
:10231000050005000500000010001100120000007b
:1023200008000700090006000a0005000b00040071
:102330000c0003000d0002000e0001000f00000061
:102340000000100000080000000800000400000069
:10235000000000000000000000000000520000002b
:1023600002a00000ba880000020000000000000087
:1023700040ea020313f003032de9f0433dd1920834
:10238000eff3108672b61e4fbc6844f00104bc60c7
:102390003d464ff0010c4ff0080e934207d3ab6857
:1023a00023f00103ab6006b962b6002026e000eb23
:1023b00083042c61c4f30a04c4f50064a408a2ebee
:1023c0000308444528bf44462344c5f80cc001eb2c
:1023d00084048c42e1d0d1f80080d5f81c9019f02b
:1023e000080ffad0c5f818800431c5f80ce0d7f80a
:1023f0001c8018f0010ffad1ebe70420bde8f08350
:1024000000000e4030b58db0044601a80d4600f026
:102410003bf8039b2268591e114230d1296801986c
:1024200001fb032181422ad81a44d11a4bb92368ef
:10243000039a134423602b68013b2b6000200db0ee
:1024400030bd09680131a3f10403eed0eff3108130
:1024500072b60c4b9a6842f001029a6022681a61c7
:102460000122da600222da60da69d207fcd49a68c3
:1024700022f001029a600029d9d162b6d7e7042080
:10248000dde700bf00000e405ff800f00121000012
:0c2490000100000000000000000000003f
:020000040000fa
:103800000078080000780700050000301000000074
:103810000040000000c0030005010000050000009a
:1038200000f00f0000100000050000200c00000058
:103830000000040000780300050331cc09000000fb
:103840000078070000000100050332cc14000000de
:103850000000000000400000050100100000000012
:020000040000fa
:103880003e1daecf9d0a77f9e2bf6c049026c15071
:1038900017c02538c6427d82d787ad35acbd6b4099
:1038a0004b5c252486b6f8bd77416b954d2753b602
:1038b000f7ab34b47d9fe35f3cc86143c530fe3055
:02000004000cee
:10e1e000fe6c4785d5e16fef9030d037c524a0cfc6
:10e1f00028d7766389cbc2b2e3002202fc53130a0c
:10e2000005010000a0c6010005000100000000009b
:10e210003acd998ef6553dc27cddce46257fa58c44
:10e22000292c16974c26a8230409e530772fd429ea
:10e23000764203592b1527b62b8546b7e9a01467fc
:10e2400011ac3893f1dd2ecd0e906848007c645af5
:10e250005ba80a492b7b4424bc3b5ba9774086ec36
:10e2600054131712c95a1749dc407cce41ddf6051c
:10e27000d0974f7789637edda12291e72e0e5275ec
:10e28000ec288a7b2a26cf166acdfee499513eb24d
:10e290000a2954d825ff152e9288972c58126b7294
:10e2a000a499de050497fc8073f7289b683688f1f3
:10e2b0002bc9e4b331d9a0de475c2a6a333bab8e6d
:10e2c000e12e8305a3ea781157bcf58c0e8c3a87b2
:10e2d00052c982708ae6d3ffb6148493287f2ce15a
:10e2e00079c1c78c17df58c8f2695c6364df67ccfb
:10e2f00008546658d3d5d32d1c7d31f327b4286a32
:10e3000078b7ca6f3742f0238c43b3adeae66ef9b3
:10e310007105790aca4bbf2b8e572bc48d75d7f068
:10e32000401302a4ec4074220509a8c2b671a6608d
:10e3300057d357072c16e7a28c7ef0fd16199d7d4a
:10e340002a9fd3d7176bb7e29b128f8d4489ccc518
:10e35000b503ef9a4a199255c71f177591bb9420c0
:10e3600050ec71409e5fab14930fbafa9bca2d76a6
:10e37000dfed7a7bb38bf2449b8bc213fb0a39e44b
:10e38000427eb7adbfb2e56e62b61854a6af6b3f22
:10e39000aca82856f7d418606c2c65e41beb9c895c
:10e3a00064c0365767873eae4be7e95ace4767b63b
:10e3b000671d39870041f7a5aa3820fa70e5825613
:10e3c0005de40fa04665d3ac3769c44a7f5b8f61bb
:10e3d000e01269808ff203fcc6293bc1ce1e69c3df
:10e3e000af7fc1ef040109ac4382e2fc3fbf805123
:10e3f0004e1fbc49666d6f291a739f126b0fad0dce
:10e400007f0b7da79394dc75eef6dac76d4d53e173
:10e410009b8d902d4adc6fa3e72b90abb7e4c5db57
:10e42000ae2fff06aa777672d33a501ac7e0a0063d
:10e4300028ceb735e8abdd55fc76a62f0cfd5a6823
:10e44000512f71ed1fc0928ae14671a890a5867b7d
:10e450006950aeb6bfe8e95f1858e64b9e591352b3
:10e460008906aac6042bf0c41428bc899877eed07c
:10e47000f96f2e9a6be06567bd6ef98145a8ecd700
:10e480005e51cf931beadd1f69eaa6951e3ab92ead
:10e4900048faed6883d276e95eef987a59c4c75995
:10e4a000c1c36f48db9b64e3b550cbd8837a92ae8f
:10e4b000d986118aae3cf1176cac99373d1099c9d9
:10e4c000982d51249a61feaf824428a5ca124c5c53
:10e4d000fca19014b1910c61eb07378fd7f927039a
:10e4e0006e5e532562233c0413103e174da36b1b35
:10e4f00083d97019dc4c2ea4a1a58ccd64d7897a60
:10e5000048783a396cc00d13c232f291b89e8f0b25
:10e51000fea5db9549655caf362cecb59ca7b146f2
:10e52000cb1c0e3dffc0c2eda4629759b75cf94cfd
:10e53000644d79777aac6bf5460773d3225e5db88c
:10e54000410321bf06bc2b7c73b98d11e91b28bd8b
:10e5500087e515090d55a4cf3798dfaffa36ebffe5
:10e56000af6d533a56118d01e74a9193d3b1f26bd7
:10e570007482643e2fca7ce0efe0bcba5f98ce881c
:10e580003d6dc50331aac44e2d928a55fa5b37ac56
:10e59000ad18e38ad087de4ac446fefaf3e473a4da
:10e5a00016393ffd15dc425f6090c36c7341413703
:10e5b000615e886ca3ac570aff371515d685506489
:10e5c00081acb7a2a49cf598b14b4478e8e3af9630
:10e5d00012db6c1c3cdab3ef5c75043bcde82e46d5
:10e5e000546fbecc262542c679a0b21ff21747dc75
:10e5f0004957c99dc082fe383a4094971410f81cc0
:10e60000a6d8067dc12c278045d12a17e5e1f997c8
:10e6100060ce653abc91472a56768eb5b444e9f689
:10e62000eceb23080c56569a740853e450233efa38
:10e63000294e51a8969fa6517eeb6861d65e0717ba
:10e64000674b7820fb73047e5b02f76e3f90a184da
:10e65000dfdde2c81fd122a5c8e3a37f306e70a61c
:10e660007313bfff47b78ec9641aa1ca8a8686276b
:10e670006249574fef8d387d0b5553fb9d576452c0
:10e68000c647f9913cc97ff1b5d61540776090e750
:10e690007f1001e3d3e35cf9f2aef13e056517f3b9
:10e6a00071694f4fa25d55972cbed58d41225743be
:10e6b000aa58559d4e8ba92a2fafbe2406e8baff53
:10e6c000b548b11081d59d191e15535f42d392a351
:10e6d000f832fa059c30ae11e070918bd12d25787f
:10e6e0009729a18f2a713648ffd7a73560555370f7
:10e6f0000b645d18b424a280194ff0ad3585a87b5a
:10e70000e4221d38acdb3eb5d9adcf6b59f8d88bc0
:10e7100002efb4e8fbefc3eeef0d34312e515f9ff3
:10e7200036fc07e8aad36b922a68f89af7b9727098
:10e7300093d6f9b8613a2d9ccfba67db5e4f6a84f5
:10e740008572a516b54e5e5bc3b33706d9615365b6
:10e750006d83898e2a1eacfc32e9ed604025a498b9
:10e760001d93adee8ace3752da230b3cb17069d7d8
:10e770008915cad183caae4ec7461dee0d04601f6f
:10e78000426ca3b3d03805b5fa86e72d77085674e6
:10e79000f294dfea2ba111b600b60541316c9fbfa0
:10e7a000a4c502ca30bb174347f8e652397b5ab8b2
:10e7b0009e8cb876c64b2553ee2763fb6198eece50
:10e7c000d9243fdbd6e76cf6dd8c6dbc109e4c3354
:10e7d000e747552184f1efde678df19d41e94199cd
:10e7e000ce3e4a08cef793cbc067fa4384345f3fee
:10e7f0007a908ac2398d5b179f738069fe1f4ec461
:10e800006bf43738ea2e19d9445818d0ef3c101160
:10e81000d89798054891609cb498ca012409d30bf5
:10e820000c338f752bc76d9a4f22527ada52c67805
:10e8300078104308848fa5b6a971e692cb72573b36
:10e8400055813be1b8ac74af5d8b00ba35f05072c6
:10e85000a484c56ffe5fe327030bfdedb4cb8fb936
:10e860002b3c6ce8d7d4b1dcb77cc9b97668cf62f1
:10e870005b23a898b16c5e9a126db1497b52131557
:10e88000dcf442627ff042e82779dc3050a4bb0b15
:10e890002b46a4445816a95bf7d1cb425206f7f099
:10e8a0001c3bb5c614636be067c9a5a15d0577fd88
:10e8b000445ae6e969e6607d2a07f711e976dc2526
:10e8c0000de21e00869c3d8975e9b3b01d461070af
:10e8d000733d4cc0a171987c2ef43246eca0998512
:10e8e0006b70c7b1186ba53deac125e59418594d69
:10e8f000c89b8ef71e3fc856e57ddfef11cdec3586
:10e900009b78858524dfdf3b17332126a7edb611e1
:10e910009c478c2b4b8927f5c954caac3bc59557ee
:10e92000a89dc96ac635466af4bd8983d6896e69d1
:10e93000101cc1cfabd8390fa6c5bb76e6d12b8052
:10e94000e90937d40bb3d93b4ee14893ed4671301a
:10e95000f8d0dc3e2ef79e0d38d357b36e604f03d0
:10e96000cee8602ba9d81da2f0e72a50595fbd421e
:10e97000908f6465e446d22da892ed4e02e93f14d3
:10e98000cd388a695ca089b2e27fd98e7b2f163997
:10e99000ff43d4e8eb94fe726da0fd6d61621b89ac
:10e9a000f8a294ed26097c452b2416438d8d50d179
:10e9b0005f9af49e67c5e765e978e36ee16742c454
:10e9c000849f61592f23d562dc2cf8d2dddf8af8d1
:10e9d0006239277a8e6ab5f1acea55d094e3ec0e31
:10e9e0008c8f1f19906ea053675be50649a30e1725
:10e9f0001f938f7bcfca21971f8a5b0665f4109502
:10ea0000ea336104d1d99eb4e61c731b9618b57c19
:10ea10009b7cad4c2aa27d0e7398a746fa0af3435d
:10ea2000aada184166a2fc0684d7beb29833f1ed8b
:10ea3000d7c83a468f8c5b39cb07853b409851db72
:10ea400089acd35ec1f4bf662d7cef39cfb5628d42
:10ea500001d050821552f0c7f9b87d6414dd3d94a1
:10ea60009232fea7aacbeccd53595fefe2c3905c84
:10ea70003fa335f2ea00bb02e1e37d06511a9f98fd
:10ea800030778afb77a27d3c124cfcbd3db21b7aed
:10ea9000d2d927810b5d97ae5427f2fa5d081f404b
:10eaa000c17629e2f7d4eaf56d3a510d55fea5c2bb
:10eab000101404a7986f94d4e8b5cd387952102e6d
:10eac00091f4365c9fbdff7ee13d6dc78080337c55
:10ead000b8835fa0d6bfa921ae96af1607bea91f07
:10eae0009b02543151b3febbe9a64b80b4c9959645
:10eaf0009d73d0cfccccb74608d8ff91a44736e55c
:10eb0000f6c877173cf0027635049e5986ad7a1721
:10eb1000df1cccd7d68cc0ed3ed9ec8fe2b54f2da3
:10eb20005d143be5bce778526b13213742e50e7e5e
:10eb3000ef3b0b9f04de20d76a62fa043ef6cba6b9
:10eb4000af9f12fdd465e80193af1156f0dd6a6303
:10eb50006c93b95caf1c362651d966b24f474ae771
:10eb6000e22b98765dd31f21973f9bfd7460e06a8e
:10eb700065eba864d9deaa984cab8c1bad8cbb7539
:10eb8000d68371ae941b737d923793357f7fc470ab
:10eb90006e806383bed1f263369a3c2d6882e201b7
:10eba000dfefd957bdc6854853d92ebfee2d0a2bae
:10ebb0006dd8178a28d49e486e5d8e493b3a2d4108
:10ebc000855221abd9b80f9b92ffd53b81a5c903d4
:10ebd000e04f572718276ec72928bd9d145f7f7ff8
:10ebe0004bf5a010c5d98c88104bc653e724a4134d
:10ebf000b4e6b2667f24415bfcf6429c765bfaed9c
:10ec000037d51679533dcb8299264868831a3b0342
:10ec100017a05e630dcf4de92d6f6a047fd3f0839b
:10ec2000ef2cdd594aaa859bf22517d0882086cc87
:10ec3000122d372d30a4eac1b54a9fc420802f95ec
:10ec400019dc4ec9dcfbb38e2136feef89c939379a
:10ec500042242c0c7ae8e56fe89465da90a714d585
:10ec60004ee426ce161f625492614f3d09230ca339
:10ec7000e6bd207617f935961cc09d3b5172bb53fb
:10ec8000825fe9c777b610fdc99e7cd32083d47616
:10ec9000e45ea38b4cf9b1ad3752c5103dee3f3861
:10eca000872eccd7f9ecc868516f96d9cedc42a438
:10ecb0005053d659ad06bbb647cc5d24f93eaa7f6a
:10ecc00076e073e9559040b428327feddbf90a997c
:10ecd000e676152409aa32e982b73fc77ac820b47c
:10ece000417d9be047be6ca3f42876935e92971615
:10ecf0006bbe625bb51a6f0819c229a897631157da
:10ed0000d2ecca1269551c3e5dc05edc31e0158b49
:10ed100034f95f5702ef52b8b1fbc3bd4a5bc1d0b3
:10ed2000caf7a3e0b7490f406ecd20901108ec8fd1
:10ed300075df480b964961a7c0b74eeaeb6e9c2180
:10ed40007b831f8159ebc8c7621557be865648356d
:10ed5000d8bbc1e8fe84af4db7a4df5eabdbbcc35c
:10ed6000d3e310c8da4b7df7ae8d0583164b222c0a
:10ed700022c25c0a5d65afe20d78b7864105eca65c
:10ed80009cbe6113893e30acc22db98f775f10a055
:10ed9000fa920ef009fccfc869ad956d6a4b019ae5
:10eda00052038aa86f336347c009d97ddc44316db3
:10edb0001c5e8559c902c69d9765d5314de05db58c
:10edc00033d0cf9fc963c70bc51a7682e0d2d26118
:10edd000812892dd275ea31ffc00e2e6853d8f7c43
:10ede00086958c5d59a5bd1b29bc9c33dd3e43cf68
:10edf0006caeb06b7bedd92a1418fe17d1f6915981
:10ee0000921b269afcc380664137ba73aeb58bd08d
:10ee1000318955d2d973ff61622e5604e6ffebdecd
:10ee2000976b350e61e03f7b5e829fff3d993447d3
:10ee3000e92befa981f3467120ab0c8cf647fef36a
:10ee400028c5fc9c18bad0f393d0bf25982b229ae2
:10ee500005a6c3e53616c6e31de10a10bfaedd12f6
:10ee60009ec8a81257dee7fc58f8819a07582ed89a
:10ee7000f9eeed9081ff84c90b42622877e6c75a0c
:10ee800094a61efc0fdaa9f26202a1b2181ea2fa21
:10ee9000b85f0c9980d0ee37c59c4294f6b1c4dbc4
:10eea000ffa9977d6d8c0a0aa0b845758566f70f96
:10eeb0002eb94cd4c947d1efcc430ac73561c1e85c
:10eec000574cdba221053e52f08cf9f5bd4dfbd924
:10eed0003f994d7348b47d0aadaa16c0d6c1fd381e
:10eee000e897dd63e85b4fdba8b7be1a61c1ce28a7
:10eef0004f869c6070fbe4c6ff30019d54458d68d1
:10ef0000307b70b7b15247e8d238f5555d4a7ec6be
:10ef1000e7ed9aa3723471c1be37fdcbe3545618a6
:10ef2000858f7df0557ea36caa19046f078d71bd86
:10ef300047121ce9adb137b2994e762df2936407b2
:10ef4000decceb2d7d474d0f5fb9ea0a621eefe381
:10ef5000f9447cd266ae8af86586240637f6f69dbb
:10ef6000e3af3dcf1f85d5396f52295fa1c0143261
:10ef7000ed96ab3eff3ab4613aa1adb18237187855
:10ef8000bff090014ee356da81e4ad1fc60681332f
:10ef900083aae81507b7520dbad990ce4f0a357e2d
:10efa00076313e7b82fc1fd19ccb172bc98f8dd233
:10efb000ee34de38bc9adf6e6acd3b0206f8486e4e
:10efc0008e691709a808d1a68b21a426fb177121e9
:10efd0002f1b161d2bccb51c97a828dbff69ac3462
:10efe00094d8e1e9d60385f980369e534d5032d549
:10eff000c7394f15d198af58989a29da40af36776c
:10f00000f8fcc69b497c63c7a265c47eb1aba9e688
:10f010006bb12db2a82b4377d090abb95783c815ed
:10f0200071292c067afbb7d5f249aac0b4bf0d5698
:10f03000840d91e9d92021b95a56a7cf86919849d4
:10f0400056b7a4f9e56e73566551dbe74f0ad72a28
:10f050008b47eccc065bfc150483f613b861158f67
:10f06000dff592a543af7da7ee78360bc1779062ae
:10f070007c0521cad1371b0fabc327634546c62089
:10f0800020a05316694b70ca53963b4b7ca512be09
:10f09000560b61e716c1d4002171f656c68b6f7d01
:10f0a000f79c11e703dc1fbd3c3f531ffae906053f
:10f0b0005940f0054bf1a1b5e53d3e5cd84136a87d
:10f0c000b83df3fd0bd78b0d7268a391becfa6d6ca
:10f0d000293cb1df0adf796050637b900719822fea
:10f0e000ad04e08e6333184ae226a58a7e83e21bd4
:10f0f000fbe255f5013503753550a87a7f8b57a093
:10f10000411b21bf76a2d16ec404eb7c74fc4deb95
:10f11000b92ba1e5e8d8512c65510791eb7370b07c
:10f1200025ffd3f7923cb11fb08f0b8f3730777725
:10f1300074745e9534933054a5a03264244568807d
:10f14000b92d9b95b890e837ecb43f96d99d4629e8
:10f15000f5e424ef0e3670e0b03defc00ac1a5e241
:10f16000be24b34af6b8bb709daf252bf306546698
:10f170003ddb85937085027d79171e40b9ef9915a7
:10f18000bf049bd186022717a71778c7ec441d8db3
:10f19000ad3fd18dd8179e97a824ed10c041ebd874
:10f1a000bad992d2c9210958dff4fcb7da12a219f0
:10f1b000e562eb2d5d91a7b5f09ce488f393716453
:10f1c00018a975bf1f14c761b31dc8c2fab52fb403
:10f1d000d4ecf75bd1baee0ed92dfe9435e1cea872
:10f1e000caef84d729e7618a5ae1b07deaead59867
:10f1f000901c703e8418fd54b760106b9c945badfe
:10f2000059dc2bb1df852d08d34f974bb3efbe20d0
:10f21000ceb19b4a8869e64aa25290427d2703f903
:10f22000b8676d0a7c3311462ae6296107aee072a1
:10f23000700b20e4f0244965f27f80b034f5015c66
:10f240009801e90eafc05a9a498ebb31c56da1b481
:10f2500054f2e827d2a73111af94cd01c5246279c9
:10f2600095fa50c43bd5f97bbf9ee6863e5335e9ff
:10f2700021816be23e59ef743b0a0bc72ce2917b74
:10f280004718e907785ad5512481c678ad242c3c1b
:10f290000ccf54092299daf51abb6d853c11701810
:10f2a000a12be2ae73394e583c652ccad7fb8b7e3e
:10f2b0006e9b4836089f17dd87eec20f43647e17aa
:10f2c0008fb7877dc0d041832b7f981900617dcb9c
:10f2d00057aa433c1e5b5a1d41c59108e974218f12
:10f2e0000675289d6b430094de864321eb0002a443
:10f2f000c76d2d1cf055e336f8dbdec7e56bbd9e10
:10f30000c41215bb08a4c18d9444ee32a0e3578a01
:10f31000bf505af53a9648c0be02f0ccd0f46737d9
:10f320006e668f6cd6e2abd20e3f4aa96b6f8d40f2
:10f33000b86376c4899f2fc544f245c20b7f5bdf5b
:10f34000e75bdf266c484770b6e122c334dd48fe38
:10f35000a21036139af61f047de2f1fb135adce18a
:10f36000af43f0fce3b75359eab9482675476fb28b
:10f37000038291cb39e1346c57012b13e0fc194f18
:10f38000e4e86d0e8bff89b4f48255ff6103bdb1d3
:10f39000c8bdae723e0e921a45eaaa1903989d6046
:10f3a0007ccc0c7beba164433a01c3b0920f757b1c
:10f3b00014c95b64bb8b5d347035b899417df01a1c
:10f3c0005fd70726d4d24276bdca668181c65d79f1
:10f3d0002a5854893b4f1c00af1452f2d635a1066f
:10f3e000cbbe18985d6eb21ba9a002641963786049
:10f3f00099ca9e9d60d60ad869f2fbf84613f38637
:10f40000254a571ca40954dbdc0a239b046e88e8b8
:10f41000028c9dcf6ac932321a0498c8e020047564
:10f420009b92b2e1ec09adae388e8d15cffe457cd6
:10f430003205c7a740a023863db1e927934d7d8ab9
:10f44000bba630102aaead0744dac2c8a1f24de126
:10f4500077947894e06b309bdacf9d85bbc252f4f1
:10f46000e9f09e217631f76170f77389177199c1c0
:10f47000293520f531c91804df57df11e9d50cec27
:10f48000d276eedecc510adfb19a1381f547189e91
:10f49000cd7e5978091c0231cd9250efff0d9d723f
:10f4a000aadf6bf14c12750b811c574adccd34304e
:10f4b000d03d8a75f976158991ae7af29adf1006f9
:10f4c000b13d322889c74bdc837b357bac1790c7b5
:10f4d000ec1386318ee08825658012c7a66a65bf69
:10f4e00083e61ba416f45c53f8ea5cd36f76e4d28f
:10f4f00032fa9c0f6f239a4231e5fc7f95bf801052
:10f500002334402379bc153ffecbbd354db408f301
:10f51000e93ae878c0bea96d7a0df976fa72f03e44
:10f520000029d69cbf7bef6183fc24928edaffad6d
:10f53000a56b14d06a345cb305127a7b99daac1ee1
:10f5400093ea4060af4a811fc0c83ac37268c3a241
:10f550002ce9ebe30fa87becca7d2b11c9c3cfaa22
:10f560009f29d84da52c1a7ba36b6eaec5c369ff2e
:10f57000af47d279d69dc8d8c53d088f8e90bc2b99
:10f58000fc62513d34affb7b8e609d3b138b612051
:10f590001c2b002356f708637761ed801e0acf33da
:10f5a000bf3faa6cc9ba64419d2d43f77f7beeda59
:10f5b000bcae35605dbc4a0e15e2b7fa7aeb00ab23
:10f5c000ba63ebe40053354e3624324ccc18ae2ce3
:10f5d0008a301d0c94fcd928aab240b29952f68206
:10f5e0002b1e4463c4adade64d7b55f277be474854
:10f5f0000568874c1f8f2a02f13954d19988041b62
:10f6000065680b2a713c6da890c1b07b92dce83430
:10f61000dc4023e8535d571f92209a943a423d2dd7
:10f62000651c1fc3617fe2cf4008ba28abd651c624
:10f630000d6d0fdf6f7d389adba86c322980ae5dcf
:10f64000b21572fac406f6fecf01948d3585a22557
:10f65000514523691dcc39f1f521269907acce2af5
:10f66000b1f6db2fdf087e5710df7e76d91df3d48d
:10f67000ab9735b1e000cc3ba7cf864dfbbe7dd428
:10f680003a97dff77786d0ab6db278586192104b1e
:10f6900004a23ab20f9cc82ae3334be41aaa90f1b1
:10f6a0008d793abd87e9282beb6f01de9cfac6ec19
:10f6b0000909ceca123c15e705e409e187db72eac5
:10f6c000c64ed04cab097e55e583d2833ee333b1c1
:10f6d0002491eff3af2a5780218ebe4d29d92fd523
:10f6e000ee02c0346a9eed67e5033d8e3310285e5e
:10f6f000462aed3913b048962b7ff6765167a67ce3
:10f700004d1be9c029619831062ff332800d581640
:10f7100083d9024061caa2c81861c8ae6ce9581802
:10f72000fdf4e11e58f81c651bbf3fc19f3d3780ab
:10f7300065e6307220281f08755bac00307165f4f7
:10f74000111d1072ed4ed3c29f9b46d086ee2ebc8b
:10f7500036ca06f31171fbc4cc2ab039d35350db3f
:10f76000322d77f45ba19f306d0f4918b158f97baa
:10f77000fc949559097b61d6c2e171099369e6be93
:10f780007664abaa9f840a258e938d967e27e4f437
:10f79000ad524da161c52e113db44b8283dfc72b05
:10f7a000f807eaa84f51c48882b22f48b36d815c34
:10f7b000e918641e49e99b2f27c394edbde05dfd68
:10f7c000be12d0bb8b3fd3be483c0ba5c05443f503
:10f7d000e843b4eb53c53869b9b6443e6c72d6a859
:10f7e000f51dd8b0cfc9ef5f40042ea6e17289980d
:10f7f000325eea8297bf2116d4a2676d3d2d99e64d
:10f800001f391d91f39beb19f3afc92c2e8e7b2969
:10f810004a7ae9d2e47dbe8633927d48079feeb1f5
:10f820003daafdaa86374dc70b832196720dacf613
:10f83000c4c7fb98bef730785c5d0e5719b384c01f
:10f840004835d65c488c4db73d6ba564bffa03398b
:10f85000feee9c054e03e7f878fe9e55c3f3b8d73d
:10f86000670a7ca2af09f7b98b7595f44a5e8427c5
:10f870000734b33b5dafd84441fadc7d9213f6e424
:10f88000c73454fe16d000189e6f5b5f69888f07df
:10f890003f3689f3ce62f6546ef5242b51fc47d5e2
:10f8a0008fa26000094e2b3f3d47b5463f330b22e8
:10f8b0000f995de30ffdf91c887de5766d8b19f4da
:10f8c000ee13ec892faacfc0060b384e49efa66580
:10f8d0006277aec5cfd4671c759a94d33b7486fd0e
:10f8e000d72a5ce7bd6b416f43afba00676515fe71
:10f8f00020b20d4521483ce236504828090361fcfe
:10f90000c93472d50a3059acca27f1a39033d42335
:10f910004cb002734b673b5baeabb431dcabf28bec
:10f920001afe5436885fd33945112bdb8765d0b278
:10f930006a82892b011d7d808f253aa369e11d5aba
:10f94000d02dd775c085a93fb6c118b735e4e8ea10
:10f9500007e68d0d4c4887a8f1462442524989623a
:10f960000a89dff54c859bd9f4b3aa0def205188a5
:10f97000ce549fcc8be864601c60f36b25cbf38a7c
:10f98000ccf002b2a1d235fa0ebcc7ca59d208ad2a
:10f9900099736854874d0de663cc0d0e76ca279295
:10f9a000519d3c85cb3adce521bee3baed8f0fb02b
:10f9b0002a67c96294b31efa55a891528975c29af2
:10f9c000c8ebb1c9aa91befbc3fddd606e0914612d
:10f9d00073da12ed05c95afce95f32e35cfea8ff59
:10f9e000349208f4ca3536075bc4e6fc279104005c
:10f9f0008cb4c704d7ea05447ba0315081995bd50c
:10fa000047813e0d2191f2eba335d6ee20ff78fc25
:10fa1000404ad2bac8f7b9c337f4f34bdc49675848
:10fa20009d63981bf93b5f2b0bdf77715cd7fced77
:10fa3000ce9c094aaa02fbda3beb00edc3e387d573
:10fa400082e33c6c3c993422dd0eeb2ec6f0f68945
:10fa500041c1e76d168046bf15f1c17d2f844b086b
:10fa600075d73ccc45c72ec24a9121bef076d80945
:10fa7000dcf6ef27cbb43c3fc453b00c5be624ce9e
:10fa800068bb964687cc4007ff63b7ef0015762228
:10fa9000464b8cbbae72de3cfadc5f5ed8dd30e0fc
:10faa00095a10b21bfaa3c9acf11620b66f5f350ca
:10fab00025a90425aefaa3be2450e10c109e2fba4e
:10fac000e2a66c819eeb086b56259df70eb5a82823
:10fad0005daa9bcdbbeadcf5f150ab240e6b5e4c0e
:10fae00028bdf6408d98bbf4d88399dfa48e2dfef7
:10faf0001001738dedb6d6eb79f5c00295d5f7c838
:10fb00001c7fc8534ba17660291fceb013e909fdb5
:10fb1000cf2ac7bf502d4a979e5cd7c9cd6b514f96
:10fb2000105b31460a14d5c59b5335baba2b314800
:10fb3000e087b41aed8d882afe42b9d97d3c3de8b4
:10fb4000efab68965d6d036c037311edc31e83d339
:10fb50004c7be2013273d4050344ca52d29b311b61
:10fb6000ce4089c917394118963ded7fdc58aecd9e
:10fb700018eda27d8fa9afc91f06ffb8ae6b88b87c
:10fb8000430c1a494e9fbb373973bff7edb685a8b2
:10fb9000229e0b9093f1f0710db2c1f93c1347e432
:10fba000346604d5b48f7b636cfa40c1dee8d0c301
:10fbb0009dbdbbe475ff854d5b2a7a58e578efe281
:10fbc000f9e919067cb570318590213474baaea973
:10fbd000b6b86cd343aca583f161d14e324951b470
:10fbe0007ba61ab44feb7d174e2772384c58b1c024
:10fbf00025485be1f132cce440612942f0fa562b12
:10fc0000e1821d0e5e269bce9f4c46a6ceb1a4d6a9
:10fc1000fa8abc27c05d5a56a28dbff8abeeacb7ce
:10fc20006f9f3c4706738e9868c64f3b6b5224c744
:10fc30001cf0737fd37a3e06b5ec0ed4a497fe9ddc
:10fc40007bd91011a5887a68e9b624a161802cc3fc
:10fc5000325392c86acdb7f008c31d21cd66ee7449
:10fc60002546d38226f98f4aa537debe5b740af19a
:10fc7000d7b2bb07eb3311dd6c81fd2867c243e0cf
:10fc8000f57713376737edfbdaf7c8de20f2327607
:10fc9000b27cdfa1217afd76d2479933d2e21810e7
:10fca000ee500bd91288ed1bccc0f63a2a66e6c896
:10fcb000828a5612fc46725d177eaf9b6e218bb70f
:10fcc00019fdff7dec5b7fd33c1db13b58ab716ee2
:10fcd000a09951087b97671b7b7b8cfc6a1509ce2a
:10fce000896f698ba6f0bbc833f347566539b3dc1f
:10fcf000a60b50471097f59be39cba8b6a8d540f67
:10fd0000bec4305947587e031589adeec3b3685c55
:10fd1000c2939eb977d9efd158f519dc4a139303f2
:10fd20003891fce416e857ad448adad67f28535c54
:10fd3000db2642780774bae395902d08999a163a13
:10fd4000fcf9f67f29496524157aaa2a9fba117e03
:10fd5000f901eccdfbf2f01a7c03c38a887d0b7ba2
:10fd60006e81a807e399701197cc9edb295c2bc5a7
:10fd700039e6ccef2d79133449e5b1079fc994b723
:10fd800021108f2860fdd6f4a5854d39dea3658648
:10fd90003e7254735a4b53da822c4a72a9f3903d47
:10fda00019c939352e4861d6bb87edbc6514df0f04
:10fdb000cb6ae499b9b11ca9b165d96aab4902b360
:10fdc000e88e8788cfa97a0505c8a859a5221cb94d
:10fdd000568882741df76b5b11884da9e3e9f72102
:10fde00014d32ede356a912633bcc02b75fa346ce1
:10fdf000e467172993b609c1c6adf93b6dc84af847
:10fe0000aa5bb9cbbf79242f73ae46426186a7ccdb
:10fe10001feef23d30242a60ebea75c2793ba7243d
:10fe2000c80e8e4ac647cb75d4ea2b639847ee3f7f
:10fe300008a35c2084d3648823094ebb8fe629abda
:10fe40003df3caae8ec25414e2edeaa5814463408c
:10fe50009de0fe10d666ff111ac3c9044b3e9a6b93
:10fe60008b0449e93b2ee2a040e83bc1ddd9643b6d
:10fe700094495fca4e212387a8911769d7aca37113
:10fe8000f756dcddeb0ff8356ccb10dfd10d07aa90
:10fe9000a244c89ed5f1e1c43bebb644f007a912d9
:10fea00009e36f1ebfdf7c13470d904c47e1a7d3da
:10feb000caaff176a2fd13c9edc83f459bd0e5e975
:10fec000dd12ec1887b7168185c10442cd54e8ad28
:10fed00017aa4fa994be7c1c4b2b3cff2473352bd7
:10fee00051e107bf0addabec533f5d7b4741f6466e
:10fef0007c71a68b9d0ea2518f30a389a43ade2679
:10ff000036983b25463c05b5fa9535e6b514cb56f3
:10ff1000b10630f410b9641e037953ec47496dc43f
:10ff2000b37cd85827dd8eabb78b2ac0c05b313786
:10ff300025f8fd6cee43bae08c73bd481b8d9535fa
:10ff400079a4df6ed40f180c5e2942f92a150a86af
:10ff500011cf8ce6f9eed5cdc895aecdace18ae8ef
:10ff600007770372dcf3f0b94ed4887d59c7e600f9
:10ff70003931738890b03b71fdfccb9b69ee01abce
:10ff80009a4c861c58ac741a47d482e02142e95a34
:10ff90004c27a5e26ac735cdd21b6db36eddd4c741
:10ffa000d95ecc2c349fd11a460750acf15a9eb47e
:10ffb00023b20e9b3dbb0880d38d037f8c6b4fe536
:10ffc00073fa972f5705749c5edceda007b2bcc393
:10ffd000373f67071196159d3ecaa4da6548b78773
:10ffe00066d9d42aded7ab5ba03e3be39aa82be3cd
:10fff00042d9d7a45aa8353f4ad019837b0252432d
:02000004000ded
:10000000d1e6015b65b0c412d04f5c7c766b9f3348
:10001000d5091b8b6def3c333d4bc34592d53171f8
:10002000a0e1b73f566932b40b8c1622538a8a8ef0
:10003000092522cb3d932b2218bf90a0a99066c41e
:10004000dee6af38237f1a8844beda556c8f6390a2
:100050009101807cd89cd11f5da5cd5f4f40f00ef3
:100060007668637549361f687035f32199f0fa7a1e
:100070009c7024d620901f68f6e06cdb57005eb1c0
:1000800082cfef0f0a0c275a3aa887f585a459beec
:100090007e1331dfcfc07259c2a6cac6b779bb6c16
:1000a000cf35f3cad67d8d1d6586df88ee0f800ab9
:1000b0000ce7e709caa104c2161b7c764a1cb50be3
:1000c00096f1e9acced682aa771a7522fd8f3e99b9
:1000d000af045dd6080ec396a9cc1e6473d486dc2b
:1000e0008cc9ea344fbc2fa3a5d11d9a3c8e5bd19d
:1000f0003e1c3b58fe8f4d6c260a2bf51db5d211c8
:100100003eb0ebd90fc9f9bdd3463b7eb6fe5edaf1
:10011000e199b6a9cceeea437b4cfae879d1ad2857
:1001200024f182290c58808e49ff920f6a449b2d3e
:100130000ef49ed1e824145e43dcc71e71f72884b8
:10014000aaf95cf902822b787401c155b43663a810
:1001500024ae9e1572dc3bbc8e34b8ac866db928db
:10016000ce830a04896781f87f11b7991527fdd4da
:10017000e07d8492f92c91dd2fc9c391ce4b0729e4
:10018000692f9ef78b1ca7bb217a0370a0f56369ca
:10019000fcd80df99e02c8134c80ea7fb2a9838e69
:1001a0003a913682df7c914e62df151e9c3551ed0f
:1001b00023249aa74ce5e5ca47431ded611e888fad
:1001c00020d57d81e6d34be1ea4ce78588c70f2730
:1001d0009ba5965fb997ce51bdb63d7c82b953f9c8
:1001e0009f133c4ebcd9e6ee10002716cc5e362d90
:1001f000c4620233a60fb307e83d18840c68870a6f
:100200005fb36d17d97098ca9975458a61a958c8a6
:1002100031596486a9182121f14b33604b9f023775
:10022000af2998486d6667ea7f20c189fc416f61fc
:10023000ae3a0851f45d34761ebfd922c6d4c50a41
:1002400045d628941bcb2268168eb6fbf6780a5347
:100250007e2eb19cb7e1c3c18d60b0f6d65a1a5a52
:100260000fc34da1b962f4252c1d7f0d58099caa1e
:10027000c4e15714e671004d392809cba5ff4edec5
:10028000a88546d7eeaee56a9a4dba772e787ae71a
:100290002dd382f95ccc87da42ed51941341a9e762
:1002a00057b93c71bd93de2134df323a12a3b685d3
:1002b000cb1c7a2464e60ab25a9c6adb9a1d4e80f3
:1002c0001986b0b08c7ffd11851970afac162a1657
:1002d000959337350297c897909d295b7437acff8b
:1002e000cca5dcab72f39f08a4c1639f709f9b9168
:1002f0000e39000b1f87aefa156bc3149b6494a3d1
:10030000667558628c51d4bf2e9a073b7c823b4461
:10031000352dddbfdbfc80f3d1b2a036ef0248a95a
:100320001d5c32ae83146bb7ec8561aca7599eadf2
:10033000f519c312fe0fc245fcfce98ec429e2a6e2
:100340002ccee0cbf62d358bc0a947d7af22441376
:100350002ba4530289e1cc6d453ca1b8a17aae43f0
:10036000d8b6963570fdbee8d3f072e984e3f28822
:10037000cdb83efc9a385043ba38c610594e4ed8c4
:10038000d69fb18f8a775b72048ec23a102dad630f
:10039000758787996b8d7b8da19226db6f8d1f10e2
:1003a00006784b7666d6875ae81371bb4cb0b823f3
:1003b00091b601d6c857d23a63f87fa909172c9f86
:1003c000855d8b131b0eb4172b3d7ab8bbd1c6e9e4
:1003d0007157e3aa3d1ef8066a1e0df631c85ea4e9
:1003e000e9e26f9ce3c286444643b83cafc842c1d1
:1003f000245b340a53195b1068139aaa1c23f95b17
:10040000d0f51d462ef9639e8092e22b43d67f09dc
:1004100019c15835a76cf93c4e983c8008f7ca12b0
:100420007ad000db810ec827fdccd11b65baeab6b5
:10043000cae73a740657cc3a673e3dc0b4c5169435
:100440006a251d47f8a0e0ec5317d90199f0bccdff
:10045000ddf411dd0311945b312e60dccb306d5186
:100460001a27e2942c1978163af702c264bd7ccba5
:10047000c8ac9d88bac4bcfb3cf3054b642aa84bae
:10048000f83b39d17d36461d0ba925512bb05b1a9f
:1004900034ebe6a0dae206b2e616f4988bc7558292
:1004a000494df76077b343f2e0b42d2355c075d2c0
:1004b000de39de906fe7705a89cf9235987a5e8d7b
:1004c000f2d8cdc9b8edb7129404558da9fa041a23
:1004d000e73e830f6bcf9917c1761b3373dbde903a
:1004e000628a2568c014dadfc37aeb1df64d562ff9
:1004f00068c842de2df83c85a12ebc8a3c23da8aee
:100500009b29c79e59aa376fa95099f27ea1572af5
:100510007614c929edb66c93035355c1c7697c3e67
:1005200050e0b080852596cd7989599c8e3ba22bd1
:100530008a4da6b1264b34dfe50c99f1e57b4037b7
:10054000740f3043f1383383c1b57a7c644567a7b3
:100550000de97903c6ff3e63bdaacebea00fd2aca3
:1005600023343ae9bac77d3581e6c282959b549916
:1005700039a5a272612c5b909c8f3f5f92e86ac69e
:100580001b59732fa30a7449b5ebd88f566c0cbc5a
:100590002281a2599662ff871f7a5415cab1e034ae
:1005a000edf4ec4d91d49abdd04195146958c13900
:1005b0006342c651220861a0412e7b96c27c71eb3a
:1005c000f8020709bfbd3a874d6c597bdf08dd3261
:1005d000d89227a76f232228127e0c67ab5fd263c5
:1005e00028d88f30c8050e824b650ef0c8b37684cc
:1005f000fe26ebfa4520fa83f59adb56e3b5fba11c
:1006000079af4e3ec07392ad14eff9da03a4bda1e9
:1006100044e30ab8536d12c9c6b132aa72b5640f69
:100620005cfb64684e586675becbc01227768b544f
:10063000128ec681fea38eff5ce2ed8f92d18062a6
:10064000037fe3c8a60a6f55a26dda187869aff088
:10065000a97bf076de001c16c45fb62083f4aeb131
:100660007bccad97dffa5c9a3d7255d2c680209460
:100670003d52d640fc23564acdb3fe097f345e2c52
:10068000a9ff5d26c3bec628236d61279096671516
:100690007161a049cc172a4389a40b896ec100203f
:1006a00060c8e850029023789da2fae9d69a7d1698
:1006b000e7f6e75504763d2cc82fdbc1bc5acbdeec
:1006c00000c91d61dbf5bf19b1b4e6a6744c3e2527
:1006d0001ded19ac379241e4bfb22323f66f2a29ee
:1006e000b1fb7bbf9ccf76c54ecc7411c9416bb2b8
:1006f00058951df1e95cb4dbfaefc5dfe55bee75fb
:10070000cc8fa70e70e26fb0a36005ee49b75337e8
:10071000c667d877a933d9da023913bdae7553b499
:10072000f0383f8817ae28c1c1d65528b2a08cce6c
:100730007111c081384245a18337f4aa1c472e9518
:1007400075394ac142d48846e31a14df8187cb1a2f
:100750005994a9f2335231b3294d2a77fbcc8e43f9
:100760000023432d6312a8a419f352fc94043e0ef7
:10077000e2a35c10881eb6d9dc9760d2e0dc5d6d28
:10078000f38cc4f68119fcefe440d43e4914a12057
:10079000a8b457f1ce3d0e44c6908428525a14b1e5
:1007a000cfcde400a63a43302c9ca284fca658018d
:1007b0002a0cdc2edbbb45c4ca060059e2d657051d
:1007c000980ec960412615c504e3ed4fef2b7beb76
:1007d000b3176e36cf20eecf2b91a1c1685f468e46
:1007e00023d864c5f459a1de64d22337606cf3ccfe
:1007f0008e4365a1cdc9df38743c0c1978e352dd16
:10080000f9cd880a117a56dade376cc0acaa625e7e
:1008100065bcd83d8195a981fac7510375ca0eec14
:10082000aa2572c5fd5da3c9f5658f13188314a2af
:100830006c824125133f3b8228b52474367735d727
:10084000219b56e5a415a7eab84e343ebe597b5904
:10085000f0b6540ce977215dc76d54fd1da6b4a711
:100860009b8e3d4e2106fac393638961203dd3b22e
:100870002b16b6a41a65310b20fa1f10581382d913
:10088000abf556289a0c721f4b391967a1d216097d
:10089000db6b70dd1707fbfc6786ddafdc7bfc756f
:1008a000461bb3109dad73da8c88057546b8b659f2
:1008b0002b0d294bcdb3c5e7a2dd94c4d48cf32d09
:1008c000b4b4bf14b7194acabf23a09788625b7635
:1008d000c9fb4b49f6114a265940c827ecea657016
:1008e0005823360080268d5c2ab0054b57a3d8f2da
:1008f000775e026486911ca17e22f71493e26d4d0f
:10090000462c0bc0b0e95b99ed998eff301a92a787
:10091000f3304bb50789a247522178ee51681a0f80
:10092000165e3e2117312bf2b754e4883d054c3a50
:100930005c13af677625964316e36e8d468c154c97
:10094000a8c57be70888aed4ba027a23dd5593e0c8
:100950000f4a2049ca20512bd79937e5e7310911b1
:100960009af65915b232d5086eb49ad610752fef93
:10097000c3b353bee02f53d192b13dc0cd92e2d567
:1009800008796e3ce4cebb9864cde7193488771fb4
:10099000f03dfd92920bd42d326d36921d15bc3573
:1009a000876d2eafafd314ee163e1810270700b395
:1009b00028ec89ea90a7351cf16c7724168ecf19a4
:1009c000ceb63b05135cb07baa68cc5e0dc8ef06c3
:1009d0009cc9fe5a6f470d3ddee636a94e9e828dbc
:1009e000df9186c1c01ea266c7bbe6456cf1c32b72
:1009f000ca3863428b5562447e6b595dc7e1e57727
:100a00008f6ea91766e28677cb8f9f9c4157c4c231
:100a100017d57903e34d3bda251fd1fba0fa4c062d
:100a20005b79084c1cab1dc6d42b6fba9bfa94edb6
:100a30006e6fc5001171740bb8354f438c17cd1410
:100a40006e84c43809ea6c6a55030a5689135d55e9
:100a50003b0e4322b8dad4d8435cdc91db9b3ac925
:100a6000af6c960ae0fcca30e2a0e69e134cfa296d
:100a7000288289ed07a0cf6b751ac6364f2b8e6181
:100a80005bd8d869dc742085b6faaa98c11afe989a
:100a9000048654641fc7b66895a4fb08ada74839ff
:100aa00037c914ce0aeb32d7aebf7c5bf89ed14576
:100ab0006c54eea604a367ccf61fec3b6cb9b143b3
:100ac0002e0153d973d73be719fa5fc5e78c7d8cac
:100ad000ba698b8c64a74c058556668373ffafd6c5
:100ae0007686ac7c2123b3d831d7eb18b268ed60a1
:100af000414a62c16341f642f1b6995100daf3b15d
:100b0000baa0e6e9679e5f009d55e7c357a73fd8a7
:100b1000c2a56583287bb9e452e1a3dc4f55e6c545
:100b20003f812ab8e53bf75c17c2b96865385404c1
:100b30001bf99d379497013e5392560ae50de6e660
:100b4000ad33c2b90f9d4e17aac2cbf03d516251d1
:100b5000f95cc570c8e1d5617aeb9bc600f1284409
:100b6000ce99a6e4994c0486c5b7b94affedc7658e
:100b700071442540b68555a9e3997cac4591394e21
:100b800020778a0b44818bb054010a77d97e47c7fe
:100b9000be89e5677f78a5a49e43f0bf9650de9896
:100ba000e16b96186ba9b3678803dd5464be14ed3e
:100bb000e823a1ae18ed56241df45f2a55c5f15562
:100bc0002d9c8a5653ecc79cd3dd2b59a101d11c17
:100bd00010b20d187334496efdaf261ef43d2ac2c3
:100be000a032d5e30422981ee13028bfdd0dcfc628
:100bf000831f26417ca4bbdd64eb4366c4f6c2269a
:100c0000b45cd2a6d672969742b24fad87d56953df
:100c1000fe249064bc5637aaa2f734b9534941d890
:100c2000d31f8c28d521dc6f14fafd66c5753bfef9
:100c3000f0b07018c4d086519bf2dd493acf8e09ce
:100c400053809925ed65dc2760ee4a9f0b8da50e3c
:100c5000b5b37ba6c1a2a34b6f767783eb4a13dbb8
:100c6000dd85a3fc3930fc76f46d52d33fa34a51a5
:100c70002b1fd4807827a81f846da58ea0309ba53c
:100c8000c52838c35e1396e6e272a05738ac288bad
:100c9000e83aaa2d25210296f37bcc4fe3c2d9ff77
:100ca000db9ccc7ff4a1f92492e1cac4767bd7fb0c
:100cb0000761cb2c971ccd015e2e6093371f488cab
:100cc00084f468f94c6c629460315c4da277cf1764
:100cd000a141e661afdf83fc8e9c768818911030cd
:100ce000b1991ff6900dfdb26bb0d7ceebb5e5da3a
:100cf00050723545cff5378e1c8908c07e09a94052
:100d00001a6b7ec73e8b0f5b49fae998eca8b68454
:100d100010356da6f18a1fb1f69209ab53a225d307
:100d2000ab03b14e5f6a1d818974e1dda0ca2c78e6
:100d3000a85697c599812129d537d0ce27bb40e049
:100d4000dd835b74c8332ac4c9f44882dd7cd87261
:100d5000767d58b5919f75e1876dc1d1ac2a178713
:100d600088b505ace29174a712b4cffc0acfc47d5c
:100d70008a790da41d75bfd17b2defdbc3a440651f
:100d8000cd985aa4165f059be567921687d5b25495
:100d9000d5f56560151aa30ed37b4087942fac263a
:100da00069b714f3a0b1e00bc5504fdfc3373791db
:100db000054d7c4c795cd3c63304e422c9bd3a5856
:100dc00082a038e7d416bcf05e0291aa20fb701511
:100dd00043a3e71de10ed49207b1fdbb028123bd01
:100de000d21ac9dc34eb094b4a124c0fcb7eddf230
:100df00062e8a68c04d4f00c0706681057e44af4a5
:100e0000b40d569b449087fb96940efb25f8372a29
:100e1000a65f90dfb836bd0b9d975799a313ede001
:100e2000f1010f47d2b7963903f89227fedc6544eb
:100e3000134749230c53c272d60434e56599d15f38
:100e400038508b1625b95e69265cad6c85e89d32fd
:100e5000f5fe2fd6c214215fa2a7784bf301b48c04
:100e60000a1b7911a56290fb2f0b97bd2c28643ebd
:100e7000367ff685ab063e0f1f35d5052b84e5e2a0
:100e80005044a49d4d0e2a1f0beeefccb89664dba8
:100e90006319959d314832cb8add075f7181dc5241
:100ea00015cfb5afe32090f491b9865686c3870a73
:100eb00083298d1af7cb8b1b4d87ac8891f4cd69b4
:100ec00085cc5c598a43904eb3c294ce601201ab7c
:100ed000442044de2d828de74cd9d76cd331ccd65b
:100ee0003470b22bb59e072104e3ea3495101ceb55
:100ef000e0916a750b4e64ced0e496e2af878eff28
:100f0000c689e9d68f7721f2e13f306b584aa72e88
:100f10004cfbd44735a8fbb848275a1ca28364076a
:100f2000ae41109940b78d74707fb52509cd70aa78
:100f30007dbe32962d1cb9ceabb2f15be9261946c7
:100f40004e055b8cfcc8d25be0ac7de91b7b8681e7
:100f5000baf8fb95fe4304682931520a0d2067eb6d
:100f6000cac7fc01d48d73b05ea5600be270b2a35a
:100f7000379d30b60ab15a772f3652faf9182a66d9
:100f8000f4da37516065a4f94adbe32c775ac05c88
:100f9000acf6b82c454ad13fe5199fb9f0156ecc97
:100fa000d942f10f201bd2c565be80c575a3a3250c
:100fb0001958d1cf2184afddf80a78a30604bc1bf1
:100fc000ff748687c32a2566076915da2e2596e5fc
:100fd0002596cc9cf248be35784b9fd985151108d3
:100fe00023f047bb8a49aa161b346beb6098bc25db
:100ff000e18ddb6daea47fdbba082cc17697da7089
:101000008e7fdd0d9f530edbe49bde5ffbe0a45b78
:1010100087ef5dc03567b66e091e0d5b77c6986bae
:101020008afbc642cd70ca5eece97664a1cbd24d94
:1010300088aec2bd2f8f58e4a85275118e2d803a0c
:101040007690eefc7eafa4fd93d7dc9304c0fe72d5
:101050007272d9acdaa4ee873f099160a1ba762dfd
:10106000a0146e415e95ba752996a7ae96b319a4e1
:1010700067d33c8848427f0c77f3e2a82b22b21357
:1010800021d3950ef77a7e4ecbcbf18551f46fc408
:10109000c01bc7444debb08fb2dffbf956bbf1a0cc
:1010a000cbc756f6a2a633dead74b9f8a7db88d35a
:1010b0005e3f256dc4998aa303a43c521012acb0c4
:1010c000ba188d2f14f83fba4466429a6ed8a69883
:1010d000abf14ee6a115e2a23393cab56a93cafffb
:1010e000552ffd4806029fe9394464cb3bb9b260f5
:1010f000de6428027cb782b784d98eb68ac3b86210
:10110000732424b79ef0d39bcb3b369f7cd81954d5
:10111000386937d91bafa52ab82174e99f7be04213
:10112000a09d4c14a6dbc5e2bb8f049d5afb1a1e82
:10113000a20455266f1d20b56e15534bab73b585b4
:101140008085c20cff5af4650ff985daacf39d6215
:101150002351ef8f11d9ba4e5120cbe8cc93cfa5b4
:1011600039e381d6c9f53b358670f78d62ea2421d3
:1011700080bc03278311200caaa4cb7224e7b233ce
:1011800050ad2a3192661078c941b1e55d481c1d09
:10119000b32eee2fc5eb0e2a36805cf1c0c4f36d82
:1011a00008cfdd20afbfd197781de4e65b96c8fd80
:1011b000c7d7907984c041e770f5c375e60df9880b
:1011c0000235cd19475053be03e2366059df6a53ea
:1011d000725c756022f982dc6eb347bc39e2b343be
:1011e00046079b8770f052182aaf295598df9183e4
:1011f000e5bb67e7749fe1d6ec3dc186e2e392165a
:1012000053d0bd3f2e8ac5d1654188f80b425babf8
:10121000e9387d919ce7a54c865a4caa048cfed9ee
:10122000d76bfd8b5c9a92aaecef689d982cbe63fd
:10123000c39b0ac999f536a02bb823767dd382418a
:1012400023c7f18334f0a4bd8d275bc007850efa58
:101250006116d2ee1f6f3736f01d633e0c7a76fdb5
:101260003c4a48bdc7fb1e5ed8a1291405c3afdcac
:101270002ddef8338af30d7c890ba8c035a21e2c15
:101280004267a4722dcaaacac4b49d483187d4c586
:1012900005948163c356b777867ddb37715968e360
:1012a0007a92f81360110e3ead6a5899baf3e3d101
:1012b000e249c133c6afc2f585755500551cf847e4
:1012c00004d05da119ebaa7fa02eff34deb548f74c
:1012d000cfbaa7f4c31dee9838a6b157b6197c5102
:1012e0003f7564f6c6cb0ff94d732ebdccb2f61325
:1012f000881d3430ec3ed680dbd9c112a4b230490f
:1013000084dc2e1fd50da9c348ce5f09cd585c8d56
:10131000a7e0088957528dd913f8f499ea64513c33
:10132000083ba53dfebecd88f2bc26a23bad882f72
:1013300007832c612104994e1a2506a0e135565adf
:101340001390371bff47bf72b8463ca904317a3e61
:101350009e51fc0dc419fb88a564c5519daeed17c7
:10136000f1ece8226cac1ef3d1f80a67fca70c7d07
:10137000e66589877a90ed28f729bf27619f73bdbd
:10138000fee498e4da3366e491669afcf9420dbc17
:10139000dec33f3405d38d274fedefb52c886fc6e4
:1013a000b0ef87923cb7ae3bf6bf11c726d1b0b0c5
:1013b000807f558d2e82f4f2eab75fce66caffdbde
:1013c000896935432af452fedee184f07674da3b13
:1013d0009233365b1b68e894611ebbf6cabb9ebbaa
:1013e00003505123d1b71044149b092f0f0c7d8259
:1013f000dbc2c5bfbd46bfa6c7ee48ced622aa3bbc
:10140000642fc1076400a0f25fc4fb53eb003fbb35
:10141000d565becea40ba072408ffc7df11be211fe
:1014200065fdd48753df0d44247fe022582fba276f
:101430000510e7bd562b6b6e3cb61fecbcf5ff7d6f
:10144000b1b3242cb447f94fbd42bd38fcfcbd29d3
:1014500069352b4c16245cc8d2c0464ce42e9aeb5e
:10146000e3ece050960ddb1fe20c51cdde22d1778c
:10147000352c0b1537ce88394b6ce0e62debaa8462
:101480003a75eff452069f2f2dbf097dd3efdfaae7
:1014900035269536ab986f6c443835959fd4ca6421
:1014a00052ba4c7fe6f3104d5338096f1785f2e1bd
:1014b000eca708831ec776edf2c509ef2442d48756
:1014c0006e6fbdc6f1a0a687d920c59bb471ec0d87
:1014d0003ab6ae9b3ece9d042b1714c8a45c4a2896
:1014e00065b1041a5d8335dfe0e111c2b4067dcd3c
:1014f0001d95957fba77c3fb89bdfe5f769b3a4504
:10150000b0392295aaea11e56704eedece93b9b0b0
:10151000113ba1b70c61dd63cec7482e8dcf0d699d
:1015200029a33037d026ef533af39041b4d214892f
:10153000e646f046e23848c860c38640a03db5c4e0
:10154000fbefc73fa078bf362b841284859149e119
:10155000cb778efc809c678b7ba6b3c67006b47578
:101560007c2071d709010f022eba85050c8d2eb390
:10157000d5b1b06ed040834d6ce5937426b250ec7b
:101580009623281235677fe1cd6247f14a17c95388
:10159000656b5bcedcb7573db1c5525ac2a2356808
:1015a0005c3e82194da4f8f2c4233100f48824c5ae
:1015b000a31780546ef136fc635fd124e88a115979
:1015c00069d5e39719a302dbc51f2b3b172bf1202d
:1015d000f0bc51126600e7192a41b99b7e40a11f59
:1015e0004f389d2f91c69e8919513f02b5c36a732a
:1015f0005b2c4998afd60a13f52511ed380f6d43d2
:1016000019e640f7a1371ea2c1f2e643f0742cd3cd
:101610003cc99743b7ef571580e2a80ebc10acd673
:10162000ac56927ad477c11acf761438c39639d88b
:101630001341d218303731c3c0e0858a77a6678856
:10164000df28f71383b2fed1ea06712151eed30ae7
:10165000228962b12a3efe542dac011825b91d6cb9
:1016600087aa78dcbc0553b83d3d2659390923b813
:10167000e3347dca812c25bec63ca3de09689d3bb0
:1016800006fbcdaf19978fc611cacdd63330dd8892
:10169000b51cc9c913d2ff614761c83a8fd3fecccc
:1016a000e2b8d2596efeaffc398ccc77ea67a35111
:1016b00097ca03ffdfa4268a77fa1d00287f6bbd37
:1016c000c844e3f1d51dc8b6bbf25711e5ba48715d
:1016d0002643c3748297c200b408740525e5d1b1ce
:1016e00054b96b95e12d9f1d2863430f0cd6cbaeeb
:1016f000d9e89d4bea98a46bf796dbb783384e0a7e
:10170000d6384c9f50bd772b9f0b5050db2208855d
:10171000d75b5809e5ea488524ac2022a6606947d2
:10172000e0dc0a577417e82c294fe2aa96d8a2f0f9
:10173000518efe9c94e2919d7d849effe90a6fc9c3
:101740006e5a18d4e5dd7f2c01fdb8375f65e4ab38
:10175000bad2ebe33f85ed8161c53d9467eca4ff10
:10176000dd2730d1d06a9db507d2eebae07bfffa13
:10177000a961e4ad55f0c804b8e4a05a024b983210
:10178000a10251bc9fdcfaf11c8259dc04cd0bf89c
:101790003bda15d8e7216cdfbfdfd12e749d1d57d2
:1017a000a9c76f8c90813539c9ca45bf010b5d7cd3
:1017b0001f088fdabd52ee688d63eac6a272d98225
:1017c00092548087466dbbb520f30b5e207caaa7a0
:1017d00066f7cced0baecedbeff78493a1dc957210
:1017e0007e1c12bc4e3abc8e6c8a1f70833fe58112
:1017f00076f8e9969e14529494ad572b50f75f4bb0
:10180000d06d5d622975e00fd5df4451cd7c616def
:1018100014382652cb8f0727447f2b252cb8b73c92
:10182000fa9497c0a0b3dca48248d49b0f05db7860
:10183000aff604eb343751e4aca4e88a1ef9f6e2c3
:1018400086523688505f09efc99f1181a81a7c1d06
:101850009171678545cf2e6c8a091147c1d23ce74b
:10186000561c9dd48e5a6929f6f560695cc0657f67
:10187000ee7fe9ff52a210b422a00984aabb1e2069
:1018800055c2cc9b37febc79cbc8a7392dbd34ca15
:10189000a341e6cbf272a2ef383d49d609e09db9eb
:1018a000b737535322c4b0d4f5a9bc8040427bb6ad
:1018b000e4d1b0546143ada39c178220c79459fc76
:1018c000bb4fd9f56d32d0640d663692d799531b54
:1018d000d236675974f6d0e967562f0d13c8de4c1f
:1018e000f045755aad7e75fa76fbbc310154fd1f8b
:1018f0000c49a8882d8232e331bcfbe6c3b2bd9906
:10190000681b12da326b6abe56763463eebf6a71b8
:101910002bebbfd825f03d7ce81f55b267340f4054
:10192000b6b1e6054eb0afec10c935592543840b6e
:10193000256b778a23dde3826a74cc6b3d18c4384b
:1019400062bfaa283bcffa18ad9de43255bebb79e1
:1019500033e5c3c9bc909ba4ead40138204df9cb30
:1019600047678a8f52831c0f658f1cfffc07858891
:10197000fcb44e3ef720ec108420c4809e8091dba6
:10198000ba8e007cd96ccfda4ada46a13505b45854
:10199000750072ece6082898eab15c97635330470b
:1019a0005849d654a8c996941591bc96948fd0faec
:1019b00086871b4bbaa44866a07bdeca5a8ff5f116
:1019c0005c31bc0390bf95a993733c21d007507440
:1019d000524880a4130c7bddee60851818737a4e94
:1019e000e2e693d248cd0f3549b4bdeb59cfb27181
:1019f000aa8d6f0f250cbb6a1996b4a83ad87ae362
:101a000073d2a2ae1de3ee2009ae8a5b5a61d85ba9
:101a10006c1df7ec1a30757db8bc96a74360167044
:101a2000f0e126ec3ebeb85c715914871bfb5ebe2c
:101a3000bf44dc2c6b4922bda86e90f02fe20d99bb
:101a40005c51bd9a06d38bd7973482a2c5073569fe
:101a5000f4a3bc52403fd252874599373bbd4a75eb
:101a600036656b2fdd4894ee9329d9c4bacb359fe8
:101a7000880a0f536b8d81ce728e268f575b307a1a
:101a80004407806729ece49cd937e2cfb02c0eb430
:101a9000b52358b687f9c41b2a14ca3726d24dfb82
:101aa000d3d31295703032147c4d11f62809e18b96
:101ab000ffc8e00f45e1c826513adc3f7bda6858a1
:101ac0005830704fd90c35a1ba55bdf0dcd76f1b1b
:101ad000211067798bf82f31cc28820d73aae8bfcb
:101ae0001a0dbfa8283a108cc308e5073ef92fc984
:101af00067de9cb83b01c0b4a940c4d116629b6f9d
:101b0000966ca903f7a627173b8da5ce9105947671
