:020000040000fa
:10000000e8ff0120050400006d0400006d040000fd
:100010006d0400006d0400006d0400006d0400001c
:100020006d0400006d0400006d0400006d0400000c
:100030006d0400006d0400006d0400006d040000fc
:100040006d0400006d0400006d0400006d040000ec
:10040000060000001049086800281bd00f4a9047da
:100410000d490868002815d00d4a012010600d4aca
:1004200011600d49012008600c4a0020106008206e
:1004300008600b4a10684008fcd2054a0020106092
:100440000848004708480047fc41e00fd905000074
:1004500008000e4010000e400c000e4018000e4028
:100460001c000e406d04000095040000bff34f8f88
:10047000054944f244400860bff34f8f03490448e4
:100480000860bff34f8ffee700500e400ced00e018
:100490000400fa0500b54148414a4249121a91b098
:1004a0009208002393424fea830465d13e4b3f4ab2
:1004b00021440020934265d13d483e4b1b1a9b08c6
:1004c00000229a4261d13c4b3c4a0021934262d1c6
:1004d0003b4ad2f84031d801fbd4d2f8903099078a
:1004e000f7d538494c684b6823f0407343f080736c
:1004f0004b60354b1569d3f8b030136101f036fd10
:1005000001f084fc00f0aaf800f0fefb00f0b6fe5b
:1005100000f0f0f908b100f0d7fa294bd3f84021e8
:10052000d201fbd4d3f890209007f7d51d61244b5e
:10053000d3f84021d101fbd4d3f890209207f7d50e
:10054000204b01215c60684600f0a6fc01a90098e0
:1005500000f053fc20b9039b1c4843f0010398476b
:10056000bff34f8f1a491b4bca6802f4e062134372
:10057000cb60bff34f8ffee751f8234040f8234094
:1005800001338fe743f8040b94e751f8224040f819
:100590002240013295e743f8041b97e70000002052
:1005a000200100207023000020010020d001002045
:1005b00000040020080400200c0400205027002024
:1005c00000400e4000000e40b081e00fd42100003a
:1005d00000ed00e00400fa0580b400af00bfbd46a6
:1005e00080bc704780b400af00231846bd4680bc75
:1005f000704780b485b000aff860b9607a600323bb
:1006000018461437bd4680bc704780b485b000af33
:10061000f860b9607a60032318461437bd4680bc81
:10062000704780b483b000af786039600323184608
:100630000c37bd4680bc704780b400af002318461d
:10064000bd4680bc704780b483b000af78600323a0
:1006500018460c37bd4680bc7047000080b483b09c
:1006600000af074b9b697b607b6843f010037b60a6
:10067000034a7b68936100bf0c37bd4680bc70475e
:1006800000300e40044a536843f010035360034b9c
:1006900044f244421a60704700000e4000500e4081
:1006a00010b5002300f110044ff0ff3210f8011bc9
:1006b000914218bf00230133042b04d0a0420a4604
:1006c000f4d1012010bd0020fce7000008b501f0c6
:1006d0004bf8bff34f8f0549054bca6802f4e0623f
:1006e0001343cb60bff34f8ffee700bf00ed00e088
:1006f0000400fa051fb5436a8b4204d84ff0ff305f
:1007000005b05df804fbc269531c1ad0036b8b4221
:1007100004d98269c9431344585cf1e70a48c91aed
:100720000023cde900300948013a521a01230df1a6
:100730000f01006800f0dafb0028dfd19df80f0000
:10074000dee70020dce700bfa08601003c040020bb
:1007500038b5026a836a9a42044602d34ff0ff30ea
:1007600038bdc36a0f2b11d941690c48102200f023
:10077000c9fd05460028f1d110232246074920690a
:1007800001f012fc6369e56210336361236a01338f
:100790002362e36a5a1ce262e05ce1e75017002042
:1007a000f7b51446114e124a0023cde90032054632
:1007b0000246234630680f4600f00afc10b10020c4
:1007c00003b0f0bd0b4b0c49cde900033a4623467c
:1007d000306800f08bfb0028f1d1224606492846fc
:1007e00001f0bcfcb0fa80f04009e9e73c040020cd
:1007f00020a10700a086010050170020c369013323
:1008000010b5044616d0036b8269581c2063d1547e
:10081000d4e90c3293420dd3d4e90601fff7c0ffaf
:1008200010b9a36b0133a363e369626b1344e36103
:1008300000232363636a01336362002010bd00005c
:10084000f0b51d46244b9fb007460c461868694614
:10085000164600f0d2fa20b1731c39d14ff4805300
:100860000493049b22681992b3f5805f84bf4ff410
:1008700080530493194b1a49cde91337194b4ff0a4
:10088000ff32cde915360023cde91a23049acde9cc
:100890001733cde91c230fa8134b144a01f0def9de
:1008a000134a1d9b11680b44136028b105200de00d
:1008b000ff210fa8fff7a2ff1b980028f8d1189b73
:1008c000ab4207d8169a013200d023601fb0f0bdaa
:1008d0000820fbe70620f9e73c0400200c04002078
:1008e000fd07000048040020f50600005107000045
:1008f000681400202de9f04f534d544b2b60a7b0e6
:10090000534b00220df11b001a6000f021fc00285f
:1009100040f098809df81b305a1e012a40f29280c8
:10092000052b00f08f800ba800f0b6fe002840f0e9
:1009300089800f9b002b40f08580109c621c40f04a
:100940008180fff79ffe9df81b30032b02d1022010
:10095000fff7bcfe042b01d10320f9e70d9b3d4eb0
:100960003d4f3e48a3f1300131603d4930220a60dd
:100970003a603c4a402111603b4a403b13602021d1
:10098000102200f0bffc00285cd13b68dff8e0b02b
:10099000d6f800a004932e68054606eb451112a870
:1009a00000f038ffbaf5805fddf8109094bf4ff08b
:1009b00000084ff0010857466fb1b7f5805f3b461e
:1009c00028bf4ff480531a4649465846059300f015
:1009d00099fc059be8b11022204907a801f0befb55
:1009e000002808bf2c4601351c2dd6d1631c1f4d95
:1009f0000ad006eb44163046fff752fe20b106f14e
:100a00001000fff74dfec8b94ff0ff332b600420f4
:100a10009ee7ff1a994404d1b8f1020f08bf4ff0c6
:100a20000308cde90138cdf800b0102307aa002152
:100a300012a801f0edf94ff00208bde72c6027b0d5
:100a4000bde8f08f0020fae74c1400208038000049
:100a5000681400206014002040040020501400207e
:100a60007c1400204404002064140020481400205a
:100a700050170020f0b5124e95b00746012405a985
:100a80003068039400f0b9f9b0b9bfb10a9d049081
:100a9000013f6d423d400b4f049bab4202d9012008
:100aa00015b0f0bd0097002303aa04a93068039491
:100ab00000f0d8fa0028efd00020f1e72046efe759
:100ac0003c04002040420f002de9f04f7c4b7d4854
:100ad0001968c3b0102200f015fc002840f0ec802b
:100ae000794a7a4b11681b68764a7948dff8f081b9
:100af000dff8f0b101eb4311103100f076fe754bd9
:100b0000d3f80090744b1f680fb93e46cae010221c
:100b1000494603a809f1100a00f0f4fb002840f050
:100b2000c0800f2f40f2c680049b03f11002974251
:100b3000c0f0c080069a002a40f0bc80644d029349
:100b40000fcd18ac0fc40fcd0fc495e80f0084e88b
:100b50000f000398c8f8000024a900f04ef90028ff
:100b600040f0918033a8259d00f096fd002840f0cc
:100b700085809df8e4304bb99df8ca30022b05d131
:100b8000359b203ded1a299b5b421d402b464ff0c3
:100b9000ff3202a95046fff753fe0646002840f0f8
:100ba0008180d8f80030013376d02846fff762ff05
:100bb000002876d00df1600cbce80f00444c0fc447
:100bc000bce80f000fc49ce80f0084e80f00324619
:100bd0002b4602a95046fff733fe0646002861d196
:100be0009df8c930002b57d011a800f055fd139b7c
:100bf000d8f800000990203b0793bdf85030adf8bd
:100c000020309df852308df822309df853308df809
:100c100023309df814308df828309df815308df86c
:100c200029309df816308df82a309df817308df850
:100c30002b3033a9029b0b9300f0dff860bb349b91
:100c4000232b29d901230093cdf804b014231022bb
:100c50000ca9d8f8000000f049f9e8b90cab11aaca
:100c60009a4215d818d11422102107a8fff798fd31
:100c700090b91a4a1368013313600de04ff0ff3347
:100c8000c8f8003082e74ff0ff35c8f800507de724
:100c900013f8011bff29e3d0049b10339944ff1a7a
:100ca00032e708260d4b1b68002b0cbf3046012095
:100cb000fff70cfd0726f5e743b0bde8f08f00bf56
:100cc0007c1400206c1400204c14002048140020d8
:100cd0000c04002044040020641400206814002048
:100ce0003c040020a086010010b5064900235a18d4
:100cf0009468844204d01033802bf8d14ff0ff3237
:100d0000104610bd0038000010b501f0e1f90446ae
:100d1000fff768fc002c18bf204610bd70b51446c4
:100d20000e461d46fff7e0ff421c11d042686319d2
:100d300093420fd8c36801689b0721442a46304676
:100d400002d5fff756fc70bdbde8704001f0ccb98c
:100d50000520f8e70420f6e7f8b517460c461e46ce
:100d6000fff7c2ff421c054611d04268a319934207
:100d70000fd8eb6800689b0720443246394602d5fd
:100d8000fff743fcf8bdbde8f84001f015ba0520b7
:100d9000f8e70420f6e773b50e461546fff7a4ff03
:100da000336802681344421c0446019310d08db18d
:100db000c3689b07294601a807d5fff732fc2268c4
:100dc000019b9b1a336002b070bd01f0f1f9f6e7a8
:100dd0000520f4e70420f2e708b5fff785ff421c81
:100de00009d0c3689b0702d5fff726fc08bdbde804
:100df000084001f083b90020f8e7f0b58db00c464b
:100e0000fff772ff421c05462ed0c3689b0701a85e
:100e100027d5fff718fcab6823606b6863602b680d
:100e2000a360074601ab04f10c020df12c0c1e4629
:100e300003ce664510605160334602f10802f6d1d8
:100e400030681060eb68c3f3400284f8382003f088
:100e500001029b0884f8392084f83a3038460db0f6
:100e6000f0bd01f04df9d6e70527f7e770b5094d5c
:100e7000002305eb0314dab2a468661c08d00e78d0
:100e8000964288bf40f823400133082bf1d11a461f
:100e90000a7070bd00380000f0b599b00f4618a96f
:100ea000082301f85d3d4ff0ff330360064601a8bb
:100eb000fff7dcff00259df80330ecb2a34201d818
:100ec00001200fe018ab03eb840409a954f85c0c73
:100ed000fff793ff40b99df85e30bb4204d154f850
:100ee0005c3c336019b0f0bd0135e4e72de9f04f0b
:100ef00091b0884601a9074691469a46fff77dffc3
:100f00008346f0b90e9e1b9d9df86840b54204f1e2
:100f1000010438bf3546e4b253464a464146384696
:100f2000fff7fcfe834640b93846fff755ffad1b7f
:100f300018b1002df8d14ff0060b013c14f0ff045e
:100f4000ead1584611b0bde8f08f000030b589b045
:100f500005460c46fff7c8fe431c34d0c368d807cb
:100f600002d4012009b030bd18490123cde9003178
:100f70001022142303a92846fff7b8ff0028f1d157
:100f8000039b002bedd01a07ebd1059a0132e8d074
:100f90009df81850ff2de4d09df81910ff29e0d0de
:100fa0009df81a20ff2adcd020332360bdf81030d2
:100fb000a3809df81230a3719df81b30e57121725a
:100fc0006272a372cee70520cce700bfa0860100c5
:100fd0002de9f04f95b00d461f4605a99df87830d4
:100fe000009093460293fff708ff804638b91f9b95
:100ff000ddf848904b4538bf4b4601931fb940463a
:1010000015b0bde8f08f099b5c422c401c44dde923
:10101000016aeb19a3428cbf641b3c4623465a4627
:1010200029460098fff798fe034660b9009803939d
:10103000fff7d2fe4e45039b0fd3a6eb090610b176
:10104000002ef3d106231af1ff3ae7d21bb925444b
:10105000a3443f1bd2e79846d1e70026b04218bf11
:101060000623f0e72de9f04790b00f4601a90646a8
:1010700090461c46fff7c1fe8246e8b9189b0e9dbc
:10108000ab4238bf2b4601349946e4b2424639465a
:101090003046fff780fe824650b93046fff79cfe8f
:1010a000a9eb050920b1b9f1000ff6d14ff0060afe
:1010b000013c14f0ff04e9d1504610b0bde8f087c0
:1010c000044a00231370044a1360044a1360044a5c
:1010d00013707047c0010020bc010020c401002033
:1010e000c101002030b5164b91b001a91868fff777
:1010f00084fef8b9134b02991b78134c134a13b1b1
:101100002060116016e0039d05f110032d699db16b
:101110002d0711d19d6801350ed01d7bff2d0bd001
:101120005d7bff2d08d09d7bff2d05d01b692360c3
:10113000cb1a136011b030bd00232360e1e700bf7c
:1011400024010020200100202c0100202801002083
:101150002de9f04f3f4c8bb023780390002b75d1d5
:10116000052323703c4b1b78002b71d1dff808a1bd
:101170003a4e3b4a4ff00109cde9009a102312681c
:10118000306806a9fff7b2feb046054638b910220e
:1011900006a9344800f0e2ff40b10223237023780f
:1011a000039a284613700bb0bde8f08fcde9009a82
:1011b0002d4e2e4fd8f800003a6810233146fff725
:1011c00095feb34605460028e9d13668284ba6f1be
:1011d00040029a4201d8330701d00323dee73f687b
:1011e000cdf810a0bf1b4ff6ff79049b0193702e22
:1011f0004ff00003b246009328bf4ff0700a5346e9
:101200003a461c49d8f80000fff770fed8b9574499
:10121000a6eb0a060346174a0593d15c484600f040
:1012200017fb059b01339a458146f4d1002edcd192
:10123000bbf804304b450cbf4ff006094ff00409d2
:1012400084f80090abe74ff6ff79f1e70025a6e7b9
:101250000725a4e7b4010020c001002024010020dc
:10126000b8010020c1210000a4010020a00100203d
:10127000c0ff0f0030010020a086010070b51a4c9d
:101280001a4d04212046fff707fe2646e0b92368e1
:10129000013319d0164b01221a70fff723ff0446c1
:1012a000e8b9144b144a1b6812681344134aa3f19b
:1012b00010011160124a203b1360fff701ff2870f4
:1012c0000a48fff745ff0de002210748fff7e4fd5c
:1012d00028b93368013302d0054b1870dde70523c8
:1012e0002b700124204670bd24010020b401002091
:1012f000200100202c01002028010020b80100203e
:10130000a0010020314b2de9f34715461a78074616
:101310000c46002a53d12e4b1b78062b4fd12d495a
:101320000b682033a34288464bd91b1bab4248d3e2
:10133000002846d01f2c2dd8dff8a8a0dff8a890f1
:10134000254ecde9002a254a306812681023494607
:10135000fff7ccfd80bbcde9000a214a3068126856
:10136000102309eb0301fff7c1fd28bbc4f12006e0
:10137000ae4228bf2e464ff000404ff0ff33c9e980
:10138000060309eb04013846324600f0f6fe344409
:10139000ad1b3744bdb1124b12491a68d8f8003062
:1013a0000d48203ad21a0023cde9003122442b46c1
:1013b00039460068fff79afd02b0bde8f0870720c4
:1013c000fae70420f8e72846f6e700bfc00100204e
:1013d000b4010020a401002024010020b801002055
:1013e000a0010020a0860100300100202de9f0437b
:1013f000194e1a4d95b0074605a93068fff7fdfc58
:101400002b78012b14d0164b164a1c680a9b1268c5
:10141000dff854905b421a400f3403921c404ff0a7
:101420000108039ba34205d985f80080fff748fe19
:1014300000200de0cdf8108007b1b847cdf800903e
:10144000002304aa03a93068fff70cfe0028e8d0a7
:1014500015b0bde8f08300bf24010020b4010020d6
:10146000b80100202c01002040420f006f2838b541
:1014700004460d4601d8012038bd0307fbd1094bb6
:101480001b688342f7d31046fff7b0ff0028f2d164
:10149000054b01221a70054b1860054b1c60054b6b
:1014a0001d70e9e728010020c0010020bc010020d8
:1014b000c4010020c10100202de9f04f1d46684bfa
:1014c00085b014461a780293064689463ab9fff762
:1014d000f7fd03232b70042005b0bde8f08f6148b1
:1014e0000368b342834604d0fff7eafd0420287066
:1014f000f2e7a00703d0fff7e3fd0523eae7702c2e
:10150000f9d859480390d0f800a09a45ecd3aaeb3b
:101510000303a342efd319b9fff7d2fd0723d9e79d
:10152000012a68d1c6f12007a742dff8588128bff9
:1015300027463a4608eb060000f01ffef3191f2b62
:10154000cbf8003001d80020d1e7102247494046af
:1015500000f004fe28b1fff7b3fd06232b70012035
:10156000bae7d8f81030424aa3f140019142f2d8cc
:101570001907f0d1d8f8182032f00042ebd1d8f892
:101580001c100131e7d120339a45e4d14ff00043dc
:10159000c8f81830374bdff8f8a01b7888f81630f9
:1015a000354b36491a70364bcde900231023354aa6
:1015b0000968daf80000fff70bfd08b10823cde752
:1015c0002f4bdff8d0803049cde90003424610238d
:1015d0000968daf80000fff7fbfc0028eed198e874
:1015e0000f00dff8a8c08ce80f00029a02231370e6
:1015f0003e44e41bb944002ca5d02246494621486c
:1016000000f0bbfd204b1e4a1968204b20481b6888
:101610002039c91a0023cde9003231442346194a42
:101620000068fff7d5fc0028c8d1dbf80030124e67
:101630001c44039b30701b68cbf800409c4282d155
:10164000fff73efd30703046fff782fd10b933786a
:10165000062b01d0022381e701232b703ce700bf5a
:10166000c0010020bc010020c4010020c1210000f5
:10167000c0ff0f00c1010020b4010020b80100200c
:1016800020a1070030010020a0010020a4010020bb
:10169000240100204001002030b5164d044691b0d1
:1016a000fff720fd2b682360134b1a682032a260dd
:1016b0009a88a2819a79a2739a682261da68db79a2
:1016c000e3730e4b62611b7823760d4b01a91868fa
:1016d000fff793fb20b14ff0ff33636011b030bdd3
:1016e0002b68069a0d99b3fbf2f20a9b0b44534305
:1016f000f3e700bf28010020a40100202001002002
:101700002401002030b5144b89b00df10f001d6885
:10171000fff71efd0446e0b99df80f30062b18d1e7
:101720000e4b9a6892b10fcb0df1200c0ce90f0013
:1017300062460b4b42f8084dcde9004309480423ab
:1017400005f108010068fff743fc0446204609b094
:1017500030bd0724fae700bfa0010020a40100204b
:1017600020a107002401002030b50f4bda680132b8
:1017700087b0054616d10d4a14680fcb0df1180c31
:101780000ce90f000a490b486246002342f8045d49
:10179000cde90031042304f10c010068fff718fcc7
:1017a00007b030bd0720fbe7a4010020a001002006
:1017b00020a107002401002030b501f1100300f141
:1017c0001005002213f8014d42ea440205f8012dec
:1017d00093f900408b424fead472f3d1002cbebf84
:1017e000c37b83f08703c37330bd30b5034601f17b
:1017f000100451f8045b43f8045ba142f9d11030a6
:1018000002f1100352f8041b40f8041b9a42f9d16c
:1018100030bd000030b50d4d85b004462a46fff7b7
:10182000e4ff10236a462946204604f1300500f003
:10183000bbfb04f120012846fff7beff294604f157
:101840004000fff7b9ff05b030bd00bf1c2200000b
:1018500040ba80b24140c1f30310484080ea0030f2
:1018600000b2430103f4ff53584080b27047f0b513
:101870000368064689b09c1e1f4603f11e00002522
:1018800024f8025f8442fbd1002595421fdbb3f9a7
:101890000000904235d0012037f9025fd5eb4000bf
:1018a00013d4bc42f8d10024adf8024001242746ed
:1018b00001343df8175033f817700f2c3d442df8c4
:1018c0001450f4d1002393420adb09b0f0bd31f982
:1018d00015c033f81c00013023f81c000135d4e793
:1018e00031f913405cb108af07eb4404756834f973
:1018f000207c07f1010c25f8173024f820cc0133a7
:10190000e1e70020e1e770b5056904460e4663692a
:10191000b34209db0120b04025fa06f29b1b0138d7
:1019200022616361284070bda36820689847002841
:1019300004da012104f1180000f030fc6369c0b240
:101940009840083305436361e1e72de9f84f054608
:101950000b68d0e9040200270e4603f1020ab846dc
:10196000bb464ff0010962b9d9f1100437d0aa681b
:101970002868904700282cda012105f1180000f0b2
:101980000dfc00f00103baf9004043ea0b03a3eb9e
:10199000040cc4454fea50000af102010eda6a69ec
:1019a0002861a2eb090202f00702a3eb08036a61b7
:1019b0003b44726832f91300bde8f88f2744444471
:1019c000013a4fea44084fea430b09f101098a46fc
:1019d000c9e7082c2246c0b2a8bf0822c3e76ff0af
:1019e0000900e9e72de9f84f314f82460e4690464f
:1019f00031465046fff7a9ff041e0cdbff2c0ddc1f
:101a0000daf80430002bf3d0e1b2daf8000098479e
:101a10000028edda01242046bde8f88fb4f5807f78
:101a200001d10024f7e76ff480731c441c2c38dcd0
:101a3000204b37f9145033f914105046fff763ff69
:101a4000414683465046fff780ff041ee3db1a4af7
:101a50001a4b32f9141033f914905046fff753ff24
:101a6000daf804201ab9b4f5807fc1d1d9e7ab44c4
:101a700009eb0005013dbbf1000ff4d02946daf86f
:101a80000c30daf800009847011e0ddbdaf804305c
:101a9000daf80000c9b2984700280bf1ff3beadaf8
:101aa000b8e76ff00904b6e76ff00a04b3e700bfc8
:101ab000a4220000de2200002c2200006822000088
:101ac0002de9f04fadf2445d04ab009323ab0193dd
:101ad0000cab0293052114ab06460393fff713ffeb
:101ae000052100f201173046fff70dff042100f138
:101af00001083046fff707ffb7f58f7f044600f374
:101b00009580b8f11e0f00f39180dff84cb14ff0d3
:101b1000000900f1040ab2add14542db6ff00302c7
:101b20009442b8bf14464c4b221d0021132a43d1c6
:101b300029466846fff79bfe00287ad1044607eb4a
:101b40000809a1453edcb5f90032002b7ad03a46af
:101b500029466846fff78bfe002808d075db009aff
:101b6000b2f90030b2f902201344bb426dd14246b3
:101b700005eb470102a8fff77afe002808d067dbd3
:101b8000029ab2f90030b2f90220134443455fd102
:101b900002aa69463046fff725ff0df2445dbde815
:101ba000f08f03213046fff7aefe3bf9193009f103
:101bb000010925f81300afe733f91200013225f8c7
:101bc0001010b3e769463046fff7bffe0028e4db9c
:101bd0000f2804dc25f81400621c1446b1e7102815
:101be00014d14cb3631e0221304635f913a0fff720
:101bf0008afe033022184a4521dc05eb4404002309
:101c00008342ead024f813a00133f9e7112807d161
:101c100003213046fff777fe03304ff0000ae9e773
:101c200007213046fff76ffe0b30f6e76ff002003a
:101c3000b3e76ff00300b0e76ff00400ade76ff0bb
:101c40000500aae76ff00800a7e76ff00600a4e719
:101c50006ff00700a1e700bf182300002de9f04f47
:101c6000adf5317dcde90301cde9052309a80023b8
:101c7000cde9073300f08cfa0646002840f0ab802f
:101c8000dff87c91594fdff87c8103ac01212046bd
:101c9000fff739fe022101902046fff734fe0028ad
:101ca00046d1c4e90400a368206898470028c0f220
:101cb00092805ffa80faa26820689047051ec0f201
:101cc0008a80a3682068dff840b198470bea0525b1
:101cd00045ea0a050028adb27ddb5ffa80faa2680a
:101ce00020689047002876db0bea002b4bea0a0bb2
:101cf0006fea0b0b1ffa8bfb5d456ed16368a3b9ce
:101d0000019b002bc1d030460df5317dbde8f08f31
:101d1000a36820689847011e5ddb63682068c9b22c
:101d20009847013d0028adb25adb002df0d1e7e71e
:101d300001284ad1d9f80030002b3ed02c4bc8f8ee
:101d400000302c4bc8f804302b4b3b602b4b7b6096
:101d500020aa3346082122f813100133902bfad120
:101d600020aa092122f813100133b3f5807ff9d19d
:101d700020ac072224f813200133b3f58c7ff9d16e
:101d80004ff008134ff4907221464046c4f83032a9
:101d9000c4f83432c4f83832c4f83c32fff767fd77
:101da0003246052321f8123001321e2afad1384674
:101db000fff75dfd0023c9f800303a46414603a80d
:101dc000fff710fe00289bd09ee702280ad120468c
:101dd000fff776fef6e7022096e76ff0010093e743
:101de000012091e74ff0ff308ee700bfa0140020e4
:101df000e41400200c15002080140020a8140020fa
:101e0000000400200415002000ffff0070470000c0
:101e10002de9f04f85b004464ff4807088469b460c
:101e20000192dde90e759df8406000f027f94d49fb
:101e300001230b60bff34f8f4b4a002313605360a5
:101e40002368536263685362a3685362e368536212
:101e5000012e029107d8b8f1000f21d1c4e90888fa
:101e60000023c4e90a3304f1300303933e4b04f129
:101e700010014ff080084ff0000904f1400ab5b995
:101e8000029b4ff480701d6000f00cf9019b203420
:101e9000013b04eb0b0294425ed105b0bde8f08f2c
:101ea000d8f800302362d8f804306362d8e7102de8
:101eb0002a4628bf1022ad1a04f10f0007eb020ecc
:101ec00017f801cb00f801cf7745f9d1501e8f18d4
:101ed0000844ddb90eb1032e18d1d2f1100c39d05f
:101ee00001f802806044874231d15246101f0c3203
:101ef00004f10c07009250f8042f57f804cf8cea35
:101f0000020c009ac7f800c08242f4d1084604f1de
:101f1000200c50f8047bc268844582ea070240f82e
:101f2000042cc3f88020f4d105229a601a69920724
:101f3000fcd4d3f880202262d3f880206262d3f8e8
:101f40008020a262d3f88020e262774697e707f804
:101f5000019fc8e7039ac9e714f8011b03f8011fa2
:101f600099e700bf0016c84300000f4000b599b0c4
:101f700004a80a49fff74efc094b0a4a9b6c1b0c4c
:101f80009b02002101934ff0005300930291042320
:101f900004a8fff73dff19b05df804fb1c22000008
:101fa000b081e00f080400202de9f04704464ff40b
:101fb00080700f461d46904600f060f82d490123c1
:101fc0000b60bff34f8f2c480023036023684362ec
:101fd00063684362a3684362e36843624ff0050e9f
:101fe00035b90d604ff48070bde8f04700f05ab885
:101ff0002269c0f880206669c0f88060a369c0f8d3
:102000008030d4f81cc0c0f880c00132c0f808e0ad
:10201000226142b9013666612eb90133a36113b959
:102020000cf10103e36103699b07fcd4d0f8803015
:102030002362d0f880306362d0f88030a362d0f899
:102040008030e362102d2b4628bf102304f1200cb2
:10205000ed1a08eb03093e46c84501d11f44bfe70e
:1020600016f8012b1cf801ab82ea0a0208f8012bd2
:10207000f2e700bf0016c84300000f4072b6074bde
:1020800007491a6801321a600a68104308601a6822
:10209000013a1a601b6803b962b670474c170020fa
:1020a000c801002072b6084b08491a6801321a604c
:1020b0000a6822ea000008601a68013a1a601b6880
:1020c00003b962b6704700bf4c170020c80100205a
:1020d000044b41f671321a649a6822f001029a6048
:1020e0000020704700000e4010b5eff3108472b668
:1020f00000f043f804b962b6002010bd002070471c
:1021000070b5144c0246034604f12806254603cd5b
:10211000b542186059602c4603f10803f6d12868cf
:1021200018600d48836c9bb29b021360436b1b0ebf
:102130000a33012103f01f0301fa03f35360436bd9
:102140001b0e0a3303f01f0301fa03f39360002010
:1021500070bd00bf40230000b081e00f30b5002407
:10216000a24201d1002007e0035d01340d1915f8ea
:10217000015cab42f4d0581b30bd10b5431e0a447d
:10218000914200d110bd11f8014b03f8014ff7e760
:10219000ec46a0e8f05f4ff000007047b0e8f05f59
:1021a000e546080008bf0120704700bf000000009e
:1021b0005ff800f0950000205ff800f001000020bb
:1021c00000534352319a933082d9eb0afc3121e318
:1021d0003700000006000000e0210000002200009f
:1021e0001d0d0000590d0000970d0000d90d0000d5
:1021f000fb0d00006d0e0000990e00004d0f000059
:102200005111000005130000ed1300006d140000d3
:10221000b914000099160000051700000000000026
:1022200000000000000000000000000000000000ae
:102230000000000001000100020002000300030092
:102240000400040005000500060006000700070062
:1022500008000800090009000a000a000b000b0032
:102260000c000c000d000d00010002000300040032
:102270000500070009000d001100190021003100c0
:10228000410061008100c1000101810101020103df
:10229000010401060108010c0110011801200130a0
:1022a000014001600300040005000600070008006b
:1022b00009000a000b000d000f00110013001700a9
:1022c0001b001f0023002b0033003b004300530082
:1022d000630073008300a300c300e3000201000059
:1022e00000000000000000000000000000000100ed
:1022f00001000100010002000200020002000300d0
:1023000003000300030004000400040004000500af
:10231000050005000500000010001100120000007b
:1023200008000700090006000a0005000b00040071
:102330000c0003000d0002000e0001000f00000061
:102340000000100000080000000800000400000069
:10235000000000000000000000000000520000002b
:1023600002a00000ba880000020000000000000087
:1023700040ea020313f003032de9f0433dd1920834
:10238000eff3108672b61e4fbc6844f00104bc60c7
:102390003d464ff0010c4ff0080e934207d3ab6857
:1023a00023f00103ab6006b962b6002026e000eb23
:1023b00083042c61c4f30a04c4f50064a408a2ebee
:1023c0000308444528bf44462344c5f80cc001eb2c
:1023d00084048c42e1d0d1f80080d5f81c9019f02b
:1023e000080ffad0c5f818800431c5f80ce0d7f80a
:1023f0001c8018f0010ffad1ebe70420bde8f08350
:1024000000000e4030b58db0044601a80d4600f026
:102410003bf8039b2268591e114230d1296801986c
:1024200001fb032181422ad81a44d11a4bb92368ef
:10243000039a134423602b68013b2b6000200db0ee
:1024400030bd09680131a3f10403eed0eff3108130
:1024500072b60c4b9a6842f001029a6022681a61c7
:102460000122da600222da60da69d207fcd49a68c3
:1024700022f001029a600029d9d162b6d7e7042080
:10248000dde700bf00000e405ff800f00121000012
:0c2490000100000000000000000000003f
:020000040000fa
:103800000078080000780700050000301000000074
:103810000040000000c0030005010000050000009a
:1038200000f00f0000100000050000200c00000058
:1038300000000400007803000502114c090000009c
:1038400000780700000001000502124c140000007f
:103850000000000000400000050100100000000012
:020000040000fa
:103880003e1daecf9d0a77f9e2bf6c049026c15071
:1038900017c02538c6427d82d787ad35acbd6b4099
:1038a0004b5c252486b6f8bd77416b954d2753b602
:1038b000f7ab34b47d9fe35f3cc86143c530fe3055
:02000004000cee
:10df70006e475d9a69fae9ba211adf487b6a3d81ea
:10df80001a8d0367b7554e5e233032a4229ca5ea52
:10df900005010000a0c6010005000100000000000e
:10dfa0009ab67c2bd5274361c6c39b38db546b7b69
:10dfb00034d9b0d15d4db8ae8766691421051865b6
:10dfc0007b6a22e8a4863c0672233e4afefed6c245
:10dfd0008c8c323e1d6053605641eebe67c1885541
:10dfe000b09cbdac716abd8adc9a4b2b2e7e814df4
:10dff000ed0336c02f57b5af79be810f5687e29d2e
:10e00000c01da4a7c6e2bdbf3a9d8e67aa17d1b0b6
:10e01000148512128f977ddba63a68d448ca736aba
:10e02000163a5725b8c03a14606811637f0f868589
:10e03000fb9775d9a1796bca96d958bd3322c9848b
:10e04000595579fc4f339455285685a4d7f739187c
:10e05000bda253f207dce5e19ef8d43df5c16e2b7d
:10e060009e44f4cb715e84e0d4a74de023612b3253
:10e070009973fbd912cc0cc55ad2db3f705cd0c46b
:10e08000165aa50601b2ee3d3107731fbc970c6806
:10e09000a0fcd764c14ce34a9f709651d0d8ffa72b
:10e0a0007a51218b450fa441e4f49b820c2803b4e0
:10e0b0005ca50933de736e4544bbee769b52caea1b
:10e0c0006b02caa7e9c14bde8c143583dd317aa51a
:10e0d000e18479884976b4a6ae1ecf8b6a05ca580a
:10e0e000e277c4faca186cd78dc7693142fe5aabc1
:10e0f000f3816d778ebdacd990ff55508d1f9f91e8
:10e10000cc9c2e322cdfc9e7bbad96a157c173a2c0
:10e11000524290f07bf49661ac4a94c4fa72a42106
:10e12000f3b0d9891a8fffabe52746003bb38811be
:10e130006701ad9fec57de26eb9468f5113feeccfe
:10e140002f97872cf1f71606ccd6c72c9a4a9db686
:10e1500073e4a4039714a94e086b1ba527191ea9e5
:10e16000e1f7b9ccf12e4e8cb7a7e6b2928a0ca19a
:10e17000008a3fa20dd55c2c982fa74b6d3845aa7d
:10e18000c882ce9099b477c052532fb93be0c04caf
:10e190009abc55a125e6c12b7a594fdf03a30c8603
:10e1a000676a0a6a1d3782596b602ab5d21668cb36
:10e1b000b45cc6e1e85e5a9cde1f4ff5a6163e7eb3
:10e1c000897dd1a1dfee75f4741c73965fd8e603e8
:10e1d00092be3f08980b7417d2e8761b02b6f78cf4
:10e1e000c6fa998046979793d85fa5bb7fdda9dad9
:10e1f000e3a233d597e74d503ac97db1fb2a589633
:10e20000e3224c5cd5ec5c1c81f104c7f2f09bc1ad
:10e2100028383f4ac2eba446ebb9aa78db2e7ecc65
:10e22000caa104861c297308a5eb8f4b0e4c3851ec
:10e23000f049677f2bf222771e72bfe28d73999ca3
:10e24000f4f6b8a734884b4785decf2d823379beec
:10e25000546ab38f9673fe6bb7b3a6fd6e726eb33e
:10e26000a498ae4dc29606893be2f770444fc13583
:10e270003cd1ee663f1fe92f452812c33fafdf7f39
:10e28000790807bd4906efe10e0b473bc20dd405e7
:10e2900058afdc3a29918ca7fe5a445dbdf7dbce1e
:10e2a000edb0943fb3b6042c609857f26065425bc2
:10e2b000d225487280ec4a3397702914ba1553025c
:10e2c000decea71074108a67bf1d90e3e7ab34aab7
:10e2d000c3bfbc9eb67b3c125430102776067bd25f
:10e2e0007424cd855a269a8e327c1eb5ba1b2ec850
:10e2f00064a04a28fddac2180330d989fcc95e1b24
:10e300007ddade4c38ec82be316393f7dfc296775c
:10e31000c6c8c25653b09655333c5d8021f761cdd7
:10e320007ad3c88f761e19b65dc3e228f606f1804f
:10e3300032b58c242197c218dff646187d66f1c5e8
:10e3400018e7ad7c701958f4d89e60c009d4c82f66
:10e350001c7b04f9c912912dec20df3bf9fec7a705
:10e3600012005889670dd200b2fa6f739180800a4b
:10e37000da754cda53f7b8ce5eb2fbbbd5821e8796
:10e380005d312e14639d5e59915bae1937a7cf3670
:10e390002d2f1e025611b149decf76f722e4e0bde3
:10e3a0006e63bbe19c208b070aa7d7855e31a3caa9
:10e3b000a1314bfd9ed8a6e68579ff4b680c71c64e
:10e3c000a40478468514c1b57448705b575e1cb5cb
:10e3d0008652e483a68ddf4dc7dd78f9db8ce90832
:10e3e00011cfd4eacb8c270c451b2c845fe86cf250
:10e3f000ed21855ab80de4dcddd856ec6fd52d95ae
:10e40000fe1f0369a8cc70cac6704cb305b5aac07c
:10e4100035408ec0c6505011570cc315f8115cc35f
:10e42000d1ddbea5dbd43c5c4b4d11c8504d3854fa
:10e43000c42dbed8a517bf8f3e0fa3a1deaf289570
:10e44000d39677cad81786fdf0a906481b300ec7a9
:10e450006ee14a5b89614b294fcb169a0141bd1889
:10e460009315bc362dc9779a2eb7f32d61ed5fea6f
:10e4700066ceaa160a00146a79af013abcac26210e
:10e48000e859ab1170adf328feb62cb783c67fc434
:10e49000f6d3e6bdef51f4c492d6fd55c1270297dd
:10e4a000d68a5e76c7bd15f310f219d49468c24ab5
:10e4b000802a89d51fbc1a80416611d238ff6c0aa8
:10e4c000b80154c6672a940635047592d9c27b6b8d
:10e4d0009640caf218e54272a4221eeb00491fe0e2
:10e4e0007b1e2ccd74c649a37ced2792e444c2cc9c
:10e4f000ca37375051bae57f267be992a05328727c
:10e50000228ae1f73ab10a857bc65b0921e8fa88dd
:10e51000bc5d317af61436be17e44ea3af3f8c9a39
:10e5200077d962a2fb3a493f5886800839001d9d81
:10e53000580738f9a0bc0ca9b0d9edfecaff002ad3
:10e5400012a74312f94e14ce41f3b95c652757b0b8
:10e550003bd0a658f2b4e12c7c88897d2b13fb4d6f
:10e560003ac1cb530a4bf0e0e5b38e50d42b2c9339
:10e570008d3c825d9243128614a7dc59239ba2f244
:10e580008d3d8caebaa97c47cadad081b648582ee8
:10e59000bff6ae94249180b84f41c8988f08bfdf72
:10e5a0007834f50496bc9f5e7a5d50a6c6031d2f95
:10e5b0002ad11c3bd2896eaef22c0e64db14ec82a5
:10e5c00039063d22d554b076ce113fff457d394303
:10e5d0006c7ee0e5b7b83f6b1cd5b5fbd5f7943a38
:10e5e00092ee9228ae3d3ca6a200b052a9374778e1
:10e5f0001366e377a5e86d0fb1d7a8f42b8aa4bc06
:10e60000edb567360b1e5e7b8a0d4a0dffada7592f
:10e610001155964a847f08c8458279f274d4a225a0
:10e620003188440cf2ab42dfd1adc0b81380f46145
:10e63000a00879791eafa24c6e7e155b985653c820
:10e640003f1fcbbfe6dff966d5f459f1172794a831
:10e650009cf3f027406cbdeabc86d2d6023c19d9a7
:10e6600017ae111ebd2ff291247d6838c0ee9318ad
:10e67000f97e131f1395440f37aa6706aa2c99d861
:10e68000b23b91dd068df8a41df40f9e46e1aeb9b4
:10e6900083827e3b31cb141db6eaa447ef10c20b38
:10e6a0006f83f925d44cc3b0f31f2c3c6a02a5db61
:10e6b000951665d2cc568ad991bb646c310ddc8f2e
:10e6c0008e91de790dc91714150542681b32625709
:10e6d000684e40e9431300770d80724e0de7ee83dc
:10e6e0003265f6e92b85fe24ac70e0f4263bb44f8e
:10e6f0005721f97a5467d0da66fc35cb0866382c96
:10e7000045ad4869335362b362938d46e4aa08f578
:10e710001be2ee4776237e1b61d29d5f5832016d6e
:10e72000cfb21ae69101a1bc20ba1688adeba9447c
:10e730009e701012bc842cf0975a324c27eeaba975
:10e7400014866b8140503cffef160c999ed1c7f6a2
:10e750000378fb7e25eebf20f831ce0ea85f2aaeef
:10e76000e0161c9a5bf4ce0b905120419fab7d705c
:10e7700032b819df6a1f5b252b2d70012a1db08e60
:10e7800005998e17de602c8378d23872a74045b386
:10e79000ad3b90382496e5ee529494faac9765fd23
:10e7a0003de304c2db688f08ec6d20d92d9e8baf52
:10e7b000f5b31bb712a384b94174bf1dbf8a865c31
:10e7c0002ca94627937ec8231024b0ab6b2b51eca9
:10e7d000c4de62069732903f76b4d7fddcd6a7ab95
:10e7e0001c1e336d3ae3d60a695ed6e31d9d4a2f9f
:10e7f00093974b129ffeee244731dc82bf25a5e99b
:10e800009bcfe782e231c1b361cb11e600c17ddb72
:10e81000ed4668b43a81c5ebee1905f1035260ff8d
:10e8200060775adcf004ab4f365463bb12b3ef93fe
:10e8300039f2f7f93a06061ed2cb9f3a9685d300f5
:10e840003cd2842b6ed054c61b2458fd53a52b7c80
:10e850007f24e8e63c2624c84d1dcb07ba9c0ae578
:10e8600034d55b1b1d5d58a7fa40f05a4596cc671e
:10e87000796838dd63d65847268189ba180456dd91
:10e880009a77678459dfa6823fe05e6b4a02a1391e
:10e890009de046fe71a47065043afef3408f6174fa
:10e8a000ffa5f77b3a1d4a4a92801b0441118069fb
:10e8b0005f2acd0038d8d59e6447d59a810a487121
:10e8c000a0129ed49a8858a27cb9d72fb634ddee18
:10e8d000087b602edba62d80798c5e1d15704f4065
:10e8e000a145ace582b98e83ce15f9f437cb75a876
:10e8f00075bd37a054437ec6695d6ee00b7fdba318
:10e90000be6f1b706bfec97ae745d0a2e209506565
:10e9100012a010fe83a00ed9409b0aa11ef0a28c6b
:10e9200094f81b75451b4be3079cf91a48fe1ce342
:10e93000defdbcca30f5264aa4aa178f6af183bd52
:10e9400016daa42fcdebec269c3883792c915a6ee5
:10e95000a3ee360083e99b52f92eaf974f8dd93342
:10e96000c59cd2dac496440eea456be3d2b3898bd8
:10e970008d1e0355eb7c275735f3c9acdeca84d511
:10e980006a5240c64a83cb65cb1083ddfd07ae5982
:10e990009fa2140938444f1f1bde7ee3897ec361aa
:10e9a000a93600a5956d3960af9700c99b281a5efe
:10e9b000fc626e1d9ff58a95a96753fc383b69413f
:10e9c000d5287f37d2daa33ab90a0a71b8868f49b7
:10e9d000638c6eb986f908f16b5c7137cb0f3f71b0
:10e9e000a9cebd210daf10b3d80bd79dc8cd647291
:10e9f00070298e976e8100815ba585c50c4b60e503
:10ea0000369ba09b2462111a02129f6a42e8e54ecf
:10ea10009124902b554d56c8c5f13492c8d3ae14ed
:10ea2000b3a0f6cfd9cec791a1eb54c2f28c852703
:10ea300004fbbaa1a9dbf228f1f521c1006172f350
:10ea4000bc1edca76f0cefda5dd782aaa19014c5bb
:10ea500023fbe016a3eeadb5a9103e1568f48c5665
:10ea6000d3f5d01fbca31322e9041dcac934bcb816
:10ea700050ccc57e17a5707de30236bd085718da65
:10ea8000b273b0df4ab6becba1a308cecf325d10c1
:10ea90006c3c3b018bef5a192f69e741ec6d8dd827
:10eaa00040e99d85bc8d8327f388573e8d6c83f5a7
:10eab0003981b9b7a6b8ba1e1d59c267ce618e3b5f
:10eac0001e072235cbaa9b4aae88330876a1b9b976
:10ead0002c827e74acc429696ca8d7bcd0a2714ebc
:10eae000073af92d32f9a8128980b32c6f61f6c16b
:10eaf000d503b81ea6e7ad11aea81fde5c5864783a
:10eb00000cd5d274fa5bc20d8472a23fb9492df7bd
:10eb10002b2fa2a38c45123fcc6427746ef694acc5
:10eb2000af1791c68af3fa8d7c81e3f828881af52d
:10eb30007f075a5d4c601e40ae4282f5d3783802a2
:10eb4000b4f9bc978fc26976a37abf14343717ce55
:10eb5000ce58db3ed027aeb10cc595ea8c1ba496ef
:10eb6000a7284687c6aef290cdce9d99283fe78272
:10eb70000c0e5c0177164b34aebce22164921fdcb4
:10eb8000211a1b7312af2feb1beb2988cdf52b47f6
:10eb90006b6a8cf8411e659a2d472c09f7fccdb1a4
:10eba0002d818dce8e223f35a935dd89d8fc2852a6
:10ebb00013b11aee24951282b743f08b703d5e3c80
:10ebc0003914dfc32d71605887cac8b45d0e9f9990
:10ebd00039fcefbdb9103e3b5486c10c1156e5100f
:10ebe00046fc54c57e40ac884d64fac9222e798b10
:10ebf000a2f5e09573612b2b0abeb483b0a76aa877
:10ec000071c6d321e2952b0b485ec2078b08ad3746
:10ec1000409fcf11d1694dca4ffd6a3b34fc762528
:10ec2000857169a7780f6511e418c2cc008b90ae8e
:10ec3000c9524a2d0816f6fbc39a4a3f192afed834
:10ec4000394d89d68d6cc3cd98dc442035b9a5c328
:10ec5000fbf3e44bdbb2af90368c84ba1a8958735d
:10ec600067bf68607c3d1e53c3c368b650267fa54e
:10ec7000107128a46cab74fb838f4d4492b775d090
:10ec80009a9f90ae4b710216f8e834dcb8951e17c7
:10ec90004104143092951cf1f27f3d56935168b2b5
:10eca000163f6cb1a0df75618e3107ae1ae35aece6
:10ecb000fd7deffbd25cad54d7fd3dd2ff8ebf9ef4
:10ecc000e9453c7af3b9aafae346a73fe90401759e
:10ecd0001a7a7bb63b735073ffc58e05d9abcd6ee8
:10ece0002e39d53a88d66302df9870690981be57fc
:10ecf000edd7fc338eb8dee5e3e5df99649a9e2b11
:10ed00002c89eb29eb33ca84787b92b3ff594d04ed
:10ed1000aa57fba24fb66c0ad89ad0b6b03c2521b0
:10ed200004015e552c1162be2bd13f3ee962e88f93
:10ed3000f72f58a2cbe887b4e663d4b2b5fa4955a9
:10ed4000684a4c064ddc0491c34cca6a3df2f2fba2
:10ed50007b9be1f1a1037c4d039ab6a9c7eee79333
:10ed600005414dd31915e2f0fd91481eb28c2ace13
:10ed700052a68dfe9899cb02c678e72b8a37a52c30
:10ed80007ca451553650a974389d008a9b67522542
:10ed9000bc1dd2db3bbaa9cfc77f42f1b44370930d
:10eda000ef2e4eb039844c46c53545246ed4000351
:10edb000af2b3f8b2214bea37f79c65d1ad310a55b
:10edc000e9f55cb91fd2df66af34206932ed898581
:10edd000059991a5e71401a3a4c1088e6691f35982
:10ede000b702d76b55684d62b5439f8976b10b5e0c
:10edf000534ad93768e388cedc0d2293d4fcfacd90
:10ee0000d95fc74554fe04928dc7ad51b73a716bb7
:10ee1000e8e345c4c61c832359113485e223961cbc
:10ee2000e283646ccfdeb86e70baa4bc7077c3693d
:10ee30009fb8e86d1fad81547d4ab0cefba989779c
:10ee4000bf57f82a2fdf8935be73dff3f87f8d8631
:10ee5000c72789940e55d8d43579198719746696c1
:10ee6000882bd166794507d2a295b8215a3f5aba64
:10ee70000327479084c0262b1c53f994ecba986161
:10ee8000cfe1df919d4b125e5bdac169e08dc1e895
:10ee9000b17e75263ea68a375d54075844578d8f3c
:10eea000d647367d57f088339571f423ec4fbaaed0
:10eeb000e7d33b661b9dc4107ca4573f7fff5ec316
:10eec00008a0120ea6ea9bf007e8fc77dc122a5b8a
:10eed0006b69ea04aee0050a4371136d9b074eded1
:10eee000782ed4ae1d5b7c8a942db69f4afbcabf98
:10eef000b39acb0cf7109400db6f72035451a289c4
:10ef0000a51b436ccc6ff6d97ca1ee2ca5f22e0884
:10ef10000f5ff372ab353a635d645cde1fa760c6ba
:10ef2000efda581ab75a5a945115e773fe68150c60
:10ef30005a36eb245f6aac635374bec7c78892e845
:10ef4000d6039d494a7e75f500925bb854648d0dd9
:10ef5000488ee380521016eadc0e2608149aa8fbad
:10ef60006a79e650fea476a293afc1ada75593e7a8
:10ef7000bf13d0025df766255cc85b6259325b6dda
:10ef80005009adfd6593e8a1d6ecd11bb485c1db7a
:10ef900060c2faba4fd4c42f6a20a5c2c8834fd228
:10efa00064ef64386a57803694faed9bc4d3430605
:10efb00036406a543d59e251365862f3777fd5f7af
:10efc0009130bb5f0bed494907d8a6708f9cd008e4
:10efd0004e0a50d4eb102bb0285aa0b7e00e1838c8
:10efe0001e15a31d994ba8b9b097dc81f53b17bf3f
:10eff00067336f8b33f54772602083a73d93a096ec
:10f00000b44fa4e94bed08b3fcf713c8003c2d8bbb
:10f01000401045c9c8b3a0f7f81ffd6bb5fedaf183
:10f02000a1a4313711066171422a07e51873cf7a1e
:10f03000a69bfa977cd39742ad185890a15d2a04fd
:10f040000f4669682caadabfeca0b7ac60cdcecd74
:10f050007d78e19c23ef2d4d1551a50a75ceb71c87
:10f06000663c2ecdb7bbfbc589140fa425ad031399
:10f070002666a74f55288c063a4ee7076b1801e025
:10f08000233e6ea02bb1c91c93a4046469a31b9feb
:10f09000641b16380b6320b8e4fc24ebc1ab86c1bb
:10f0a0005a8bf7bb634c21b2a9db5b4720ac155ce4
:10f0b000ab70232391dc05aa78bf28394584a66d5f
:10f0c000792aa3dbf6f291c775793a627586f7065d
:10f0d000226d7cebc9b60f32834ce815b79ee93c34
:10f0e000504d38758beaf9a01d991dcd1f9cca3b68
:10f0f000e3c3df222be02c49b67f2312cab5bedb67
:10f1000031dea17d306c50551f67f6bbeb6f4ab8fe
:10f110005a1e47a3293db4e4ca4592210cfc4bec8e
:10f120006cc1474e5bca8a2e06c3fbc677ad61969b
:10f1300073af25abfec294ac12c65709db111c4d50
:10f140006162b17abde49567a8c43c174542f60bed
:10f15000d4d486e63f1fcdf3ca51babf5674160cfd
:10f1600089d14903d4588d232b4d1e396831397ffd
:10f17000d4fe3bfaaa65725e00e5ee6ed88784077e
:10f18000bb96ad1a8920421c97204ac242bb18e7a1
:10f19000597a7c152c69c4896fc21eb534e19c690b
:10f1a000cb77c99496aec039c1f953a31b6ef3c790
:10f1b0005939ab20190ebc7892950b759b9f6c2f1b
:10f1c00014061c6088a515b3823a83bf27ed745bd3
:10f1d0001ed970a08ff44c4da6706d14ff90b1e451
:10f1e000d278349dd12ec46a5622fba4e40ad92ecb
:10f1f00053f4d13f4b3d4f2c271e4ab75251620862
:10f20000b026bfa99dca18494b8df7dd6e8062e21a
:10f21000c2fb44056bb5ab539779735f233026036c
:10f22000af500545ecc1c3913f0d93cf40a71fd907
:10f23000a0da217e78ccfc424d2ee9b04e87a4adf9
:10f24000301cd82dded5fd9a29955e7b79ebbbf677
:10f25000bc402390cdc854bcea48eddf156057fb95
:10f26000ff1fb0699d89d7b056db520dd2bdbbfae6
:10f2700042b12fab361f9010b38083c1db18cf3c57
:10f28000d8cdd2197eda8883ee8e9858118ec07f41
:10f29000b1cc014cf998a7d922fb87d0cf6e45910c
:10f2a00053afcebde9de5ee294f6ca4b62345cb584
:10f2b000993a5c251be8faf69c33113ec7f13823d6
:10f2c000af4bd1c618fd87f5e976464a4e186790d0
:10f2d0007f37aa5e20eef69a0030bb44f39bf2ee35
:10f2e000e4f2de55183d8aaa53ee4f57b9c2485d85
:10f2f00097fd751bdf959527903102cd2fa93ed63e
:10f300004888bef657b79ac15bf8e60bf331173f52
:10f310002d8509d3b2d739c1f50be150e585c92652
:10f32000d59deb74f17611ba1f896d72f215c94340
:10f330000405e25ec3189dcc5df6064b93aadf413f
:10f3400055d3caeef7546d330c4098188e5602bc54
:10f350005eb227587527e2ccf219ea24473d64dcf7
:10f3600001c73715e4178386447c3c5c52ad368276
:10f3700091cb9289844a3a95732ab0fd8daefc08f0
:10f38000234abd860911e2dfe0c6fb1ffa1cf4ad7b
:10f39000925c69677ca6d5d21f2923d21a37589070
:10f3a0007809fb2264893dd4bbca442a118ce196ba
:10f3b000e6108f5a07a490c287432061fa835958f8
:10f3c000e9667c99fa8dea280fec421b2328e89e17
:10f3d0005ece2ee02f1253aadcdd4419d1d84d3376
:10f3e0006432dd4b9c410cb9ba6bd8005f59e7a879
:10f3f000d4603b0b6f02d78ea0f0f9decd38ca6225
:10f40000835ef42cd90e32a81e3f5b1bf441885a50
:10f41000cf5dddb86f0a256d903325d050b9974583
:10f4200080af35be4c96c72938e954b89f1edff12e
:10f43000feb8d8a74d6bf1f718bd2731a529a1015a
:10f44000af51c3747e72dd9d3a88384828c39b78db
:10f450002989ea17432de25eb9139e2a167e63c8f6
:10f460000e8c85daeac2a50f1ec423ee9775b57a15
:10f47000a346e43837b82c0fa65aac6257e44df4d3
:10f4800058c2d959aac5b703990fd77fdbe634070d
:10f49000fd18adb979d2e568eb599bc3e23c5750f2
:10f4a000270f4a5fea7acea124c210e246a06c740c
:10f4b000c3b2e41ef34cdb8922646a09c1fb735eac
:10f4c00035fcacd38f284f5b98bb96106c6fc18b0b
:10f4d0009d5ed76124f792e454ceaa1eebbc0113c3
:10f4e0009eca49444d3edbb8af7f882eeabc18c7a0
:10f4f000584aa4d0843d5d4c86d36f8a6911d1f2fd
:10f50000e3e7c0abe6a7418294408c5197910bbfd3
:10f510004ae1bf0c53786baa3a696180f088adea82
:10f520008e1a1c0543c1753c043097a0ce60534d24
:10f5300067eea9a6f630eb82e661085eaea805cbc1
:10f540009c83155781b1dd8e4d208fafc9b5a6e2e2
:10f5500006f3f013cdf4b199432c63c2ab4dd883bd
:10f560005e0e469a4e642f0d649657ed52be27d814
:10f5700040fdd00bc9de4d61a8816405e85ae8b5ad
:10f58000d8f9595cd541485a127e7d7937eb7ce138
:10f59000360e5eec4496cc82989a1563ea5c17e5c9
:10f5a000c20391927ca770373301eb07ebfbdf6c52
:10f5b000f52e27fefc469e9056d7459245a245293a
:10f5c000226ffd1b9094816920a212696ed7692673
:10f5d000d09d0a5a144de94e4cb5de8194d9dfe82e
:10f5e000a0d1ef344650a8bece824b9c2f327f97dd
:10f5f00012d4697e9644d7f197f65898a1d03af282
:10f6000035ecfbcb48c0ca35d09235e89b987e726a
:10f610000142cf340b30bdf350a17e1536b7317e99
:10f62000e1176c7811de73d34f4a4d00575fcbd78b
:10f63000ec7d9872cfcd07edcf10bf8fafda22559a
:10f64000e63becb00748ac329826458c9061a0ae02
:10f65000693748fec53e7aa01dcbdad2ebdd7eb31a
:10f66000b691cbe1928612465ec9003d39d786af8e
:10f670000b2229e73aceebcd93af5eee849da1f845
:10f6800055e616a8458fc454c79204e0f158efbb65
:10f690007ebb9e79af0ca26074069250ca98b503e7
:10f6a000e7115d6b20c238de7d8c2b8e3bc14a2d6d
:10f6b000f74e039752eb4a26e798f7cc5d07f6b171
:10f6c00074b29a7ad1c71bd32706c56388a50c1fcd
:10f6d0003d7a6f9756a41b48a1660a86739300bfb4
:10f6e0008bb2d82b9ab4cd9dd22cbbc95bbaa9d50d
:10f6f00075a1befb7fad268399a1db5a23859afcb9
:10f700000f506cf64f4f4cb5c92565bc029d012ebc
:10f710009ff5ef29c59792afb4fd18cc1b4042fc72
:10f720000f61f108ed84a98f6760123a133fa2b60a
:10f7300028a5f0f71ed3a990b1eb73b26db83ffdc9
:10f74000f44bd1c2b4b13a197d26dc4049ef8a703e
:10f75000e28cd1bb005a744d58f2801f1c16c54173
:10f76000e0e8168fecde402ad9f28d60dc18c08c00
:10f7700029bc596f3ed2724c1d3406f18f5ec92be5
:10f78000f8af8f45ab286ad753dcfdf7a1b3b804b7
:10f79000f07fa698e79174363c72520553b1df7a38
:10f7a000ab923f53c0a414a99a2a857b206741c716
:10f7b000683000f9d333a2ffc623b0e5631e3ac90f
:10f7c00091e221856b1d0d7d039c84f6357ca100a3
:10f7d00051718f791313a158746171a5d2ce5f90c6
:10f7e00009322162a5d22d813c8ab358cbe700258e
:10f7f00004d4fb1e307e7a6b3a267ef3ec547fc62f
:10f80000de18e1b5716ced7acdf1bee7b7d7cc82e9
:10f81000eadfbc518ab752c3a28e2a3dada4d920db
:10f82000e1d3cbb51fc90dda06e703336e70de05f1
:10f83000971f13164c55f672aa13a3d1e4f2eac42b
:10f8400053f32f008d619562165f8d846afdd1356b
:10f850008fb95d3ebe9a1dbfa505f38c0f314616cc
:10f86000f6ccb0ddc7549c26df324d744c8bae20f5
:10f87000b0c4b3d0762e1c699ec17f2bdd90d357c8
:10f88000ae4a113acd5266679cc9fca0f5ad83c85b
:10f890001a8bbb0a171ac7a7eb6a7bf9e7db89311a
:10f8a000bafcf32a1df97a033cc1de27f75018543d
:10f8b000a9ee4f776fa30c019f84ec22ef069e28e0
:10f8c000fc2d6af418f85691d0b95964ca55a5565a
:10f8d000cf8594cf3e484f9c50c73ec6bccc8033aa
:10f8e000cc42619c86dedfc62a85474ae3f5635930
:10f8f000bc13df3c4ec3f0dae909395473f4197fc5
:10f90000c5368e37a8cba2ce50e22139163015105d
:10f9100064ef6f41e433b6675ad98e900a2ebabfae
:10f920009461d606ba1313aaf7ee0efdb789060a3c
:10f93000c9a54cff0bbb63ab2a26fa98884962fe27
:10f94000bbfab5386e75869b240b6e688cf94ca398
:10f95000b84db7e23abf3cdb42e58b202a894bd356
:10f9600083eb4d980eec9820d022ff852100f18585
:10f97000809396268b430aa1aee3c0923cebcb84e6
:10f98000a81e5f6457e76a05795bc37167b89a1b65
:10f99000c8ada6e4621d55932410536e2ce89c4715
:10f9a0001e9cbe56382c17ef4f562260fcca9b8413
:10f9b000a4ef286d8eb2aad6bd904c6f714eb539aa
:10f9c0003ea55a3a164849f7f7564fbe9ec8b66a42
:10f9d000e2a9b31cd6db7ae5c5c5346a7da1c0ad0a
:10f9e000065c296ef90822e16db6956d0cec1f34aa
:10f9f000845df7e3c95be8a9fadf4e37504209118d
:10fa00007bbc80d1e65b0171d1c2072b609f44d4df
:10fa1000e552b060d164160b9b8fea9f8f6eb55d87
:10fa2000998fecbed770e873151d1bb4b8a80958a0
:10fa3000ab284be16551de6673547f1368310ef8d5
:10fa40005263c251c2f1abb280c086f85d0c811e18
:10fa5000c726a4349592cda76429c3ca93ab039655
:10fa6000c19d9378130b663ca6837aafb078274f7d
:10fa7000a7bed0af4e2e567711e561d323b10a1938
:10fa80009664ac885b94ba1cb71b920f83fdf54e4d
:10fa900077fc80735aaaa529c2af9d49464ceb70ea
:10faa0008e38131545052f4a445f4da45b474048e7
:10fab00093f8ba9bb73953e26383732d5a1ce1d193
:10fac000a4f511b1ec8f4879cd8588e334838debb3
:10fad00023a2a4c16a370587e790a0fac242443f37
:10fae000a1aa8b1d51a22884c47022ed68a79d8411
:10faf000a256522b813c36c4a55e19ec6ecac527ae
:10fb00003aebe7f84475f596eb465b5eb70ece56da
:10fb1000890f05abf84d0222b34c9aaf46e08e2f09
:10fb2000d5d967d2bff2c3abf91eff476cd02152c3
:10fb3000b6fd92cacd44ad10dbb579a00d0c8bd6c5
:10fb400016fc2dab59d3ac30d49695d168aea57bbd
:10fb500056a11abde5bacd758201c8ba566daca6dc
:10fb60005c497a3589b35fb33172cf487798e671d3
:10fb7000776dc35380e9d112c6ba2e35ac05617ecc
:10fb80001fd28cec84e7a1a8f95c3b2f5a8a278c02
:10fb900054dc07c4b1edbcbb2c75196949d84f4e74
:10fba00028ecd5e1f96e1530e5ce38a590cb79c8b3
:10fbb0001b707c0c3e3f1649818549ba278c1bb6c9
:10fbc000c4cc497f4756a9684fdfa60e99d6b66dbb
:10fbd000387f157988189f0459e5deb62688ce212e
:10fbe000cbc8d689522d7eef119c63036170c8b4d7
:10fbf0001c4fcf72e556e380a66fdd501f761c7355
:10fc0000adfc4116644f3946443b805151e330ec22
:10fc1000b61344cc9896d10e99c1f95f128ecf6479
:10fc2000db00e7518c238dfed839d987f2d4d7fb7e
:10fc300032bdb1179091cc55ab3b344112d99df1f7
:10fc40005450777c7b059e8fccec359b55c68786c0
:10fc5000b92563ba03a161310a95a6f87762656890
:10fc60007fbce096edf83e90ba0fc803511c989205
:10fc700058b12ebba3fe7bb16b40cfff8d16344b2a
:10fc8000dd1992274db03936f96a1388bc904ec2ff
:10fc900003a2fbc4c091fc07b4dd7e9b4d11bb6881
:10fca0002a311b37611eea616c067982a9ca755e2a
:10fcb0001ae3b7cf194420a2a2eab735167c5a300e
:10fcc0006646243134d9110032e56e4e4b7feafc92
:10fcd0000aacc768fb97114be5bda5f656db022fb2
:10fce00064132fe459d7b7e17805c77f19232a1980
:10fcf0009bc6875259d1b0c3b6f265e1fedf2f89aa
:10fd000014b3f7a07f3ce3f9a6d01fe960f40fd647
:10fd10004a63cf57fbff098b44d5911b71c6d1d9dc
:10fd2000fb2e9698da885161f2cfbfc9f0726e9db2
:10fd300047f7432c42889e8fe8e60e743c1fe0860e
:10fd400086982bb74b442ae44d0952e6b2f3af4ce8
:10fd50008a54618b0c4026f18f75e70ccb293a7bd6
:10fd6000368e7664ab56d67d2976dd47e06e2e91d1
:10fd7000740d3cc5ddc4d26c2a41558f3bb656bad2
:10fd8000d47064e39afd21ebe0cb3ad59cfd4b05a2
:10fd90008950c6a34c13e60b233c62b22f4ee58577
:10fda000976e844fbdfd2b2672cd84fbb880d4f0b6
:10fdb000b032ac2b9b5d7d8b1dd0609262ed3ee03e
:10fdc000c918d499faff9358dd7a1f5e806315dc59
:10fdd00041941bdc0501de90791e103446cc81c6af
:10fde000372bcb3ea7c3a814bb8ee1054de1c33e24
:10fdf000591469f2acef1371cac1fc7957e4e6dd1e
:10fe0000083d525c9a6173fb3d6f95579027b15d39
:10fe1000c74cdef422e231689bc73237c2d14718a3
:10fe200013f70f892317119f625122d774e249f10a
:10fe3000e30847aa50268fc3cf21fa364a38d69115
:10fe400097ad9e0e3d567385fc196930914edac40c
:10fe5000ce70b9e5a89dec8fe79238011c6703ae20
:10fe6000bc21f1ea7a7a31d66ca0d1939cd8d4ca5d
:10fe7000392f70b87142c721d03f67f9d6c9625b8c
:10fe8000986e096d4ba3461c9bb5cb40063f30b323
:10fe900031bacd433cd269a52d9933ab57afd8b514
:10fea0002f35465f71bbb5a16d427681abe6f0435d
:10feb00011aa8fa476b7212abc58dda41271ffc005
:10fec000cc154d4f1014f95c6c8ec928f23c366687
:10fed0002d329e2a0ebf656285a1b7b1bbb17ec52a
:10fee000581562599c184ff6c470aaaddec9881522
:10fef0005c319be5e8604c37b3ab9cf570652a7dbf
:10ff0000843a6d4b0638fe56beac934e98227971fa
:10ff100070f7f7fa41e454b083d5672fa11c660e41
:10ff2000e2227f0670a55d1e698d5b95714c6adccf
:10ff3000d8a68ff8d487ac41386fb5c5b77f73bbef
:10ff4000ffdeb9dda3a6feec9bf7464bdf80b07366
:10ff50000e67f0e2943b0a18542bfe83e8d6409ccf
:10ff6000e5d07e53bd1af802ac5b245a8e508271e4
:10ff7000398924158ea51a4ab0dd4e207fa9d01be1
:10ff8000ca943dbe831c0df0bd8c99b12507a2b962
:10ff900090faa7b9ce262fa1de45dc23b71320d1d6
:10ffa00013b2d28968c777f920ecacb1fc670105c0
:10ffb0001cbf0e25778db9777e98fc5a4c2797a0e9
:10ffc000c558982049897d130c1e27433f589f3af6
:10ffd0001378d91abf7a7d29b90d4c63c1ce24dcc0
:10ffe000420c1d2491efce8797ade08a0b0f96044b
:10fff0005a50663bc4dd9cd02cc942a3bdf2349b51
:02000004000ded
:1000000095a9cab55dc57699805e8714ffc5939999
:10001000c928c88b056b605f3eee8c022b98aa61e5
:10002000212f7054eaf72090aa08201aeb622fb112
:10003000ee47f9d8e6f27c1596081a615b113a8210
:100040003e2a392e46a792b89a22657bc9bf5a6dbf
:10005000cc9a338739a0ec76c542adfbb6ec18528a
:10006000a253f59a1ffa3e73fd78df3916d986b789
:1000700095bb5fbdc68c240356b05fbfdcaea0d776
:10008000fd69e519608d91c56669388776bbe0f634
:100090009222b5fe96482232e33c21b7a724831e64
:1000a000a0dfad6c53c2cd2e0665efe797b4980282
:1000b000b40fa2c1f523a7d3f043ce857f7a5205b2
:1000c000a46dbaf649434f5118c1affafdb59ce78c
:1000d0009fc5c592b679b186731136c84ee9fbbe8d
:1000e000b0f91f33e3dd8194c8587665b6efef0ca5
:1000f000a3d0206873b2960c51ad2d50bb3da383a5
:10010000ed2a638a9f501787442312a031149eafb3
:1001100090f8407e98fe20df2fe4505de542b80560
:100120000d2554d1ee434a52f56e39a80572633f4e
:10013000036ce4ac5b88a2a4a022b0fe8a134eb389
:10014000bf229e7b44f9a8af8071d3223e5eff5848
:1001500044a6066b9c3d43d157fe90162e25338c4a
:1001600092e1aec4891e16ab4ac0d0c56a4986cd9d
:10017000a540e8f73fd8393550fcc5af9551fefd95
:1001800056ef5008138e71e114fca248e1c0abf9a0
:10019000d6075eee19670a8bb82f8048fa25723ea3
:1001a00083beaa7b83d0a70bf8ef11bef595bcce1a
:1001b00092a3680cb40f4e61cb11bb018a6f87a666
:1001c00047edd52248acf6d6855255f310b6c63d5c
:1001d000c45cfa449f76a06bf87db34c284abfde1e
:1001e0008790c5337013b5fea93e62249e4f90a739
:1001f00086e9ecd2e242b24888e68ec7ad948479b3
:1002000062b132f292562b7850540ae814d7352353
:100210002dca3b11f38ad920b0cb7993a5dfda53ed
:100220001266c1f44052a032575533f4ee0ed9fd98
:100230003c618e6c670dd1cc9acab68cf53304f84c
:1002400030a3c7af084dc2fb3952aa538fcf6b4cb6
:1002500052bc4c9fe8eb142606182b54512e5ce739
:10026000c258acc6091a277e85f55dfca1d5a686c5
:1002700054aee936a5c215416174a6d18dda7c4c25
:100280002eb18a2133173a7c84119a6d0ae51fe05a
:10029000d986942ba268c4eb7ebe2794302d7a9623
:1002a00094110ced4a428942257c721778f6feb50e
:1002b00003e2881302521b66d3cb431cfb682a5708
:1002c00089e9470589cb9614180d01053fe6d9f554
:1002d0009af61668208468702f802464be7941a93c
:1002e000731246016f891d79668610168cbad3c4c5
:1002f0003b7fecce871e945f122af27252bd569b52
:10030000838d48f5d3764647f4c0e71d37f6a14ff5
:100310009aafcfd79f455766da017c9ce94dd2c68c
:100320000ef2c8f437f5cb0f447896a6e2057e802e
:10033000be023f25538d433721b943e77431436ce7
:10034000a3a7074fe321c75ed8f2523d2545bbc79f
:100350002155b37bc7676248101d46c4a70178c208
:1003600056dd7683b225e5cf12ca81e666dc47d139
:100370009ad4b09a20f3ab9c757c26c74fe8c9ace1
:1003800050a2cf03839acb9d101f087369d856bf24
:1003900063c39b932ac4b429abd047615299e95ee9
:1003a000fa0acaaa3e0f91c1817d639dacd29767bc
:1003b0000578cf6e7ebcfe0a3e90dd74dc0ac0d8a4
:1003c0000a8713351f7cc346737e7239a4e7336cea
:1003d00000bf0903442b07678a914bfecbc6f39cf1
:1003e000a759c3882ef1cd35e47567ed03bcd2ec77
:1003f00058574517bb326587ed50822965cbdbd155
:100400004188ee64e30704972612cdca4403a7a2ed
:10041000deaf428688f566b8c9c272c3e225f0b382
:100420000fda7bba38f50a3a6336f26d147784b77f
:100430004012f7cac5e6ebbb816cb3783c40222b77
:10044000784b1861e2db9cd6a938ac2d4fa62aafb9
:10045000abeba4c8c1dd04d6c9638a07288af53886
:1004600007d77cb3d9a706fed5016111d3f4e446c2
:1004700039d11ac1f7911097293c0f35f9881f75aa
:100480009d4caa8aa90ebabb341cc3db0f74febcf8
:10049000c8252495293ec06b538be76e496dc13b3f
:1004a000d31ff0d765428f28bd0b134df0e7aea2e6
:1004b00088a4a38712774d4c4d872625cd5d6a9e73
:1004c0009ee581a8b4e91e107540972a04de63b149
:1004d000cb4caf656dd09c78fd73a4f01406db9b0c
:1004e000aa9ee5db3fea6f457c42d3f9a8e998beb6
:1004f000c4b63f0640e179e5d5dc065a4dcae6f0c0
:10050000028ada767dbbe48ffe8965cfee771e6abc
:10051000d709ed225ff760d786c442ea6380a191d4
:1005200009622a44e69bd1f4af217fa84064a7a2c8
:100530005de4c1b6eef94c1f26a7729737d3dccc29
:10054000be274f8352d3ac4a1eb143918636927e6a
:1005500002bb790b45422995d864f35520551cb64a
:100560005eb63d5d6e2d87ae3de30f7b3e2ce64ec5
:10057000c97ad761100daec1089df26d9e0e4cff79
:10058000e723cb2a097d358ea86a63c24172ade2aa
:10059000d4e4357084496f6a951b9ac5bb416db32d
:1005a0006590993888f22cb060ddabe51385a631f3
:1005b0002d945ac8ac23741284453ea5d3774fefcf
:1005c000f16b0a7c146755ddf03a9242a09f045308
:1005d0005134ee684d724d56f1831484e07fca9217
:1005e000c66d5d563d25409ca80e4866444a8c1653
:1005f0001a0cf74b6c493438457a0872c3c486b775
:100600003453e046d56659eae5a38330a9dc29686e
:10061000a9635496083d973eadf99451f6158eb6f0
:1006200071b5ef6118ebd9d9122518d8121580c011
:100630007f87af5629a3a14d51b539249bf0d3989c
:100640004b00c995e0db87fa6e8f07e13e013f4022
:10065000973e9b481495c2c2685b7aa76a09db1d66
:10066000cedb94c321d74d2b9914117230b38bbfbd
:10067000fc065f54a1eabc46abedcadc13bfa06622
:10068000250efeef69476d7e27ad7b0a6117c2bd5f
:10069000edb2fb3fb081aeba5121c6c95abaf35c84
:1006a0003387bd6a7ff8f169fe631bb4e8b4a753d2
:1006b0000d4a8b858eacdbcc76b617d20651e6a7f9
:1006c00093e964df21440be10c2475f72a8a6cee70
:1006d00051c303bb23279dd80b5704a6445dd9649f
:1006e00038aa122a7fe8db4c8265b7b54e0f230c7f
:1006f000516c62afbf1d6a2d0940d95a6ce4661c6b
:10070000fc6fd9be51e89a6ec74c1f355269121c56
:1007100088ed75f5e227d78cd0d876326e2047fa6f
:100720005e322bd77d51b161c650b1c51da1712d6f
:1007300012c04095a53e59a9d9a1ff158d294c039a
:1007400068af95b2487e14d3e9fad957f3ef58a9a8
:10075000ca17ee9054a6e0bcdef8bfa60d13351ef6
:10076000413b8714fdecadde988251846582d2391d
:1007700019336f713461fabb9df97c99fcb0d3bf1a
:100780003530e54b77efa7409fdb9ac26c8c486e03
:10079000b6874b8aa0e389fc5a43fa4cbbcf526d13
:1007a0007b294c6b716334b4ae1f30a987c9b18efd
:1007b000a23f19f851299c2da8bfd63afa560c69c8
:1007c00056b7f1add312db920cc2634633bd5c2148
:1007d0002b28849a49be962fb438f3c6f54677f095
:1007e00016bf5df7c40510c9894e607a3b60eabd4b
:1007f000b9be5f4f9b9379edab39327df8f5b6da30
:10080000c6f7f45b0437f862f89490ac6f2db0fc37
:10081000e190ef1c50f24ae7ab9369efefc2bc4b9b
:10082000ffeb2d36e733789c0be619404e907cb7f2
:1008300012d21fba4184303ef42c318fecdedd74cd
:10084000d16d6acb430bf61051788a6ea2d5f5367e
:10085000a4c4bf85a614595df17e40670b17c5b9c6
:100860007dcb7df3961fa17b66e2b540d157bf7665
:100870009dfc7fec75a23093c0b9064ad40d253992
:100880006fee0b1cd58413c1e9a1c934a702b5874b
:10089000adf1155fe2fd54a8b06d91c5f277fbbed6
:1008a0008215fe1a85c9afe8e076a1c1e33965403b
:1008b00072efdcca8bdc526057daa7f3b1312ed26b
:1008c0002b940540756afb38814141bb091a5f13bf
:1008d00066e01bc6176b74649a090ecabf56a6530e
:1008e00081ce033388ba680bd74c9454382017f361
:1008f00027ed93c3743e2899c3787aecb83e18a5c7
:100900009f37826a53084fa9ee9ad5888dcf73fc22
:10091000ebe3092346aad6e2edf97f821835c397a7
:10092000e57b9210daf195a5ef3a70bcab02fc2f93
:10093000dbd98fffeed2b0b742cec4aef8c1244ea1
:100940004e54140d66b1f05a2c506cf8979f2f211d
:10095000400f4adc461bda6e03d16d3f2a0968afaf
:10096000e125f7dc68847bf159f975338abedb1821
:10097000d27c6b69333bc555cb736e9923a57d7dc6
:10098000439f38354c0e436e4fafda14c5549e79f1
:100990007e9d5630bc6a62619076c7668ac9f1381e
:1009a000730578bc115b0d4bcae6facae66a22876a
:1009b0000e2e12dfbd9e0516413a1e5634d0c45687
:1009c00090e23dc9b37ddaaeaeb229814c60d0d0a1
:1009d0008f4fa1435d91befb8600b1b6fc7d0667db
:1009e0001b06cda1f58cb5762c3c1594b4ab550106
:1009f000dff02772d0d1baadf2a4f6c280cc442980
:100a0000d308dbfec0e78b8535864163d5fc1780b4
:100a1000989c7d07a2ef20dd2ee53312a6193b84ba
:100a2000b1e510d06d880ed531600a1239b429caeb
:100a300094467da6fa1c0e1263a47ee3ca0aa78917
:100a4000436f5bc103f58dbe7a731b2b1b7656a1da
:100a5000f722243b04171d62346a6a0e0e8d2cb8ef
:100a60001dbf26d59bcd250ca13c0f9260b6958c61
:100a70004ec09fb3467ca790d5acfc261b2579b70a
:100a8000df4484c36b22194662f30771abf6f5b4f9
:100a90007c82b49b818fda32353dd78faea3e2746e
:100aa000664fc44801829b8a6362197dfd17d3f1aa
:100ab00045cdc7ffbbb6bba9eca36cd80076b1cac5
:100ac000130141497cdf3f0d173046aecdb267eed2
:100ad000a91cf2992283ec70806f79b5ded4fc0eec
:100ae000120a312bf7bae597e7f5fd8f59dafce4e6
:100af00077eba3d67e064fc7f2942a818f16e510b6
:100b000034535c792a3154d08ec906ba1d64b85c5e
:100b1000caeebe4e37081e90860297e68182c561f6
:100b20007eab750f31465b82ccdc4feebf3c5ab0da
:100b30008c06f071e897db4a651689208864e42406
:100b400099349dde760bc5db6fafc446ec50517e09
:100b5000c153d3a41fd5e562f1c3916630645771c8
:100b60000be326bdd92d3c2a955d15590c9260b436
:100b700081b51618c9be2b817dc643cb0c5ea9eb8f
:100b8000580ae15909453bffa9d4e238f61edc7347
:100b900093fde2885b2b2f8a14f7e0d023aa177904
:100ba00010265f3e129d9e2713a438c4f527e175d9
:100bb0000df50af23ac160a95345e2b5ad4ca2ca9f
:100bc0001d83966afbed13f34a2c10200f7467e027
:100bd0002b72290bf5f479be47bb35976c4c6f9f90
:100be00034bc7654c645658f7eece0ac786a950fd0
:100bf000d78d8bac85a75a2e26f184cdf0b764a390
:100c000031e200f31946baea32b2a05a3284984768
:100c10007191d7adccdae9a06ef39e3e0a8251ed18
:100c200007178277fffa1cac7f1f992c66695473f3
:100c30003675a60e00cbd8aa52117a44290969ce7e
:100c40005860bd753dee346ab0c1ec4df6cb255110
:100c50007c897592fa32a31f9e8656f746498761b2
:100c6000347f814f544e6dd334837eb3ea3e679c0c
:100c700032800c73356f36d57b1e4ca0f8d7875366
:100c800035afae777976f58ff1e3663198826c7087
:100c9000b39029d93abd87bb43d8b87b4df59ba902
:100ca000096d6c97be88b58016b4e0c898544301ae
:100cb00069da7039cc77cd5b4c6ba1c080dd72c531
:100cc000319826f217a83e8ba8f09f967270ff60ad
:100cd000ae9162aa3276b646369c9d285b4bdfee1b
:100ce00084e0b2a5a225df30b400775667fa2d253f
:100cf000aea694eab801fd6575d5458df9b6c50770
:100d0000384d3a367492f9ee4495d9b07ed22e2100
:100d1000c2ad8e06ea84980fc171d651e5c7dc21b9
:100d2000e4511b3239f0b8a372b499bf38e1a9c8b5
:100d30001c1381e58cf583d8f5a4961a1ddc2bb223
:100d40001f11dbf13cfabeda9d7c671c1763a12cf6
:100d50005cf1aed86588a8dbca632bbd3c17425551
:100d600091f61031c987806d4eae9f6b8742140695
:100d700004218c71f579e6ede5ce6e1489c4e06549
:100d8000685b1d58039e0ed2f1bf5867a4f8e59f1b
:100d900026c1d3374e08ac8df58d5fd374a8478339
:100da000f7cd89f2ff59155f2c7dab9518c6d2aff0
:100db000a2093cf7680fb0e32b282ec0b8478596f0
:100dc000746d43292c8a4abad0f6aab74c42cf7523
:100dd000de6f4492b9eb64c24aac1d23cb36160dcc
:100de00003245a1a707fdab65ac97170c9472a2d7e
:100df0002dc7002498415256955e6f5d86f809769e
:100e00002d3c05dd20e6c1905d3e16e56ff8a8afec
:100e10007dd3519ad04fa4aa756cea6233e2cef921
:100e2000c79214df61c9d55ac5bb4c0cd94e458c4d
:100e3000839707052bee07e62c42abd1e53f291e31
:100e40009d6d703b9287a0fbc959c8af3be9ce06a8
:100e5000a57af21e4c9c68f2f1515de63e60a29dbf
:100e60001296a4d0b63faeaf9671023645c4179520
:100e700072d925001532c0cc79219dbf2fbcdfaac5
:100e8000e828b7300753c34b62237621a8488c5615
:100e90006b1f94838464b4117d98b840b4d0a17062
:100ea0006c70a807c28435560742c6a4bf6c982749
:100eb000bfce0f592999149c65ceaea249deef2a08
:100ec00092426c1ba123f3704be97ec769e5ecf1fc
:100ed0003c76d01e9916d71e3e003db1d09c74eed4
:100ee000952f14e4eac405bf4c1d39335173e9ea68
:100ef0009bdfdc5fe31481a78317fae133a4d85c9e
:100f0000b04e9dfb74ae76a813d5c92c6d26b67372
:100f10002387be6293682a8f681894c030a27da68a
:100f20005186427ead401cda1d3c2b597cf7d042e5
:100f300071eb5f987d0b9d11106fa18dfea4ac6ebf
:100f40009a80d8833175884bf81d97aa1f6b664b22
:100f5000de044f54bb2eb1dd0eb706698e8dd8b7b7
:100f6000da66e3315e96ea9e0c5a2e2b05275b94d7
:100f7000807f4e390790eaaee458524208541f076a
:100f80008ce7dd94bdfecad2a21ebf9afd3da3b977
:100f90001f1507203ee4b569f976df89d239bdd641
:100fa000742dcc623cb54a9ca7da5825c9a7b2d7a4
:100fb0004e9309b907b56041e77655102bfa052124
:100fc00069f1078e00e0f66ce0dd0bf944800e7fde
:100fd000474de6fc6a68f64aca89a5daf01bcc459b
:100fe000545ec93ef880e36d3cbeab7b1f7f335b34
:100ff000ce984d2fe08acd8c128474a3ff1c5d6fb8
:10100000161181a5ed94d4f384dcd7024ec36fe0b2
:1010100051b7aba64758494e066697d50834224bc0
:10102000d46f9f17b313ad301008886d20c1daa0bc
:10103000f70863b26faa064c4d38437226eaa247fe
:10104000188a15eaa7d5146f80e9731ef174416000
:101050000960e4e35fb08c26e84a001324b3a25190
:10106000b38cafef4a428919a5ee6c5b699c913c49
:10107000ec05b4792830bece94b5fcd4399601265f
:1010800034265122839a6c6713916df538a07d0c3c
:1010900034dedb8c947a3cacf1ca5ef95d77660194
:1010a000747da47980ad86a36b16cdb3418540884d
:1010b00065689f7c80a02c37d46824d4e430be9f20
:1010c00006d4ba6895e3d889b3a7f60ea45c6bd8aa
:1010d0008c7b3a5f858abaf77d68b6a4941714d4de
:1010e0001efbaa6d4ce968b7cbcb3dbabb533ec5de
:1010f0005c55c2788f9f4e5e5db1f8100122c646e6
:101100004ada7a0b672372da1a99eb36d10def2d92
:1011100028a487eab00edc0d7e7974d97dc7250e30
:10112000504993b36713ca4ad5b8123dd07dcf4218
:1011300032efaec4e9c2fab7f4ad09dffee2f01f48
:1011400006fb9d1b8350e8ff3683789d5bd4a4c7c4
:101150003078b8d338cfc9d0c3b095ace36cc5ae46
:101160003fe3b72d4622eb2c687191c2020b6aef68
:10117000cbfca384e0b49162c89d4d129820d8683e
:101180000f933d07bd2d8d39ecef1462a38f6e9a3e
:101190003e4cb38761c4cf485aa51258ad66a457d8
:1011a000c5a4b90bc33c9e9e8221044fcc7a524cfd
:1011b000dd5024f00de1136d7628ad1499c56463fc
:1011c0007e7a887caed7ea970e38ef364aec034732
:1011d000497e724681fd9472650b1b5312adc4f8b3
:1011e0000a4996468044924bc956118b9814a06fb9
:1011f0002894410f4c61f2b01853a1e76220bf253b
:10120000aefa0e2ffeae306ebdc7a44a482d70cd8b
:101210000c5441fc974d6b7a4a92c11e26105f0018
:10122000213b8030cd7d11010ce1117874c0e3b613
:10123000faeefbdd9d3bd7de738d7ec53c63a15787
:10124000c7a846b8d798048a53d9f94c0f6af86ae8
:101250000583cc402d767a9e1f0949deec0ba85cf5
:10126000e3869582e76a35c3c532a9107f92bd41f6
:10127000b8b45289fcc4d0cc0df72b7f36fd4a346c
:101280003703942d3693152703435bf3cb9faee3cf
:101290008b7ba83ce73393a595061194cf8c2e1d2c
:1012a000c33055987a660f99dc922f2df93b21feb9
:1012b000aee0ff6d0ce3b620a2567be58f75b977e3
:1012c00033608bbb1554e5b0b3f01313d59b76197f
:1012d0004fb828088a6138b2e022c118a239a87232
:1012e0006f5e22f8e5c9f181645093b8a9051f8c9f
:1012f0004d0a84b706df4973c46b6f9a69eee7bc89
:10130000461c78129f3ad022a986df680d0f7820fc
:10131000b7bc4d8584ae7e68a10a79dc6b7b89b051
:10132000f6de004587de3ea8fd7cddfa25be24e121
:1013300061ead038b11e53d6fc1a7100714e0c7799
:101340005f1a8b566ac4bfd2a7674342cb885ced55
:10135000664ae4d2c34bba91d78a902489dc2a78b2
:10136000408aa4ffdbbdb2f820d98c8f67c3712ef1
:101370008570db24f9e582292c8b859f183a53333d
:10138000762967988c5e673592ecec8dbd3eac702b
:1013900097d2f3685ba8d8d4ed1741c50a7372756c
:1013a0004def00c11dc0d7356b29252e3960b5e141
:1013b000368f67fe02ad99a1781546e83d871690f5
:1013c000d84b1b6904d38c7bd0bd50b7156f2ab4a2
:1013d000bd4dc7bb49a4777c85b6f8ea5dc0e987f7
:1013e000949a0bfceb03ef46fdafd4188fe56fdf4b
:1013f000ac6117b0ffc2009d68b7895b9bd021e24a
:10140000e12e5cf968c6fdc601e1b86aa8e5bc2416
:101410001bb2b847446018246da433968b5da58e2b
:1014200076405830d3d1210576c279757dda3b00fc
:101430000b1d2e959e5d47cd8ea52c1adff934a984
:10144000d6abf7dc6eb22ecf5c9bc46178051d3243
:101450008145c105ac4f9f346a374f3975d223207f
:10146000f28fcb97f717846dd89232004974c90573
:10147000c49aba512970bc4f54edee165d1585160d
:1014800023166f09f8335cc0c50c802c7ffaf70275
:10149000cfe09a2454f2b6907458a060fe2b7342a9
:1014a0008d9d48ca4e2909e469e2e2e9fe1f9a527d
:1014b000fb0972f949228ea7cc28739ebf0a084bfc
:1014c0008ae241873477098773980229cbe2edc617
:1014d0005e2e7c62f2e7f135831e40a783b3f418d9
:1014e0004a695e122f7201262ae1a75d9e500427e9
:1014f0004bc74daa9bad6036f67604f4e8596cf9fb
:101500005d3bb107836d391812e12c85b80e193a8d
:10151000e8336d166ea31f52498b0b5748aa57b973
:101520007cb7a6632ac479e23e7f3df75fac2a937d
:101530000d57fdf786c61841c51ea1452dd94d236f
:101540007f57e4a7728fcb7be3165eb27d8817bd11
:10155000200c2ac83205f2f478ebfbc2fea054c777
:10156000b093e377eb45e73fa8c95ecd8e45ef0624
:1015700028d6587e4542d276814acd0d456acb4e5b
:1015800027e3dc42986f3bd1bd2dd8bddb98ae413f
:10159000f9f4e4672ffb9fb1fe453a2aefc8418476
:1015a000af425e3dc4cfd2a3c44efc38ff7ead88af
:1015b0005d959028729dcc5974faf04f7c5731603c
:1015c000ac1791b9baf2ee25ee9048e820dc52341f
:1015d0009723f5678257139de93165c118c57f10c0
:1015e0006c97d5043da72130e3e77939a035ead4db
:1015f00053284e3d1f0acec0b2f95fa705b89732f7
:1016000056abfd9b3110cd35a6839c9895fd2805e2
:10161000b3a71f8896e9f308415364e76eddb85b12
:10162000adbde81e68eb899629d6e14fa85c7b1218
:10163000c4c7017b157b4f60761947ad2eaae170b8
:10164000dedd980161ea004b9005610631d61c9df4
:10165000ec10eaf6242676cfdedcc88292f25f63d5
:101660007d8ae9721c11d1c50ac55a515313b96c50
:10167000ef355ac44a716416acbe89bc109afa267a
:101680007177793dea61c14414a5c2e390260c0f3d
:101690001cc9c9413be1fc30900a8799a33eadfad1
:1016a0006d16dd613b6939b5dea5f2872782da3335
:1016b000fefbfdaa5a4fc3a4dd90e480cbe71313d1
:1016c00079d58ed4de578987e6a3e058132d64b50b
:1016d000c5daa2cd4975cdd149ae80d606af66c177
:1016e000a17176b81bfc8e356a8921c37374dc54f2
:1016f000a5e77131f62f04c46621198798ea668b35
:101700004a805b988faf8c0f5eecb7f880e76e8ee7
:10171000d21f52077694bfea55efa809721493dce2
:1017200022211aefd168aa9e15b2fd12b73902f62e
:10173000b2360f5c301e87383b04d1a99cf1c2c77a
:1017400063d4b44e8c36f726b8b2054e0095ac94ef
:101750001e6d1830ac264836aff31e5b886aa8971a
:101760003f73894e0d9c4800459ccec3795814f4b4
:101770001440b3272edde8a7f89bfe8d1e73d347d8
:10178000091b00cd6115a0f0e62008d237f21bf945
:101790004118151736e44243927ce54ef9a31b1716
:1017a000b70266620611ff39edd610c537344371b2
:1017b00050dc239db5f35dc18d5df1f24be879e519
:1017c00008e7356ac0e3cbd8dea98303cd01c25a4e
:1017d000c419fcd29a88c26cf3d08637d976170721
:1017e000ae1435469d118fae2138862f9b74d0cb19
:1017f0001925188ac428c6c61eb57c798380e60fd1
:10180000790a209f6d0cc8fe8a5f7ea6bc64ea68d8
:101810009bd34c33ad07df7c1045de079268732203
:10182000ed318ee3bddfc949f52a93308426fdd121
:1018300050f40c411752a2b67e33996fbc1a892b13
:1018400019f6996d3933a03ff8c4937bad6c163f00
:10185000ad6b5b7c540d825f6da8e94d6885b7acbc
:101860001f17ef46f80fbb0bdacb62eeb79f8bea80
:10187000e47ac010f26dbd647e62efcb54678ef1e6
:10188000e2f81377ab0f071617b05e924094feb3e1
:10189000116fb070e90ffdc1edc390c5ac5472c2b9
