:1000000000000220AD100000D9100000D91000003F
:10001000D9100000D9100000D9100000D91000003C
:10002000D9100000D9100000D9100000D91000002C
:10003000D9100000D8100000D9100000D91000001D
:10004000C539000075500100D9100000D91000001A
:10005000194A0100E150010081500100995001004E
:1000600079500100953400006D350000CD39000055
:10007000A5150000D9100000495B0000D910000050
:10008000D9100000D9100000953500009D5B0000DC
:10009000D9100000D9100000D9100000D9100000BC
:1000A000D9100000D9100000D9100000D9100000AC
:1000B000E55001007D500100B137000025510100DD
:1000C000D91000009D020100D9100000D9100000D5
:1000D000D9100000D9100000D9100000D91000007C
:1000E000D9100000D9100000D9100000D91000006C
:1000F000D9100000D9100000D9100000D91000005C
:10010000D9100000D9100000D910000010B5054C1E
:10011000237833B9044B13B10448AFF300800123B3
:10012000237010BD9016002000000000D86A020065
:1001300008B5034B1BB103490348AFF3008008BD6A
:100140000000000094160020D86A0200154B002B16
:1001500008BF134B9D46A3F5803A00218B460F46FE
:100160001348144A121A16F0F0FA0F4B002B00D065
:1001700098470E4B002B00D0984700200021040028
:100180000D000D48002802D00C48AFF3008016F097
:1001900085FA200029000BF093FB16F059FA00BFF6
:1001A0000000080000000220000000000000000025
:1001B000901600207844002000000000000000009D
:1001C00010B50121084600F073F8124C206103219C
:1001D000012000F06DF860610421012000F068F852
:1001E000A0610121084600F035F86060032101207C
:1001F00000F030F8A0600421012000F02BF8E0604E
:10020000012304F1200204F11C01184600F0B4F8A7
:1002100010BD00BF3438002008B5034B1B7803B96C
:1002200008BDFFF7CDFFFBE7B039002008B5044B50
:100230001B7803B908BD0221002000F003F8F9E79C
:10024000B039002008B10020704708B500F0BAFCB2
:10025000002008BD70B504460A460146002000F0A3
:10026000F5F9012C11D0022C17D0002000218C00B0
:10027000850044EA90762A1846EB0103941843EB74
:100280000305200F40EA051070BDC517074B5B68DA
:10029000A0FB030103FB0511E9E7C517034BDB686E
:1002A000A0FB030103FB0511E1E700BFB03900200B
:1002B00070B504460D460A460146002000F09AFA41
:1002C00004EB84032B442A4A52F82330B3F1C04F85
:1002D0000BDDB0F1204F08D204EB84032B440E3326
:1002E00002EB83035A6801325A6004EB84032B4407
:1002F0001F4A52F82330B3F1204F0BD2B0F1C04F58
:1003000008DD04EB84032B440E3302EB83035A68AD
:10031000013A5A60164B04EB8401294443F821004A
:100320000E3103EB810100254E682A1846EBE0737D
:1003300010461946012C0DD0022C12D08C008200E0
:1003400044EA9073141843EB0105221945EB0503A9
:10035000184670BD07498C68A2FB040104FB031119
:10036000ECE704490C69A2FB040104FB0311E5E777
:10037000083B0020B03900202DE9F04F83B004463F
:100380000091019298460146002000F0A1FA8146B2
:100390002146002000F0BAFA012C30D01E4BDC6957
:1003A0001E6AA9FB04ABA0FB06674FEA8B034FEA6A
:1003B0008A0143EA9A7211EB0A0442EB0B0514EB33
:1003C000040A45EB050BB900B40041EA9675A21981
:1003D00045EB0703941843EB03054FEADA3141EA92
:1003E0004B41620C42EAC532B8F1000F0BD0B8F1B4
:1003F000010F0DD1009B1960019B1A6008E0064BAC
:100400005C699E69CDE7009BC3F80090019B186072
:1004100003B0BDE8F08F00BFB03900200C4B1A6864
:100420004FF4AC7303FB00200A4B036343630023C8
:1004300080F82A3080F82C3080F82930064A826310
:10044000C26380F82B3080F82D3080F82830704758
:10045000A83B0020B03B0020803B0020430803F075
:100460005503400020F0550040B20343DBB298082A
:1004700000F033009B0023F033035BB20343DBB295
:10048000180940EA0310C0B2704700000022072A92
:1004900018D810B405E04000C0B20132D2B2072A29
:1004A0000DD809490B7883EA00045B00DBB20B70BE
:1004B00014F0800FEFD083F007030B70EBE75DF8CB
:1004C000044B7047704700BFAC16002038B5054696
:1004D0000024064B1C7004E0285DFFF7D7FF0134B1
:1004E000E4B2032CF8D9014B187838BDAC160020C3
:1004F000184B1B68D96B9A6B91420FD01648027843
:100500000132D2B20270042A18D993F82B2001329A
:1005100083F82B20104B00221A707047002283F8BA
:100520002B200E4A9A6393F8281002F8011BDA6315
:10053000012283F82D20084B1A70704793F8283059
:100540000B70044B1B68DA6B0132DA63012283F80B
:100550002D207047A83B0020AD160020803B0020D6
:100560000B4B1B68596B1A6B914208D012F8011B98
:1005700083F829101A63012283F82A207047002289
:1005800083F82A2083F82C20024A1A635A637047A2
:10059000A83B0020B03B002008B501F0EFF808BDF3
:1005A00008B56420FFF7F8FF6420FFF7F5FF08BDEA
:1005B00010B5044602F082FE204602F078FE10BD1F
:1005C00070B504466420FFF7E7FF4FF4AC7303FBFC
:1005D00004F41C4B1B68234493F82C2002B170BD1B
:1005E0001B6B19781848FFF7E3FF0546154B1B688E
:1005F00023441A6B01321A63012283F82C2006E08F
:10060000104B1B68234493F82C30002BE7D00D4E81
:100610003368234483F82850FFF76AFF3368234484
:100620005B6B002BECD0FFF79BFF3368234493F800
:100630002A20012AE4D193F829100348FFF7B8FFD4
:100640000546DDE7A83B002000040140013A062AE8
:1006500000F2CC80DFE802F004223E5A7692AE002F
:10066000012905D002290ED0002040F31B0070475D
:100670005F4B1A684FF4AC7303FB0020D0F8F8000E
:1006800020F06040F1E75A4B1A684FF4AC7303FB5B
:100690000020D0F8280120F06040E6E7012903D0CF
:1006A00002290CD00020E0E7514B1A684FF4AC73DC
:1006B00003FB0020D0F8FC0020F06040D5E74C4B55
:1006C0001A684FF4AC7303FB0020D0F82C0120F023
:1006D0006040CAE7012903D002290CD00020C4E7FA
:1006E000434B1A684FF4AC7303FB0020D0F80001B1
:1006F00020F06040B9E73E4B1A684FF4AC7303FB3F
:100700000020D0F8300120F06040AEE7012903D08E
:1007100002290CD00020A8E7354B1A684FF4AC73BF
:1007200003FB0020D0F8040120F060409DE7304B2F
:100730001A684FF4AC7303FB0020D0F8340120F0AA
:10074000604092E7012903D002290CD000208CE7F9
:10075000274B1A684FF4AC7303FB0020D0F8080154
:1007600020F0604081E7224B1A684FF4AC7303FB22
:100770000020D0F8380120F0604076E7012903D04E
:1007800002290CD0002070E7194B1A684FF4AC73A3
:1007900003FB0020D0F80C0120F0604065E7144B0B
:1007A0001A684FF4AC7303FB0020D0F83C0120F032
:1007B00060405AE7012903D002290CD0002054E7F9
:1007C0000B4B1A684FF4AC7303FB0020D0F81001F8
:1007D00020F0604049E7064B1B684FF4AC7202FB07
:1007E0000030D0F8400120F060403EE700203CE7B8
:1007F000A83B0020013A032A66D8DFE802F0021B7A
:10080000334D012904D002290BD00020C1177047B5
:100810002E4B1A684FF4AC7303FB0020D0F8E800AD
:10082000F4E72A4B1A684FF4AC7303FB0020D0F8AE
:100830001801EBE7012903D002290AD00020E5E7DF
:10084000224B1A684FF4AC7303FB0020D0F8EC0085
:10085000DCE71E4B1A684FF4AC7303FB0020D0F8A2
:100860001C01D3E7012903D002290BD00020CDE7DA
:10087000164B1A684FF4AC7303FB0020D0F8F0005D
:100880004042C3E7114B1A684FF4AC7303FB0020DE
:10089000D0F820014042B9E7012903D002290AD04B
:1008A0000020B3E7094B1A684FF4AC7303FB002038
:1008B000D0F8F400AAE7054B1B684FF4AC7202FBBA
:1008C0000030D0F82401A1E700209FE7A83B0020DA
:1008D000012903D002290CD0002070470A4B1B6865
:1008E0004FF4AC7202FB0030D0F8D000C0F30E0021
:1008F0007047054B1B684FF4AC7202FB0030D0F818
:10090000D400C0F30E007047A83B0020012903D09B
:1009100002290BD000207047094B1B684FF4AC72C2
:1009200002FB0030D0F8D000C00B7047044B1B68AE
:100930004FF4AC7202FB0030D0F8D400C00B70470B
:10094000A83B00202DE9F04F87B080460191144666
:100950001F469DF840B028252A460021384815F04A
:10096000F4FE2A460021374815F0EFFE4046FFF717
:1009700055FD24B14FEA440A5FFA8AFA01E04FF0CC
:10098000010A0026B1462AE006AB1D1915F8080C2D
:10099000FFF764FD05F80C0C0134E4B2032CF3D925
:1009A00003A8FFF793FDFFF759FD01468DF81400EA
:1009B000254B1A68526B04981060117109F10509F2
:1009C0001A68536B053353634046FFF7F9FDBBF1DB
:1009D000010F17D04046FFF721FD0136F6B2B245B0
:1009E0001BD9FF238DF81030019B1B7833448DF801
:1009F00011303B788DF812307B788DF81330023748
:100A00000024CBE7104B1A684FF4AC7303FB0823A8
:100A100093F82B30002BF5D0DCE74046FFF7FEFCC7
:100A2000282422460021064815F08FFE2246002188
:100A3000044815F08AFE484607B0BDE8F08F00BFB5
:100A4000B03B0020803B0020A83B00202DE9F04F68
:100A500085B006460D469046994628242246002138
:100A6000554815F072FE22460021544815F06DFEDF
:100A70003046FFF7D3FC2B788DF80830FF238DF834
:100A800009308DF80A308DF80B30002409E004ABF2
:100A90001D1915F8080CFFF7E1FC05F80C0C0134E2
:100AA000E4B2032CF3D901A8FFF710FDFFF7D6FC41
:100AB00001468DF80C004FF4AC7404FB06F4404A78
:100AC000136823445B6B0298186019711368234400
:100AD0005A6B05325A633046FFF772FD00230093CC
:100AE000374B1B68234493F82B305BB9009B0133D1
:100AF0000093009BB3F5FA7FF2D93046FFF78EFCE6
:100B0000002755E03046FFF789FC0025052736E031
:100B100004AB03EB0A0B1BF8080CFFF79FFC0BF868
:100B20000C0C0AF1010A5FFA8AFABAF1030FEFD945
:100B300001A8FFF7CBFCFFF791FC01468DF80C00F4
:100B40001F4A136823445B6B0298186019710537BC
:100B50001268536B053353633046FFF731FD184B72
:100B60001B68234493F82B20002AF8D09B6B1B684A
:100B700049F825303046FFF751FC0135EDB24545C7
:100B80000BD2FF238DF808308DF809308DF80A302C
:100B90008DF80B304FF0000AC7E7282422460021C9
:100BA000054815F0D2FD22460021044815F0CDFD80
:100BB000384605B0BDE8F08FB03B0020803B0020F8
:100BC000A83B002010B584B000230393A8B90446C5
:100BD00002292AD0032912D001293AD004A92823B6
:100BE00041F8043D1C4B1A684FF4AC7303FB04231B
:100BF000903331222046FFF729FF04B010BD164B79
:100C00001A684FF4AC7303FB00239A6C22F4C00201
:100C100042F4000243F8482F04A9042241F8042DAD
:100C200001220092FFF78EFED8E70B4B1A684FF4B3
:100C3000AC7303FB00239A6C42F4C00243F8482FC4
:100C400004A9042241F8042D01220092FFF77AFE44
:100C5000C4E7FFF7A5FCC1E7A83B00202DE9F04160
:100C600014469DF8187003329A4240D80546002376
:100C700003E00131EA54013C013314B10A780A2A35
:100C8000F7D05E1C7B22EA542246A81915F039FDE4
:100C90003444661C7D232B550023AB553A2128464E
:100CA00016F04CFD044670B154B104F101083A212C
:100CB000404616F043FDE8B9012F09D0022F0FD0AE
:100CC0003046BDE8F081002FEED16FF00B06F7E75C
:100CD000641B361B32464146681C15F01DFDEFE7CC
:100CE0007D23237000236370651B6E1CE8E76FF0A3
:100CF0000A06E5E76FF00C06E2E700002DE9F04791
:100D000082B080460D46924699460C4600273E46E4
:100D100010E0204616F029FD0246CDF80080C6F509
:100D20008073214614483044FFF798FF071E0BDB01
:100D30003E446C1C45B12C21204616F0FFFC0546B4
:100D40000028E6D0021BE8E751460B4817F088FD63
:100D5000002F07DB0027B9F1000F08D1384602B099
:100D6000BDE8F0877942054816F034FBF3E7044804
:100D700016F0B8FBF2E700BFB016002040B5010046
:100D800058B50100014B1870704700BF00000020EB
:100D9000084B1B780BB90120704710B504467B2027
:100DA00016F030FB1CB12146034816F013FB01205E
:100DB00010BD00BF000000205CB501000EB410B5EE
:100DC00083B0104B1B7833B90124204603B0BDE833
:100DD000104003B07047044606AB0193232016F081
:100DE00011FB2046FFF7D4FF04460028EDD0012375
:100DF000019A05990220FFF781FF0028E5D0002421
:100E0000E3E700BF000000200FB410B582B00E4B26
:100E10001B7833B90124204602B0BDE8104004B06D
:100E2000704705AB01930020FFF7B2FF044600288E
:100E3000F1D00123019A04991846FFF75FFF0028BB
:100E4000E9D00024E7E700BF000000200EB410B591
:100E500083B00D4B1B7833B90124204603B0BDE8A5
:100E6000104003B0704706AB0193FFF791FF0446B3
:100E70000028F2D00123019A05990020FFF73EFFD8
:100E80000028EAD00024E8E7000000200FB410B5E5
:100E900082B00B4B1B7833B90124204602B0BDE869
:100EA000104004B0704703F0FF0405AA019200232C
:100EB00004991846FFF722FF0028EED00024ECE743
:100EC000000000200FB410B582B00B4B1B7833B973
:100ED0000124204602B0BDE8104004B0704703F082
:100EE000FF0405AA0192012304990020FFF706FFE1
:100EF0000028EED00024ECE7000000200CB430B550
:100F000083B0134B1B782BB9012003B0BDE83040F0
:100F100002B070470D46044607AB01937B2016F0E4
:100F200071FA1CB121460B4816F054FA0A4816F023
:100F300051FA0199069817F093FC7D2016F062FA99
:100F40002946064816F046FA054816F0CBFADBE7C4
:100F5000000000205CB5010028B5010030B501009B
:100F600058B5010006EE902AF5EEC06AF1EE10FACF
:100F70004CBF01220022002800F089802DE9F047B3
:100F80002DED028B4FFA82F80746894601329A46C8
:100F90001A44002B18BF01320132914279DBCCB2E6
:100FA000601E40B200223A54F0EE667A05E0B2EEDE
:100FB000047A67EE877A0132D2B29A42F7D31D469D
:100FC000B0EE668A0E46F5EEC06AF1EE10FA0ED467
:100FD00017EE900A14F016FE0022324B14F0B4FC07
:100FE00015F018F9002859DB023C64B21BE017EE3B
:100FF000900A14F007FE00222A4B14F0A3FC15F00F
:1010000009F94042EEE7ACF1020464B22E22FA5430
:1010100000E01C4629B90DB3A9EB0A03033B9C422F
:101020001CDB44451ADB204B83FB0023C217C2EBB9
:10103000A302114602EB82025300C21A08465FFA6D
:1010400084FC0CF1FF335BB230323A55002DE0D016
:101050009A1C52449145D6D01C46DBE700BBB5EE46
:10106000C08AF1EE10FA05D4B4F1FF3F07D1341B6A
:10107000601E0FE0631E2D223A555CB2F4E7611C3E
:10108000321B013A3944384615F046FBEFE70020A1
:1010900070470020BDEC028BBDE8F0870020F9E727
:1010A0000020F7E70000E03F676666660648804775
:1010B0000649074A074B9A42BEBF51F8040B42F853
:1010C000040BF8E7FFF742F875330000E46A02000A
:1010D000000000208C160020FEE700BF38B5044653
:1010E0000CF016FA044D0FCC0FC594E80F0085E8FC
:1010F0000F00002038BD00BFB017002047F6FF7377
:101100009A4265D0022965D870B40C46334B13F867
:101110003130012B21D0314B03EBC103586800283B
:101120005AD0B0F90030934204DBB0F90230934258
:1011300000DC13461C46C83B294A82FB0352DB17DE
:10114000A3EB22131BB2254A02EBC1014D786A1EA4
:1011500012B29A4225DB1A4623E0204B03EBC10171
:10116000C878013801E0013800B238B11B4B03EBFD
:10117000C4035B6833F910309342F4DC0130C0B231
:1011800024E003F5FA731749A1FB03139B0901320D
:1011900012B21646AA420FDA00EBC20189889942C0
:1011A0000AD300EBC2018E68B1F9063003FB046379
:1011B000002BE6DA0023E4E7013E00EBC60080885E
:1011C000984200D3184600B90120C0B270BC7047E5
:1011D000FF207047002070470020F7E7B01700207D
:1011E00067666666D34D621002295BD8314B13F8EF
:1011F0003130012B24D0002A56D070B42D4B03EB94
:10120000C1035C68002C51D0201D51D0012A28D97F
:10121000284B03EBC103DB78934226D9254B03EB24
:10122000C1014E78013EF6B20023B34220D2591CD0
:1012300030F8315091B28D421AD30133DBB2F4E76A
:101240001C4B03EBC103DB78934200D313460BB175
:10125000013BDBB2174A02EBC1014A6832F91300C5
:101260007047B4F9020070BC7047B4F90000FAE7A7
:101270004FF47A7101FB02F200EBC3035968521A72
:10128000B3F9021001EBD17302EB630393FBF1F3AB
:10129000B4F900009842E6DBB4F902009842E2DCBF
:1012A00018B2E0E704487047044870470248DAE79C
:1012B0000148D8E7B01700200080FFFF0CFEFFFFB9
:1012C00008B501F0B1FA08BD30B587B001AC254DC5
:1012D0000FCD0FC42B682380234B5B6813F4002FC2
:1012E00035D1214B9B68C3F30803B3F1FF3F01D015
:1012F000ADF80A3001A800F0F5FF1C4802F028F80C
:10130000184B5B6906A840F8183D01F029F84FF426
:10131000004002F049F801221146022000F06CFE64
:101320000421112000F0F2FE00221146032000F0FB
:1013300063FE03210E4800F0E9FE03210D4800F092
:10134000E5FE03210C4800F0E1FE07B030BD4FF090
:10135000FF330A4A12884FF6FF718A42C5D01346FE
:10136000C3E700BF1CB60100B081E00F00F04902E6
:1013700002001E0003002000050024000001E00F11
:1013800008B5194B01225A64184BDB6C1B0E0AD1AD
:1013900017494AF6E8520A601648026842F0040209
:1013A000026000220A60012B18D9134A136A23F441
:1013B000441343F488131362A2F58042136843F484
:1013C00080731360FFF77CFFFFF77EFF0B4A136803
:1013D00023F4E06343F40073136008BD084A136804
:1013E00043F400531360E0E700000E40B081E00FCB
:1013F00090310E4098310E4000400E4000500E409B
:1014000064310E4008B50121024800F03DFB00F0B8
:10141000FFF808BD00350A0008B500F001F808BD66
:1014200000B583B0FFF7ACFFFFF7ECFF0A48FFF70A
:1014300055FE01F0FBFF094B984200D020B9002176
:1014400001A801F0C3FF10B103B05DF804FB9DF8E3
:1014500004000BF08DFDF7E764B50100038000F098
:1014600008B10B2202600148704700BF9CB6010022
:1014700008B10D2202600148704700BF34B6010078
:10148000024B03449B0000221A6070474000F31097
:1014900070B504460D460121154800F0F5FA2046C6
:1014A000FFF7EEFF9DF810209DF8143043EA022369
:1014B00004F114010F4A42F82130A2080E4B53F8F0
:1014C000220004F00301C900FF268E4020EA060036
:1014D00043F8220053F8220005FA01F1014343F8D2
:1014E0002210064B23449B0001221A6070BD00BFEE
:1014F00000450A0000600E4010600E404000F310EE
:1015000000207047FEE74FF400534B600020704707
:10151000012070470020704770B50C460025561E0C
:101520004AB100F0D9F8B0F1FF3F04D02070013586
:1015300032460134F3E7002D01DD284670BD4FF03F
:10154000FF35FAE70346064A126822B1044A1068DA
:10155000034413607047024A02491160F6E700BF76
:10156000D01700207844002070B51646002405E00E
:101570004D1C087800F0E4F801342946B442F7DB4A
:10158000304670BD024AD36C23F00403D364704725
:1015900000000140024AD36C43F00403D364704757
:1015A0000000014038B5104B1B6913F0800F19D0B3
:1015B0000E4B1B68072B13DC0D4C25680A4801F005
:1015C00076FE0C4B5855236801332360074A136895
:1015D000013313602368082B04D10022226001E04C
:1015E000FFF7D0FF38BD00BF00000140E01700202A
:1015F000E8170020D817002018B9044B00221A70F1
:101600007047024B01221A70704700BFD4170020A8
:1016100030B589B00121284800F036FA0121274869
:1016200000F032FA012304221946002001F072F979
:10163000012302221146002001F06CF901AC204D7B
:101640000FCD0FC495E8070084E8070001211D486D
:1016500000F01AFA002508A901F81C5D1A4C204672
:1016600001F0ECFD03236367A36F23F4F85323F029
:101670001F0343F4807343F00103A3670423A364AF
:10168000124A4FF48051C2F88011E36C43F0040316
:10169000E36411600521204601F092FD0C4B1868AF
:1016A0002B4602222946806815F024FF094B0122AF
:1016B0001A7009B030BD00BF4041050000350A0076
:1016C000BCB70100004204000000014000E100E05E
:1016D000C0110020D517002038B5154B1B78E3B199
:1016E00000F069FE0546134B1B68002B1CDD124BF6
:1016F0001A6812498C5CE4B21A6801321A601B68DD
:10170000082B0DD00B4A1368013B1360FFF742FF13
:10171000284600F054FE204638BDFFF779FFDFE78A
:10172000054B00221A60EDE74FF0FF34F0E700BFF1
:10173000D5170020E0170020E4170020D81700205C
:1017400010B504460A4B1B7853B10A4B1B780BB1FA
:101750000A2C08D02146084801F0B0FD204610BDF3
:10176000FFF756FFF1E70D21034801F0A7FDF1E770
:10177000D5170020D4170020000001400346084977
:10178000002B0CD0013B88221202003253430A681E
:10179000D80AD20A5043800901D00138FDD87047D9
:1017A00004000020074B1B681968074A914201D0CA
:1017B000002070475A68B2F1FF3F01D05868704767
:1017C000002070470800002005DA05D580B138B543
:1017D00005460C46FFF7E6FF60B11CB1064B1B68DF
:1017E0005B682360044B1B6808332B60002038BD06
:1017F000012070470320FAE70800002010B501F02F
:101800008BFB064B186819F08BFE20B9002401F001
:1018100093FB204610BD0324F9E700BF0800002019
:1018200010B582B0019100283ED0044601F00303B8
:10183000C3F5FF63994202D9012002B010BD01F047
:101840006BFB1A4B186819F06BFE28B101F074FBA2
:10185000FFF7D4FF0120F0E704221549134B186865
:1018600019F05AFEE8B9114B186804220DEB020179
:10187000104419F051FE88B9019A03320B4B1868D5
:1018800022F003022146083019F046FE10B101F0A3
:1018900053FBDDE701F050FB0020CEE701F04CFBED
:1018A000D6E701F049FBD3E70120C6E70800002096
:1018B000D8B70100036823F0010303607047036891
:1018C00043F001030360704743681B0C1B0443EAA9
:1018D000012111434160704738B505460C46FFF7BA
:1018E000E9FF227863681B0643EAC273227A43EA5F
:1018F0004253627A43EA0253A27A43EA8243E27A8B
:1019000043EAC233227B43EA0233227C43EA820366
:101910002B60E37B1B066B60637BAB62A37BEB629C
:10192000637C1BB92846FFF7C5FF38BD2846FFF783
:10193000C6FFFAE730B4031D0C78240403F1806578
:101940004FF47C122A6003F1C0631C6000F128038D
:101950004C68240403F180652A6003F1C0631C60B5
:101960002C308B681B0400F180610A6000F1C060BC
:10197000036030BC704700000C4B984208D90C4BF8
:10198000984202D90221012204E001210A4601E025
:1019900000210A46074B1A60074AD2F8003123F0AB
:1019A000807343EA0163C2F8003170470048E801E0
:1019B0000090D0034000C84300400E40014B18681F
:1019C000704700BF0C00002010B4124B5B6800236E
:1019D00000E00133042B0BD80F4A02EBC302147949
:1019E000CAB29442F5D10C4A52F833208242F0D365
:1019F000052B0DD0084A02EBC3035979054A5368F9
:101A000023F0407343EA016353605DF8044B704771
:101A10000321F3E700000E4000C0010003300F284F
:101A200028BF0F200007704708B501F051FC044B98
:101A3000D3F80031C3F3042303FB000008BD00BF4B
:101A400000400E4010B5074B1C6C41F671321A6411
:101A500001F03AFC0021FFF7B7FF14B1014B00225F
:101A60001A6410BD00000E4010B5064B1C6C41F608
:101A700071321A64FFF7A8FF14B1024B00221A64F6
:101A800010BD00BF00000E40C0F30323013B092B33
:101A90003AD8DFE803F005083939180B0E3911156B
:101AA00000221A4B11E00022194B0EE00122194BC3
:101AB0000BE01022184B08E04FF48032174B04E083
:101AC0000022174B01E00022164BC0F30430A2B1F4
:101AD00010B40E4CD4F8444114F0010F04D10B4C57
:101AE000D4F840412242FAD103F1047300EBC30061
:101AF000800001605DF8044B704703F1047300EB54
:101B0000C300800001607047704700BF00400E4076
:101B1000C0400E40E0400E40E8400E40F0400E4015
:101B200050410E40B0400E4000F00F000138072831
:101B30006DD8DFE800F0041B2C6C40516C5B3B4B14
:101B4000D3F8943003F00703023B052B0CD8DFE8F1
:101B500003F0056003070B0902207047042070475B
:101B60000B2070470C207047052070472F4BD3F88F
:101B7000803003F00703022B4DD0042B05D0012B3E
:101B800001D001207047032070470A207047274B7F
:101B9000D3F8843003F00703013B032B09D8DFE8B7
:101BA00003F0023C0604032070470A207047062019
:101BB0007047012070471D4BD3F8883003F00703AE
:101BC000022B2CD0042B05D0012B01D00120704713
:101BD000032070470A207047144B1B6F13F001035A
:101BE0001FD00BB109207047012070470F4BD3F86D
:101BF0005C3103F03003202B05D0302B05D0102BA7
:101C000011D0012070470420704708207047002041
:101C1000704703207047022070470220704702205F
:101C20007047072070470720704700BF00400E40F4
:101C300010B50446FFF778FF1C4B9C4212D01C4B9A
:101C40009C4215D01B4B9C4206D0013803282BD850
:101C5000DFE800F014171D1A174BD3F8800000F0CE
:101C60000700F2E7144BD3F8840000F00700ECE71C
:101C7000114BD3F8880000F00700E6E701F088FB7D
:101C800013E001F08BFB10E001F085FB0DE001F0AB
:101C900047FB094BD3F80031C3F300635A1C0123FF
:101CA0009340B0FBF3F000E0002010BD03002000E3
:101CB0000500240002001E0000400E4008B5074841
:101CC000FFF732FF072804D0092805D101F000FBF7
:101CD00008BDFFF773FEFBE70020F9E706000E00E2
:101CE00008B10020704710B504460A48FFF71CFFF2
:101CF000072805D0082809D0042804D0204601E090
:101D0000FFF75CFE10BD01F01DFBFBE7FFF78CFE4B
:101D1000F8E700BFB800320008B500F47810B0F55D
:101D2000A01F74D013D9B0F5001F00F0848031D902
:101D3000B0F5381F75D043D9B0F5401F00F08C8046
:101D4000B0F5481F0ED10020FFF7CAFF41E0B0F503
:101D5000202F4AD008D8B0F5003F49D0B0F5802FE9
:101D600038D0A0B3002034E0B0F5602F00F08280BE
:101D7000B0F5801F00F08180B0F5402FF2D101F066
:101D8000A7FA3F4BD3F81431C3F304230133B0FB5C
:101D9000F3F01EE0B0F5D01F51D0B0F5F01F32D0F7
:101DA000B0F5B01FDED13748FFF742FF344BD3F810
:101DB000202102F00F0201239340B0FBF3F008E072
:101DC000B0F5101FCED13048FFF732FF01E001F02F
:101DD0007FFA08BD01F07CFA294BD3F80C31C3F32C
:101DE00008230133B0FBF3F0F3E701F071FAF0E7F9
:101DF00001F06EFA224BD3F80831C3F30823013304
:101E0000B0FBF3F0E5E71F48FFF712FFE1E71E48DC
:101E1000FFF70EFF1A4BD3F8303103F00303D8401D
:101E2000D7E71848FFF704FF154BD3F82031C3F369
:101E30000113D840CDE71548FFF7FAFEC9E713486C
:101E4000FFF7F6FE0E4BD3F82821C2F3011201234F
:101E50009340B0FBF3F0BCE70C48FFF7E9FE084BFA
:101E6000D3F82831C3F301231A1D01239340B0FB9B
:101E7000F3F0AEE7FFF722FFABE7FFF79FFDA8E720
:101E800000400E4002001E00050024000300200058
:101E9000014B1868704700BF180000200138032864
:101EA00018D8DFE800F00211070C0B4B186AC0F3DA
:101EB00008007047084B186900F07F007047064B18
:101EC000986900F07F007047034BD3F89C00C0F383
:101ED0000A0070470020704700400E4038B50138B6
:101EE000032811D8DFE800F0022B111EC1F308010E
:101EF0001D4B1B68002BFBD11C4A136A23F4FF7394
:101F000023F001031943116238BD01F07F01184B22
:101F10001B68002BFBD1154A136923F07F0319437B
:101F20001161F1E701F07F01124B1B68002BFBD11F
:101F30000E4A936923F07F0319439161E4E70C464D
:101F40000A4DD5F890306B6A23F0300343F010034C
:101F50006B62C1F3C310FFF761FD2B6B064919409B
:101F6000214301432963CFE76828C84300400E405E
:101F70006028C8436428C84300F8FF0F124B5B6A0F
:101F800013F0300F09D0202904D0302916D0A9B180
:101F90000E4A04E04FF4000201E04FF440020A4B05
:101FA000D3F8903032EA0303F9D112F4800F08D04D
:101FB000054BD3F8A000C0F3802070474FF44002D7
:101FC000EDE70120704700BF00400E40FF33E107FE
:101FD00002280DD110B529B1064B4FF48064C3F827
:101FE000A84059660AB9012010BDFFF7C7FFFBE7FB
:101FF0000120704700400E40F8B504287FD8DFE884
:1020000000F0120D190308000223012600243546B2
:1020100014E020231026042405250FE08023402609
:10202000062407250AE04FF400734FF48076082455
:10203000092503E0082304260224032500294DD0A6
:10204000022830D000212E4B1E662E4B23449B00CD
:102050001B68002BF9D0002A51D02A4C2C44A40034
:102060002368002BF9D0022849D1002947D0244BFE
:102070005B6A13F0010F2CD001222021FFF7A8FF8B
:102080000220FFF70BFF0546012200210220FFF787
:10209000B3FF29460220FFF721FF194B1E66236874
:1020A000002BFCD02BE0164B5B6A13F0300F0ED1E7
:1020B000154BDB6B124B5B6A13F0010FC3D0104F53
:1020C0007B6A23F0300343F010037B62BBE70021FF
:1020D000B9E700210220FFF751FFD1E708490B665D
:1020E000074BD3F890100123A3401942F8D132B125
:1020F000034BD3F890200123AB401A42F8D1F8BD2E
:1021000000400E408004F21000300E4070B50446CE
:102110000D4611280CD0002604F00F04013C072CBA
:1021200000F28D80DFE804F01E651C8B638C8B98B9
:10213000042903D005290BD00026EDE701F002F9B0
:102140000646002EE8D00021304600F0EBFAE3E727
:10215000FFF79EFE0646594B9842F2D80026DBE771
:10216000574C47E0023D0A2D69D8DFE805F0061517
:10217000090F6868686868183E000020042410E0B1
:102180005048FFF7F9FB022004460AE04D48FFF7EC
:10219000F3FB0320012404E00120032401E00320D9
:1021A000052401221146FFF727FFFFF74BFC1EB164
:1021B000454B1B68002BFBD1444B5C674448FFF741
:1021C000ABFDFFF7D9FB01F0ABF83F4B1B68002BD1
:1021D000FBD1404B5968C1F30141FFF745FC76BB89
:1021E0000121002000F09EFA29E00724DDE73A4CA7
:1021F00000E03A4C013D092D21D8DFE805F0050744
:102200000E2020152020201E002317E00122114659
:102210000020FFF7F1FE022310E0012211461046D4
:10222000FFF7EAFE012309E001F07AF8FFF7A4FBCB
:102230002B4B01221A60032300E00423236070BDAE
:10224000072D05D0092DFAD1204B01221A67F6E798
:102250001E4B00221A67F2E7013D072DEFD801A3BC
:1022600053F825F0852200003F2200003F220000A5
:10227000972200003F2200003F2200008922000038
:10228000A522000000210EE0012211460420FFF7E4
:10229000B3FE012107E0012211460220FFF7ACFE48
:1022A000022100E00321094AD2F85C3123F0300317
:1022B00043EA0113C2F85C31C1E700BF002D3101D0
:1022C00084400E400148E801C800C64300400E406B
:1022D00000250A0000300E4088400E4080400E402D
:1022E0000816C84370B504461120FFF71DFC0122F3
:1022F00000210220FFF780FE237C022B29D0002240
:10230000154E736A23F00103134373622278134B53
:102310001A60A288637A43EAC223F362356B05F040
:102320007F65E08845EAC025A07A0543207A45EA22
:10233000C015FFF773FB28433063627BA37B1B014F
:1023400043EA0233E27B1343227B43EA0243736393
:1023500070BD0122D4E700BF00400E40A004C84376
:1023600038B505461120FFF7DFFB0D4A916B0D4B89
:102370000B402C781C436B7844EAC324AB7844EAC6
:102380000364EB7844EA0324936BA34206D0012252
:1023900000210846FFF730FE014B9C6338BD00BFAB
:1023A00000400E4080E4FFF8EFF3108072B67047F3
:1023B00000B962B67047EFF3108072B6704700B98B
:1023C00062B670470C4B1B68002BFBD10B4B1A6895
:1023D000C2F301225B68C3F301439A4205D8074A5E
:1023E000136823F0100313607047044A136843F026
:1023F00010031360704700BFC800C64300300E4092
:10240000074B1B6813F0100F05D0064B1B69C3F375
:102410000443082B00D07047034B044A1A60FAE7C4
:1024200000300E4000400E4018000020C0EA21019C
:102430001A48C26CC2F30322194B1B8803F128010E
:1024400003EB51032833013202EB8201B3FBF1F3BA
:10245000013B072B28BF0723C16C21F0EE6141EA45
:10246000036343F48013C3640E4BB3F90030002BB5
:1024700013DB9BB203F1280103EB5103283351080E
:1024800001EB4202B3FBF2F3072B28BF0723026DD7
:1024900022F0700242EA03130365704700300E40D9
:1024A000F2170020F417002010B500284BD03B4B4A
:1024B0001B78C3F1020210239340394A136102F5DD
:1024C0008052D2F8804104F0010445F60E03C2F8B0
:1024D0008031344B1B6803F0010003F01001084306
:1024E00003F04001084303F00401014303F4807347
:1024F0000B4313662C4B1B68002BFBD1284B1B682E
:1025000013F0100F0DD0294BD3F8403113F0807F1A
:10251000F9D1274B1A68254B1A61264B1B78052BDE
:102520002AD0244B1978052933D11E4B1B6813F090
:10253000010F02D11D4B02221A661CB11B4B002257
:10254000C3F8802110BD194BD3F89020154B1A60A9
:102550001120FFF7E9FA174B1870134B1B68002B7B
:10256000FBD10F4B5B68C3F301430C4A13700F4B55
:102570001A690F4B1A60E5E70F4B18680A4B1B6886
:10258000002BFBD1064B5968C1F30141FFF76CFAF0
:10259000C7E71120FFF7BAFDC7E700BFFD1700200E
:1025A00000300E40EC170020C800C64300400E402B
:1025B000F8170020F6170020180000207047704719
:1025C00010B5044688B9FFF7FDFE0C4A136943F0C5
:1025D00004031361FFF7F2FF30BFFFF7F0FF44B9C8
:1025E000FFF70EFF00F09CFE10BD0020FFF75CFF20
:1025F000E9E70120FFF758FFF6E700BF00ED00E034
:1026000010B5044608BBFFF7DDFE144BD3F880215C
:1026100045F60E01C3F880114FF42071196612F0CF
:10262000010F02D00022C3F880210D4A136943F044
:1026300004031361FFF7C2FF30BFFFF7C0FF44B9C7
:10264000FFF7DEFE00F06CFE10BD0020FFF72CFF50
:10265000D9E70120FFF728FFF6E700BF00400E4052
:1026600000ED00E00B4B996921F4403141F4003159
:10267000986940F440304AF6E8529A60002303E03B
:10268000044A916190610133032BF9DD014B99619B
:10269000704700BF00300E4008B5034B01221A609E
:1026A000FFF7E0FF08BD00BF0003C64308B5034BBA
:1026B00000221A60FFF7D6FF08BD00BF0003C64323
:1026C00070B504460E46144BD3F8003100F000FEFE
:1026D0000546124B1B68002BFBD1114B5B68C3F303
:1026E00001439C420DD0022C0CD0C4F102021023F5
:1026F00093400B4A13611EB1084B1B68002BFBD1A2
:102700002CB170BD02212846FFF7AEF9EDE700219C
:102710002846FFF7A9F9F4E700400E40C800C64379
:1027200000300E4038B50D460E4BD3F80031C3F3E0
:1027300004235C1C034650B10B4A127812B10B4AB9
:10274000934209D929460020FFF7BAFF38BD00F0AF
:10275000BFFD04FB00F3EFE729460220FFF7B0FFBF
:10276000F4E700BF00400E40FC170020FF2C3101B1
:1027700008B5224A136F03F00703D26C12F0010F61
:1027800008D0012B06D9132821D91438132820D8B2
:10279000082325E0194AD26C12F0010F01D1012B58
:1027A00008D9164AD26C12F0010F18D0012B08D9A3
:1027B000002315E009280ED90A3809280DD8082366
:1027C0000EE0272801D910230AE0082308E004239B
:1027D00006E0102304E0042302E0102300E00023BD
:1027E000013B1A0342EA03220449CB6C23F47F43E2
:1027F0001343CB64FFF71CFE08BD00BF00300E4042
:1028000008B5064B1B68064A136F23F007031843ED
:102810001067044B1888FFF7ABFF08BD8009C6435B
:1028200000300E40F01700200A4B02229A63DA6B48
:1028300042F48062DA63074B9B6F13F0010FFAD109
:10284000044B03221A64186C904214BF002001202C
:10285000704700BF00300E4070B4072A2BD8950097
:102860000F24AC40A8401F4D2C601F4C206000245A
:10287000072A2BD9A4000320A04001F00301A140A6
:102880001A4C20601A4801601A49114489000B60F3
:10289000194B13449B009DF80C10196001239340C1
:1028A0001649C1F82434164B13449B009DF81020A0
:1028B0001A6070BC7047A2F10804A6000F25B5404D
:1028C000B040104E3560104D2860D1E794000320D1
:1028D000A04001F00301A1400C4C20600C480160B5
:1028E000D2E700BF00A4004400A400460CA40044AA
:1028F0000CA4004680208510A020851000A0004078
:102900004021851004A4004404A4004608A4004407
:1029100008A40046F0B414463AB143B300EB4002B9
:10292000160101258D40264A9551072927D8254EA5
:1029300045002F183A01324452688F004FF00F0CB7
:102940000CFA07FC22EA0C0204FA07F73A430544A2
:102950002F013E44726044B94BBB00EB40000201C2
:10296000012303FA01F1184B9950F0BC704700EBBA
:102970004002160101258D40134A9551D5E7114FAC
:10298000460035182A013A44956801F18042083A18
:1029900092004FF00F0C0CFA02FC25EA0C0504FA29
:1029A00002F22A4335182E013744BA60D3E700EB10
:1029B00040000201012303FA01F1014B9950D4E7D1
:1029C0000CA0004600A000400CA0004400E0C36939
:1029D000C36813F4807FFAD170470000002A37D013
:1029E00070B50446164603F00305036823F44073EC
:1029F00003602A0200F180634FF44070186004F114
:102A0000C0631A6029B9134B9C4217D0124B9C42E9
:102A100019D02368114B5B5D03FB06F26AB1A1EB91
:102A2000C6031344013BB3FBF2F3013B226812F0EF
:102A3000020F01D003B90123236170BD0848FFF7DD
:102A40006BF90146E5E70748FFF766F90146E0E75D
:102A5000704700BF00C0004000C4004028C0010013
:102A6000008204000092040000F104704001016043
:102A70007047000038B505460C46002303640A4B36
:102A8000C3634A7882F0010200F10473DB00013372
:102A90009B001A600B7B8A684968FFF79FFF2178CB
:102AA0002846FFF7E1FF38BDFFFF0700A74B98421C
:102AB0001AD003F58063984240F04481A44B70B46F
:102AC0009C68426B12F4C06F10D11978082900F28B
:102AD0002881DFE811F01900380063007E009700BC
:102AE000B200DA00EF001C019A4BE8E712F4007F15
:102AF00004D0FD225A7009221A7013E012F4806F7C
:102B0000F9D0FE225A70F6E7618811F0100F10D04C
:102B10002288120A02F0060242F0F0020121197026
:102B2000C26241601A78092A00F00081012070BC5D
:102B30007047248804F0FE04224611F0020FEDD005
:102B400044F00102EAE712F0800F16D112F0400FB4
:102B5000E8D04022C263628812F0100F16D112F042
:102B6000020F18D007221A701A7904EBC2042289C6
:102B7000012AD7D108224260D4E78022C263FF2213
:102B80005A7008221A7002224260CBE702221A70A1
:102B90002278C262C6E705221A7092E712F0800F0F
:102BA0000BD112F0400FBDD04022C263628812F0F8
:102BB000020F0BD003221A7083E78022C263FF2228
:102BC0005A7008221A7002224260ABE705221A707E
:102BD00077E7618811F0100F10D02288120A02F0F6
:102BE000060242F0F00211F0040F01D042F001029F
:102BF0000421197001214160C26293E7228802F02A
:102C0000FE02F0E712F0800F0BD112F0400F89D0D6
:102C10004022C263628812F0040F0BD007221A70A0
:102C200080E78022C263FF225A7008221A700222B3
:102C3000426077E705221A7043E759881A7904EB56
:102C4000C2052D89A94216D3002159800132D2B282
:102C50001A71618811F0040F0AD111F0010F02D12D
:102C6000012A7FF62EAF08221A700222426059E72D
:102C700003221A7025E704EBC20462684C1C5C80D6
:102C8000525CC26206221A704CE712F0800F08D123
:102C900012F0400F3FF446AF4022C26305221A7083
:102CA0000FE78022C263FF225A7008221A700222A4
:102CB000426037E712F0200F3FF434AF1E7904EB87
:102CC000C6021289C169C9B25D88AA4205D904EB5E
:102CD000C60464686E1C5E80615559888A4209D8B2
:102CE000012A04D008221A70022242601AE7082240
:102CF0004260F7E704214160012A7FF613AF59884B
:102D0000013A91427FF40EAF082242600AE712F4C2
:102D1000807F3FF407AF4FF48072C26309221A70BC
:102D200000E7FB225A7009221A70FBE600220264B7
:102D300093F90120012A02D093F90100F7E600225D
:102D40005A70F9E76FF00300704700BF00C0004001
:102D50000C180020001800201D4B98422DD003F5C0
:102D6000806398422BD11B4B10B5826812F0010F83
:102D700001D0202242604A8812F0020F01D00C8953
:102D800004B312F0040F01D00A8AF2B10446002203
:102D90001A70012058705A801A719960C0236360BC
:102DA0002046FFF713FE0C4BE363236C43F4FC63F4
:102DB00023642046FFF77AFE10BD084BD4E76FF07E
:102DC000030070476FF00300F6E76FF00300F3E7CE
:102DD00000C000400C180020FFFF07000018002072
:102DE00010B5044601211148FEF74EFE23786178A4
:102DF000A27842EA012242EA03620D4B1A600022E5
:102E00001A62DA625A634FF00042DA664FF0FF321C
:102E10009A66084A4FF40071C2F88011E3785B01AA
:102E2000DBB282F80933116010BD00BF00550A0003
:102E300000200E4000E100E0F8B50C46C3B20125C9
:102E40009D400B68254E470007EB000C4FEA0C1124
:102E50003144C1F88030637BC1F8883094F80AC0EF
:102E6000E37A1B0543EA0C4394F80CC043EA4C5345
:102E7000C1F8843022F00302C1F89820B566FFF74C
:102E80009AFAF36E2B43F366237A13B1736B2B43D9
:102E90007363637A1BB1114AD36A2B43D3620F4B1E
:102EA0001B68227922B1D243120262F47F4213409E
:102EB00062790AB143EA0223A2791AB1D24362F0DD
:102EC000FF021340E27902B11343044A1360044B3A
:102ED0001D60D563FFF773FAF8BD00BF00200E40F8
:102EE00028200E4410B5C0B201248440FFF763FAD5
:102EF000084B1B6A234206D1064B9B6A34EA030344
:102F000006D0002400E00024FFF759FA204610BD47
:102F10000124F9E700200E40054B5A685B68054B19
:102F200041F671321A649A6822F001029A60704781
:102F300000300E4000000E40034B9A6822F0010260
:102F40009A6000221A64704700000E40014B012273
:102F50009A60704700500E4010B4174B5C68002315
:102F600018460DE0B2F5007F01D141F48071134A9B
:102F700052F83320224202D0214200D110430133C3
:102F8000082B16D80D4A02EBC30251680C4A12688E
:102F900012F0040FEBD1094A52F83320B2F5806FDA
:102FA000E3D0DFD9B2F5006FDFD0B2F5803FDED1DC
:102FB000DBE75DF8044B704700500E402CC0010069
:102FC000E841E00F0B4A53699B0003F03C03116991
:102FD000C1F381110B438370136903F03F03437006
:102FE000936903F0F003D269C2F303121343037031
:102FF000704700BFD0FF0FE010B40B780BB902236D
:103000004360002343628A78CB781B0443EA02635F
:103010008A7943EA8223CA7943EA02230A7A13436C
:103020004A781AB3402213434A7A0AB380221343E0
:103030008A7AFAB120221343CA7AEAB110221343E2
:103040000A7BDAB1082213430A79CAB14FF400525D
:103050004C79BCB14FF080542243134303600B788A
:103060000BB1012343605DF8044B70470022DAE79F
:103070000022DCE70022DEE70022E0E70022E2E7B0
:103080000022E5E70024E7E710B4147853781B0624
:1030900043EA8463947843EA0443D47843EA0433EC
:1030A000147943EA8423547943EA0423947923432B
:1030B000D479C4B14FF080442343147AACB14FF0BB
:1030C00000542343547A94B110242343947A84B94E
:1030D00000242343D27A43EA0273063109014350A4
:1030E0005DF8044B70470024E6E70024E9E700247C
:1030F000EBE70424EDE710B40223436000230360F0
:10310000836140F6F772426103624FF6FF72C2615B
:10311000436209E09A1D1201841800218150616008
:1031200000EB0312D1660133032BF3DD4CF6806311
:10313000C0F8B8300023C0F8A030C0F8A430C0F800
:10314000A830C0F8AC300F23C0F8B4305DF8044BA1
:10315000704741F0800181657047000070B50546F9
:1031600016461C46084641B1202C22D009D9402CD5
:103170001DD0602C1AD1042205E00F48FEF7CCFDCB
:10318000F2E79CB9102206FB02F2530803EB401051
:10319000B0FBF2F02038094B03EAC0002B6823F0A3
:1031A00060032B602B681C432C60686170BD062295
:1031B000E9E70822E7E700BF40410500F8FF7F008C
:1031C000CB435B0003F00A03C360C160704700009B
:1031D00040F6AA63C3600023036041F20502426027
:1031E00083604361C364134A8264036643678367F1
:1031F000C367114B98420BD003F58063984207D008
:1032000003F58063984203D003F58063984201D1AF
:10321000002303650023836503F1804303F58233B4
:10322000984203D003F50063984201D10023C3659F
:10323000704700BFF9FF01000000014038B50546A6
:103240000C46FFF7C5FFA37C1BB12B6843F08043FE
:103250002B60E37C33BB637B228A1343E2891343F5
:103260006B60237BA26861682846FFF777FF637D68
:103270001BB12B6843F480332B60A37D1B0703F045
:10328000E043E27D120502F4E00213432B666B6F0C
:1032900023F030036B676B6F227E13436B672378D9
:1032A000EB6038BD217D2846FFF753FFD3E7036964
:1032B00013F0800FFBD0C069C0B27047036913F0F0
:1032C000400FFBD0416370470048704700F049024F
:1032D0000F4BD3F8943003F00703032B14D0042BC7
:1032E00004D0022B0DD00B4B186801E00A4B186874
:1032F000074BD3F80031C3F304230133B0FBF3F0E1
:103300007047064B1868F3E74FF40040F0E700BF42
:1033100000400E40180000201C0000201400002077
:1033200008B5FFF7D5FF054BD3F80831C3F30823E1
:103330000133B0FBF3F0024B186008BD00400E40B3
:1033400010000020014B1868704700BF14000020D7
:1033500008B5064B1860064BD3F8943003F007030A
:10336000022B00D008BDFFF7DBFFFBE714000020B5
:1033700000400E40044B054A9A60D3F8882042F47E
:103380007002C3F88820704700ED00E000000000E4
:103390004FF4004070474FF47A707047014B186843
:1033A000704700BF1C00002008B5064B1860064B94
:1033B000D3F8943003F00703042B00D008BDFFF7C7
:1033C000AFFFFBE71C00002000400E40124B1B78B3
:1033D000F3B1F8B110B50446FEF7EDFF0023072B5B
:1033E00012DC0E4A02EB0312127B0AB10133F6E73C
:1033F00023600A4A1B01D11801240C730024D45005
:10340000FEF7DDFF204602E0FEF7D9FF044810BDBD
:103410000448704704487047981900201818002085
:10342000048000F0028000F0018000F000B583B05D
:10343000144B1B68019300238DF80430FEF7BBFF8B
:10344000114B1B7833B9104B01221A70FEF7B7FFEE
:10345000002309E0FEF7B3FF0C480FE00C4A02EB33
:103460000312002111730133072BF7DD04238DF8BC
:1034700007300DEB0300FFF7B3FC002003B05DF84D
:1034800004FB00BF74C0010098190020038000F005
:1034900018180020F8B5194B1F6EDB6E1F4002D4C0
:1034A0000126002402E0FEE701347600072C24D830
:1034B0003E42F9D0114B9E662301114AD358002B8E
:1034C000F2D002EB0415A9680131A9606A682046B0
:1034D000984780F00103DBB26A7B012AE4D1002B1C
:1034E000E2D0084B03EB4413197B6FF341011973CE
:1034F0001A7F6FF341021A77D6E7F8BD00200E401D
:10350000181800209818002010B504467CB194FAD1
:10351000A4F0B0FA80F0C2B20123934024EA03047D
:10352000034B53F82230002BF0D09847EEE710BD44
:103530009C190020054B4FF48022C3F880211A60AB
:103540004FF48062C3F880211A60704700E100E008
:1035500038B504460D46FEF72EFF034B43F82450C2
:10356000FEF72DFF38BD00BF9C19002008B5084BA1
:10357000D3F82804D3F81C24104020F42A5020F05B
:103580002A004004400CC3F82404FFF7BDFF08BD27
:1035900000A0004008B5084BD3F82804D3F81C2439
:1035A000104020F4AA4020F055000004000CC3F89D
:1035B0002404FFF7A9FF08BD00A000402DE9F84F43
:1035C0000546002416E004EB8403DA003B4B134469
:1035D000DB7F73BB394B134400221A7704EB84035F
:1035E000DA00364B13449B691BB1344B1344012260
:1035F0005A770134032C5FDCA2002244D1002F4B08
:103600000B4400225A771B7F002BF2D02B4B0B442C
:10361000D3E900BC4FF00009E14508BF5D45D2D2B7
:10362000264B0B44BBEB05006CEB0901C3E9000121
:10363000DFE7A30023444FEAC30A204B9A44DAE9A8
:10364000026732463B46B5EB0B0069EB0C0112F00A
:1036500079FEB61A67EB0307B046B946CAE9008996
:10366000DAF8100000280FDDDAF814300344CAF845
:1036700014301D2BB2D9013647F10007CAE90067A3
:103680001E3BCAF81430A9E7A3002344D9000B4A13
:103690000A4453691B1A53611D2B9FD9A100214471
:1036A000C800064A024416F1FF3647F1FF37C2E967
:1036B00000671E3B536191E7BDE8F88FE8190020D1
:1036C00010B5002400E00134032C11DC04EB84036A
:1036D000DA00084B13445B7F002BF4D0A200224495
:1036E000D100044B0B449A69196A20469047EAE7D7
:1036F00010BD00BFE8190020F0B44FF0FF344FF0C8
:10370000FF35002300E00133032B12DC03EB8302BF
:10371000D100194A0A44127F002AF4D0164A0A44FA
:10372000D2E90067AF4208BFA642ECD234463D461C
:10373000E9E7124B00221A70B5F1FF3F08BFB4F160
:10374000FF3F17D022466FF064060027AF4208BF44
:10375000A64201D26FF06402094B1860094B0421A4
:10376000196210445865054A012111705A6A42F0E5
:1037700004025A62F0BC7047E8190020E4190020E6
:10378000E019002000200440074A536A9269134060
:1037900013F0010F06D0044B01221A62034A13688A
:1037A00001331360704700BF00200440881A0020D6
:1037B000F8B5FEF700FE0646184A536A91690B40B9
:1037C00023F00501116213F0040F20D0144B0122E5
:1037D0001A70124B9D68114C636A23F004036362F4
:1037E000104F3868281AFFF7E9FEFFF769FF2846EF
:1037F000FFF782FFA5683A68A91A636D9B1A0A4A07
:1038000012780AB19942E6D2054B00221A70FFF7EE
:10381000BBFF3046FEF7D3FDF8BD00BF00200440DB
:10382000DC190020E0190020E4190020C000094B39
:10383000A3FB0023084A1068A0EB930010F1800F4F
:1038400003DB7F2803DD7F2001E06FF07F0040B2C3
:10385000704700BFCDCCCCCC8C1A0020002305E0F3
:10386000354A02EBC30235490A600133042B16DCEA
:10387000314A52F83320002AF7D0304A11680A68DA
:10388000002AEDD02C4A02EBC30210790A7990424B
:10389000EBD9294A02EBC30228490A60E5E7002375
:1038A00005E0274A02EBC30226490A600133042BD4
:1038B00016DC234A52F83320002AF7D0214A116837
:1038C0000A68002AEDD01E4A02EBC30210790A7979
:1038D0009042EBD21A4A02EBC3021A490A60E5E7AA
:1038E000164B19680B68DBB1174AD36923F0FF0345
:1038F00009790B43D361136B43F080431363114B7E
:1039000019680B6893B1104AD36923F47F4309798E
:1039100043EA0123D361136B43F000431363704701
:10392000094A136B23F080431363E8E7064A136BDD
:1039300023F0004313637047981A0020901A002068
:10394000C01A0020941A002000300E4008B5034B26
:10395000186AC0B2FFF76AFF40B208BD00300E40DF
:1039600038B5154A136B526A134012D413F0804FC6
:103970001ED0124B1B681C6834B100221A605A60BA
:10398000FFF7E4FF0121A0470B4B4FF08042DA62C2
:103990000EE00B4B1B681C6834B100251D605D6098
:1039A000FFF7D4FF2946A047034B4FF00042DA62ED
:1039B000FFF754FF38BD00BF00300E40901A0020C2
:1039C000941A002008B5FFF7CBFF08BD054BDB6854
:1039D00013F0100F05D0034B10225A61024B012245
:1039E0001A70704700800140E81A00200246014624
:1039F00003E0814200D901390132137823B1082B49
:103A0000F7D00B700131F7E70B70704770B582B0DB
:103A10000646A2B112F016FE0022026001A930464D
:103A200014F0ACFD12F00EFE0368D3B9019CA41B88
:103A3000304613F09AFE844216D0002012E014465D
:103A4000C90001258D40013D12F0FCFD00220260FD
:103A500001A9304614F022FE30EA0503E2D02046E8
:103A600000E0002002B070BD0120FBE7002800F05C
:103A70008D802DE9F84F044617460E46494913F04C
:103A80006AFE002800F08480204613F06EFE804617
:103A900082462A21204613F051FE60B108F1FF331F
:103AA0002344834201D0002073E0B8F1010F72D0AB
:103AB000A8F1020B00E0C34600254FF02E090DE0EF
:103AC000635D2A2B14D0994612E00022042157F896
:103AD0002500FFF79BFF00285BD00135B54250DA87
:103AE0005545EDDB04EB080313F8013C2A2B54D1B8
:103AF000A9F16203152B52D801A252F823F000BF9E
:103B0000DB3A00009F3B00009F3B00009F3B000012
:103B10009F3B00009F3B00009F3B00009F3B00003D
:103B20009F3B00009F3B00009F3B00009F3B00002D
:103B30009F3B00009F3B00009F3B00009F3B00001D
:103B40009F3B0000753B00009F3B0000673B00006F
:103B5000593B0000CB3A00000022022157F8250013
:103B6000FFF754FFB7E70022012157F82500FFF7C0
:103B70004DFFB0E70122042157F82500FFF746FF6B
:103B8000A9E7B345CCBF0020012002E00120704727
:103B90000120BDE8F88F0020FBE70020F9E70020B6
:103BA000F7E700BF18C101002DE9F04104460546C2
:103BB0000026374602E000200BE010359DB1286852
:103BC00088B113F0D2FD804668680028F3D013F066
:103BD000CCFDAB68002BF0D04745B8BF47468642C6
:103BE000B8BF0646E9E7184813F07CFC174813F005
:103BF00079FC0CE0164A7142164813F0EBFBE168C1
:103C000009B10B78A3B90A2013F0FCFB1034C4B13E
:103C10002268B2B1A3687BB179420F4813F0DAFB96
:103C20006268002AE6D01378002BE4D1084AE2E764
:103C30000A4813F0CFFBE6E71146094813F0CAFB28
:103C4000E1E70120BDE8F08178C0010098C00100E3
:103C5000A4CA0100F4C00100F0C00100FCC00100D2
:103C600000C101002DE9F04397B081460F46084698
:103C7000FFF7BCFE15AA3549384614F0EFFB0028C3
:103C80005ED006464C4618E00121384608F080F91F
:103C90004FF0000856E002AA691E6068FFF7E6FED2
:103CA000804620B1A36801A9284698472EE002214A
:103CB000384608F06DF9EBE710342CB3256805B3EE
:103CC000A368002BF8D02946304613F019FD0028D0
:103CD000F2D1019515AA1D4914F0C0FB0646012535
:103CE000002ED8D016AB03EB850343F8546C013596
:103CF000132DC9DC15AA1549002014F0AFFB0646A8
:103D0000EEE74FF0000801E04FF0000854B12368DF
:103D100043B1B8F1000F15D1A6B10021304608F02B
:103D200037F90FE0B9F1000FF3D00949384613F025
:103D3000E7FC0028EDD14846FFF736FF8046E8E76C
:103D40004FF00108404617B0BDE8F0830CC10100F8
:103D500010C1010058B110B4044651B101600020F7
:103D6000A060E260236120715DF8044B7047012080
:103D700070470120F8E72DE9F041002844D00546BE
:103D8000002944D08468A018EB68984242D21646B5
:103D90002868204412F0B5FCAA683244AA600027C3
:103DA000B8460BE000231370444512D10A2E16D0FA
:103DB00001377FB204F101082E710134AA68A242D2
:103DC00013D92B681A191E5D0A2EEBD00D2EF4D1D3
:103DD000E8E7296841442869FFF744FFE6E72B79C3
:103DE0000D2BE5D14445E3D1E4E7B8F1000F02D152
:103DF0003846BDE8F081A2EB0802AA60286800EB13
:103E0000080112F089FCF3E74FF0FF37F0E74FF0BD
:103E1000FF37EDE76FF00107EAE708B5002211462A
:103E200014F03CFC08BD08B50022114614F0A6FBB6
:103E300008BD08B57339042912D8DFE801F009116B
:103E4000060C03000421002207E00121002204E007
:103E50000421012201E002210022FFF7D7FD08BD65
:103E60000020FCE70A290DD870B138B50D4604468C
:103E7000FEF79AFAA580002323806380FEF798FA64
:103E8000012038BD002070470020704718B370B57E
:103E900004460D46FEF788FA6288A3889A420FD23C
:103EA0002688164496FBF3F103FB11639BB20233A1
:103EB00044F8235001326280FEF77AFA012070BD87
:103EC0002288911C44F82150013292FBF3F103FB4C
:103ED00011232380F0E70020704770B5B8B1044685
:103EE000FEF762FA638883B12288911C54F821504E
:103EF0000132A68892FBF6F106FB11222280013BDB
:103F00006380FEF755FA284670BD0025F9E70025C5
:103F1000F9E710B550B10446FEF746FA6488B4FAE2
:103F200084F46409FEF744FA204610BD0124FBE73F
:103F300010B5B0F5007F03D94FF0FF34204610BD17
:103F4000FEF732FA0023042B0FD803EBC3118A00CB
:103F500008498A580AB10133F5E703EBC3118A0017
:103F6000044901248C501C4601E04FF0FF34FEF759
:103F70001FFAE3E7EC1A002010B5B0F1FF3F16D0AE
:103F8000042816D80446FEF70FFA04EBC412930077
:103F9000094AD3584BB104EBC414A30014461C4483
:103FA0000434FEF705FA204610BD0024F9E700248A
:103FB000F9E70024F7E700BFEC1A002038B5044603
:103FC000FEF7F2F905462046FFF7D6FF38B106495D
:103FD000E001021993001A46CB58013B8B5028464A
:103FE000FEF7E6F938BD00BFEC1A002038B50446EC
:103FF000FEF7DAF905462046FFF7BEFF38B106495D
:10400000E001021993001A46CB5801338B50284621
:10401000FEF7CEF938BD00BFEC1A002070B58EB0A7
:104020000C460968012008F063FD00283BD0474A90
:104030000BAB07CA83E807000025049501228DF821
:1040400014204FF47A72ADF8162002228DF8182051
:104050008DF819208DF81A208DF81B2007AE93E8F3
:10406000070086E807000B238DF828308DF82950CB
:104070008DF82A50656804223549284612F032FB33
:1040800098B901238DF818308DF81A30A068FFF721
:10409000C4FE80B243F2C823984213D92D4A21218D
:1040A0002068FCF72BFF0EB070BD02222A4928467B
:1040B00012F018FB0028E9D0284A20212068FCF7DC
:1040C0001DFFF0E7ADF82000ADF81C00E068FFF739
:1040D000A4FE80B243F2C823984205D9204A222187
:1040E0002068FCF70BFFDEE7ADF822000A38ADF8D8
:1040F0001E002069FFF791FEADF8160004A9194BC8
:10410000186809F0B5FE014620B1174A2068FCF78F
:10411000F5FEC8E724689DF81A0008F0C5FC0546BE
:104120009DF8180008F0C0FCBDF82030BDF8222032
:10413000BDF8161003910292019300902B460B4A92
:104140000B492046FCF782FEADE700BF1CC1010011
:10415000B8C10100E4C10100C0C10100C4C1010037
:10416000FCC101003844002018C2010048C201000F
:1041700050C2010070B505460C460968012008F0E0
:10418000B7FC98B1012D12DC0026022D16DC0020B0
:104190000EB3D0B11B4B186809F0A2FE05463DB323
:1041A000206865B3184A1949FCF750FE70BD606875
:1041B000FFF733FE061C18BF0126E6E7A068FFF7ED
:1041C0002CFE003018BF0120E2E70E4B186809F002
:1041D00083FE0546E3E728B10A4B186809F084FE20
:1041E0000546DCE7074B186809F072FE0546D6E77E
:1041F000074B01221A700B2007F0B0F8D0E7054AF0
:10420000D1E700BF3844002028C1010034C10100BB
:104210002000002048C2010038B50C460968012082
:1042200008F066FC00B938BD0A4B186809F060FE5A
:10423000054630B120685DB1074A0849FCF706FE23
:10424000F1E7074B02221A70802007F087F8F1E7A8
:10425000044AF2E73844002028C1010034C10100BB
:104260002000002048C2010038B50C460968012032
:1042700008F03EFC00B938BD0A4B186809F03CFE56
:10428000054630B120685DB1074A0849FCF7DEFDFC
:10429000F1E7074B02221A70E02007F05FF8F1E720
:1042A000044AF2E73844002028C1010034C101006B
:1042B0002000002048C201002DE9F04385B00546EA
:1042C0000C464868FFF7A9FD8146A068FFF7A5FDE9
:1042D0008046E068FFF7A1FD07462069FFF79DFDD6
:1042E0000646052D2FDC0025B9F1000F32D1002143
:1042F000B8F1000F01D041F004010FB141F002010B
:104300000EB141F001010DB141F020011A4B1868C6
:1043100009F066FE00BB2068B9F1000F22D0174AF1
:10432000B8F1000F20D0154B07B3144906B3134C56
:1043300005B3124D0295019400911149FCF786FDD9
:1043400005B0BDE8F0836069FFF767FD051C18BF85
:104350000125C9E70821CBE70A4A23212068FCF799
:10436000CDFDEDE7084ADBE7074BDDE70649DDE772
:10437000054CDDE7044DDDE73844002048C201006C
:1043800068C1010040C1010028C1010038B50C46D8
:104390004868FFF742FD0546011C18BF01210A4B82
:1043A000186809F0E0FD30B9206855B1074A08499E
:1043B000FCF74CFD38BD074A24212068FCF79EFD20
:1043C000F8E7054AF3E700BF3844002048C201007F
:1043D0000CC40100E8C3010028C1010038B50C4637
:1043E0004868FFF71AFD0546011C18BF01210A4B5A
:1043F000186809F0A5FD30B9206855B1074A084989
:10440000FCF724FD38BD074A24212068FCF776FD1F
:10441000F8E7054AF3E700BF3844002048C201002E
:10442000C0C301009CC3010028C1010070B506464D
:104430000C464868FFF7F1FC85B2022E0EDC002224
:104440002946094B186809F063FD246802F040FF13
:10445000024606492046FCF7F9FC70BDA068FFF74C
:10446000DCFCC2B2ECE700BF38440020D4C301003A
:1044700070B506460C464868FFF7CFFC85B2022EA1
:104480000EDC00222946094B186809F049FD246812
:1044900002F01EFF024606492046FCF7D7FC70BD1D
:1044A000A068FFF7BAFCC2B2ECE700BF38440020B6
:1044B00020C40100F0B583B007460E46002409E091
:1044C000651C56F82500FFF7A8FC02AB1C4404F855
:1044D000080C2C46072CF3DD092F0FDC002269465F
:1044E000094B186809F024FD346802F0F1FE024619
:1044F00006492046FCF7AAFC03B0F0BD706AFFF73E
:104500008CFCC2B2EBE700BF3844002084C301003A
:104510002DE9F0438BB080460F46002404940594A7
:1045200006940794089409944FF6FF73ADF804308D
:10453000ADF80630ADF80830ADF80A30ADF80C3003
:10454000ADF80E3001261DE0EB00C3F12009A3F108
:10455000200E20FA03F201FA09F942EA090221FACF
:104560000EFE42EA0E020DF1280E7344634403F876
:10457000182C0CF1010CBCF1070FE5DD0336F6B287
:104580000134E4B2022C25D8464523DA57F8260038
:10459000FFF743FC25460AAB03EB440323F8240C46
:1045A000731CDBB2434515DA57F82300FFF735FCDF
:1045B0000AAB03EB440323F81E0CB31CDBB24345E8
:1045C00008DA0022114657F8230014F033F94FF0AF
:1045D000000CD0E701A9074B186809F095FC3C686E
:1045E00002F076FE024604492046FCF72FFC0BB091
:1045F000BDE8F08338440020B0C2010010B50C467D
:104600004868FFF70AFC0246034B1860034920681C
:10461000FCF71CFC10BD00BF00250020C8C2010033
:1046200030B583B00D464868FFF7F7FB04460246F5
:104630004FF0FF31134B186809F0A8FCB0B904F033
:104640000201C4F34003104A1370286814F0010FEC
:1046500012D00E4A91B10D4B14F0040F10D00B493B
:1046600000910B49FCF7F2FB03B030BD094A1F2152
:104670002868FCF743FCF7E7074AEBE7064BEBE754
:104680000549EDE73844002004250020DCC2010084
:1046900000C30100ECC20100E4C2010038B50D46C0
:1046A0004868FFF7BAFB044602464FF0FF310E4B55
:1046B000186809F080FC60B914F001040FD00222E0
:1046C0000A4B1A70286864B1094A0A49FCF7BEFB14
:1046D00038BD094A1F212868FCF710FCF8E70122C1
:1046E000EEE7064AF1E700BF384400202000002032
:1046F000DCC2010074C3010060C30100E4C2010018
:104700002DE9F0410C464868FFF787FB8046051C01
:1047100018BF0125A068FFF780FB0746061C18BFDD
:10472000012629460F4B186809F06DFC20B9B8F135
:10473000000F0BD00C4D00E00C4D3146094B1868B2
:1047400009F074FC30B91FB9094B04E0084DF4E7D7
:10475000054B00E0054B2A4606492068FCF776FB2E
:10476000BDE8F0813844002048C201003CC301008C
:1047700028C1010048C301002DE9F04F97B004465D
:10478000AB4B1868B0B9AB4B1D78002D00F05C82C4
:10479000A94B1F7808A9204608F0FFFFBDF822307A
:1047A000BA1C934209D2A54A936A0133936217B0A7
:1047B000BDE8F08F09F0F8F8E5E7192B0BD91923BC
:1047C000ADF82230BDF82430182B04D91923ADF8E8
:1047D000243000230B93BDF824200A990CA811F073
:1047E00090FF0B9949B1BDF82220BDF82400121AA0
:1047F00092B20CAB184411F084FF7B1CD8B216ABFC
:104800003B4413F8281C8EB201F00703052B30D06F
:10481000BB1CDBB216AA104410F8282C41EA022176
:104820000F4601F440568A0A02F03802480A00F0A6
:1048300006000243C1F380100243814830F812C0E1
:104840004FF6FF7294454BD0B6F5005F4DD05A1C21
:10485000D2B216A8034413F828ECB6F5005F4BD08B
:104860005FEA1C3040F0D381744A936A013393624B
:104870009DE711F0080F31D0BB1CDBB216AA104423
:1048800010F8286C41EA0626B20902F40272F10916
:1048900001F010010A43710A01F020010A43B10836
:1048A00001F4A0710A43B10101F440610A433602E8
:1048B00006F44046324342F4005141F0050112F43F
:1048C0004C42ADD0B2F5084FAAD0B2F50C4FA7D0EC
:1048D000B2F5484FA4D081F04001A1E70346D3E7E9
:1048E000564A936A0133936261E711F4807FAED038
:1048F0001A464FF0000EB0E70023ADF800308DF8F7
:1049000002300CF00F09104609EB0203BDF82280BB
:10491000434504DD494A936A0133936247E7B9F19D
:10492000000F0ED0531C16AE304410F8280C8DF832
:1049300001000232D2B256FA83F313F8283C8DF804
:104940000230CCF303138DF80830134498451FDA76
:104950003A4A936A0133936229E7531C16AE3244F4
:1049600012F8286C16AA024402F8506C0130C0B24A
:10497000DAB29DF808608642EFD2CCF3032092466B
:104980008318984506DA2D4A936A013393620EE73D
:104990000120EEE778B1531C0DF1580BDA441AF8F8
:1049A00028AC8DF805A00232D2B25BFA83F313F87B
:1049B000283C8DF806304FEA1C338DF81430134430
:1049C00098452EDA1D4A936A01339362EFE602F1AD
:1049D000010C0DF15808424412F8288C16AA1A440A
:1049E00002F8448C0133DBB25FFA8CF29DF814C0FC
:1049F0009C45ECD201F4A0723B0903F440631343DD
:104A00000A0102F440421A4342F4005343F0020305
:104A1000BCF1000F16D09DF81570AA2F03D0002509
:104A200011E00123E2E742F4005343F012030AE0ED
:104A3000002500200425002020000020283300202D
:104A400038C401000025964A177807F1010816AA14
:104A50003A4402F8283CBA1CD2B24FEA132A0DF1AC
:104A6000580B5BFA88F808F828AC11F4807F04D161
:104A7000F91C5A4402F828ECCAB2990A01F038012C
:104A80004FEA532E0EF0060E41EA0E01C3F38013D7
:104A90000B43844931F813104FF6FF73994246D007
:104AA00011F00F0F13D0002846D0531C9DF805803D
:104AB0000DF1580E96440EF8288C0232D2B29DF8B1
:104AC00006E00DF1580858FA83F303F828EC11F0CA
:104AD000F00F5FD111F4706F13D0B9F1000F5BD0FC
:104AE000531C9DF801C016A8104400F828CC0232CF
:104AF000D2B29DF802000DF1580C5CFA83F303F872
:104B0000280C11F4704F6FD1022F6FD0531C8DF809
:104B100030300CA9204609F0A1FA00286FD1002DF1
:104B20003FF445AE604A136A013313623FE65E4AC2
:104B3000936A013393623AE6B9F1000F12D0531C25
:104B40009DF801800DF1580E96440EF8288C023223
:104B5000D2B29DF802E00DF1580858FA83F303F839
:104B600028ECB4E7504A936A013393621FE602F1DE
:104B7000010E0DF15808984418F8448C0DF1580AAC
:104B8000524402F8288C0133DBB25FFA8EF29C4566
:104B9000EDD29FE70123FAE788B1531C9DF805C0C9
:104BA00016A8104400F828CC0232D2B29DF80600B4
:104BB0000DF1580C5CFA83F303F8280CA1E73A4A8C
:104BC000936A01339362F2E5511C16A8184410F859
:104BD000500C0DF1580C624402F8280C0133DBB282
:104BE000CAB29E42F0D28FE70123FAE718238DF86C
:104BF000303092FAA2F31B0E8DF8313089E7002D88
:104C00003FF4D5AD284A536A01335362CFE50CF027
:104C10000F01CCF303131944CCF303230B441A44C0
:104C2000D2B21044BDF82230984204DD1E4A936A85
:104C300001339362BBE516AB1A4412F8283CAA2B49
:104C400014BF0023012312E013A9204609F003FA40
:104C500020B1154A936A01339362A8E59DF8543058
:104C6000032B10D09DF84C30AA2B12D00023002B20
:104C70003FF49DAD204609F0ECF960B90A4A136A89
:104C80000133136293E59DF84C30AA2BEAD101233E
:104C9000EDE70123EBE7044A536A0133536286E5EB
:104CA0002000002038C401002833002000B583B064
:104CB00002AA002302F8013D20211D2002F0E8F99C
:104CC000A8B903469DF8072012F0700F02D012F029
:104CD000070F06D1172220211D2002F00FFA0346EC
:104CE00018B9184603B05DF804FB0323F9E7022363
:104CF000F7E70000000000002DE9F04F2DED068BD6
:104D000085B0002800F00B810546002900F00A81DB
:104D100093460C46FFF7CAFF8246002840F0048104
:104D200004AA002302F8013D23211D2002F0B0F95E
:104D30008246002840F0FE809DF80F30C3F3011337
:104D4000032B03D8DFE803F00E05080B9FED7C9BD7
:104D50000AE09FED7D9B07E09FED7D9B04E09FEDCA
:104D60007E9B01E09FED7E9B4FF0000904AE06F8AC
:104D7000019D324628211D2002F08AF99DF80F80FE
:104D8000324629211D2002F083F99DF80F3008EBEF
:104D900003281FFA88F88DF80F9032462A211D202B
:104DA00002F076F99DF80F7032462B211D2002F09B
:104DB0006FF99DF80F3007EB0327BFB28DF80F9006
:104DC00032462C211D2002F063F99DF80F903246E7
:104DD0002D211D2002F05CF99DF80F6009EB0626DD
:104DE000B6B20FFA88F010F0FBFE57A3D3E9002308
:104DF00011F08AF853EC192B10F05CFF41EC180B02
:104E0000C5E9000138B210F0EBFE4FA3D3E900234F
:104E100011F07AF853EC192B10F04CFF41EC1A0BFF
:104E2000C5E9020130B210F0DBFE47A3D3E900234D
:104E300011F06AF853EC192B10F03CFF80468946BC
:104E4000C5E9048953EC182B51EC180B10F032FF14
:104E500006460F4653EC1A2B51EC1A0B10F02AFFA2
:104E6000CDE9000142464B464046494610F022FF3C
:104E70008046894602460B46DDE9000110F064FDDC
:104E800010F0B4F902460B4651EC180B10F0ACF9D7
:104E9000C4E9000195ED028B42464B463046394647
:104EA00010F052FD10F0A2F902460B4651EC180B1F
:104EB00010F09AF9C4E90201D5E90489DDE900237B
:104EC0003046394610F040FD10F090F902460B468E
:104ED0004046494610F088F906460F46C4E9046783
:104EE000BBF1000F20D020A3D3E90023D4E90001B7
:104EF00010F0E0FEC4E900011BA3D3E90023D4E9CC
:104F0000020110F0D7FEC4E9020117A3D3E9002380
:104F10003046394610F0CEFEC4E9040104E04FF0FB
:104F2000010A01E04FF0010A504605B0BDEC068BC6
:104F3000BDE8F08F4FF0020AF6E700BFAFF3008044
:104F4000000000000000F03F00000000C0FFDF4054
:104F500000000000000010400000000000002040A1
:104F60000000000000000040F8C1631ADCA54C40BE
:104F700010B50C46064B186808F0B6FC236828B933
:104F8000044A05491846FBF761FF10BD034AF8E7DC
:104F90003844002028C10100DCC4010048C20100DF
:104FA00010B50C464868FEF738FF011C18BF0121F8
:104FB000044B186808F090FC21460120FFF7D8FF49
:104FC00010BD00BF38440020F0B585B00868244902
:104FD000FBF7F4FE00243DE007EB8403214A02EBDB
:104FE000C3035A5D20492148304412F069FB05365D
:104FF00001351F4B23449B78AB42EDDC002E1CDDBA
:10500000013E1A4B00229A5517E000263546F0E77C
:10501000184A0292154A019200913A4621461048D8
:10502000FBF7F2FE0137032F13DC114B23449B786F
:10503000002BEAD10D4B00221A700D4A135D224459
:1050400091780D4A02EB8402D25D002AE0D00B4A2F
:10505000DFE70134012C01DC0027E4E705B0F0BDF7
:10506000F0C40100402500202CC5010010250020BF
:105070008025002028C101000825002048C2010029
:1050800070B505460E46402200211F4811F05DFB19
:105090001E4B00221A605A607068FEF7BEFE1C4B61
:1050A0005860023D032D00DD042500240BE0A31C05
:1050B00056F82300FEF7B1FE04EBD473144A02EB5A
:1050C000630398700134AC420DDA14F0010FEED195
:1050D000A31C56F82300FEF7A0FE04EBD4735B106C
:1050E0000B4AD054EEE70A490A4B186808F0F8FB5F
:1050F00028B1094A30213068FBF700FF70BD314606
:105100000120FFF761FFF9E7402500200825002076
:1051100080250020384400209CC501002DE9F04383
:1051200085B080460C464868FEF777FEC6B2A06898
:10513000FEF773FEC7B207EB8609012E01D8032FD5
:1051400007D9214A31212068FBF7D8FE05B0BDE818
:10515000F083B8F10B0F05DD1C4A32212068FBF704
:10516000CDFEF3E7002302930393032509E054F8EF
:105170002500FEF752FEEB1E04AA134403F8080CA8
:1051800001354545F3DB124B1868124B03EB8603E0
:10519000DB5D009302AB3A46314608F08FFB28B145
:1051A0000D4A33212068FBF7A9FECFE70B4B03EB39
:1051B000C90904AB13E9030089E803002146012073
:1051C000FFF702FFC2E700BF34C501005CC5010064
:1051D00038440020082500207CC50100402500201F
:1051E0002DE9F04385B00E464868FEF716FE0446EA
:1051F0005FFA80F8B068FEF710FE07465FFA80F9A4
:10520000F068FEF70AFEC0B2051C18BF01254B4628
:10521000424629461248006808F05AFBB8B9E2B283
:10522000FBB2104901EB8201CD5430680E498C5C11
:10523000114489788DB10D4D03950D4D0295019165
:1052400000940C49FBF702FE05B0BDE8F0830A4A62
:1052500034213068FBF752FEF6E7084DECE700BF5B
:1052600038440020082500208025002048C2010085
:1052700010250020F0C40100B8C4010028C10100BD
:1052800070B588B00C4601203C4B1870096807F0D7
:105290002FFCD8B1656804223949284611F022FA5A
:1052A000B0B9364B01221A719A7100230593069307
:1052B0000793A068FEF7B1FD80B243F2C82398427D
:1052C00017D9304A21212068FBF718FE08B070BDBD
:1052D00002222D49284611F005FA20B9274B022257
:1052E0001A719A71E1E7294A20212068FBF706FE2E
:1052F000ECE7ADF81800ADF81400E068FEF78DFD9E
:1053000080B243F2C823984205D9214A222120685D
:10531000FBF7F4FDDAE7ADF81A000A38ADF816002D
:105320002069FEF77AFD154E70801A4D05A9286890
:1053300007F08DFE3146286808F0EFF9014620B1EC
:10534000154A2068FBF7DAFDC0E725680B4C207989
:1053500007F0AAFB0646A07907F0A6FBBDF81830B7
:10536000BDF81A20618802910192009303463246EB
:105370000A492846FBF76AFDA8E700BF88250020F8
:10538000B8C10100E4C10100C0C10100C4C10100F5
:10539000FCC1010038440020CCC501005CC2010002
:1053A000F0B583B00F46104C206808F0BAF90646F5
:1053B000206808F0CEF90546206808F0D2F90146C9
:1053C000386856B1094A55B1094B51B9094900919C
:1053D0000949FBF73BFD03B0F0BD084AF3E7054B75
:1053E000F3E70349F3E700BF3844002048C2010057
:1053F00014C601001CC6010028C6010028C1010016
:1054000010B584B00C460E4B1B8800228DF804208A
:10541000ADF80620ADF80830ADF80A3001A9094B07
:10542000186808F07AF928B921460120FFF7B8FF7B
:1054300004B010BD0146044A2068FBF75FFDF3E7A6
:10544000C8C5010038440020FCC50100F8B50C4671
:105450004868FEF7E2FCC7B2A068FEF7DEFCC6B201
:10546000084D391C18BF0121286808F06EF9311C5D
:1054700018BF0121286808F070F921460120FFF7C4
:105480008FFFF8BD3844002038B50D464868FEF758
:10549000C4FCC4B2A868FEF7C0FCC0B2003418BF98
:1054A00001240A4B1C70031C18BF012308490B7010
:1054B000286834B1074A33B9074B0849FBF7C6FCE3
:1054C00038BD054AF7E7034BF7E700BFFC31002082
:1054D000FD310020DCC20100E4C201005CC6010015
:1054E00010B50C46064B186808F0DBFD236828B998
:1054F000044A05491846FBF7A9FC10BD034AF8E722
:105500003844002028C101006CC7010048C20100D6
:1055100038B50C464868FEF780FC05462168012036
:1055200007F0E6FA40B145B1064B186808F0A4FD53
:1055300021460120FFF7D4FF38BD024B186808F060
:10554000ACFDF5E73844002038B50C46022813D0EE
:1055500000252168012007F0CBFA60B19DB10C4B0A
:10556000186808F0B5FD246801F0B2FE024609494A
:105570002046FBF76BFC38BD4868FEF74EFC051C67
:1055800018BF0125E5E7024B186808F0B4FDEAE70B
:1055900038440020DCC6010038B50C46022813D080
:1055A00000252168012007F0A3FA60B19DB10C4BE2
:1055B000186808F0B3FD246801F08AFE0246094924
:1055C0002046FBF743FC38BD4868FEF726FC051C67
:1055D00018BF0125E5E7024B186808F0B2FDEAE7BD
:1055E00038440020DCC6010010B50C4609680120D3
:1055F00007F07EFA00B910BD0D4B186808F051FD98
:1056000080B16068FEF709FCC1B2094B186808F068
:10561000ADFD246801F05CFE024606492046FBF71A
:1056200015FCE8E7044A31212068FBF767FCE2E754
:1056300038440020DCC6010054C701002DE9F041C8
:1056400082B004460D46264B186808F02AFD18B3B0
:10565000012C27DC2526022C29DC224F032C2BDCF5
:10566000DFF89880042C2CDC00241D4B1868009473
:1056700033463A46414608F0A0FD58BB28683246FA
:1056800034BB194B0193CDF800803B461749FBF71B
:10569000DDFB02B0BDE8F081154A31212868FBF737
:1056A0002DFCF6E76868FEF7B8FBC6B2D3E7A8683A
:1056B000FEF7B3FB0746D1E7E868FEF7AEFB80468E
:1056C000D0E72869FEF7A9FB041C18BF0124CCE72A
:1056D000084BD7E7084A32212868FBF70FFCD8E7C8
:1056E00038440020D6BE898E48C20100E8C60100B9
:1056F00054C7010028C1010030C7010055555500AD
:1057000070B582B00C464868FEF787FB0646C5B206
:10571000284B186808F0C5FC60B3A5F12503DBB27F
:10572000022B2DD8234B1868002300932B46224AC6
:10573000224908F042FD50BB252D2ED0262D30D019
:10574000272D32D0F2B21E492068FBF77FFB1D4E99
:105750001D4D0FCD30607160B260F36007CD3061D8
:105760007161B261194B1C221A802146012003F09D
:105770006FF80AE0164A31212068FBF7BFFB04E00E
:10578000144A30212068FBF7B9FB02B070BD124A01
:1057900032212068FBF7B2FBF7E7002005F0DEFDC1
:1057A000D0E70C2005F0DAFDCCE7272005F0D6FD88
:1057B000C8E700BF38440020D6BE898E5555550035
:1057C00094C60100540F0020ACC601004C1100200B
:1057D00054C7010078C6010030C7010038B504463F
:1057E0000D464868FEF719FB003018BF01202B4B0F
:1057F0001870D0B100229A709A804FF47A71996033
:105800002749D960274919612521D9805A70022C6E
:1058100015DC032C19DC042C1DDC052C21DC062CEA
:1058200025DC072C29DC082C2DDC1C4B1B78002BDD
:1058300032D11D4A1D492868FBF708FB38BDA8680E
:10584000FEF7EBFA154B9870E3E7E868FEF7E5FA28
:10585000124B9860DFE72869FEF7DFFA0F4B98805C
:10586000DBE76869FEF7D9FA0C4BD880D7E7A8695F
:10587000FEF7D3FA094B1861D3E7E869FEF7CDFAD2
:10588000064BD860CFE7286AFEF7C7FA003018BF8A
:105890000120024B5870C8E7054ACBE7D83B0020EF
:1058A00055555500D6BE898E28C10100C8C60100D5
:1058B00048C201002DE9F04383B081460E460968D5
:1058C000012007F015F9002847D0264B1A68264B0F
:1058D0001A6001242546B9EB840F2CDD2701A7F1BE
:1058E0000C0856F80800FEF798FAB0F5803F1CD275
:1058F00056F80800FEF791FA6A1E1C4B12019D181B
:105900009852A7F10803F058FEF787FAA8703B1FDA
:10591000F058FEF782FA6860F059FEF77EFAA86048
:1059200000232B730134E4B2D4E7114A1621306806
:10593000FBF7E4FA11E0013C0B4FBC7139460D4B0B
:10594000186807F0E6FF34686A1E3B6840B90A49E8
:1059500000910A492046FBF779FA03B0BDE8F083CD
:105960000749F5E7C400002024000020EC3B00209C
:1059700074C7010038440020DCC2010094C7010054
:10598000E4C2010070B505460C460968012007F025
:10599000AFF800B970BD6068FEF73FFA061C18BF8B
:1059A0000126022D0DDC002231460A4B186807F053
:1059B000B4FF236860B9084A08491846FBF746FA5D
:1059C000E8E7A068FEF729FA021C18BF0122EBE7FE
:1059D000034AF1E738440020DCC20100B4C70100EB
:1059E000E4C2010010B584B00C464868FEF715FA11
:1059F000C1B2114B186807F094FF10F5007F15D065
:105A000007EE900AF8EEE77A0223B5EE007A67EE29
:105A1000877A17EE902A0A2101A8FBF7A3FA01AAB8
:105A200006492068FBF712FA04B010BD044A0821A9
:105A30002068FBF763FAF7E73844002034C8010018
:105A4000ECC7010010B586B00C460968012007F0CC
:105A50004FF808B906B010BD6068FEF7DEF98DF8A2
:105A60000800A068FEF7D9F90390E068FEF7D5F9C1
:105A7000049000238DF8143002A90A4B186807F02F
:105A800055FF246858B1084A9DF8083004990191DF
:105A90000399009105492046FBF7D8F9DAE7044A53
:105AA000F2E700BF38440020E4C20100C0C7010093
:105AB000DCC2010010B50C460968012007F018F897
:105AC00000B910BD6068FEF7A8F9011C18BF0121DC
:105AD000064B186807F054FF236828B9044A0549A3
