:100000000000022099140000C5140000C51400006F
:10001000C5140000C5140000C5140000C51400007C
:10002000C5140000C5140000C5140000C51400006C
:10003000C5140000C4140000C5140000C51400005D
:1000400069430000755A0100C5140000C514000082
:1000500019540100E15A0100815A0100995A010026
:10006000795A0100393E0000113F00007143000041
:1000700091190000C5140000E9640000C5140000D7
:10008000C5140000C5140000393F00003D650000A4
:10009000C5140000C5140000C5140000C5140000FC
:1000A000C5140000C5140000C5140000C5140000EC
:1000B000E55A01007D5A010055410000255B010011
:1000C000C51400009D0C0100C5140000C5140000FB
:1000D000C5140000C5140000C5140000C5140000BC
:1000E000C5140000C5140000C5140000C5140000AC
:1000F000C5140000C5140000C5140000C51400009C
:10010000C5140000C5140000C514000010B5054C4E
:10011000237833B9044B13B10448AFF300800123B3
:10012000237010BD9016002000000000D87A020055
:1001300008B5034B1BB103490348AFF3008008BD6A
:100140000000000094160020D87A0200154B002B06
:1001500008BF134B9D46A3F5803A00218B460F46FE
:100160001348144A121A16F0F0FF0F4B002B00D060
:1001700098470E4B002B00D0984700200021040028
:100180000D000D48002802D00C48AFF3008016F097
:1001900085FF200029000CF093F816F059FF00BFEE
:1001A0000000080000000220000000000000000025
:1001B0009016002080440020000000000000000095
:1001C00010B50121084600F033F9124C20610321DB
:1001D000012000F02DF960610421012000F028F9D0
:1001E000A0610121084600F0F5F8606003210120BC
:1001F00000F0F0F8A0600421012000F0EBF8E060CE
:10020000012304F1200204F11C01184600F074F9E6
:1002100010BD00BF3C38002070B582B0362000F021
:100220007BF800F05BF800F04DF84FF4165000F04A
:1002300061F81549362000F09DF8002418E0E0B27E
:100240000130124A04F1140352F8231004F116038A
:1002500052F8233004F1180552F825504A080C4E84
:10026000A6FB026200955209C0B200F065F80134A5
:10027000022CE4DD074B1B780BB902B070BD0221E4
:10028000002000F09BF8F8E72CBF010028BF010018
:1002900059771813B839002008B5034B1B7803B9F8
:1002A00008BDFFF78DFFFBE7B839002008B5044B08
:1002B0001B7803B908BD0221002000F077F8F9E7A8
:1002C000B839002008B5044B1B7803B908BD0020DD
:1002D00000F0DCFDFAE700BFB839002008B5044B98
:1002E0001B7803B908BD002000F0E6FAFAE700BF6A
:1002F000B8390020074B1B7803B9704710B5044686
:100300000146002000F03EFE2146022000F03AFEA9
:1003100010BD00BFB839002008B5034600F00F0239
:1003200004480270C3F30313437000F0BBFA0020CB
:1003300008BD00BFB8390020012802D0022807D02C
:1003400070470748416082604361009B836170474A
:100350000348C1600261C361009B0362F0E700BF14
:10036000B839002008B500F083FD08BD08B500F0DD
:10037000B5FC08BD10F00F0F12D008B5094B1B7863
:100380000BB9002008BD0B46132200210846FFF7D9
:10039000EDFF054B132200210846FFF7E3FFF0E7CE
:1003A00000207047B8390020F839002008B100203B
:1003B000704708B500F09AFD002008BD044A4FF4CC
:1003C000AC7303FB002080F824100020704700BFAE
:1003D000B839002070B504460A460146002000F0F6
:1003E0007DFA012C11D0022C17D0002000218C00A6
:1003F000850044EA90762A1846EB0103941843EBF3
:100400000305200F40EA051070BDC517074B5B6858
:10041000A0FB030103FB0511E9E7C517034BDB68EC
:10042000A0FB030103FB0511E1E700BFB839002081
:1004300070B504460D460A460146002000F022FB36
:1004400004EB84032B442A4A52F82330B3F1C04F03
:100450000BDDB0F1204F08D204EB84032B440E33A4
:1004600002EB83035A6801325A6004EB84032B4485
:100470001F4A52F82330B3F1204F0BD2B0F1C04FD6
:1004800008DD04EB84032B440E3302EB83035A682C
:10049000013A5A60164B04EB8401294443F82100C9
:1004A0000E3103EB810100254E682A1846EBE073FC
:1004B00010461946012C0DD0022C12D08C0082005F
:1004C00044EA9073141843EB0105221945EB050328
:1004D000184670BD07498C68A2FB040104FB031198
:1004E000ECE704490C69A2FB040104FB0311E5E7F6
:1004F000103B0020B83900202DE9F04F83B00446AE
:100500000091019298460146002000F029FB8146A7
:100510002146002000F042FB012C30D01E4BDC694C
:100520001E6AA9FB04ABA0FB06674FEA8B034FEAE8
:100530008A0143EA9A7211EB0A0442EB0B0514EBB1
:10054000040A45EB050BB900B40041EA9675A219FF
:1005500045EB0703941843EB03054FEADA3141EA10
:100560004B41620C42EAC532B8F1000F0BD0B8F132
:10057000010F0DD1009B1960019B1A6008E0064B2A
:100580005C699E69CDE7009BC3F80090019B1860F1
:1005900003B0BDE8F08F00BFB83900200C4B1A68DB
:1005A0004FF4AC7303FB00200A4B03634363002347
:1005B00080F82A3080F82C3080F82930064A82638F
:1005C000C26380F82B3080F82D3080F828307047D7
:1005D000B03B0020B83B0020883B0020430803F0DC
:1005E0005503400020F0550040B20343DBB29808A9
:1005F00000F033009B0023F033035BB20343DBB214
:10060000180940EA0310C0B2704700000022072A10
:1006100018D810B405E04000C0B20132D2B2072AA7
:100620000DD809490B7883EA00045B00DBB20B703C
:1006300014F0800FEFD083F007030B70EBE75DF849
:10064000044B7047704700BFAC16002038B5054614
:100650000024064B1C7004E0285DFFF7D7FF01342F
:10066000E4B2032CF8D9014B187838BDAC16002041
:10067000184B1B68D96B9A6B91420FD016480278C1
:100680000132D2B20270042A18D993F82B20013219
:1006900083F82B20104B00221A707047002283F839
:1006A0002B200E4A9A6393F8281002F8011BDA6394
:1006B000012283F82D20084B1A70704793F82830D8
:1006C0000B70044B1B68DA6B0132DA63012283F88A
:1006D0002D207047B03B0020AD160020883B002045
:1006E0000B4B1B68596B1A6B914208D012F8011B17
:1006F00083F829101A63012283F82A207047002208
:1007000083F82A2083F82C20024A1A635A63704720
:10071000B03B0020B83B002070B588B0064601AC65
:100720001A4D0FCD0FC495E8070084E80700039623
:100730000121174801F090FC0121164801F08CFCC2
:100740000121154801F088FC144C01A9204603F052
:1007500047FA012304220721022002F073FD01233E
:100760001A460B21022002F06DFD636F43F0030374
:100770006367A36F23F4F85323F01F0343F440632C
:1007800043F00F03A36708B070BD00BF90BF010026
:100790004041050000350A000052040000040140F9
:1007A00000B1704710B50C460B4604220821022008
:1007B00002F048FD24B1054B4FF480721A6010BD61
:1007C000034B4FF480721A60F9E700BF6CA000463B
:1007D0006CA0004408B501F0B9FA08BD10B50024BA
:1007E00007E06420FFF7F6FF6420FFF7F3FF013412
:1007F000E4B2022CF5D910BD08B56420FFF7EAFF7A
:100800006420FFF7E7FF08BD10B5044603F028FA9F
:10081000204603F01EFA10BD70B504466420FFF7B1
:10082000D9FF4FF4AC7303FB04F41C4B1B68234447
:1008300093F82C2002B170BD1B6B19781848FFF794
:10084000E3FF0546154B1B6823441A6B01321A63FC
:10085000012283F82C2006E0104B1B68234493F8F8
:100860002C30002BE7D00D4E3368234483F82850FA
:10087000FFF7FEFE336823445B6B002BECD0FFF7E1
:100880002FFF3368234493F82A20012AE4D193F8F8
:1008900029100348FFF7B8FF0546DDE7B03B00200D
:1008A0000004014010B5044601F0A6F9014B1C609C
:1008B000002010BDB03B002010B504460021FFF71A
:1008C0006FFF4FF47A70FFF785FF01212046FFF795
:1008D00067FF4FF47A70FFF77DFF10BD013A062ADB
:1008E00000F2CC80DFE802F004223E5A7692AE009D
:1008F000012905D002290ED0002040F31B007047CB
:100900005F4B1A684FF4AC7303FB0020D0F8F8007B
:1009100020F06040F1E75A4B1A684FF4AC7303FBC8
:100920000020D0F8280120F06040E6E7012903D03C
:1009300002290CD00020E0E7514B1A684FF4AC7349
:1009400003FB0020D0F8FC0020F06040D5E74C4BC2
:100950001A684FF4AC7303FB0020D0F82C0120F090
:100960006040CAE7012903D002290CD00020C4E767
:10097000434B1A684FF4AC7303FB0020D0F800011E
:1009800020F06040B9E73E4B1A684FF4AC7303FBAC
:100990000020D0F8300120F06040AEE7012903D0FC
:1009A00002290CD00020A8E7354B1A684FF4AC732D
:1009B00003FB0020D0F8040120F060409DE7304B9D
:1009C0001A684FF4AC7303FB0020D0F8340120F018
:1009D000604092E7012903D002290CD000208CE767
:1009E000274B1A684FF4AC7303FB0020D0F80801C2
:1009F00020F0604081E7224B1A684FF4AC7303FB90
:100A00000020D0F8380120F0604076E7012903D0BB
:100A100002290CD0002070E7194B1A684FF4AC7310
:100A200003FB0020D0F80C0120F0604065E7144B78
:100A30001A684FF4AC7303FB0020D0F83C0120F09F
:100A400060405AE7012903D002290CD0002054E766
:100A50000B4B1A684FF4AC7303FB0020D0F8100165
:100A600020F0604049E7064B1B684FF4AC7202FB74
:100A70000030D0F8400120F060403EE700203CE725
:100A8000B03B0020013A032A66D8DFE802F0021BDF
:100A9000334D012904D002290BD00020C117704723
:100AA0002E4B1A684FF4AC7303FB0020D0F8E8001B
:100AB000F4E72A4B1A684FF4AC7303FB0020D0F81C
:100AC0001801EBE7012903D002290AD00020E5E74D
:100AD000224B1A684FF4AC7303FB0020D0F8EC00F3
:100AE000DCE71E4B1A684FF4AC7303FB0020D0F810
:100AF0001C01D3E7012903D002290BD00020CDE748
:100B0000164B1A684FF4AC7303FB0020D0F8F000CA
:100B10004042C3E7114B1A684FF4AC7303FB00204B
:100B2000D0F820014042B9E7012903D002290AD0B8
:100B30000020B3E7094B1A684FF4AC7303FB0020A5
:100B4000D0F8F400AAE7054B1B684FF4AC7202FB27
:100B50000030D0F82401A1E700209FE7B03B00203F
:100B6000012903D002290CD0002070470A4B1B68D2
:100B70004FF4AC7202FB0030D0F8D000C0F30E008E
:100B80007047054B1B684FF4AC7202FB0030D0F885
:100B9000D400C0F30E007047B03B0020012903D001
:100BA00002290BD000207047094B1B684FF4AC7230
:100BB00002FB0030D0F8D000C00B7047044B1B681C
:100BC0004FF4AC7202FB0030D0F8D400C00B704779
:100BD000B03B00202DE9F04F87B0804601911446CC
:100BE0001F469DF840B028252A460021384816F0B7
:100BF000ACFA2A460021374816F0A7FA4046FFF71C
:100C0000CDFC24B14FEA440A5FFA8AFA01E04FF0C2
:100C1000010A0026B1462AE006AB1D1915F8080C9A
:100C2000FFF7DCFC05F80C0C0134E4B2032CF3D91B
:100C300003A8FFF70BFDFFF7D1FC01468DF8140068
:100C4000254B1A68526B04981060117109F105095F
:100C50001A68536B053353634046FFF7DDFDBBF164
:100C6000010F17D04046FFF799FC0136F6B2B245A6
:100C70001BD9FF238DF81030019B1B7833448DF86E
:100C800011303B788DF812307B788DF813300237B5
:100C90000024CBE7104B1A684FF4AC7303FB082316
:100CA00093F82B30002BF5D0DCE74046FFF776FCBD
:100CB000282422460021064816F047FA2246002141
:100CC000044816F042FA484607B0BDE8F08F00BF6E
:100CD000B83B0020883B0020B03B002010B584B01A
:100CE00004AC44F8041D012100912146FFF772FF76
:100CF000C0B204B010BD00002DE9F04F85B006462B
:100D00000D4690469946282422460021554816F063
:100D10001CFA22460021544816F017FA3046FFF715
:100D20003DFC2B788DF80830FF238DF809308DF8C5
:100D30000A308DF80B30002409E004AB1D1915F8BA
:100D4000080CFFF74BFC05F80C0C0134E4B2032C43
:100D5000F3D901A8FFF77AFCFFF740FC01468DF8B4
:100D60000C004FF4AC7404FB06F4404A13682344AF
:100D70005B6B029818601971136823445A6B053233
:100D80005A633046FFF748FD00230093374B1B683A
:100D9000234493F82B305BB9009B01330093009BF5
:100DA000B3F5FA7FF2D93046FFF7F8FB002755E09C
:100DB0003046FFF7F3FB0025052736E004AB03EBD5
:100DC0000A0B1BF8080CFFF709FC0BF80C0C0AF1D6
:100DD000010A5FFA8AFABAF1030FEFD901A8FFF707
:100DE00035FCFFF7FBFB01468DF80C001F4A13682A
:100DF00023445B6B02981860197105371268536BB6
:100E0000053353633046FFF707FD184B1B68234437
:100E100093F82B20002AF8D09B6B1B6849F82530EB
:100E20003046FFF7BBFB0135EDB245450BD2FF2342
:100E30008DF808308DF809308DF80A308DF80B30B8
:100E40004FF0000AC7E7282422460021054816F083
:100E50007CF922460021044816F077F9384605B09F
:100E6000BDE8F08FB83B0020883B0020B03B00205D
:100E700008B10020704710B582B00C4602A941F8B5
:100E8000044DFFF739FF002002B010BD38B505460C
:100E90004FF41650FFF740FC4FF47A70FFF79AFCBE
:100EA0002846FFF79BFC4FF47A70FFF793FC642011
:100EB000FFF790FC44F62060FFF78CFC4FF4AC7415
:100EC00004FB05F4084B1B68234440330122002136
:100ED0002846FFF711FF30B9034B196800220A5565
:100EE0001B681C44627038BDB03B002010B584B054
:100EF00000230393A8B9044602292AD0032912D05B
:100F000001293AD004A9282341F8043D1C4B1A6852
:100F10004FF4AC7303FB0423903331222046FFF7D8
:100F2000EBFE04B010BD164B1A684FF4AC7303FB14
:100F300000239A6C22F4C00242F4000243F8482FC6
:100F400004A9042241F8042D01220092FFF742FE79
:100F5000D8E70B4B1A684FF4AC7303FB00239A6C71
:100F600042F4C00243F8482F04A9042241F8042D9A
:100F700001220092FFF72EFEC4E7FFF73DFCC1E718
:100F8000B03B0020F0B585B000230393022811D0B8
:100F90000446002851D1B1F5614F44D00FD8B1F5C6
:100FA000165F47D0B1F5964F3AD0B1F5166F11D014
:100FB000002033E00846FFF7AFFB01202EE0B1F53B
:100FC000613F33D0B1F5E12F32D0B1F5E13FEFD140
:100FD0008B2201E041F60B224FF4AC7606FB04F6BF
:100FE000174F3B683344C3F88C2004AD262345F8E3
:100FF000043D144B012229462046FFF77DFE3B6845
:101000003344022200928C33002229462046FFF707
:10101000E1FD42F21070FFF7DDFB012005B0F0BDED
:1010200040F24132D8E74FF48B72D5E74522D3E73F
:101030002322D1E740F28362CEE70020EEE700BF33
:10104000B03B0020B01600202DE9F04114469DF879
:10105000187003329A4240D80546002303E001315C
:10106000EA54013C013314B10A780A2AF7D05E1C15
:101070007B22EA542246A81916F043F83444661C31
:101080007D232B550023AB553A21284617F056F8FF
:10109000044670B154B104F101083A21404617F0FA
:1010A0004DF8E8B9012F09D0022F0FD03046BDE826
:1010B000F081002FEED16FF00B06F7E7641B361BB3
:1010C00032464146681C16F027F8EFE77D2323706F
:1010D00000236370651B6E1CE8E76FF00A06E5E706
:1010E0006FF00C06E2E700002DE9F04782B0804681
:1010F0000D46924699460C4600273E4610E0204693
:1011000017F033F80246CDF80080C6F5807321460B
:1011100014483044FFF798FF071E0BDB3E446C1C5D
:1011200045B12C21204617F009F805460028E6D0E5
:10113000021BE8E751460B4818F092F8002F07DB36
:101140000027B9F1000F08D1384602B0BDE8F0879A
:101150007942054816F03EFEF3E7044816F0C2FE59
:10116000F2E700BFB4160020C4BF0100DCBF0100DD
:10117000014B1870704700BF00000020084B1B781F
:101180000BB90120704710B504467B2016F03AFEDB
:101190001CB12146034816F01DFE012010BD00BF02
:1011A00000000020E0BF01000EB410B583B0104B6A
:1011B0001B7833B90124204603B0BDE8104003B0CA
:1011C0007047044606AB0193232016F01BFE204611
:1011D000FFF7D4FF04460028EDD00123019A0599BA
:1011E0000220FFF781FF0028E5D00024E3E700BFDD
:1011F000000000200FB410B582B00E4B1B7833B93D
:101200000124204602B0BDE8104004B0704705AB91
:1012100001930020FFF7B2FF04460028F1D001231C
:10122000019A04991846FFF75FFF0028E9D00024CF
:10123000E7E700BF000000200EB410B583B00D4BEF
:101240001B7833B90124204603B0BDE8104003B039
:10125000704706AB0193FFF791FF04460028F2D0D8
:101260000123019A05990020FFF73EFF0028EAD0EC
:101270000024E8E7000000200FB410B582B00B4B4B
:101280001B7833B90124204602B0BDE8104004B0F9
:10129000704703F0FF0405AA019200230499184641
:1012A000FFF722FF0028EED00024ECE7000000202A
:1012B0000FB410B582B00B4B1B7833B90124204614
:1012C00002B0BDE8104004B0704703F0FF0405AA67
:1012D0000192012304990020FFF706FF0028EED0B9
:1012E0000024ECE7000000200CB430B583B0134BB1
:1012F0001B782BB9012003B0BDE8304002B0704725
:101300000D46044607AB01937B2016F07BFD1CB114
:1013100021460B4816F05EFD0A4816F05BFD019968
:10132000069817F09DFF7D2016F06CFD29460648B3
:1013300016F050FD054816F0D5FDDBE70000002053
:10134000E0BF0100ACBF0100B4BF0100DCBF010081
:1013500006EE902AF5EEC06AF1EE10FA4CBF0122BB
:101360000022002800F089802DE9F0472DED028B46
:101370004FFA82F80746894601329A461A44002BF2
:1013800018BF01320132914279DBCCB2601E40B20B
:1013900000223A54F0EE667A05E0B2EE047A67EE87
:1013A000877A0132D2B29A42F7D31D46B0EE668AEE
:1013B0000E46F5EEC06AF1EE10FA0ED417EE900A62
:1013C00015F020F90022324B14F0BEFF15F022FC7C
:1013D000002859DB023C64B21BE017EE900A15F0BE
:1013E00011F900222A4B14F0ADFF15F013FC404216
:1013F000EEE7ACF1020464B22E22FA5400E01C467F
:1014000029B90DB3A9EB0A03033B9C421CDB4445FD
:101410001ADB204B83FB0023C217C2EBA302114649
:1014200002EB82025300C21A08465FFA84FC0CF1F8
:10143000FF335BB230323A55002DE0D09A1C524453
:101440009145D6D01C46DBE700BBB5EEC08AF1EE75
:1014500010FA05D4B4F1FF3F07D1341B601E0FE032
:10146000631E2D223A555CB2F4E7611C321B013A2F
:101470003944384615F050FEEFE700207047002051
:10148000BDEC028BBDE8F0870020F9E70020F7E70C
:101490000000E03F67666666064880470649074ADF
:1014A000074B9A42BEBF51F8040B42F8040BF8E711
:1014B000FEF74CFE193D0000E47A02000000002017
:1014C0008C160020FEE700BF38B504460CF020FD66
:1014D000044D0FCC0FC594E80F0085E80F000020E5
:1014E00038BD00BFB417002047F6FF739A4265D09D
:1014F000022965D870B40C46334B13F83130012BF8
:1015000021D0314B03EBC103586800285AD0B0F901
:101510000030934204DBB0F90230934200DC134602
:101520001C46C83B294A82FB0352DB17A3EB22135C
:101530001BB2254A02EBC1014D786A1E12B29A42D3
:1015400025DB1A4623E0204B03EBC101C8780138A4
:1015500001E0013800B238B11B4B03EBC4035B68F8
:1015600033F910309342F4DC0130C0B224E003F5CB
:10157000FA731749A1FB03139B09013212B21646F5
:10158000AA420FDA00EBC201898899420AD300EB24
:10159000C2018E68B1F9063003FB0463002BE6DA62
:1015A0000023E4E7013E00EBC6008088984200D3A8
:1015B000184600B90120C0B270BC7047FF207047C8
:1015C000002070470020F7E7B417002067666666C2
:1015D000D34D621002295BD8314B13F83130012B07
:1015E00024D0002A56D070B42D4B03EBC1035C68A5
:1015F000002C51D0201D51D0012A28D9284B03EBB3
:10160000C103DB78934226D9254B03EBC1014E7809
:10161000013EF6B20023B34220D2591C30F83150BB
:1016200091B28D421AD30133DBB2F4E71C4B03EBCA
:10163000C103DB78934200D313460BB1013BDBB20D
:10164000174A02EBC1014A6832F913007047B4F936
:10165000020070BC7047B4F90000FAE74FF47A71E9
:1016600001FB02F200EBC3035968521AB3F90210EE
:1016700001EBD17302EB630393FBF1F3B4F90000C8
:101680009842E6DBB4F902009842E2DC18B2E0E7E7
:1016900004487047044870470248DAE70148D8E731
:1016A000B41700200080FFFF0CFEFFFF08B501F01B
:1016B00053FD08BD30B587B001AC254D0FCD0FC42B
:1016C0002B682380234B5B6813F4002F35D1214B0B
:1016D0009B68C3F30803B3F1FF3F01D0ADF80A30B4
:1016E00001A801F097FA1C4802F004FB184B5B6953
:1016F00006A840F8183D01F0CBFA4FF4004002F084
:1017000025FB01221146022001F00EF904211120CF
:1017100001F094F900221146032001F005F903219C
:101720000E4801F08BF903210D4801F087F90321E0
:101730000C4801F083F907B030BD4FF0FF330A4A7F
:1017400012884FF6FF718A42C5D01346C3E700BF27
:10175000A0C00100B081E00F00F0490202001E00AD
:1017600003002000050024000001E00F08B5194B1C
:1017700001225A64184BDB6C1B0E0AD117494AF63A
:10178000E8520A601648026842F004020260002231
:101790000A60012B18D9134A136A23F4441343F443
:1017A00088131362A2F58042136843F480731360B8
:1017B000FFF77CFFFFF77EFF0B4A136823F4E0631B
:1017C00043F40073136008BD084A136843F40053E0
:1017D0001360E0E700000E40B081E00F90310E4052
:1017E00098310E4000400E4000500E4064310E40D3
:1017F00008B50121024800F02FFC00F0FFF808BDF9
:1018000000350A0008B500F001F808BD00B583B046
:10181000FFF7ACFFFFF7ECFF0A48FFF755FE02F0B9
:10182000D7FA094B984200D020B9002101A802F054
:101830009FFA10B103B05DF804FB9DF804000CF0B2
:1018400097F8F7E7E8BF0100038000F008B10B222A
:1018500002600148704700BF20C1010008B10D229D
:1018600002600148704700BFB8C00100024B03444A
:101870009B0000221A6070474000F31070B50446C8
:101880000D460121154800F0E7FB2046FFF7EEFF6B
:101890009DF810209DF8143043EA022304F114014E
:1018A0000F4A42F82130A2080E4B53F8220004F0F0
:1018B0000301C900FF268E4020EA060043F82200FB
:1018C00053F8220005FA01F1014343F82210064BB8
:1018D00023449B0001221A6070BD00BF00450A002E
:1018E00000600E4010600E404000F3100020704772
:1018F000FEE74FF400534B60002070470120704713
:101900000020704770B50C460025561E4AB100F005
:10191000D9F8B0F1FF3F04D02070013532460134D0
:10192000F3E7002D01DD284670BD4FF0FF35FAE7E3
:101930000346064A126822B1044A10680344136041
:101940007047024A02491160F6E700BFD417002031
:101950008044002070B51646002405E04D1C087830
:1019600000F0E4F801342946B442F7DB304670BD9C
:10197000024AD36C23F00403D36470470000014093
:10198000024AD36C43F00403D36470470000014063
:1019900038B5104B1B6913F0800F19D00E4B1B6824
:1019A000072B13DC0D4C25680A4802F052F90C4B4A
:1019B0005855236801332360074A136801331360C5
:1019C0002368082B04D10022226001E0FFF7D0FF3A
:1019D00038BD00BF00000140E4170020EC170020D4
:1019E000DC17002018B9044B00221A707047024B14
:1019F00001221A70704700BFD817002030B589B097
:101A00000121284800F028FB0121274800F024FB91
:101A1000012304221946002001F014FC01230222B4
:101A20001146002001F00EFC01AC204D0FCD0FC47B
:101A300095E8070084E8070001211D4800F00CFB31
:101A4000002508A901F81C5D1A4C204602F0C8F8D0
:101A500003236367A36F23F4F85323F01F0343F4B6
:101A6000807343F00103A3670423A364124A4FF475
:101A70008051C2F88011E36C43F00403E364116009
:101A80000521204602F06EF80C4B18682B46022206
:101A90002946806816F02EFA094B01221A7009B007
:101AA00030BD00BF4041050000350A0040C20100C2
:101AB000004204000000014000E100E0C0110020ED
:101AC000D917002038B5154B1B78E3B101F00BF99D
:101AD0000546134B1B68002B1CDD124B1A6812497C
:101AE0008C5CE4B21A6801321A601B68082B0DD0B6
:101AF0000B4A1368013B1360FFF742FF284601F0D1
:101B0000F6F8204638BDFFF779FFDFE7054B0022E6
:101B10001A60EDE74FF0FF34F0E700BFD91700205F
:101B2000E4170020E8170020DC17002010B5044659
:101B30000A4B1B7853B10A4B1B780BB10A2C08D007
:101B40002146084802F08CF8204610BDFFF756FFEA
:101B5000F1E70D21034802F083F8F1E7D9170020DF
:101B6000D8170020000001400138FDD87047000060
:101B7000F8B51F4B4FF480521A601D4A13685B0082
:101B8000136073B11B4B9A681A4B9B689A42FBD047
:101B9000184CA568164B1868FFF7E6FFA368AB4220
:101BA000EBD0134B1A6852081A601C68082300E037
:101BB0002B465D1ED3B1640818D00D4A1368234329
:101BC00013600C4B9A680B4B9B689A42FBD0094EF2
:101BD000B768074B1868FFF7C7FFB368BB42E7D089
:101BE000034A136823EA04031360E1E7F8BD00BF6A
:101BF00004000020002004402DE9F04F87B04C4A3B
:101C000003AB07CA03C31A704A4BD3F8B03013F0C2
:101C1000040F5ED00026484800F0EEFA054603287F
:101C20005DD04FF00108434BD3F8903013F0400FD4
:101C300058D000270321404800F000FF3F4800F043
:101C4000D5FA01903B4BD3F8F03013F0010F4BD095
:101C50004FF0000901F047F80090394B1B6813F072
:101C6000010F48D0364BD3F800B05C6A00221A60EE
:101C70005A6240F2FF721A62324B4FF08042C3F850
:101C800080214FF0010A00238DF80E308DF80F30BF
:101C900008238DF8103003A801F032FEFFF768FF2B
:101CA000009801F024F8BAF1000F28D001992348D8
:101CB00000F080FD224BC3F800B05C62B9F1000F68
:101CC00021D1B8F1000F23D13FBB66BB07B0BDE8FF
:101CD000F08F01211C4800F0BFF901269BE74FF06F
:101CE0000008A0E70127A5E70121144800F0B4F996
:101CF0004FF00109AEE70024A346A246C3E7002047
:101D000001F0F8FDDAE700210C4800F0A5F9D8E76A
:101D10002946094800F092FED6E70022114601202C
:101D200000F002FED1E70021074800F095F9CDE769
:101D30005CC2010000400E4005002400A009140010
:101D40000020044000E100E000250A0003460849A5
:101D5000002B0CD0013B88221202003253430A6848
:101D6000D80AD20A5043800901D00138FDD8704703
:101D700004000020074B1B681968074A914201D0F4
:101D8000002070475A68B2F1FF3F01D05868704791
:101D9000002070470800002005DA05D580B138B56D
:101DA00005460C46FFF7E6FF60B11CB1064B1B6809
:101DB0005B682360044B1B6808332B60002038BD30
:101DC000012070470320FAE70800002010B501F059
:101DD0003BFD064B18681AF0A3F820B9002401F067
:101DE00043FD204610BD0324F9E700BF0800002092
:101DF00010B582B0019100283ED0044601F00303E3
:101E0000C3F5FF63994202D9012002B010BD01F071
:101E10001BFD1A4B18681AF083F828B101F024FD55
:101E2000FFF7D4FF0120F0E704221549134B18688F
:101E30001AF072F8E8B9114B186804220DEB020190
:101E400010441AF069F888B9019A03320B4B1868EC
:101E500022F00302214608301AF05EF810B101F0BA
:101E600003FDDDE701F000FD0020CEE701F0FCFC02
:101E7000D6E701F0F9FCD3E70120C6E7080000200F
:101E800068C20100036823F0010303607047036820
:101E900043F001030360704743681B0C1B0443EAD3
:101EA000012111434160704738B505460C46FFF7E4
:101EB000E9FF227863681B0643EAC273227A43EA89
:101EC0004253627A43EA0253A27A43EA8243E27AB5
:101ED00043EAC233227B43EA0233227C43EA820391
:101EE0002B60E37B1B066B60637BAB62A37BEB62C7
:101EF000637C1BB92846FFF7C5FF38BD2846FFF7AE
:101F0000C6FFFAE730B4031D0C78240403F18065A2
:101F10004FF47C122A6003F1C0631C6000F12803B7
:101F20004C68240403F180652A6003F1C0631C60DF
:101F30002C308B681B0400F180610A6000F1C060E6
:101F4000036030BC704700000C4B984208D90C4B22
:101F5000984202D90221012204E001210A4601E04F
:101F600000210A46074B1A60074AD2F8003123F0D5
:101F7000807343EA0163C2F8003170470048E8010A
:101F80000090D0034000C84300400E40014B186849
:101F9000704700BF0C00002010B4124B5B68002398
:101FA00000E00133042B0BD80F4A02EBC302147973
:101FB000CAB29442F5D10C4A52F833208242F0D38F
:101FC000052B0DD0084A02EBC3035979054A536823
:101FD00023F0407343EA016353605DF8044B70479C
:101FE0000321F3E700000E4000D0010003300F286A
:101FF00028BF0F200007704708B501F03BFE044BD7
:10200000D3F80031C3F3042303FB000008BD00BF75
:1020100000400E4010B5074B1C6C41F671321A643B
:1020200001F024FE0021FFF7B7FF14B1014B00229D
:102030001A6410BD00000E4010B5064B1C6C41F632
:1020400071321A64FFF7A8FF14B1024B00221A6420
:1020500010BD00BF00000E40C0F30323013B092B5D
:102060003AD8DFE803F005083939180B0E39111595
:1020700000221A4B11E00022194B0EE00122194BED
:102080000BE01022184B08E04FF48032174B04E0AD
:102090000022174B01E00022164BC0F30430A2B11E
:1020A00010B40E4CD4F8444114F0010F04D10B4C81
:1020B000D4F840412242FAD103F1047300EBC3008B
:1020C000800001605DF8044B704703F1047300EB7E
:1020D000C300800001607047704700BF00400E40A1
:1020E000C0400E40E0400E40E8400E40F0400E4040
:1020F00050410E40B0400E40C0F30313013B092B8A
:1021000065D8DFE803F0050B111764641D233D5B00
:10211000314BD3F80001C0F3042070472E4BD3F8A5
:102120001401C0F3042070472B4BD3F80001C0F317
:1021300000607047284BD3F80C01C0F308207047AB
:10214000254BD3F80801C0F308207047234B984271
:1021500004D0234B98420AD0002070471E4BD3F87E
:10216000203103F00F0301209840013870471A4BCB
:10217000D3F82031C3F30113012098400138704790
:10218000184B984207D003F5B01303F580539842DB
:102190000AD000207047104BD3F82831C3F3011345
:1021A00001209840013870470B4BD3F82801C0F349
:1021B0000120031D01209840013870470A4B9842C6
:1021C00007D1054BD3F8300100F003007047002021
:1021D00070470020704700BF00400E408006160088
:1021E00080162E0090171A00A009140008B5FFF7FA
:1021F00083FF013008BD000000F00F000138072800
:102200006DD8DFE800F0041B2C6C40516C5B3B4B3D
:10221000D3F8943003F00703023B052B0CD8DFE81A
:1022200003F0056003070B09022070470420704784
:102230000B2070470C207047052070472F4BD3F8B8
:10224000803003F00703022B4DD0042B05D0012B67
:1022500001D001207047032070470A207047274BA8
:10226000D3F8843003F00703013B032B09D8DFE8E0
:1022700003F0023C0604032070470A207047062042
:102280007047012070471D4BD3F8883003F00703D7
:10229000022B2CD0042B05D0012B01D0012070473C
:1022A000032070470A207047144B1B6F13F0010383
:1022B0001FD00BB109207047012070470F4BD3F896
:1022C0005C3103F03003202B05D0302B05D0102BD0
:1022D00011D001207047042070470820704700206B
:1022E0007047032070470220704702207047022089
:1022F0007047072070470720704700BF00400E401E
:1023000010B50446FFF778FF1C4B9C4212D01C4BC3
:102310009C4215D01B4B9C4206D0013803282BD879
:10232000DFE800F014171D1A174BD3F8800000F0F7
:102330000700F2E7144BD3F8840000F00700ECE745
:10234000114BD3F8880000F00700E6E701F0F2FC3B
:1023500013E001F0F5FC10E001F0EFFC0DE001F0FE
:10236000B1FC094BD3F80031C3F300635A1C0123BD
:102370009340B0FBF3F000E0002010BD030020000C
:102380000500240002001E0000400E4008B507486A
:10239000FFF732FF072804D0092805D101F06AFCB5
:1023A00008BDFFF7F3FDFBE70020F9E706000E008C
:1023B00008B10020704710B504460A48FFF71CFF1B
:1023C000072805D0082809D0042804D0204601E0B9
:1023D000FFF7DCFD10BD01F087FCFBE7FFF70CFE0B
:1023E000F8E700BFB800320008B500F47810B0F587
:1023F000A01F74D013D9B0F5001F00F0848031D92C
:10240000B0F5381F75D043D9B0F5401F00F08C806F
:10241000B0F5481F0ED10020FFF7CAFF41E0B0F52C
:10242000202F4AD008D8B0F5003F49D0B0F5802F12
:1024300038D0A0B3002034E0B0F5602F00F08280E7
:10244000B0F5801F00F08180B0F5402FF2D101F08F
:1024500011FC3F4BD3F81431C3F304230133B0FB19
:10246000F3F01EE0B0F5D01F51D0B0F5F01F32D020
:10247000B0F5B01FDED13748FFF742FF344BD3F839
:10248000202102F00F0201239340B0FBF3F008E09B
:10249000B0F5101FCED13048FFF732FF01E001F058
:1024A000E9FB08BD01F0E6FB294BD3F80C31C3F37F
:1024B00008230133B0FBF3F0F3E701F0DBFBF0E7B7
:1024C00001F0D8FB224BD3F80831C3F308230133C2
:1024D000B0FBF3F0E5E71F48FFF712FFE1E71E4806
:1024E000FFF70EFF1A4BD3F8303103F00303D84047
:1024F000D7E71848FFF704FF154BD3F82031C3F393
:102500000113D840CDE71548FFF7FAFEC9E7134895
:10251000FFF7F6FE0E4BD3F82821C2F30112012378
:102520009340B0FBF3F0BCE70C48FFF7E9FE084B23
:10253000D3F82831C3F301231A1D01239340B0FBC4
:10254000F3F0AEE7FFF722FFABE7FFF71FFDA8E7C9
:1025500000400E4002001E00050024000300200081
:1025600010B50C46C0F30313013B092B2AD8DFE852
:1025700013F00A002A002900340029002900400035
:102580006200B500F500FFF745FD8148FFF7DCFC70
:10259000804AD2F8003123F4F85343EA0424C2F805
:1025A000004101F08FFB7C4B1B68002BFBD17B4B68
:1025B0005968C1F30141FFF73FFD7948FFF714FF68
:1025C000FFF7C2FC10BD734AD2F8143123F4F8535C
:1025D00043EA0124C2F81441F4E76E4AD2F80C3100
:1025E00023F4FF3323F4807343EA0124C2F80C413F
:1025F000E8E7FFF70FFD6648FFF7A6FC654AD2F84B
:10260000083123F4FF3323F4807343EA0424C2F82F
:10261000084101F057FB604B1B68002BFBD15F4B5F
:102620005968C1F30141FFF707FD5D48FFF7DCFE84
:10263000FFF78AFCC6E75B4B98421AD05A4B984288
:1026400031D05A4B9842BDD1524BD3F8443113F09C
:10265000010F05D14F4BD3F8403113F4802FF9D13E
:102660004C4AD2F8303123F003031C43C2F8304106
:10267000A8E74B1CB3FA83F3C3F11F02454BD3F811
:10268000443113F0010F05D1424BD3F8403113F020
:10269000040FF9D13F49D1F8203123F00F03134340
:1026A000C1F820318EE74B1CB3FA83F3C3F11F024C
:1026B000384BD3F8443113F0010F05D1354BD3F823
:1026C000403113F0040FF9D13249D1F8203123F011
:1026D000300343EA0213C1F8203173E7344B9842C8
:1026E00021D003F5B01303F5805398427FF46AAF0D
:1026F0004B1CB3FA83F3C3F11B02264BD3F84431CE
:1027000013F0010F05D1234BD3F8403113F0400FE4
:10271000F9D12049D1F8283123F4407343EA022348
:10272000C1F828314EE74B1CB3FA83F3C3F11F0203
:10273000184BD3F8443113F0010F05D1154BD3F8E2
:10274000403113F0400FF9D11249D1F8283123F06C
:10275000300343EA0213C1F8283133E7134B9842A0
:102760007FF430AF0B4BD3F8443113F0010F05D198
:10277000084BD3F8403113F4802FF9D1054AD2F831
:10278000303123F003031C43C2F830411AE700BF85
:102790000148E80100400E40C800C64300300E402A
:1027A00000250A008006160080162E00A0091400DD
:1027B00090171A0008B50139FFF7D2FE08BD0000D6
:1027C000014B1868704700BF18000020013803282B
:1027D00018D8DFE800F00211070C0B4B186AC0F3A1
:1027E00008007047084B186900F07F007047064BDF
:1027F000986900F07F007047034BD3F89C00C0F34A
:102800000A0070470020704700400E4038B501387C
:10281000032811D8DFE800F0022B111EC1F30801D4
:102820001D4B1B68002BFBD11C4A136A23F4FF735A
:1028300023F001031943116238BD01F07F01184BE9
:102840001B68002BFBD1154A136923F07F03194342
:102850001161F1E701F07F01124B1B68002BFBD1E6
:102860000E4A936923F07F0319439161E4E70C4614
:102870000A4DD5F890306B6A23F0300343F0100313
:102880006B62C1F3C310FFF7B1FB2B6B0649194014
:10289000214301432963CFE76828C84300400E4025
:1028A0006028C8436428C84300F8FF0F124B5B6AD6
:1028B00013F0300F09D0202904D0302916D0A9B147
:1028C0000E4A04E04FF4000201E04FF440020A4BCC
:1028D000D3F8903032EA0303F9D112F4800F08D014
:1028E000054BD3F8A000C0F3802070474FF440029E
:1028F000EDE70120704700BF00400E40FF33E107C5
:1029000002280DD110B529B1064B4FF48064C3F8ED
:10291000A84059660AB9012010BDFFF7C7FFFBE7C1
:102920000120704700400E40F8B504287FD8DFE84A
:1029300000F0120D19030800022301260024354679
:1029400014E020231026042405250FE080234026D0
:10295000062407250AE04FF400734FF4807608241C
:10296000092503E0082304260224032500294DD06D
:10297000022830D000212E4B1E662E4B23449B0094
:102980001B68002BF9D0002A51D02A4C2C44A400FB
:102990002368002BF9D0022849D1002947D0244BC5
:1029A0005B6A13F0010F2CD001222021FFF7A8FF52
:1029B0000220FFF70BFF0546012200210220FFF74E
:1029C000B3FF29460220FFF721FF194B1E6623683B
:1029D000002BFCD02BE0164B5B6A13F0300F0ED1AE
:1029E000154BDB6B124B5B6A13F0010FC3D0104F1A
:1029F0007B6A23F0300343F010037B62BBE70021C6
:102A0000B9E700210220FFF751FFD1E708490B6623
:102A1000074BD3F890100123A3401942F8D132B1EB
:102A2000034BD3F890200123AB401A42F8D1F8BDF4
:102A300000400E408004F21000300E4070B5044695
:102A40000D4611280CD0002604F00F04013C072C81
:102A500000F28D80DFE804F01E651C8B638C8B9880
:102A6000042903D005290BD00026EDE701F03CF93D
:102A70000646002EE8D00021304600F0EBFAE3E7EE
:102A8000FFF79EFE0646594B9842F2D80026DBE738
:102A9000574C47E0023D0A2D69D8DFE805F00615DE
:102AA000090F6868686868183E000020042410E078
:102AB0005048FFF749FA022004460AE04D48FFF764
:102AC00043FA0320012404E00120032401E0032051
:102AD000052401221146FFF727FFFFF79BFA1EB1DD
:102AE000454B1B68002BFBD1444B5C674448FFF708
:102AF0007BFCFFF729FA01F0E5F83F4B1B68002B40
:102B0000FBD1404B5968C1F30141FFF795FA76BB01
:102B10000121002000F09EFA29E00724DDE73A4C6D
:102B200000E03A4C013D092D21D8DFE805F005070A
:102B30000E2020152020201E002317E00122114620
:102B40000020FFF7F1FE022310E00122114610469B
:102B5000FFF7EAFE012309E001F0B4F8FFF7F4F90A
:102B60002B4B01221A60032300E00423236070BD75
:102B7000072D05D0092DFAD1204B01221A67F6E75F
:102B80001E4B00221A67F2E7013D072DEFD801A383
:102B900053F825F0B52B00006F2B00006F2B0000C1
:102BA000C72B00006F2B00006F2B0000B92B00001B
:102BB000D52B000000210EE0012211460420FFF772
:102BC000B3FE012107E0012211460220FFF7ACFE0F
:102BD000022100E00321094AD2F85C3123F03003DE
:102BE00043EA0113C2F85C31C1E700BF002D310197
:102BF00084400E400148E801C800C64300400E4032
:102C000000250A0000300E4088400E4080400E40F3
:102C10000816C84370B504461120FFF7EDFA0122EB
:102C200000210220FFF780FE237C022B29D0002206
:102C3000154E736A23F00103134373622278134B1A
:102C40001A60A288637A43EAC223F362356B05F007
:102C50007F65E08845EAC025A07A0543207A45EAE9
:102C6000C015FFF7C3F928433063627BA37B1B01C8
:102C700043EA0233E27B1343227B43EA024373635A
:102C800070BD0122D4E700BF00400E40A004C8433D
:102C900038B505461120FFF7AFFA0D4A916B0D4B81
:102CA0000B402C781C436B7844EAC324AB7844EA8D
:102CB0000364EB7844EA0324936BA34206D0012219
:102CC00000210846FFF730FE014B9C6338BD00BF72
:102CD00000400E4080E4FFF8EFF3108072B67047BA
:102CE00000B962B67047EFF3108072B6704700B952
:102CF00062B670470C4B1B68002BFBD10B4B1A685C
:102D0000C2F301225B68C3F301439A4205D8074A24
:102D1000136823F0100313607047044A136843F0EC
:102D200010031360704700BFC800C64300300E4058
:102D3000074B1B6813F0100F05D0064B1B69C3F33C
:102D40000443082B00D07047034B044A1A60FAE78B
:102D500000300E4000400E4018000020C0EA210163
:102D60001A48C26CC2F30322194B1B8803F12801D5
:102D700003EB51032833013202EB8201B3FBF1F381
:102D8000013B072B28BF0723C16C21F0EE6141EA0C
:102D9000036343F48013C3640E4BB3F90030002B7C
:102DA00013DB9BB203F1280103EB510328335108D5
:102DB00001EB4202B3FBF2F3072B28BF0723026D9E
:102DC00022F0700242EA03130365704700300E40A0
:102DD000F6170020F817002010B500284BD03B4B09
:102DE0001B78C3F1020210239340394A136102F5A4
:102DF0008052D2F8804104F0010445F60E03C2F877
:102E00008031344B1B6803F0010003F010010843CC
:102E100003F04001084303F00401014303F480730D
:102E20000B4313662C4B1B68002BFBD1284B1B68F4
:102E300013F0100F0DD0294BD3F8403113F0807FE1
:102E4000F9D1274B1A68254B1A61264B1B78052BA5
:102E50002AD0244B1978052933D11E4B1B6813F057
:102E6000010F02D11D4B02221A661CB11B4B00221E
:102E7000C3F8802110BD194BD3F89020154B1A6070
:102E80001120FFF7B9F9174B1870134B1B68002B73
:102E9000FBD10F4B5B68C3F301430C4A13700F4B1C
:102EA0001A690F4B1A60E5E70F4B18680A4B1B684D
:102EB000002BFBD1064B5968C1F30141FFF7BCF869
:102EC000C7E71120FFF7BAFDC7E700BF01180020D0
:102ED00000300E40F0170020C800C64300400E40EE
:102EE000FC170020FA1700201800002070477047D8
:102EF00010B5044688B9FFF7FDFE0C4A136943F08C
:102F000004031361FFF7F2FF30BFFFF7F0FF44B98E
:102F1000FFF70EFF00F0D6FE10BD0020FFF75CFFAC
:102F2000E9E70120FFF758FFF6E700BF00ED00E0FA
:102F300010B5044608BBFFF7DDFE144BD3F8802123
:102F400045F60E01C3F880114FF42071196612F096
:102F5000010F02D00022C3F880210D4A136943F00B
:102F600004031361FFF7C2FF30BFFFF7C0FF44B98E
:102F7000FFF7DEFE00F0A6FE10BD0020FFF72CFFDD
:102F8000D9E70120FFF728FFF6E700BF00400E4019
:102F900000ED00E00B4B996921F4403141F4003120
:102FA000986940F440304AF6E8529A60002303E002
:102FB000044A916190610133032BF9DD014B996162
:102FC000704700BF00300E4008B5034B01221A6065
:102FD000FFF7E0FF08BD00BF0003C64308B5034B81
:102FE00000221A60FFF7D6FF08BD00BF0003C643EA
:102FF00070B504460E46144BD3F8003100F03AFE8B
:103000000546124B1B68002BFBD1114B5B68C3F3C9
:1030100001439C420DD0022C0CD0C4F102021023BB
:1030200093400B4A13611EB1084B1B68002BFBD168
:103030002CB170BD02212846FEF7FEFFEDE700210E
:103040002846FEF7F9FFF4E700400E40C800C643EB
:1030500000300E4038B50D460E4BD3F80031C3F3A7
:1030600004235C1C034650B10B4A127812B10B4A80
:10307000934209D929460020FFF7BAFF38BD00F076
:10308000F9FD04FB00F3EFE729460220FFF7B0FF4C
:10309000F4E700BF00400E4000180020FF2C310173
:1030A00008B5224A136F03F00703D26C12F0010F28
:1030B00008D0012B06D9132821D91438132820D879
:1030C000082325E0194AD26C12F0010F01D1012B1F
:1030D00008D9164AD26C12F0010F18D0012B08D96A
:1030E000002315E009280ED90A3809280DD808232D
:1030F0000EE0272801D910230AE0082308E0042362
:1031000006E0102304E0042302E0102300E0002383
:10311000013B1A0342EA03220449CB6C23F47F43A8
:103120001343CB64FFF71CFE08BD00BF00300E4008
:1031300008B5064B1B68064A136F23F007031843B4
:103140001067044B1888FFF7ABFF08BD8009C64322
:1031500000300E40F41700200A4B02229A63DA6B0B
:1031600042F48062DA63074B9B6F13F0010FFAD1D0
:10317000044B03221A64186C904214BF00200120F3
:10318000704700BF00300E4070B4072A2BD895005E
:103190000F24AC40A8401F4D2C601F4C2060002421
:1031A000072A2BD9A4000320A04001F00301A1406D
:1031B0001A4C20601A4801601A49114489000B60BA
:1031C000194B13449B009DF80C1019600123934088
:1031D0001649C1F82434164B13449B009DF8102067
:1031E0001A6070BC7047A2F10804A6000F25B54014
:1031F000B040104E3560104D2860D1E79400032098
:10320000A04001F00301A1400C4C20600C4801607B
:10321000D2E700BF00A4004400A400460CA4004470
:103220000CA4004680208510A020851000A000403E
:103230004021851004A4004404A4004608A40044CE
:1032400008A40046F0B414463AB143B300EB400280
:10325000160101258D40264A9551072927D8254E6C
:1032600045002F183A01324452688F004FF00F0C7E
:103270000CFA07FC22EA0C0204FA07F73A43054469
:103280002F013E44726044B94BBB00EB4000020189
:10329000012303FA01F1184B9950F0BC704700EB81
:1032A0004002160101258D40134A9551D5E7114F73
:1032B000460035182A013A44956801F18042083ADF
:1032C00092004FF00F0C0CFA02FC25EA0C0504FAF0
:1032D00002F22A4335182E013744BA60D3E700EBD7
:1032E00040000201012303FA01F1014B9950D4E798
:1032F0000CA0004600A000400CA0004400E0C36900
:10330000C36813F4807FFAD170470000002A37D0D9
:1033100070B50446164603F00305036823F44073B2
:1033200003602A0200F180634FF44070186004F1DA
:10333000C0631A6029B9134B9C4217D0124B9C42B0
:1033400019D02368114B5B5D03FB06F26AB1A1EB58
:10335000C6031344013BB3FBF2F3013B226812F0B6
:10336000020F01D003B90123236170BD0848FFF7A4
:103370003BF80146E5E70748FFF736F80146E0E786
:10338000704700BF00C0004000C4004028D00100CA
:10339000008204000092040000F10470400101600A
:1033A0007047000038B505460C46002303640A4BFD
:1033B000C3634A7882F0010200F10473DB00013339
:1033C0009B001A600B7B8A684968FFF79FFF217892
:1033D0002846FFF7E1FF38BDFFFF0700A74B9842E3
:1033E0001AD003F58063984240F04481A44B70B436
:1033F0009C68426B12F4C06F10D11978082900F252
:103400002881DFE811F01900380063007E00970082
:10341000B200DA00EF001C019A4BE8E712F4007FDB
:1034200004D0FD225A7009221A7013E012F4806F42
:10343000F9D0FE225A70F6E7618811F0100F10D013
:103440002288120A02F0060242F0F00201211970ED
:10345000C26241601A78092A00F00081012070BC24
:103460007047248804F0FE04224611F0020FEDD0CC
:1034700044F00102EAE712F0800F16D112F0400F7B
:10348000E8D04022C263628812F0100F16D112F009
:10349000020F18D007221A701A7904EBC20422898D
:1034A000012AD7D108224260D4E78022C263FF22DA
:1034B0005A7008221A7002224260CBE702221A7068
:1034C0002278C262C6E705221A7092E712F0800FD6
:1034D0000BD112F0400FBDD04022C263628812F0BF
:1034E000020F0BD003221A7083E78022C263FF22EF
:1034F0005A7008221A7002224260ABE705221A7045
:1035000077E7618811F0100F10D02288120A02F0BC
:10351000060242F0F00211F0040F01D042F0010265
:103520000421197001214160C26293E7228802F0F0
:10353000FE02F0E712F0800F0BD112F0400F89D09D
:103540004022C263628812F0040F0BD007221A7067
:1035500080E78022C263FF225A7008221A7002227A
:10356000426077E705221A7043E759881A7904EB1D
:10357000C2052D89A94216D3002159800132D2B249
:103580001A71618811F0040F0AD111F0010F02D1F4
:10359000012A7FF62EAF08221A700222426059E7F4
:1035A00003221A7025E704EBC20462684C1C5C809D
:1035B000525CC26206221A704CE712F0800F08D1EA
:1035C00012F0400F3FF446AF4022C26305221A704A
:1035D0000FE78022C263FF225A7008221A7002226B
:1035E000426037E712F0200F3FF434AF1E7904EB4E
:1035F000C6021289C169C9B25D88AA4205D904EB25
:10360000C60464686E1C5E80615559888A4209D878
:10361000012A04D008221A70022242601AE7082206
:103620004260F7E704214160012A7FF613AF598811
:10363000013A91427FF40EAF082242600AE712F489
:10364000807F3FF407AF4FF48072C26309221A7083
:1036500000E7FB225A7009221A70FBE6002202647E
:1036600093F90120012A02D093F90100F7E6002224
:103670005A70F9E76FF00300704700BF00C00040C8
:1036800010180020041800201D4B98422DD003F57F
:10369000806398422BD11B4B10B5826812F0010F4A
:1036A00001D0202242604A8812F0020F01D00C891A
:1036B00004B312F0040F01D00A8AF2B104460022CA
:1036C0001A70012058705A801A719960C023636083
:1036D0002046FFF713FE0C4BE363236C43F4FC63BB
:1036E00023642046FFF77AFE10BD084BD4E76FF045
:1036F000030070476FF00300F6E76FF00300F3E795
:1037000000C0004010180020FFFF07000418002030
:1037100010B5044601211148FEF79EFC237861781C
:10372000A27842EA012242EA03620D4B1A600022AB
:103730001A62DA625A634FF00042DA664FF0FF32E3
:103740009A66084A4FF40071C2F88011E3785B0171
:10375000DBB282F80933116010BD00BF00550A00CA
:1037600000200E4000E100E0F8B50C46C3B2012590
:103770009D400B68254E470007EB000C4FEA0C11EB
:103780003144C1F88030637BC1F8883094F80AC0B6
:10379000E37A1B0543EA0C4394F80CC043EA4C530C
:1037A000C1F8843022F00302C1F89820B566FFF713
:1037B0009AFAF36E2B43F366237A13B1736B2B43A0
:1037C0007363637A1BB1114AD36A2B43D3620F4BE5
:1037D0001B68227922B1D243120262F47F42134065
:1037E00062790AB143EA0223A2791AB1D24362F0A4
:1037F000FF021340E27902B11343044A1360044B01
:103800001D60D563FFF773FAF8BD00BF00200E40BE
:1038100028200E4410B5C0B201248440FFF763FA9B
:10382000084B1B6A234206D1064B9B6A34EA03030A
:1038300006D0002400E00024FFF759FA204610BD0E
:103840000124F9E700200E40054B5A685B68054BE0
:1038500041F671321A649A6822F001029A60704748
:1038600000300E4000000E40034B9A6822F0010227
:103870009A6000221A64704700000E40014B01223A
:103880009A60704700500E4010B4174B5C680023DC
:1038900018460DE0B2F5007F01D141F48071134A62
:1038A00052F83320224202D0214200D1104301338A
:1038B000082B16D80D4A02EBC30251680C4A126855
:1038C00012F0040FEBD1094A52F83320B2F5806FA1
:1038D000E3D0DFD9B2F5006FDFD0B2F5803FDED1A3
:1038E000DBE75DF8044B704700500E402CD0010020
:1038F000E841E00F014B1860704700BF00008442B0
:1039000003780BB30123427802B304221343827875
:10391000F2B110221343C278E2B12022134302799C
:1039200043EA0223427943EA02338279A2B14FF497
:1039300000421343C27943EA0243027A72B9002279
:103940001343084A136070470023DCE70022DDE7D9
:103950000022DFE70022E1E70022EAE74FF400322D
:10396000EEE700BF002004400B4A53699B0003F0C0
:103970003C031169C1F381110B438370136903F098
:103980003F034370936903F0F003D269C2F303125B
:1039900013430370704700BFD0FF0FE010B40B78E3
:1039A0000BB902234360002343628A78CB781B045F
:1039B00043EA02638A7943EA8223CA7943EA02230B
:1039C0000A7A13434A781AB3402213434A7A0AB355
:1039D000802213438A7AFAB120221343CA7AEAB1C9
:1039E000102213430A7BDAB1082213430A79CAB1C1
:1039F0004FF400524C79BCB14FF080542243134332
:103A000003600B780BB1012343605DF8044B7047F2
:103A10000022DAE70022DCE70022DEE70022E0E70E
:103A20000022E2E70022E5E70024E7E710B414787B
:103A300053781B0643EA8463947843EA0443D478BA
:103A400043EA0433147943EA8423547943EA042390
:103A500094792343D479C4B14FF080442343147A3A
:103A6000ACB14FF000542343547A94B11024234353
:103A7000947A84B900242343D27A43EA027306314C
:103A8000090143505DF8044B70470024E6E7002429
:103A9000E9E70024EBE70424EDE710B402234360D8
:103AA00000230360836140F6F772426103624FF6C0
:103AB000FF72C261436209E09A1D1201841800215D
:103AC0008150616000EB0312D1660133032BF3DDFB
:103AD0004CF68063C0F8B8300023C0F8A030C0F8BE
:103AE000A430C0F8A830C0F8AC300F23C0F8B43010
:103AF0005DF8044B704741F080018165704700001C
:103B000070B5054616461C46084641B1202C22D009
:103B100009D9402C1DD0602C1AD1042205E00F4891
:103B2000FEF762FCF2E79CB9102206FB02F2530892
:103B300003EB4010B0FBF2F02038094B03EAC00061
:103B40002B6823F060032B602B681C432C6068619A
:103B500070BD0622E9E70822E7E700BF4041050003
:103B6000F8FF7F00CB435B0003F00A03C360C16032
:103B70007047000040F6AA63C3600023036041F26F
:103B80000502426083604361C364134A8264036632
:103B900043678367C367114B98420BD003F580637B
:103BA000984207D003F58063984203D003F5806301
:103BB000984201D1002303650023836503F180430C
:103BC00003F58233984203D003F50063984201D194
:103BD0000023C365704700BFF9FF010000000140EA
:103BE00038B505460C46FFF7C5FFA37C1BB12B6813
:103BF00043F080432B60E37C33BB637B228A134317
:103C0000E28913436B60237BA26861682846FFF753
:103C100077FF637D1BB12B6843F480332B60A37D5A
:103C20001B0703F0E043E27D120502F4E0021343B8
:103C30002B666B6F23F030036B676B6F227E134331
:103C40006B672378EB6038BD217D2846FFF753FF73
:103C5000D3E7036913F0800FFBD0C069C0B270478F
:103C6000036913F0400FFBD0416370470048704771
:103C700000F049020F4BD3F8943003F00703032BF5
:103C800014D0042B04D0022B0DD00B4B186801E08C
:103C90000A4B1868074BD3F80031C3F304230133F0
:103CA000B0FBF3F07047064B1868F3E74FF40040A1
:103CB000F0E700BF00400E40180000201C0000206C
:103CC0001400002008B5FFF7D5FF054BD3F80831E5
:103CD000C3F308230133B0FBF3F0024B186008BDB7
:103CE00000400E4010000020014B1868704700BFD4
:103CF0001400002008B5064B1860064BD3F894302A
:103D000003F00703022B00D008BDFFF7DBFFFBE742
:103D10001400002000400E40044B054A9A60D3F87E
:103D2000882042F47002C3F88820704700ED00E05C
:103D3000000000004FF4004070474FF47A70704765
:103D4000014B1868704700BF1C00002008B5064BE7
:103D50001860064BD3F8943003F00703042B00D00F
:103D600008BDFFF7AFFFFBE71C00002000400E403E
:103D7000124B1B78F3B1F8B110B50446FEF7B3FF50
:103D80000023072B12DC0E4A02EB0312127B0AB14E
:103D90000133F6E723600A4A1B01D11801240C7392
:103DA0000024D450FEF7A3FF204602E0FEF79FFF59
:103DB000044810BD04487047044870479C1900200F
:103DC0001C180020048000F0028000F0018000F048
:103DD00000B583B0144B1B68019300238DF80430A9
:103DE000FEF781FF114B1B7833B9104B01221A707B
:103DF000FEF77DFF002309E0FEF779FF0C480FE096
:103E00000C4A02EB0312002111730133072BF7DD7B
:103E100004238DF807300DEB0300FFF779FC002039
:103E200003B05DF804FB00BF74D001009C190020B2
:103E3000038000F01C180020F8B5194B1F6EDB6ED4
:103E40001F4002D40126002402E0FEE70134760080
:103E5000072C24D83E42F9D0114B9E662301114A0B
:103E6000D358002BF2D002EB0415A9680131A960E8
:103E70006A682046984780F00103DBB26A7B012A1A
:103E8000E4D1002BE2D0084B03EB4413197B6FF312
:103E9000410119731A7F6FF341021A77D6E7F8BD13
:103EA00000200E401C1800209C18002010B504466D
:103EB0007CB194FAA4F0B0FA80F0C2B2012393402E
:103EC00024EA0304034B53F82230002BF0D0984728
:103ED000EEE710BDA0190020054B4FF48022C3F877
:103EE00080211A604FF48062C3F880211A60704705
:103EF00000E100E038B504460D46FEF7F4FE034B42
:103F000043F82450FEF7F3FE38BD00BFA01900208F
:103F100008B5084BD3F82804D3F81C24104020F42B
:103F20002A5020F02A004004400CC3F82404FFF774
:103F3000BDFF08BD00A0004008B5084BD3F8280419
:103F4000D3F81C24104020F4AA4020F055000004AF
:103F5000000CC3F82404FFF7A9FF08BD00A000402F
:103F60002DE9F84F0546002416E004EB8403DA003F
:103F70003B4B1344DB7F73BB394B134400221A774E
:103F800004EB8403DA00364B13449B691BB1344BBA
:103F9000134401225A770134032C5FDCA20022442F
:103FA000D1002F4B0B4400225A771B7F002BF2D0FD
:103FB0002B4B0B44D3E900BC4FF00009E14508BF8F
:103FC0005D45D2D2264B0B44BBEB05006CEB0901DF
:103FD000C3E90001DFE7A30023444FEAC30A204BF3
:103FE0009A44DAE9026732463B46B5EB0B0069EBCF
:103FF0000C0112F0A7FEB61A67EB0307B046B946EC
:10400000CAE90089DAF8100000280FDDDAF8143068
:104010000344CAF814301D2BB2D9013647F100070A
:10402000CAE900671E3BCAF81430A9E7A30023447D
:10403000D9000B4A0A4453691B1A53611D2B9FD99F
:10404000A1002144C800064A024416F1FF3647F198
:10405000FF37C2E900671E3B536191E7BDE8F88F67
:10406000F019002010B5002400E00134032C11DC0D
:1040700004EB8403DA00084B13445B7F002BF4D07D
:10408000A2002244D100044B0B449A69196A2046CD
:104090009047EAE710BD00BFF0190020F0B44FF0E0
:1040A000FF344FF0FF35002300E00133032B12DC17
:1040B00003EB8302D100194A0A44127F002AF4D08C
:1040C000164A0A44D2E90067AF4208BFA642ECD2C2
:1040D00034463D46E9E7124B00221A70B5F1FF3F26
:1040E00008BFB4F1FF3F17D022466FF064060027E7
:1040F000AF4208BFA64201D26FF06402094B1860BC
:10410000094B0421196210445865054A01211170B8
:104110005A6A42F004025A62F0BC7047F01900205B
:10412000E8190020E419002000200440074A536ADF
:104130009269134013F0010F06D0044B01221A625A
:10414000034A136801331360704700BF0020044026
:10415000901A0020F8B5FEF7C6FD0646184A536AC5
:1041600091690B4023F00501116213F0040F20D078
:10417000144B01221A70124B9D68114C636A23F094
:1041800004036362104F3868281AFFF7E9FEFFF74F
:1041900069FF2846FFF782FFA5683A68A91A636D90
:1041A0009B1A0A4A12780AB19942E6D2054B0022BC
:1041B0001A70FFF7BBFF3046FEF799FDF8BD00BF50
:1041C00000200440E0190020E4190020E819002034
:1041D000C000094BA3FB0023084A1068A0EB930022
:1041E00010F1800F03DB7F2803DD7F2001E06FF0FB
:1041F0007F0040B2704700BFCDCCCCCC941A0020D9
:10420000002305E0354A02EBC30235490A60013359
:10421000042B16DC314A52F83320002AF7D0304AFA
:1042200011680A68002AEDD02C4A02EBC30210790B
:104230000A799042EBD9294A02EBC30228490A6065
:10424000E5E7002305E0274A02EBC30226490A609E
:104250000133042B16DC234A52F83320002AF7D00E
:10426000214A11680A68002AEDD01E4A02EBC302F7
:1042700010790A799042EBD21A4A02EBC3021A492A
:104280000A60E5E7164B19680B68DBB1174AD3697A
:1042900023F0FF0309790B43D361136B43F0804391
:1042A0001363114B19680B6893B1104AD36923F457
:1042B0007F43097943EA0123D361136B43F0004341
:1042C00013637047094A136B23F080431363E8E7D5
:1042D000064A136B23F0004313637047A01A0020B3
:1042E000981A0020C81A00209C1A002000300E40A6
:1042F00008B5034B186AC0B2FFF76AFF40B208BDA9
:1043000000300E4038B5154A136B526A134012D470
:1043100013F0804F1ED0124B1B681C6834B1002272
:104320001A605A60FFF7E4FF0121A0470B4B4FF0E2
:104330008042DA620EE00B4B1B681C6834B100252A
:104340001D605D60FFF7D4FF2946A047034B4FF087
:104350000042DA62FFF754FF38BD00BF00300E4064
:10436000981A00209C1A002008B5FFF7CBFF08BD63
:10437000054BDB6813F0100F05D0034B10225A6178
:10438000024B01221A70704700800140F01A002091
:104390000246014603E0814200D901390132137817
:1043A00023B1082BF7D00B700131F7E70B70704782
:1043B00070B582B00646A2B112F044FE002202603F
:1043C00001A9304614F0DAFD12F03CFE0368D3B9BF
:1043D000019CA41B304613F0C8FE844216D0002076
:1043E00012E01446C90001258D40013D12F02AFE5D
:1043F0000022026001A9304614F050FE30EA0503A5
:10440000E2D0204600E0002002B070BD0120FBE7B2
:10441000002800F08D802DE9F84F044617460E461F
:10442000494913F098FE002800F08480204613F0DC
:104430009CFE804682462A21204613F07FFE60B112
:1044400008F1FF332344834201D0002073E0B8F128
:10445000010F72D0A8F1020B00E0C34600254FF017
:104460002E090DE0635D2A2B14D0994612E000223C
:10447000042157F82500FFF79BFF00285BD001358A
:10448000B54250DA5545EDDB04EB080313F8013C67
:104490002A2B54D1A9F16203152B52D801A252F84C
:1044A00023F000BF7F440000434500004345000067
:1044B00043450000434500004345000043450000DC
:1044C00043450000434500004345000043450000CC
:1044D00043450000434500004345000043450000BC
:1044E00043450000434500001945000043450000D6
:1044F0000B450000FD4400006F4400000022022133
:1045000057F82500FFF754FFB7E70022012157F8BD
:104510002500FFF74DFFB0E70122042157F82500E1
:10452000FFF746FFA9E7B345CCBF0020012002E01A
:10453000012070470120BDE8F88F0020FBE7002034
:10454000F9E70020F7E700BF18D101002DE9F0419D
:10455000044605460026374602E000200BE01035F1
:104560009DB1286888B113F000FE80466868002875
:10457000F3D013F0FAFDAB68002BF0D04745B8BF7D
:1045800047468642B8BF0646E9E7184813F0AAFC3A
:10459000174813F0A7FC0CE0164A7142164813F0B6
:1045A00019FCE16809B10B78A3B90A2013F02AFCC1
:1045B0001034C4B12268B2B1A3687BB179420F480C
:1045C00013F008FC6268002AE6D01378002BE4D1CF
:1045D000084AE2E70A4813F0FDFBE6E711460948FE
:1045E00013F0F8FBE1E70120BDE8F08178D001008D
:1045F00098D00100A4DA0100F4D00100F0D001004D
:10460000FCD0010000D101002DE9F04397B08146B4
:104610000F460846FFF7BCFE15AA3549384614F088
:104620001DFC00285ED006464C4618E001213846A5
:1046300008F0AEF94FF0000856E002AA691E606863
:10464000FFF7E6FE804620B1A36801A928469847F7
:104650002EE00221384608F09BF9EBE710342CB32A
:10466000256805B3A368002BF8D02946304613F01F
:1046700047FD0028F2D1019515AA1D4914F0EEFB63
:1046800006460125002ED8D016AB03EB850343F870
:10469000546C0135132DC9DC15AA1549002014F0FE
:1046A000DDFB0646EEE74FF0000801E04FF00008A2
:1046B00054B1236843B1B8F1000F15D1A6B1002160
:1046C000304608F065F90FE0B9F1000FF3D0094961
:1046D000384613F015FD0028EDD14846FFF736FFA8
:1046E0008046E8E74FF00108404617B0BDE8F08388
:1046F0000CD1010010D1010058B110B4044651B1E1
:1047000001600020A060E260236120715DF8044B2D
:104710007047012070470120F8E72DE9F04100289B
:1047200044D00546002944D08468A018EB6898421C
:1047300042D216462868204412F0E3FCAA683244AC
:10474000AA600027B8460BE000231370444512D13D
:104750000A2E16D001377FB204F101082E71013400
:10476000AA68A24213D92B681A191E5D0A2EEBD033
:104770000D2EF4D1E8E7296841442869FFF744FF8A
:10478000E6E72B790D2BE5D14445E3D1E4E7B8F119
:10479000000F02D13846BDE8F081A2EB0802AA6002
:1047A000286800EB080112F0B7FCF3E74FF0FF3781
:1047B000F0E74FF0FF37EDE76FF00107EAE708B5E4
:1047C0000022114614F06AFC08BD08B5002211460B
:1047D00014F0D4FB08BD08B57339042912D8DFE8FA
:1047E00001F00911060C03000421002207E0012159
:1047F000002204E00421012201E002210022FFF74F
:10480000D7FD08BD0020FCE70A290DD870B138B5E6
:104810000D460446FEF760FAA580002323806380DE
:10482000FEF75EFA012038BD002070470020704777
:1048300018B370B504460D46FEF74EFA6288A38899
:104840009A420FD22688164496FBF3F103FB1163BC
:104850009BB2023344F8235001326280FEF740FAE3
:10486000012070BD2288911C44F82150013292FB36
:10487000F3F103FB11232380F0E70020704770B5AC
:10488000B8B10446FEF728FA638883B12288911CE8
:1048900054F821500132A68892FBF6F106FB112252
:1048A0002280013B6380FEF71BFA284670BD00257D
:1048B000F9E70025F9E710B550B10446FEF70CFA08
:1048C0006488B4FA84F46409FEF70AFA204610BD3D
:1048D0000124FBE710B5B0F5007F03D94FF0FF349A
:1048E000204610BDFEF7F8F90023042B0FD803EB88
:1048F000C3118A0008498A580AB10133F5E703EB6E
:10490000C3118A00044901248C501C4601E04FF079
:10491000FF34FEF7E5F9E3E7F41A002010B5B0F133
:10492000FF3F16D0042816D80446FEF7D5F904EB4D
:10493000C4129300094AD3584BB104EBC414A3002A
:1049400014461C440434FEF7CBF9204610BD002465
:10495000F9E70024F9E70024F7E700BFF41A002084
:1049600038B50446FEF7B8F905462046FFF7D6FFEE
:1049700038B10649E001021993001A46CB58013BB1
:104980008B502846FEF7ACF938BD00BFF41A002062
:1049900038B50446FEF7A0F905462046FFF7BEFFEE
:1049A00038B10649E001021993001A46CB58013389
:1049B0008B502846FEF794F938BD00BFF41A00204A
:1049C00070B58EB00C460968012008F091FD0028F2
:1049D0003BD0474A0BAB07CA83E807000025049584
:1049E00001228DF814204FF47A72ADF816200222BD
:1049F0008DF818208DF819208DF81A208DF81B20BD
:104A000007AE93E8070086E807000B238DF82830EF
:104A10008DF829508DF82A506568042235492846BA
:104A200012F060FB98B901238DF818308DF81A3018
:104A3000A068FFF7C4FE80B243F2C823984213D99E
:104A40002D4A21212068FCF74FFC0EB070BD0222D8
:104A50002A49284612F046FB0028E9D0284A20219E
:104A60002068FCF741FCF0E7ADF82000ADF81C0031
:104A7000E068FFF7A4FE80B243F2C823984205D94C
:104A8000204A22212068FCF72FFCDEE7ADF8220047
:104A90000A38ADF81E002069FFF791FEADF8160048
:104AA00004A9194B186809F0E3FE014620B1174A22
:104AB0002068FCF719FCC8E724689DF81A0008F084
:104AC000F3FC05469DF8180008F0EEFCBDF8203018
:104AD000BDF82220BDF816100391029201930090B8
:104AE0002B460B4A0B492046FCF7A6FBADE700BF5F
:104AF0001CD10100B8D10100E4D10100C0D10100F6
:104B0000C4D10100FCD101004044002018D20100B2
:104B100048D2010050D2010070B505460C46096824
:104B2000012008F0E5FC98B1012D12DC0026022DD1
:104B300016DC00200EB3D0B11B4B186809F0D0FE74
:104B400005463DB3206865B3184A1949FCF774FB64
:104B500070BD6068FFF733FE061C18BF0126E6E74C
:104B6000A068FFF72CFE003018BF0120E2E70E4BD3
:104B7000186809F0B1FE0546E3E728B10A4B18684A
:104B800009F0B2FE0546DCE7074B186809F0A0FE05
:104B90000546D6E7074B01221A700B2007F0DEF816
:104BA000D0E7054AD1E700BF4044002028D10100EA
:104BB00034D101002000002048D2010038B50C4655
:104BC0000968012008F094FC00B938BD0A4B186848
:104BD00009F08EFE054630B120685DB1074A0849EC
:104BE000FCF72AFBF1E7074B02221A70802007F03E
:104BF000B5F8F1E7044AF2E74044002028D101006B
:104C000034D101002000002048D2010038B50C4604
:104C10000968012008F06CFC00B938BD0A4B18681F
:104C200009F06AFE054630B120685DB1074A0849BF
:104C3000FCF702FBF1E7074B02221A70E02007F0B5
:104C40008DF8F1E7044AF2E74044002028D1010042
:104C500034D101002000002048D201002DE9F043AA
:104C600085B005460C464868FFF7A9FD8146A06857
:104C7000FFF7A5FD8046E068FFF7A1FD0746206924
:104C8000FFF79DFD0646052D2FDC0025B9F1000F2D
:104C900032D10021B8F1000F01D041F004010FB171
:104CA00041F002010EB141F001010DB141F02001CE
:104CB0001A4B186809F094FE00BB2068B9F1000F88
:104CC00022D0174AB8F1000F20D0154B07B3144972
:104CD00006B3134C05B3124D02950194009111498E
:104CE000FCF7AAFA05B0BDE8F0836069FFF767FD3D
:104CF000051C18BF0125C9E70821CBE70A4A232173
:104D00002068FCF7F1FAEDE7084ADBE7074BDDE73F
:104D10000649DDE7054CDDE7044DDDE740440020B2
:104D200048D2010068D1010040D1010028D1010022
:104D300038B50C464868FFF742FD0546011C18BF10
:104D400001210A4B186809F00EFE30B9206855B1F0
:104D5000074A0849FCF770FA38BD074A2421206841
:104D6000FCF7C2FAF8E7054AF3E700BF4044002029
:104D700048D201000CD40100E8D3010028D1010081
:104D800038B50C464868FFF71AFD0546011C18BFE8
:104D900001210A4B186809F0D3FD30B9206855B1DC
:104DA000074A0849FCF748FA38BD074A2421206819
:104DB000FCF79AFAF8E7054AF3E700BF4044002001
:104DC00048D20100C0D301009CD3010028D10100CA
:104DD00070B506460C464868FFF7F1FC85B2022E16
:104DE0000EDC00222946094B186809F091FD246861
:104DF00002F03EFF024606492046FCF71DFA70BD50
:104E0000A068FFF7DCFCC2B2ECE700BF4044002022
:104E1000D4D3010070B506460C464868FFF7CFFCB6
:104E200085B2022E0EDC00222946094B186809F0D3
:104E300077FD246802F01CFF024606492046FCF775
:104E4000FBF970BDA068FFF7BAFCC2B2ECE700BF87
:104E50004044002020D40100F0B583B007460E4640
:104E6000002409E0651C56F82500FFF7A8FC02ABFA
:104E70001C4404F8080C2C46072CF3DD092F0FDC2A
:104E800000226946094B186809F052FD346802F0A7
:104E9000EFFE024606492046FCF7CEF903B0F0BD0E
:104EA000706AFFF78CFCC2B2EBE700BF4044002001
:104EB00084D301002DE9F0438BB080460F460024D7
:104EC0000494059406940794089409944FF6FF738C
:104ED000ADF80430ADF80630ADF80830ADF80A3062
:104EE000ADF80C30ADF80E3001261DE0EB00C3F13B
:104EF0002009A3F1200E20FA03F201FA09F942EA8F
:104F0000090221FA0EFE42EA0E020DF1280E734448
:104F1000634403F8182C0CF1010CBCF1070FE5DD1C
:104F20000336F6B20134E4B2022C25D8464523DA22
:104F300057F82600FFF743FC25460AAB03EB440372
:104F400023F8240C731CDBB2434515DA57F8230011
:104F5000FFF735FC0AAB03EB440323F81E0CB31C2C
:104F6000DBB2434508DA0022114657F8230014F05B
:104F700061F94FF0000CD0E701A9074B186809F060
:104F8000C3FC3C6802F074FE024604492046FCF76C
:104F900053F90BB0BDE8F08340440020B0D20100CB
:104FA00010B50C464868FFF70AFC0246034B186030
:104FB00003492068FCF740F910BD00BF0825002018
:104FC000C8D2010030B583B00D464868FFF7F7FB43
:104FD000044602464FF0FF31134B186809F0D6FC27
:104FE000B0B904F00201C4F34003104A13702868FA
:104FF00014F0010F12D00E4A91B10D4B14F0040FB2
:1050000010D00B4900910B49FCF716F903B030BDE5
:10501000094A1F212868FCF767F9F7E7074AEBE719
:10502000064BEBE70549EDE7404400200C25002046
:10503000DCD2010000D30100ECD20100E4D2010077
:1050400038B50D464868FFF7BAFB044602464FF0F4
:10505000FF310E4B186809F0AEFC60B914F0010482
:105060000FD002220A4B1A70286864B1094A0A4913
:10507000FCF7E2F838BD094A1F212868FCF734F92B
:10508000F8E70122EEE7064AF1E700BF40440020BE
:1050900020000020DCD2010074D3010060D30100A5
:1050A000E4D201002DE9F0410C464868FFF787FB88
:1050B0008046051C18BF0125A068FFF780FB074646
:1050C000061C18BF012629460F4B186809F09BFCE7
:1050D00020B9B8F1000F0BD00C4D00E00C4D31465B
:1050E000094B186809F0A2FC30B91FB9094B04E05C
:1050F000084DF4E7054B00E0054B2A4606492068B9
:10510000FCF79AF8BDE8F0814044002048D2010045
:105110003CD3010028D1010048D301002DE9F04F14
:1051200097B00446AB4B1868B0B9AB4B1D78002D57
:1051300000F05C82A94B1F7808A9204609F02DF8E1
:10514000BDF82230BA1C934209D2A54A936A0133B2
:10515000936217B0BDE8F08F09F026F9E5E7192B47
:105160000BD91923ADF82230BDF82430182B04D9FF
:105170001923ADF8243000230B93BDF824200A999D
:105180000CA811F0BEFF0B9949B1BDF82220BDF863
:105190002400121A92B20CAB184411F0B2FF7B1C1F
:1051A000D8B216AB3B4413F8281C8EB201F00703AB
:1051B000052B30D0BB1CDBB216AA104410F8282CEB
:1051C00041EA02210F4601F440568A0A02F03802F1
:1051D000480A00F006000243C1F3801002438148F0
:1051E00030F812C04FF6FF7294454BD0B6F5005F11
:1051F0004DD05A1CD2B216A8034413F828ECB6F5C9
:10520000005F4BD05FEA1C3040F0D381744A936A50
:10521000013393629DE711F0080F31D0BB1CDBB264
:1052200016AA104410F8286C41EA0626B20902F4C6
:105230000272F10901F010010A43710A01F0200124
:105240000A43B10801F4A0710A43B10101F44061BD
:105250000A43360206F44046324342F4005141F01C
:10526000050112F44C42ADD0B2F5084FAAD0B2F508
:105270000C4FA7D0B2F5484FA4D081F04001A1E770
:105280000346D3E7564A936A0133936261E711F408
:10529000807FAED01A464FF0000EB0E70023ADF885
:1052A00000308DF802300CF00F09104609EB0203B4
:1052B000BDF82280434504DD494A936A0133936275
:1052C00047E7B9F1000F0ED0531C16AE304410F86A
:1052D000280C8DF801000232D2B256FA83F313F88B
:1052E000283C8DF80230CCF303138DF808301344BA
:1052F00098451FDA3A4A936A0133936229E7531CAF
:1053000016AE324412F8286C16AA024402F8506C09
:105310000130C0B2DAB29DF808608642EFD2CCF319
:10532000032092468318984506DA2D4A936A013382
:1053300093620EE70120EEE778B1531C0DF1580B94
:10534000DA441AF828AC8DF805A00232D2B25BFA22
:1053500083F313F8283C8DF806304FEA1C338DF8A0
:105360001430134498452EDA1D4A936A0133936230
:10537000EFE602F1010C0DF15808424412F8288CB6
:1053800016AA1A4402F8448C0133DBB25FFA8CF29D
:105390009DF814C09C45ECD201F4A0723B0903F4C3
:1053A000406313430A0102F440421A4342F400539B
:1053B00043F00203BCF1000F16D09DF81570AA2F20
:1053C00003D0002511E00123E2E742F4005343F04B
:1053D00012030AE0082500200C25002020000020F0
:1053E0003033002038D401000025964A177807F1A1
:1053F000010816AA3A4402F8283CBA1CD2B24FEA75
:10540000132A0DF1580B5BFA88F808F828AC11F450
:10541000807F04D1F91C5A4402F828ECCAB2990AD8
:1054200001F038014FEA532E0EF0060E41EA0E014C
:10543000C3F380130B43844931F813104FF6FF7305
:10544000994246D011F00F0F13D0002846D0531CBC
:105450009DF805800DF1580E96440EF8288C023206
:10546000D2B29DF806E00DF1580858FA83F303F81C
:1054700028EC11F0F00F5FD111F4706F13D0B9F177
:10548000000F5BD0531C9DF801C016A8104400F813
:1054900028CC0232D2B29DF802000DF1580C5CFA11
:1054A00083F303F8280C11F4704F6FD1022F6FD0E3
:1054B000531C8DF830300CA9204609F0CFFA002893
:1054C0006FD1002D3FF445AE604A136A0133136279
:1054D0003FE65E4A936A013393623AE6B9F1000F00
:1054E00012D0531C9DF801800DF1580E96440EF811
:1054F000288C0232D2B29DF802E00DF1580858FA19
:1055000083F303F828ECB4E7504A936A01339362BB
:105510001FE602F1010E0DF15808984418F8448C6A
:105520000DF1580A524402F8288C0133DBB25FFABD
:105530008EF29C45EDD29FE70123FAE788B1531C18
:105540009DF805C016A8104400F828CC0232D2B24B
:105550009DF806000DF1580C5CFA83F303F8280C53
:10556000A1E73A4A936A01339362F2E5511C16A807
:10557000184410F8500C0DF1580C624402F8280C35
:105580000133DBB2CAB29E42F0D28FE70123FAE7C1
:1055900018238DF8303092FAA2F31B0E8DF83130BB
:1055A00089E7002D3FF4D5AD284A536A0133536291
:1055B000CFE50CF00F01CCF303131944CCF3032314
:1055C0000B441A44D2B21044BDF82230984204DD94
:1055D0001E4A936A01339362BBE516AB1A4412F874
:1055E000283CAA2B14BF0023012312E013A9204654
:1055F00009F031FA20B1154A936A01339362A8E5A4
:105600009DF85430032B10D09DF84C30AA2B12D0AB
:105610000023002B3FF49DAD204609F01AFA60B933
:105620000A4A136A0133136293E59DF84C30AA2BA2
:10563000EAD10123EDE70123EBE7044A536A013382
:10564000536286E52000002038D40100303300206A
:1056500000B583B002AA002302F8013D20211D20DD
:1056600002F0E6F9A8B903469DF8072012F0700F82
:1056700002D012F0070F06D1172220211D2002F0C0
:105680000DFA034618B9184603B05DF804FB03236E
:10569000F9E70223F7E700002DE9F04F2DED068B27
:1056A00085B0002800F00B810546002900F00A8132
:1056B00093460C46FFF7CCFF8246002840F0048159
:1056C00004AA002302F8013D23211D2002F0B0F9B5
:1056D0008246002840F0FE809DF80F30C3F301138E
:1056E000032B03D8DFE803F00E05080B9FED7C9B2E
:1056F0000AE09FED7D9B07E09FED7D9B04E09FED21
:105700007E9B01E09FED7E9B4FF0000904AE06F802
:10571000019D324628211D2002F08AF99DF80F8054
:10572000324629211D2002F083F99DF80F3008EB45
:1057300003281FFA88F88DF80F9032462A211D2081
:1057400002F076F99DF80F7032462B211D2002F0F1
:105750006FF99DF80F3007EB0327BFB28DF80F905C
:1057600032462C211D2002F063F99DF80F9032463D
:105770002D211D2002F05CF99DF80F6009EB062633
:10578000B6B20FFA88F010F02BFF57A3D3E900232D
:1057900011F0BAF853EC192B10F08CFF41EC180BF8
:1057A000C5E9000138B210F01BFF4FA3D3E9002375
:1057B00011F0AAF853EC192B10F07CFF41EC1A0BF6
:1057C000C5E9020130B210F00BFF47A3D3E9002373
:1057D00011F09AF853EC192B10F06CFF80468946B3
:1057E000C5E9048953EC182B51EC180B10F062FF3B
:1057F00006460F4653EC1A2B51EC1A0B10F05AFFC9
:10580000CDE9000142464B464046494610F052FF62
:105810008046894602460B46DDE9000110F094FD02
:1058200010F0E4F902460B4651EC180B10F0DCF9CD
:10583000C4E9000195ED028B42464B46304639469D
:1058400010F082FD10F0D2F902460B4651EC180B15
:1058500010F0CAF9C4E90201D5E90489DDE90023A1
:105860003046394610F070FD10F0C0F902460B4684
:105870004046494610F0B8F906460F46C4E90467A9
:10588000BBF1000F20D020A3D3E90023D4E900010D
:1058900010F010FFC4E900011BA3D3E90023D4E9F1
:1058A000020110F007FFC4E9020117A3D3E90023A6
:1058B0003046394610F0FEFEC4E9040104E04FF022
:1058C000010A01E04FF0010A504605B0BDEC068B1D
:1058D000BDE8F08F4FF0020AF6E700BFAFF300809B
:1058E000000000000000F03F00000000C0FFDF40AB
:1058F00000000000000010400000000000002040F8
:105900000000000000000040F8C1631ADCA54C4014
:1059100010B50C46064B186808F0E6FC236828B959
:10592000044A05491846FBF787FC10BD034AF8E70F
:105930004044002028D10100DCD4010048D20100FD
:1059400010B50C464868FEF73AFF011C18BF01214C
:10595000044B186808F0C0FC21460120FFF7D8FF6F
:1059600010BD00BF40440020F0B585B00868244950
:10597000FBF71AFC00243DE007EB8403214A02EB0D
:10598000C3035A5D20492148304412F099FB053683
:1059900001351F4B23449B78AB42EDDC002E1CDD10
:1059A000013E1A4B00229A5517E000263546F0E7D3
:1059B000184A0292154A019200913A46214610482F
:1059C000FBF718FC0137032F13DC114B23449B78A2
:1059D000002BEAD10D4B00221A700D4A135D2244B0
:1059E00091780D4A02EB8402D25D002AE0D00B4A86
:1059F000DFE70134012C01DC0027E4E705B0F0BD4E
:105A0000F0D40100482500202CD5010018250020E5
:105A10008825002028D101001025002048D201004F
:105A200070B505460E46402200211F4811F08DFB3F
:105A30001E4B00221A605A607068FEF7C0FE1C4BB5
:105A40005860023D032D00DD042500240BE0A31C5B
:105A500056F82300FEF7B3FE04EBD473144A02EBAE
:105A6000630398700134AC420DDA14F0010FEED1EB
:105A7000A31C56F82300FEF7A2FE04EBD4735B10C0
:105A80000B4AD054EEE70A490A4B186808F028FC84
:105A900028B1094A30213068FBF726FC70BD314639
:105AA0000120FFF761FFF9E74825002010250020BD
:105AB00088250020404400209CD501002DE9F043BA
:105AC00085B080460C464868FEF779FEC6B2A068ED
:105AD000FEF775FEC7B207EB8609012E01D8032F2A
